:020000040800F2
:10000000D0230020450100080D3300080D02000830
:10001000752D0008850B000831380008000000002D
:100020000000000000000000000000004533000850
:10003000D9120008000000009701000847330008AB
:100040005F0100085F0100085F0100085F01000810
:100050005F0100085F0100085F0100085F01000800
:100060005F0100085F010008511300085F010008EC
:100070005F010008A51200085F0100085F01000889
:100080005F0100085F0100085F0100085F010008D0
:100090005F0100085F0100085F0100085F010008C0
:1000A0005F0100085F0100085F0100085F010008B0
:1000B0005F0100085F0100085F0100085F010008A0
:1000C0005F0100085F0100085F0100085F01000890
:1000D0005F0100085F0100085F010008D1370008D8
:1000E0005F0100085F0100085F0100085F01000870
:1000F0005F0100085F0100085F0100085F01000860
:100100005F0100085F0100085F0100085F0100084F
:100110005F0100085F0100085F0100085F0100083F
:100120005F0100085F0100085F0100085F0100082F
:10013000DFF80CD000F0CAFB004800474B0900086C
:10014000D02300200648804706480047FEE7FEE728
:10015000FEE7FEE7FEE7FEE7FEE7FEE7FEE7FEE777
:100160001934000831010008EFF3108072B67047AF
:1001700080F310887047324A1368012B04D04FF087
:10018000010313602F4A10602F4A11602F484FF06F
:10019000805101607047EFF3108272B62848016801
:1001A00091B14FF0000101602648016829B1EFF3D9
:1001B000098121E9F00F0068016023490968096895
:1001C000B1E8F00F81F3098882F310884EF0040E35
:1001D00070471D4908601B494FF00000086018492E
:1001E0004FF0010008601A481A49D0F8002041EA8F
:1001F0000201016015484FF0805101601648006807
:10020000006880F3088861B662B670471EF0040F7C
:100210000CBFEFF30880EFF3098020E9F00F40F8FE
:1002200004ED1EF0040F0CBF80F3088880F30988EA
:1002300000B503F053FF5DF804EB4EF0040E704779
:10024000C01C0020101B00201C1B002004ED00E03F
:1002500020ED00E00000FFFF08ED00E040EA0103B0
:100260009B0703D009E008C9121F08C0042AFAD26C
:1002700003E011F8013B00F8013B521EF9D2704730
:10028000D2B201E000F8012B491EFBD270470022D8
:10029000F6E710B513460A4604461946FFF7F0FF85
:1002A000204610BDF0B480EA0102D40F4200B2EB48
:1002B000410F02D20246084611464A0042D0C30D01
:1002C000DDB2C1F3C752AD1A202D35DAC1F31601E4
:1002D00041F4000204B15242C5F1200602FA06F1CF
:1002E0002A411044B3EBD05F23D0C4B1012DA0EB61
:1002F000C35009DCF0BC4FF0004202EAC352DBB24B
:1003000000F5000000F057BA400000F1807000EBEB
:10031000C350A0F1807040EAD170490009E049085B
:1003200041EAC071A0EBC35000F50000400800EBAB
:10033000C350F0BC00F036BA6142012202EB410129
:10034000001BF6E7F0BC704781F00041AAE780F09F
:100350000040A7E780EA010210B502F00043400028
:1003600022D04A001FD0010E01EB1261C0F35600EB
:10037000C2F3560240F4000042F40002A0FB022047
:1003800000047F39140400D0401C50EA124001D40C
:100390004000491EC2B20C0604EBD010401C4008BD
:1003A000802A02D003E0002010BD20F001000029C7
:1003B00000DA0020184310BD2DE9FE4F804681EA87
:1003C0000300C00F0C46009021F0004123F00045CF
:1003D000B8EB0200A94105D24046214690461C4692
:1003E0000B46024623F00040104347D0270DC7F3C9
:1003F0000A00C3F30A510290401A019040286BDAB8
:10040000C3F3130040F4801B0098924620B10023F0
:10041000D2EB030A63EB0B0B01985946C0F1400283
:10042000504600F09EF906460D4650465946019A40
:1004300000F0A6F910EB08006141002487EA115290
:1004400084EAE7731A4340D0009A62B3019A012A02
:100450004FEA075215DC001B61EB02014FF000422E
:1004600002EA0752CDE90042001C41F580113246F4
:100470002B4600F0DDF903B0BDE8F08F4046214681
:10048000F9E7001B61EB0201001C41F58013001825
:100490005B412018A2F5001747EB030140EAD57035
:1004A000B6196D4111E06D084FEA360645EAC07590
:1004B0004FEA0752001B61EB0201001C41F580115D
:1004C00049084FEA30000019514132462B4603B02B
:1004D000BDE8F04F00F09DB90098012240000023D4
:1004E000D0EB020263EBE073009821464FEAE07420
:1004F000B8EB000061EB0401E9E783F000435BE740
:1005000081F0004158E72DE9FE4F81EA030404F031
:10051000004421F0004100944FF0000B23F0004311
:1005200050EA01045ED052EA03045BD0C3F30A54DC
:10053000C1F30A552C44A4F2F3340194A0FB0254F5
:10054000C1F3130141F48011C3F3130343F4801387
:1005500001FB024400FB034E840A970A44EA8154DB
:1005600047EA8357A4FB076802958D0A05FB0785B8
:100570004FEA932C04FB0C542705029D4FEA0658C2
:1005800047EA1637B5EB08056EEB070C870E920E9F
:1005900047EA811742EA8312A7FB0201B6EB0B017F
:1005A00064EB00042B0D43EA0C335E1844EB1C5043
:1005B000DA465146E7FB0201C5F313044FEA0B3359
:1005C00043EA14534FEA0432019C43EA0603A4F1C0
:1005D0000C040294009CCDE900B400F029F903B0AA
:1005E000BDE8F08F00200146F9E72DE9F04D81EAE2
:1005F000030404F0004B21F0004514464FF0000ABC
:1006000023F0004150EA050220D054EA01021DD037
:10061000C5F30A570246C5F31303C1F31300C1F330
:100620000A5640F4801543F48013A7EB0608101B0C
:10063000D64608F2FD3873EB050002D308F1010835
:1006400001E092185B41B8F1000F03DA0020014687
:10065000BDE8F08D00204FF48011064684460EE080
:10066000171B73EB050705D3121B63EB050306434A
:100670004CEA010C49084FEA300092185B4150EAFD
:100680000107EDD152EA030012D082EA040083EAA6
:100690000501084305D0101BAB4106D201220023FF
:1006A00006E000224FF0004302E06FF00102531019
:1006B0001AEB06004CEB085110EB0A0041EB0B0162
:1006C000BDE8F04D00F0A5B896230022114600F0D9
:1006D00072B800F0004220F00040C10DC0F31600D7
:1006E00040F400007F2901DA00207047962903DCDE
:1006F000C1F19601C84001E096398840002AF4D043
:100700004042704700F0004230F000400AD0C10D76
:1007100001F56071C0F3160042EA0151C2084007BA
:100720001143704700200146704701F0004330B488
:1007300021F0004150EA010206D00A0DA2F56072D4
:10074000C1F31301002A02DC30BC00207047440FC3
:1007500044EAC104C100E01830BC00EBC25000F014
:1007600021B8202A04DB203A00FA02F10020704769
:100770009140C2F1200320FA03F3194390407047DF
:10078000202A06DBCB17203A41FA02F043EAE07355
:1007900006E041FA02F3D040C2F120029140084342
:1007A000194670470029A8BF7047401C490008BF80
:1007B00020F00100704710B4B0FA80FC00FA0CF091
:1007C00050EA010404BF10BC704749B1CCF12004C9
:1007D00021FA04F411FA0CF118BF01212143084356
:1007E000A3EB0C01CB1D4FEA00614FEA102042BF82
:1007F000002010BC704700EBC35010440029A4BF78
:1008000010BC7047401C490008BF20F0010010BC1C
:10081000704710B5141E73F1000408DA401C41F152
:10082000000192185B411A4301D120F0010010BD74
:100830002DE9F04D92469B4611B1B1FA81F202E0EA
:10084000B0FA80F220329046FFF78BFF04460F4645
:1008500040EA0A0041EA0B0153465A46084313D0C6
:10086000114653EA010019D0C8F14002504600F089
:100870003FF805460E46504659464246FFF771FF7F
:10088000084305D0012004E020463946BDE8F08D3C
:100890000020054346EAE0762C4337430A98630577
:1008A000E40AA0EB08000022FD0A44EA47540A309B
:1008B00002D500200146E9E7010510196941DDE98B
:1008C000084500196941BDE8F04DA2E7064C074D07
:1008D00006E0E06840F0010394E807009847103410
:1008E000AC42F6D3FFF728FC20550008405500081D
:1008F000202A04DB203A21FA02F00021704721FA75
:1009000002F3D040C2F120029140084319467047DB
:1009100030B58C1810F8012B12F00F0301D110F82C
:10092000013B120906D110F8012B03E010F8015B1E
:1009300001F8015B5B1EF9D101E001F8013B521E99
:10094000FBD1A142E6D3002030BD80B504F0D2FC3B
:10095000002080BDB0B54FF0000E4FF0070C0A0626
:1009600004BF5FFA8EF0B0BD80220FE005788CEAFC
:100970004E042A400EF0800518BF0122B2EBD51FAD
:100980004FEA530208BF4FEA4E04A646D3B2002BEB
:10099000ECD101390130E2E780B5A8B1D0F804C04C
:1009A000BCF1000F10D090F808E0002309E002EB42
:1009B000420201335CF82200884204BF0CEB820043
:1009C00080BDDAB27245F2D9002080BDF0B585B0A5
:1009D00006460020002ECDE90200CDE900002DD012
:1009E0003046FFF7D9FF044640B32078012702AD17
:1009F00067F39F108DF80800717AA268307800299B
:100A000018BF0132511CCAB2294601F0CBFF767AD9
:100A1000012E16D12078694667F39F108DF80000EB
:100A2000A068023002E0AB5C01378B54FAB290420E
:100A3000F9DCC1B26846FFF78DFF03E04FF0FF30ED
:100A40002FE00020022E18D1217801206A4660F3A1
:100A50009F118DF80010A168023102E0EF5C0130B7
:100A6000D754C3B29942F9DC00206A4603E012F879
:100A7000013B013958400B06F9D1000602D06FF056
:100A800001000EE0002001226060A16806E007027C
:100A900001326760EB5C43EA00206060D3B29942A8
:100AA000F5DA05B0F0BDE0B501464FF0FF300029A2
:100AB000CDE9000004D008786946082201F0B8FFAB
:100AC00002B080BD2DE9FC4104460020002CCDE998
:100AD00000002FD0C9B22046FFF75EFF054648B39D
:100AE000287800216E4600F03F008DF8000068680D
:100AF00003E0BA1A0131B0540012AF68CAB297428B
:100B0000F7DC94F80980B8F1000F07D0781CC1B267
:100B10003046FFF71FFFF1194870AF680220B8F1A7
:100B2000000F694608BF01203844C2B2207801F0A6
:100B30007FFF01E04FF0FF3002B0BDE8F081000020
:100B40000138072888BF7047DFE800F004070A0D66
:100B500010131619012000F0FFBB022000F0FCBBAF
:100B6000032000F0F9BB042000F0F6BB052000F0E4
:100B7000F3BB062000F0F0BB072000F0EDBB08201F
:100B800000F0EABBFEE70000F8B5DFF848040078A3
:100B9000072888BFF8BDDFE810F061000800D30027
:100BA000080041010800AF010800DFF82C04DFF85D
:100BB0002C1400680968FFF775FBDFF82414096836
:100BC000FFF770FBDFF81C140968FFF76BFBDFF819
:100BD00018140968FFF766FBDFF810140968FFF7BF
:100BE00061FBDFF80C140968FFF75CFBDFF8041405
:100BF0000968FFF757FB4FF07851FFF7ABFBDFF8C1
:100C0000F843DFF8FC136060DFF8F0030968006860
:100C1000FFF748FBDFF8EC130968FFF743FBDFF849
:100C2000E8130968FFF73EFBDFF8E0130968FFF7F8
:100C300039FBDFF8DC130968FFF734FBDFF8D41366
:100C40000968FFF72FFBDFF8D0130968FFF72AFBCD
:100C50004FF07851FFF77EFB2060F8BDDFF8780396
:100C6000DFF8781300680968FFF71CFBDFF87013E2
:100C70000968FFF717FBDFF86C130968FFF712FB31
:100C8000D9490968FFF70EFBD8490968FFF70AFB45
:100C9000D7490968FFF706FBD6490968FFF702FB49
:100CA0004FF07851FFF756FBD34FD5490446B86053
:100CB000D24809680068FFF7F5FAD2490968FFF7DA
:100CC000F1FAD1490968FFF7EDFAD0490968FFF751
:100CD000E9FACF490968FFF7E5FACE490968FFF755
:100CE000E1FACD490968FFF7DDFA4FF07851FFF7D7
:100CF00031FBF86005462146D7E90060FFF724FB89
:100D0000FFF700FDC54B0022FFF7FDFB04460F4631
:100D100030462946FFF718FBFFF7F4FC02460B4666
:100D200020463946FFF761FCFFF7FFFCBC49C8606D
:100D3000FFF7CFFC0146BBA0BDE8F84003F006BBBF
:100D4000A548A64900680968FFF7ACFAA4490968F4
:100D5000FFF7A8FAA3490968FFF7A4FAA2490968AE
:100D6000FFF7A0FAA1490968FFF79CFAA0490968B2
:100D7000FFF798FA9F490968FFF794FA4FF0785106
:100D8000FFF7E8FA9C4F9E490446B8609B48096803
:100D90000068FFF787FA9B490968FFF783FA9A49C9
:100DA0000968FFF77FFA99490968FFF77BFA9849C4
:100DB0000968FFF777FA97490968FFF773FA9649C8
:100DC0000968FFF76FFA4FF07851FFF7C3FAF86040
:100DD00005462146D7E90060FFF7B6FAFFF792FC17
:100DE0008E4B0022FFF78FFB04460F463046294604
:100DF000FFF7AAFAFFF786FC02460B462046394663
:100E0000FFF7F3FBFFF791FC85490860FFF761FCF2
:100E100001468DA0BDE8F84003F098BA6E486F49CE
:100E200000680968FFF73EFA6D490968FFF73AFA6A
:100E30006C490968FFF736FA6B490968FFF732FA1F
:100E40006A490968FFF72EFA69490968FFF72AFA23
:100E500068490968FFF726FA4FF07851FFF77AFAE8
:100E6000654F67490446B860644809680068FFF741
:100E700019FA64490968FFF715FA63490968FFF729
:100E800011FA62490968FFF70DFA61490968FFF72D
:100E900009FA60490968FFF705FA5F490968FFF731
:100EA00001FA4FF07851FFF755FAF86005462146F0
:100EB000D7E90060FFF748FAFFF724FC574B002200
:100EC000FFF721FB04460F4630462946FFF73CFA60
:100ED000FFF718FC02460B4620463946FFF785FB14
:100EE000FFF723FC4E494860FFF7F3FB014653A090
:100EF000BDE8F84003F02ABA374838490068096865
:100F0000FFF7D0F936490968FFF7CCF93549096888
:100F1000FFF7C8F934490968FFF7C4F9334909688C
:100F2000FFF7C0F932490968FFF7BCF93149096890
:100F3000FFF7B8F94FF07851FFF70CFA2E4F304910
:100F40000446B8602D4809680068FFF7ABF92D49E1
:100F50000968FFF7A7F92C490968FFF7A3F92B499E
:100F60000968FFF79FF92A490968FFF79BF92949A2
:100F70000968FFF797F928490968FFF793F94FF0D7
:100F80007851FFF7E7F9F86005462146D7E9006098
:100F9000FFF7DAF9FFF7B6FB204B0022FFF7B3FAB1
:100FA00004460F4630462946FFF7CEF9FFF7AAFB65
:100FB00002460B4620463946FFF717FBFFF7B5FB05
:100FC00017498860FFF785FB014619A0BDE8F84086
:100FD00003F0BCB9200900201C04002024040020D8
:100FE0002C040020340400203C0400204404002091
:100FF0004C040020540400205C0400202004002045
:101000002804002030040020380400204004002080
:101010004804002050040020580400200088A34009
:10102000280900205234203A2025640D0A000000CF
:101030005233203A2025640D0A0000005232203A33
:101040002025640D0A0000005231203A2025640D4D
:101050000A000000F8B5904D2878072888BFF8BD31
:10106000DFE800F004333E6D78A8B3E78B4C8C4E7C
:10107000202100222046B04720464FF48051012213
:10108000B047204640210122B04720464FF400617E
:101090000022B047204601210122B04720464FF4EC
:1010A00000710022B047204602210122B0472046AD
:1010B0004FF480710022B047204604210122B0473E
:1010C000A4F500604FF4004172E0744C744E20218E
:1010D00001222046B04720464FF48051002209E00B
:1010E0006E4C6F4E202100222046B04720464FF420
:1010F00080510122B047204640210022B0472046BF
:101100004FF400610122B047204601210122B0477F
:1011100020464FF400710022B047204602210122F0
:10112000B04720464FF480710022B047204604218A
:101130000022B047A4F500604FF4004173E0574C23
:10114000574E202101222046B04720464FF48051BF
:10115000002209E0514C524E202100222046B04787
:1011600020464FF480510122B047204680210122C1
:10117000B04720464FF480610022B047204601214D
:101180000022B04720464FF400710122B0472046AC
:1011900002210022B04720464FF480710122B0475F
:1011A000204608210122B047A4F500604FF4804199
:1011B000002239E0394C3A4E202101222046B04726
:1011C00020464FF48051002209E0344C344E202157
:1011D00000222046B04720464FF480510122B047FC
:1011E000204680210022B04720464FF48061012232
:1011F000B047204601210022B04720464FF400713D
:101200000122B047204602210022B04720464FF479
:1012100080710122B047204608210022B047A4F582
:1012200000604FF480410122B0472878461C2E70A0
:10123000F8BD1A4C1A4F202101222046B8472046FB
:101240004FF4805100220026B84720464021012259
:10125000B84720464FF400610022B84720460121DC
:101260000122B84720464FF400710022B8472046BB
:1012700002210122B84720464FF480710022B8476E
:10128000204604210122B847A4F500604FF4004134
:101290000022B847CBE700BF20090020001401401E
:1012A000071D0008014800F0B7BA00BFE809002098
:1012B00010B5D0E90FCE012404FA0EF4CCF80440A6
:1012C0000468636040681028084608BF1046A060A4
:1012D00008BF0A46E26010BD7047000001380728C9
:1012E00088BF7047DFE800F0040B10161C22282E80
:1012F000364810210122A0F5805000F004BD33488B
:101300008021012200F0FFBC30484FF4807101229F
:1013100000F0F9BC2D484FF40071012200F0F3BC3D
:101320002A484FF48061012200F0EDBC27484FF4B9
:101330000061012200F0E7BC24484FF480510122F3
:1013400000F0E1BC21484FF40051012200F0DBBC69
:10135000102000F0E9BB00000138072888BF704763
:10136000DFE800F0040B10161C22282E174810216D
:101370000022A0F5805000F0C6BC14488021002255
:1013800000F0C1BC11484FF48071002200F0BBBCDA
:101390000E484FF40071002200F0B5BC0B484FF42A
:1013A0008061002200F0AFBC08484FF400610022C9
:1013B00000F0A9BC05484FF48051002200F0A3BC06
:1013C00002484FF40051002200F09DBC001801407B
:1013D000EFF3108072B6FEE7F8B51F2003F06AFB4A
:1013E000BF4D28780F2800F23781DFE810F0100099
:1013F0001A00370041005E00680085008F00AC00D5
:10140000B600D300DD00FA00040121015201BD4CF9
:1014100004212046FFF7DAFA686001F079FFE860FE
:101420000FE1B84C04212046FFF7D0FAA86001F084
:101430006FFFAD4E286148F261001021B065204673
:10144000FFF740FB0120FFF749FF022068704FF4CF
:10145000007030612878013028700CE1A84C04211C
:101460002046FFF7B3FA686001F052FF6861E8E0D8
:10147000A34C04212046FFF7A9FAA86001F048FF19
:10148000994EA86148F261001021B0652046FFF72F
:1014900019FB0220FFF722FF032068704FF4007051
:1014A0003061287801302870E7E0944C0421204610
:1014B000FFF78CFA686001F02BFFE861C1E08F4C08
:1014C000042104262046FFF781FAA86001F020FFDE
:1014D000854F286248F261001021B8652046FFF769
:1014E000F1FA0320FFF7FAFE4FF400706E703861D6
:1014F000287801302870C2E07F4C04212046FFF795
:1015000065FA686001F004FF68629AE07A4C042191
:101510002046FFF75BFAA86001F0FAFE724EA8625F
:1015200048F261001021B0652046FFF7CBFA042095
:10153000FFF7D4FE052068704FF400703061287802
:10154000013028709DE06B4C04212046FFF73EFAE5
:10155000686001F0DDFEE86273E0664C042120461D
:10156000FFF734FAA86001F0D3FE5F4E286348F21B
:1015700061001021B0652046FFF7A4FA0520FFF7AF
:10158000ADFE062068704FF400703061287801309D
:10159000287078E0564C04212046FFF717FA68605F
:1015A00001F0B6FE68634CE0514C04212046FFF781
:1015B0000DFAA86001F0ACFE4B4EA86348F2610042
:1015C0001021B0652046FFF77DFA0620FFF786FE62
:1015D000072068704FF4007030612878013028705F
:1015E00053E0424C04212046FFF7F0F9686001F017
:1015F0008FFEE86325E03D4C04212046FFF7E6F925
:10160000A86001F085FE384E286448F26100102180
:10161000B0652046FFF756FA0720FFF75FFE082067
:1016200068704FF4007030612878013028702EE027
:101630002C4C04212046FFF7C9F9686001F068FED0
:101640006864294848F26201816520461021FFF74D
:1016500039FA28780130287023484FF4007101616D
:1016600068780138072888BFF8BDDFE800F0320449
:1016700006080A0C0E1022482CE020482AE01E48DA
:1016800028E01C4826E01A4824E0184822E01548C3
:1016900020E0144C04212046FFF798F9A86001F0DF
:1016A00037FE114EA86448F261001021B065204653
:1016B000FFF708FAFFF7CEFC02F0C2F903F068F872
:1016C0000820FFF70BFE4FF4007030614FF480707C
:1016D00028800C480121BDE8F840FFF7F3B900BFAE
:1016E00010040020A8030020100000209C0300200C
:1016F0009003002084030020780300206C03002066
:10170000600300205403002090F82110022912D118
:10171000016801230A6822F00E020A600A6822F0BA
:1017200001020A60D0E90F1203FA02F24A600021B6
:1017300080F8213002E0042181630121002280F839
:10174000202008467047000090F82110022919D186
:101750000268116821F00E011160116821F0010189
:101760001160A04901F17C039A420FD9A54B9A421E
:1017700024D0A54B9A4223D0A44B9A4222D14FF4B5
:10178000807327E004218163012143E0964B9A4254
:1017900026D0964B9A4225D0954B9A4224D0954B11
:1017A0009A4224D0944B9A4217D0944B9A4221D01B
:1017B000934B9A4211D14FF080721DE0012309E052
:1017C000102307E001F5886C4FF48033624508BFB1
:1017D0004FF48053C1F800340FE04FF480320BE037
:1017E000012209E0102207E04FF4807204E04FF478
:1017F000805201E04FF480120A600021012280F83B
:10180000201080F82120426B22B180B59047002142
:10181000BDE880400846704710B5D0E90FC3DCF83A
:101820000020D0F800E0DEF8001011F0040F1EBF19
:1018300004249C4014EA020424D18C073ED50224DF
:101840009C4014403AD0DEF8001011F0200F08D16F
:10185000DEF8001021F00A01CEF80010012180F816
:101860002110604A02F17C018E4542D965498E45BE
:101870006FD065498E456ED064498E456DD14FF469
:10188000007172E0DEF80010564A11F0200F02BF1E
:10189000DEF8001021F00401CEF8001002F17C0106
:1018A0008E453ED957498E4562D057498E4561D005
:1018B00056498E4560D14FF4806165E0090740F1DB
:1018C000908008219940114008BF10BDDEF800103B
:1018D00021F00E01CEF80010012101FA03F2CCF83C
:1018E00004200022816380F8202080F82110016B01
:1018F00073E03D498E4550D03C498E454FD03C4920
:101900008E454ED03B498E454ED03B498E453ED00C
:101910003A498E454BD03A498E4538D14FF0007147
:1019200047E031498E454AD030498E4549D030494B
:101930008E4548D02F498E4548D02F498E4529D015
:101940002E498E4545D02E498E4523D14FF08061DA
:1019500041E0022109E0202107E002F588634FF40D
:1019600000319E4508BF4FF40051C2F8001421E039
:10197000042109E0402107E002F588634FF480214B
:101980009E4508BF4FF48041C2F8001424E04FF494
:1019900000310EE04FF480211DE0022109E02021FA
:1019A00007E04FF4007104E04FF4005101E04FF400
:1019B00000111160002180F82010816A0DE00421DF
:1019C00009E0402107E04FF4806104E04FF48041DA
:1019D00001E04FF480011160C16A11B1BDE810400F
:1019E000084710BD04000240080002401C000240ED
:1019F0003000024044000240580002406C000240A7
:101A000080000240080402401C04024030040240EE
:101A100001460120002908BF7047B0B502221C4CC6
:101A200081F82120194A0B6802F1080C634538BF80
:101A3000A2F5806238BF04F5806403EB040C142423
:101A4000BCFBF4F4A400C1E90F2443F6F0741A6857
:101A500022EA040CD1E90142D1E903E544EA0C048D
:101A6000224342EA0E022A434D692A438D692A43E2
:101A7000CD692A431A6000228A6381F8202081F808
:101A800021000020BDE8B040704700BF00040240C4
:101A9000F8FBFDBF10B5044690F82000012820D0C7
:101AA000012084F8200094F82100012816D102209A
:101AB00084F821000020A063D4F800C0DCF8000006
:101AC00020F00100CCF800002046FFF7F1FB206871
:101AD000E26A01683AB141F00E010AE0002084F8A0
:101AE000200002200BE021F004010160016841F0B8
:101AF0000A010160016841F0010101600020C0B2EB
:101B000010BD000080B5C00658BF80BD054840210B
:101B100000F0ECF800B180BD01F096FFBDE8804018
:101B200002F036BE0008014003490A68024214BFB1
:101B300008607047FFF7E6BF140401402DE9FC4F31
:101B400081465F4806234FF0000C4FF001084FF02C
:101B50000F0E4FF0000A81455A4808BF052348443C
:101B60004FEAB022052A4FF0000238BF4FEAB023F7
:101B700000930C6834FA02F508BFBDE8FC8F08FA40
:101B800002F73C4200F098804D68032D16D9112DC4
:101B900026D0122D28D04E48854213D04D4885427C
:101BA00010D04D4885420DD04C4885420AD04C4853
:101BB000854207D04B48854204D022E0DFE805F09B
:101BC00002181B1F8C6844B1012C4FF0080A14BF87
:101BD000C9F81470C9F8107013E04FF0040A10E04F
:101BE000CC6804F1040A0CE0CC6804F10C0A08E0AB
:101BF000D1F80CA005E0CC6804F1080A01E04FF030
:101C0000000A082A6446484628BF203C28BF043002
:101C100006680EFA04F50AFA04F426EA05052C43D0
:101C20000460C879C00647D57948274E22F00305DD
:101C300003460068B346354440F001001860186858
:101C4000294B00F0010001900CF00C00019E0EFAEF
:101C500000F49E46EE58009B03FA00F026EA0404C6
:101C60001A4B204345F80E004FF00F0E4D68DBF87D
:101C7000080015F4801F0CBF20EA070440EA07049F
:101C8000A802CBF80840186854BF20EA070440EACD
:101C90000704A8031C60DBF8040054BF20EA070413
:101CA00040EA0704E803CBF80440DBF8000054BF27
:101CB000B8433843CBF800000CF1040C013258E76C
:101CC000001C014000F8FEBF000401400C0401406C
:101CD000000011100000121000002110000022105E
:101CE000000031100000321008FCFFFF806808403F
:101CF00018BF01207047C26802EA0103914341EA1C
:101D0000034101617047002A08BF0904016170475F
:101D100030488068704700BFB0B5044618B32068EB
:101D20004CF6CC41016045F255510160616841605B
:101D3000A1688160FFF7ECFF05462068C16811F0DB
:101D4000030F0BD0FFF7E4FF401B2828F5D32068D2
:101D5000C06810F0030FF0D0032005E04AF6AA2176
:101D60000160002000E00120C0B2B0BD00684AF66A
:101D7000AA2101600020704780B50748016841F042
:101D800010010160032000F089F80F2000F006F830
:101D900000F022F8002080BD0020024070B50D4EFA
:101DA00004464FF47A713078B1FBF0F09A49096833
:101DB000B1FBF0F000F01AFB01250F2C08D838B960
:101DC0004FF0FF3021460022002500F045F87460F6
:101DD000284670BD0000002082B00D480222016834
:101DE00041F001010160016801F0010101910199D7
:101DF000416841F080514160406800F0805000909F
:101E000000980448016862F31A61016002B07047EB
:101E1000181002400400014000280CDB00F01F01F4
:101E20000122400902FA01F1034A42F82010BFF3EF
:101E30004F8FBFF36F8F704780E100E0002808DB11
:101E400000F01F010122400902FA01F1014A42F8A3
:101E50002010704700E100E010B5164B1B68C3F37B
:101E6000022E0EF1040CAEF103048EF00703BCF158
:101E7000070F4FF0010C38BF0024042B28BF0423A8
:101E80000CFA03F3013B19400CFA04F3013BA140A7
:101E90001A401143BDE8104001F0CCBC05494FF693
:101EA000FF030A681A4060F30A22034810430860DF
:101EB000704700BF0CED00E00000FA052DE9F0418D
:101EC00088460446002800F08880464F4FF4805032
:101ED000395801F0070141450AD2395821F007016C
:101EE00041EA08013950385800F00700404574D1E4
:101EF000206810F0020F11D0410742BF796841F409
:101F0000E0617960010742BF796841F4605179600E
:101F10007968A26821F0F00111437960C00727D0E9
:101F20006068012804D1396811F4003F08D154E0F9
:101F30003968022802D1890102D44EE089074CD5C4
:101F4000796821F0030108437860FFF7E1FE064657
:101F500041F288357868616800F00C00B0EB810FC1
:101F600006D0FFF7D5FE801BA842F3D9032035E049
:101F70004FF48050395801F0070141450AD93958CA
:101F800021F0070141EA08013950385800F00700F4
:101F9000404522D1206810F0040F05D07968E2682E
:101FA00021F4E06111437960000706D57868216962
:101FB00020F4605040EAC100786000F031F87968A0
:101FC000094AC1F30311515CC8401349086007482E
:101FD0000068FFF7E3FE002000E00120C0B2BDE88A
:101FE000F08100BF00100240705300080400002080
:101FF0000948FA49094A00680968C1F30221515C9D
:10200000C8407047F748F549044A00680968C1F3B9
:10201000C221515CC84070470C000020805300086A
:1020200010B50D4C0D48226802F00C03082B18BFA8
:1020300010BDC2F383430AA112F4803FCB5C02D1EE
:102040000C48584310BD216809A25843C1F34041D0
:10205000515CB0FBF1F010BD0410024000127A0098
:1020600002030405060708090A0B0C0D0E0F1010D9
:102070000102000000093D002DE9FE43044600284E
:1020800000F05C812078D44ED44FC007B14650D0C8
:10209000386800F00C00042818D0386800F00C00F4
:1020A000082803D1386810F4803F0FD16068A0B1D0
:1020B000B0F5803F06D03168B0F5A02F25D141F4AE
:1020C00080203060306840F4803024E0306810F4C4
:1020D000003F2ED0606860BB30E1306820F4803073
:1020E0003060306820F480203060FFF711FE054634
:1020F000D9F800004E4610F4003F1AD0FFF708FE52
:10210000411B03206429F3D919E121F480303060A8
:10211000306820F480203060FFF7FAFD0546306813
:1021200010F4003F05D1FFF7F3FD401B6428F6D9FA
:10213000E6E0207880072FD5386810F00C0F08D023
:10214000386800F00C0008280BD1386810F4803F84
:1021500007D1306810F0020F17D02069012814D081
:10216000ECE021699E48002900F08A80012101608D
:10217000FFF7CEFD0546306810F0020F05D1FFF7DE
:10218000C7FD401B0228F6D9BAE03068616920F02B
:10219000F80040EAC10030602078000730D5A0691F
:1021A00080B18F480121C0F88014FFF7B1FD0546CA
:1021B000386A10F0020F16D1FFF7AAFD401B022863
:1021C000F6D99DE086480021C0F88014FFF7A0FDF5
:1021D0000546386A10F0020F12D0FFF799FD401B38
:1021E0000228F6D98CE07F484FF4FA510068B0FB22
:1021F000F1F0029000BF0298411E00280291F9D12F
:102200002078400740F18580B86910F0805F0BD1DD
:10221000B8694FF0010840F08050B861B86900F02B
:1022200080500190019801E04FF000086E4E484642
:1022300059F8060010F4807F14D159F8060040F4D4
:10224000807049F80600FFF763FD0546484659F8D7
:10225000060010F4807F05D1FFF75AFD401B64286B
:10226000F4D94DE0E068F0B1012805D0F9690528FE
:1022700031D141F00400F861F86940F0010030E02C
:1022800000210160FFF744FD05464846D9F80000EB
:1022900010F0020F3FF480AFFFF73AFD411B03201F
:1022A0000229F2D94BE0F86920F00100F861F869E1
:1022B00020F00400F861FFF72BFD054641F2883657
:1022C000F86910F0020F1DD0FFF722FD411B03201B
:1022D000B142F5D933E021F00100F861F86920F04E
:1022E0000400F861FFF714FD054641F28836F869ED
:1022F00010F0020F06D1FFF70BFD401BB042F6D9DC
:1023000003201CE0B8F1000F1EBFB86920F0805018
:10231000B861E669002E5DD0386800F00C0008282E
:1023200011D1012E0AD03868216A00F480328A4225
:1023300004D1616A00F4701088424BD00120C0B211
:1023400003B0BDE8F0832649002088460866FFF701
:10235000DFFC0546022E0DD146464846D9F800005E
:1023600010F0007F13D0FFF7D3FC411B032002299C
:10237000F3D9E4E74846D9F8000010F0007F29D0EF
:10238000FFF7C6FC411B03200229F3D9D7E7206AD7
:10239000B0F5803F05D13968A26821F400311143BE
:1023A00039603968626A104321F474110843386057
:1023B00001203066FFF7ACFC04464846D9F800001F
:1023C00010F0007F06D1FFF7A3FC011B03200229B8
:1023D000F3D9B4E70020B2E7001002400410024035
:1023E000000042420C0000200060FEFF411E002061
:1023F000B0EB116F1CBF01207047044AF0235160FD
:1024000003490B70072190601160704710E000E0F5
:1024100023ED00E0704710B504460068416994F868
:102420004120212A15D111F0800101D111E020684D
:1024300050E8050F216820F0800041E80502002ADD
:10244000F5D1A06B08B1FFF75FF9204601F087F8DE
:102450002068416994F84220222A14D111F04001E9
:1024600001D110E0206850E8050F216820F04000FD
:1024700041E80502002AF5D1E06B08B1FFF744F905
:10248000204601F045F8002010BD7047BCB5044659
:10249000006802680146D0F80CE051F8143F12F0D1
:1024A0000F0F65D00EF4907503F0010C5CEA050384
:1024B00068D0D0071FBF1EF48070606C40F0010030
:1024C0006064500706D5BCF1000F1EBF606C40F081
:1024D00002006064900706D5BCF1000F1EBF606C5F
:1024E00040F004006064100708D50EF0200050EAA8
:1024F0000C001EBF606C40F008006064606C002837
:1025000000F009810EEA0200800605D5204601F0A0
:1025100034F8206800F114010868616C00F0400094
:1025200001F00801084300F0E280204600F0F0FFCF
:102530002068416911F0400F01D1D3E0206850E8D4
:10254000050F216820F0400041E80502002AF5D17E
:10255000E06B002800F0C68074494163FFF7F4F88F
:10256000002800F0D880E06B416BBDE8BC40084714
:102570000EEA020111F0200F06D02046BDE8BC4053
:1025800000F0FBBF0EEA0201226BCB063DD5012A0B
:102590003BD10021019101680191416801910199AC
:1025A000416911F0400F41D1E18DA28DE38D002BE7
:1025B00000F0B180511A0A0401D1ACE0206850E863
:1025C000030F226820F4907042E80303002BF5D13A
:1025D000206850E8050F226820F0010042E805035A
:1025E000002BF5D1202084F84200002020632068D1
:1025F00050E8030F226820F0100042E80303002B8C
:10260000F5D1022089B2606357E00A065AD4490620
:1026100040F18180C16821F04001C160202084F830
:1026200041002046BDE8BC4000F075B9E26B11687E
:102630004B6899B200296ED0B4F82CC061456AD2BB
:10264000E3859169202901D131E0206850E8030F2A
:10265000216820F4807041E80302002AF5D1206847
:1026600050E8050F216820F0010041E80502002A2A
:10267000F5D1206850E8050F216820F0400041E8BE
:102680000502002AF5D1202084F8420000202063B2
:10269000206850E8030F216820F0100041E8030291
:1026A000002AF5D1E06BFFF72FF8B4F82CC0022018
:1026B0006063E08DACEB000081B22046BDE8BC4019
:1026C000FFF7A8BE94F84110212924D1A168B1F5E3
:1026D000805F01D1216981B1216A4A1C2262097897
:1026E000416011E02046BDE8BC40FFF7CEBE204669
:1026F000FFF7CBFE00206064BCBD216A31F8022BDD
:102700006FF35F2242602162E18C4FF6FF72013964
:102710001142E18400D0BCBDC16821F08001C160DC
:10272000C16841F04001C160BCBD00BF1B3400085E
:1027300010B5044648B394F8410028B9002084F845
:102740004000204600F024F8242084F8410020684E
:10275000C16821F40051C160204600F073FF206879
:10276000016921F490410161416921F02A0141612F
:10277000C16841F40051C16000202021606484F8E8
:10278000411084F84210606310BD012010BD0000AC
:10279000F0B585B000270446274DCDE90377CDE994
:1027A00001772168A5F54440814242D1234801AE1A
:1027B000416841F480214160416801F48021009129
:1027C0000099016841F0080101603146006800F09D
:1027D000080000900098022002904FF48060019061
:1027E000032004902846FFF7A9F94FF400600297F0
:1027F0003146019028460397FFF7A0F9104D114884
:102800008021C5E900072846C5E90271C5E90477BA
:10281000C5E90677FFF7FCF808B1FEF7D9FD2720D8
:1028200000210022E5636C62FFF716FB2720FFF70B
:1028300005FB05B0F0BD00BF000C014018100240C0
:10284000E80900203000024010B590F84230202BFB
:1028500007D1012431B12AB10024046300F034FF10
:1028600000E00224E0B210BD704770472DE9F84344
:10287000044690F841001D461746884620281CD182
:10288000B8F1000F4FF0010018BF002F3FD04FF0FC
:1028900000092120C4F8449084F84100FFF738FA79
:1028A000A784E7840646A068B0F5805F07D1276952
:1028B000002F0CBFC146474619E0022027E04746DB
:1028C00015E02046802132462B4600F049FFC0B972
:1028D0001FB117F8011B206805E039F8021B2068BA
:1028E00000276FF35F214160E08C0138E084E08CC9
:1028F0000028E6D12046402132462B4600F030FF2A
:1029000008B1032003E0202084F841000020C0B279
:1029100001B0BDE8F083704770B5F84C0025002683
:10292000204620210122FFF7EEF9012001F0A0FC52
:10293000F0B2072884BFE8B270BD204620210022F3
:10294000FFF7E1F9012001F093FC20464021FFF759
:10295000CDF940EA45050136E2E700BF70B5E74D25
:102960000446202101222846FFF7CDF90026F0B2C7
:10297000072888BF70BD20064FF08001284654BF4D
:1029800000220122FFF7BFF9284620210022FFF78D
:10299000BAF9284620210122FFF7B5F90136640073
:1029A000E5E700BF2DE9FF4190460D46002102AA50
:1029B0000026ADF80C100291ADF80410009103E070
:1029C000AB5D9355A9550136B045F9D101380728BB
:1029D00016D8DFE800F00406080A0C0E10120120D9
:1029E0000CE002200AE0032008E0042006E00520B5
:1029F00004E0062002E0072000E00820FEF7ACFC1F
:102A00009DF80800FFF7AAFF01246F4603E0FFF7D7
:102A100083FF38550134B442F9D3002002E0395C19
:102A2000295401308642FAD1404604B0BDE8F08115
:102A30002DE9FC4100251446E846CDE9005503E0A8
:102A40004A5D08F805200135AC42F9D10027461E41
:102A50001DE0072E16D8DFE806F00406080A0C0E63
:102A6000101201200CE002200AE0032008E00420FC
:102A700006E0052004E0062002E0072000E0082030
:102A8000FEF76AFC18F80700FFF768FF0137BD4240
:102A9000DFD1204602B0BDE8F081000080B50548D6
:102AA000FFF764F920B104A0BDE8804001F04EBCFE
:102AB00080BD00BF2C0A00205761746368646F6793
:102AC0002072656672657368206661696C65642151
:102AD0000A000000F8B504460078FEF731F81B2024
:102AE00020812046FDF7DFFF844D2021012228466A
:102AF000FFF709F9284680210122FFF704F94FF476
:102B0000167001F0B5FB1A4E0025002707E075602E
:102B1000666020463178FDF759FF0C360137207A80
:102B20008742F4D3124D48F26100124E10216560C5
:102B3000A8652046B04702200221E8612046B04740
:102B40000020012128612046B0474FF4F850202191
:102B5000C5F888002046B04709202821C5F8B800EC
:102B60002046B0472078BDE8F840FEF7B7BB00BF6D
:102B700010000020C50A0008E0B50A4800220168DC
:102B800041F0010101600021006800F001000190A6
:102B900001980D20FFF760F90D20BDE88C40FFF78C
:102BA0004DB900BF141002402DE9F04F85B05248D6
:102BB000524C534D01224FF01009016841F00401BD
:102BC0000160016801F0040101910199016841F07F
:102BD00010010160016801F0100101910199016883
:102BE00041F040010160016801F04001019101994B
:102BF000016841F008010160016801F008010191DC
:102C00000199016841F0200101601021006800F085
:102C10002000019001982046A8472046A0210022CC
:102C20000026A84704F580574FF47E51012238460C
:102C3000A84704F5806A4FF4704100225046A84727
:102C400004F5406843F6FF7100224046A8474FF064
:102C5000010B01AD0220CDE9019BDFF8A89003969E
:102C6000049020462946C847A020CDF808B0294640
:102C70004FF0010B01900320039604902046C847B3
:102C8000402002962946019020460396C8471E48D8
:102C9000294602901020019004F500600396C84771
:102CA0004FF47E50CDF808B00224294601903846F2
:102CB00003960494C8474FF47040CDF808B02946F5
:102CC00001905046CDE903640224C84743F6FF70E3
:102CD000CDF808B0294601904046CDE90364C847C5
:102CE0000A2000210022FFF7B7F80A20FFF7A6F814
:102CF00005B0BDE8F08F00BF181002400008014089
:102D0000071D00083D1B00080000111080B5084891
:102D1000084A042140F6FF73C0E900218360FEF7F2
:102D2000FBFF002814BFBDE8804080BDFEF750BB0C
:102D30002C0A00200030004080B50C480C4A4FF4AB
:102D4000E13100234FF00C0CC0E90021C0E902334F
:102D5000C0E9043CC0E90633FFF7EAFC002814BFD1
:102D6000BDE8804080BDFEF733BB00BF380A0020BD
:102D700000480040FEE700002DE9F04FA1B0DFF869
:102D8000BC7CDFF860653D4635F8021B8C1EC1F542
:102D90008171FF2C06EB040088BF0021FDF777FA54
:102DA000304629462246FDF759FA3046214600F0C2
:102DB000B9FD209042BA3888DFF83045DFF8281591
:102DC000009028440A8004F1600E04F16C0B30F886
:102DD000020C00BA000C1F904880D4E92C10CDE9F9
:102DE0001D10E06A1C90D4F890001390D4F8940061
:102DF0001490D4F898001590D4F89C001690D4F84C
:102E0000A0001890D4F8A4001990D4F8A8001A9043
:102E1000D4F8AC001B90D4F88C001190D4F8880042
:102E20001090D4F884000F90D4F880000E90606C5D
:102E30000D90DFF8BC0490F822100C9190F821104E
:102E40000A9101791791817F0B91C17F90F8200041
:102E5000099020680891059060680390A06812901E
:102E6000E068069020690790206A0490206C029028
:102E7000E06B0190D4E91451D4E916729EE8085031
:102E80009BE8400F28BADFF86C549EFA8EFE36BAE3
:102E9000E86108BA11BA1ABA9CFA8CF398FA88FC5D
:102EA000A86138BA99FA89F7C5E908109AFA8AF040
:102EB000C5E90A32C5E90C6EC5E90E7CDFF8387445
:102EC00068649BFA8BF01E992864019809BA00BACD
:102ED0006860039800BA2860029800BAA860059854
:102EE00000BAE860049800BA2861069800BA6861E0
:102EF000079800BAA864089840BAA5F84C00099849
:102F000040BAA5F84E000A9840BAA5F850000C98AF
:102F100040BAA5F852000B9840BAA5F854000D9895
:102F200000BAC5F856000E9800BAC5F866000F98AA
:102F300000BAC5F86200109800BAC5F86E00119882
:102F400000BAC5F86A00139800BAC5F8760014985C
:102F500000BAC5F87200159800BAC5F87E00169838
:102F600000BAC5F87A00189800BAC5F88600199812
:102F700000BAC5F882001A9800BAC5F88E001B98EE
:102F800000BAC5F88A001C9800BAC5F85E0012980D
:102F900000BAC5F85A00179840BAA5F892001D98D3
:102FA00000BAC5E9250107F19C006421FDF76FF91E
:102FB000384629469C22FDF751F920981F9900BAFE
:102FC000B1EB304F40F08A81DFF870AA9AF8030025
:102FD00010285ED0062800F01B81032840F07E8177
:102FE0009AF806009AF80740DFF8FCB2DFF8188379
:102FF0004FF4807144EA0025BAF80400A1EB4501C2
:103000007F2DCBF8085000BA4FEA104608EB450078
:10301000ABF8046088BF0021FDF739F907EB4600E3
:103020006E00A0F5007140463246FDF717F9DFF853
:10303000CC9240F2013041463246A9F800006000CF
:1030400009F1030789F802003846FDF707F9032064
:1030500000EB4501484600F065FCDBF808100AF279
:10306000011627F81100052000EB4105FA20A0EB1E
:103070004101FE2D06EB050088BF0021FDF707F991
:10308000304649462A46FDF7E9F89D48AAB231463E
:1030900020E1BAF80400BAF806109AF80820209047
:1030A00000BA1F910AF10901000C07EB4000A0F5DE
:1030B0000070FDF7D3F8284639469C22FDF7CEF87C
:1030C00005F1280CD5E9019ED5F80C80D5E9063725
:1030D000D5E908609CE806181BBA3FBA36BA00BAB0
:1030E00009BA12BA9BFA8BFB9CFA8CFCC4E91473E4
:1030F000C4E91606C4E91821C4E91ACBA86BD5F8AF
:103100006220D5F86630D5F8561000BA12BA60675A
:10311000E86B00BA2067286C00BAE067686C00BAF8
:10312000A06799FA89F0E0639EFA8EF0206498FA1D
:1031300088F06063D5F8720000BAC4F89400D5F83E
:10314000760000BAC4F89000D5F86A0000BAC4F856
:103150008C00D5F86E0000BAC4F88800A86CC4F8DA
:1031600084201ABAC4F8802000BAA06308BAD5F83F
:103170007E106064D5F87A0009BA00BAC4F89810D5
:10318000D5F88610C4F89C00D5F8820000BAC4F8BF
:10319000A40008BAD5F88E10C4F8A000D5F88A00AB
:1031A00000BAC4F8AC0008BAC4F8A800D5E92501F3
:1031B0001F9A00BA09BAC4E92C01504C41F201002F
:1031C000209920804848A2806180826081802046CA
:1031D000062100F0A7FBE0800AF20910F721FDF7B5
:1031E00056F8D4E9000108224FF6FF73CAF801012E
:1031F0004348CAF805110AF20111FFF737FB002016
:103200003B49AAF8000040F20110A1F8230065E054
:10321000BAF80400344A01BA080C9080394A02EB2B
:10322000114104290DD8DFE801F0033618222D00E2
:103230009AF807002E4901280CBF01200020C8770A
:103240003CE040F24911884238D19AF80700012841
:103250002BD127494FF4807011E09AF807002449D8
:1032600001280CBF0120002081F8210026E09AF8F7
:10327000070001281DD11E49012081F82200A1F874
:1032800003001BE09AF80700194901280CBF012030
:103290000020887712E09AF80700154901280CBF32
:1032A0000120002081F8200008E011490020087169
:1032B00004E00F490020C87081F82200009C0AF247
:1032C00001150AF1020128462246FCF7C7FF0C4807
:1032D000294622464FF6FF73FFF7C8FA21B0BDE832
:1032E000F08F00BF4C0500206C040020280900204E
:1032F0004C0600208406002020070020C81C002067
:10330000380A0020DAFEFFFF20080020FEE7000058
:1033100080B5FDF7D9F9FDF7F5F900224FF07853A4
:10332000FDF7F1F8054B0022FDF746F8044B0022AB
:10333000FDF7E9F8FDF7F9F980BD00BF0000F0BF27
:1033400000000440704780B500F0AAFF01F042FD84
:10335000BDE8804000F0B8BFB0B590B0002401A82F
:1033600014210B94CDE90944FCF791FF4FF4803010
:103370000921022507900691012108940A910C91D8
:10338000CDE90D504FF4E0100F9006A8FEF774FE43
:1033900018B1EFF3108072B6FEE70F200221019002
:1033A0004FF480600394CDE9040401A80295FEF770
:1033B00085FD18B1EFF3108072B6FEE710B0B0BD16
:1033C0001048016801F00C020F49082A0FD1026869
:1033D000C2F383420368023213F4803F01D10B49E8
:1033E00004E0036813F4003F18BF08495143084A3A
:1033F000084B11600068C0F30310185C21FA00F05C
:10340000106070470410024000127A0000093D006D
:103410000C000020705300087047406A0021C185ED
:10342000C184FFF732B810B5446A206850F8141F01
:1034300094F84120212A09D111F0800106D0002002
:10344000E084204600F08BF820681430006894F87F
:103450004210222907D110F0400004D00020E0855E
:10346000204600F055F8606C40F010006064204683
:10347000BDE81040FFF709B80168406A096811F01B
:10348000200F2FD10021C185016851E8031F026878
:1034900021F4807142E80313002BF5D1016851E853
:1034A000051F026821F0010142E80513002BF5D148
:1034B000016851E8051F026821F0400142E8051348
:1034C000002BF5D1202180F84210016B012909D190
:1034D000016851E8031F026821F0100142E803135C
:1034E000002BF5D100214163016B012918BFFFF7C3
:1034F000BBB9818DFEF78EBF406A01214163016B2C
:10350000012918BFFFF7B1B9818D4908FEF782BFC5
:10351000016851E8031F026821F4907142E8031327
:10352000002BF5D1016851E8051F026821F0010167
:1035300042E80513002BF5D1016B012909D101687F
:1035400051E8031F026821F0100142E80313002B29
:10355000F5D1202180F842100021016370470168F5
:1035600051E8031F026821F0C00142E80313002B59
:10357000F5D1202180F84110704790F8421022299F
:1035800018BF70478368B3F5805F05D10169B1B199
:1035900000F128010A680BE00146002B51F8282FA2
:1035A00001D1036923B103685B6803F07F0301E085
:1035B00003685B6813700A6801320A6007E00168FB
:1035C000826A49686FF35F2122F8021B8262C18D13
:1035D0004FF6FF7201391142C18500D07047016872
:1035E000CA6822F02002CA60CA6822F48072CA60E7
:1035F0004A6922F001024A61202280F8422000221A
:103600004263036B012B18BFFFF72EB9026351E829
:10361000031F026821F0100142E803130168002B28
:10362000F5D10A6812F0100F08D081B00022009284
:103630000A68009249680091009901B0818DFEF7F7
:10364000E9BE000010B5044600680169E26821F493
:103650004051114341F20C620161D4F808C0D4E931
:1036600004E3C16891434EEA0C021A431143C1605E
:103670004169A26921F440711143416111498842B5
:1036800002D0FEF7B5FC01E0FEF7BCFC192148436F
:10369000D4E900126FF063049200B0FBF2F06422F0
:1036A000B0FBF2F303FB0400322404EB0010B0FB88
:1036B000F2F000F0F00200F00F0002EB03121043F2
:1036C000886010BD00380140BCB513460025044693
:1036D0000A46DFF880C0DFF884E0456483858162B4
:1036E00022201D4984F84200E06B00F1280787E89A
:1036F0000250456321680431FEF7CCF9019520683A
:1037000001680191416801910199216909B909E0B4
:10371000206850E8030F216840F4807041E80302FC
:10372000002AF5D1206850E8050F216840F001001B
:1037300041E80502002AF5D1206850E8050F21680C
:1037400040F0400041E80502002AF5D1002002B017
:10375000B0BD00BFF93400087934000827340008F0
:103760002DE9F0411D4690460F4604465E1C206838
:1037700000683840B84226D0002EF8D02DB1FEF7B0
:10378000C7FAA0EB0800A842F1D9206850E8030F5F
:10379000216820F4D07041E80302002AF5D12068A6
:1037A00050E8050F216820F0010041E80502002AD9
:1037B000F5D12020002184F8410084F8401084F8DD
:1037C0004200032000E00020C0B2BDE8F08100000C
:1037D00010B5154C2046FEF759FE2068016811F01F
:1037E000100F14D06FF0100101602046FEF713FE99
:1037F0000E48924901220068406881F80022C0F515
:103800008070088000F024F900F0C2FF2068C168D1
:103810004FF4807241F02001C1608848811C024849
:10382000BDE81040FFF710B8380A0020E809002072
:10383000FEE7000010B5074C00F00F03044AB0F19A
:10384000FF3F2344C8BF83180801187010BD00BF94
:1038500000E400E014ED00E018B1C1B219B101209C
:103860000EE00020704710F47F4102D0090A0920C1
:1038700006E010F47F0107BF010E1920090C11208A
:10388000014A515C08447047885300081CB500F198
:10389000200C0446ACE80E002321049AC2621430C6
:1038A000C4E90500184600F0E7FD04F120030FCB42
:1038B0001A44124B043A00F0BDFCE061104A234662
:1038C000059884F8360084F835000020A063069936
:1038D000C4E90F11206384F83400C4E91C00CDE969
:1038E000000004F14400214601F023FB0548016873
:1038F00019B12046BDE81C4008471CBDC14A00085C
:10390000414D0008B41B0020B0B50546FCF72CFC67
:10391000296F044609B1284688472046BDE8B040D3
:10392000FCF726BC80B5DFF82CC04FF6FF7E0BE01D
:1039300010F8012B5FFA8EF301395A400EF47F43E1
:103940003CF8122082EA132E0029F1D11FFA8EF0E2
:1039500080BD00BF54010020F8B5224D6868C0B991
:1039600000F0CEFA01F032FA044600260AE0686858
:1039700001306860009602E00098013000900098E5
:103980006328F9D901F022FA001B0928EFD900F0C9
:10399000C3FA002701F01AFA0446002608E000974F
:1039A00002E000980130009000986328F9D90136B0
:1039B00001F00CFA001B0928F1D96868B0420BD954
:1039C000811B64225143B1FBF0F303FB10112B70F8
:1039D0005143B1FBF0F002E0002028706E60687087
:1039E000F8BD00BF00040020014801F0E9B800BFA5
:1039F0005939000880B500F027F84FF0FF3100F08A
:103A0000F3FE0028F7D1FDF7E7FCF4E780B500F0FE
:103A100017F84FF0FF3100F0E7FEFDF7B5F8F6E7D5
:103A200010B5064C00F014F84FF0FF3100F0DCFE4A
:103A300020880028F6D0FFF79FF9F3E7C81D002083
:103A400082484068704700BF80480068704700BFE8
:103A50007E488068704700BF10B5094C20464FF47F
:103A60008051FEF748F9282001F024F820464FF451
:103A70008051FEF740F94FF4707001F01BF8EDE74C
:103A8000000C0140BCB5FEF777F9FFF765FCFFF7C6
:103A90008BF8FFF771F8FFF739F9FFF74DF9FFF7EA
:103AA000A3FF0A20FEF7B8F95748584C0021A04759
:103AB00057480021A04757480021A04756480021F9
:103AC000A04756480021A04755480021A047554827
:103AD0000021A04754480021A0470A20FEF7AEF974
:103AE000524C2046FEF797FC2068514C514D012264
:103AF000C16841F02001C160C16841F01001C1609E
:103B000020462021A84720464FF480510022A84794
:103B1000204640210122A84720464FF400610022A0
:103B2000A847204601210122A84720464FF40071F2
:103B30000022A847204602210122A84720464FF430
:103B400080710022A847204604210122A847A4F53D
:103B500000604FF400410022A8473B4C36A00121F1
:103B60000022A047394D01210022286038A0A0473B
:103B700068603CA001210022A047A8601424052011
:103B80003D4900224FF40073CDE9000438A000F055
:103B900070FFA8B301F094F806203B490022FF23F0
:103BA000CDE9000435A000F064FF48B301F088F8C7
:103BB0001424032039490022FF23CDE9000433A057
:103BC00000F057FFE0B101F07BF8042038490022F3
:103BD000FF23CDE9000432A000F04BFF80B101F0DB
:103BE0006FF8142007210022FF23CDE9001034498B
:103BF00030A000F03EFF18B101F062F8002001E0B3
:103C00004FF0FF3002B0B0BD54030020D52A0008A9
:103C1000600300206C030020780300208403002050
:103C2000900300209C030020A8030020380A0020F5
:103C300000140140071D00086D795F73656D6170A8
:103C4000686F72650000000051470008780400208A
:103C5000646174615F70726F636573735F73656DC8
:103C60000000000075617274335F73656D000000C1
:103C70006C65643100000000593A00087761746394
:103C800068646F670000000043530008646174615A
:103C90005F636F6E76657273696F6E00F539000849
:103CA000646174615F70726F63657373000000001C
:103CB0000D3A0008646174615F73656E6400000012
:103CC000213A0008B0B58D4C044D01E001CC80478D
:103CD000AC42FBD3BDE8B040FFF7D4BE1C55000892
:103CE00010B5DFF8D8CCD0F804E0DCF80C1001EB0C
:103CF0000E02824214D0538893B9DCF810309A42F5
:103D00000ED0DCF814309342A0EB010308BFCCF8CE
:103D10001400D2F804E0C0F804E052680A4493604A
:103D200082688B18834208BF10BD5C8804B110BD47
:103D3000DCF81440844208BFCCF81430C3F804E027
:103D400040680844826010BD2DE9FF4FDDF83CA0BB
:103D50004FA754A61AF0400F08BF3E461AF0100FA6
:103D600018BF2AF0010A1AF0020F02D14FF0000921
:103D70000EE0B2F1FF3F08DD5FEA4A775ABF202725
:103D800007EA8A094FF02B0902E052424FF02D0951
:103D9000DDE90D8CD2B14FF0000E4FF00A0B6D46ED
:103DA00011E00A2B06D1B2FBFBF707EB8704A2EB6D
:103DB000440402E0170902F00F04345D3A4605F8A6
:103DC0000E400EF1010E002AEBD104E030224FF03C
:103DD000010E8DF80020E6456346C8BF73461AF011
:103DE000110FA8EB030212D10024002A4D46C8BFD0
:103DF0000124B9F1000F18BF01252C402025121B0A
:103E000003E0884238BF05700130013AF9DAB9F1B0
:103E1000000F06D08842A2F1010238BF80F800905E
:103E200001305FEACA6409D420256AF3041503E06F
:103E3000884238BF05700130013AF9DA302405E0D4
:103E40008842A3F1010338BF047001309E45F7DBBF
:103E50006B460AE08842AEF101043EBF03EB0E0759
:103E600017F8017C07700130A646BCF1000F02D0A4
:103E7000BEF1000FEEDC012ABCBF04B0BDE8F08F3C
:103E80008842A2F101023CBF202303700130F2E717
:103E900030313233343536373839616263646566C0
:103EA0000000000030313233343536373839414282
:103EB0004344454600000000E0B5142002210022E2
:103EC0004FF48073CDE90010054903A000F0D1FD47
:103ED000BDE88C4000F0F4BE6D61696E000000002A
:103EE000C53C0008B0B5044C044DAC4228BFB0BD81
:103EF00001CC8047F9E700BF1455000818550008A9
:103F000080B5FCF731F912490A8801320A80BDE810
:103F10008040FCF72DB900BF80B5FCF725F90C49AE
:103F20000A88013A0A8012B2002A03DDBDE8804007
:103F3000FCF71EB900220A80FCF71AF90548406810
:103F4000002814BFBDE8804080BD00F08BBB00BFDF
:103F500044050020D0040020F8B50446E8B31F4F04
:103F6000796809B120468847F868A04235D8386991
:103F7000A04232D907F120054FF0FF31284600F06A
:103F800033FC34F80A0CA4F10C0618B13088B0F5F3
:103F9000F55F0AD012A000F0D9F934F80C3C34F8DF
:103FA0000A2C16A0314600F0D1F94FF4F55044F830
:103FB0000C0C7869B04288BF7E6154F8080CF9682F
:103FC000BA69301A401A1044B8613046FFF788FECB
:103FD0002846BDE8F84000F0DBBBF8BD90040020A7
:103FE000746F20667265652061206261642064617F
:103FF000746120626C6F636B3A0A00006D656D3A04
:10400000203078253038782C207573656420666CF4
:1040100061673A2025642C206D6167696320636FB6
:1040200064653A203078253034780A0002487047B9
:10403000014800F5805070470C0B002010B5FFF7C9
:10404000BFF995484FF47A710068B0FBF1F0411E5A
:104050000020B0EB116F07D10A4AFF2351600A49D3
:104060000B70072111609060FFF73CFFFFF7DEFF48
:104070000446FFF7DDFF01462046BDE8104000F092
:104080006BBC00BF10E000E023ED00E02DE9FC4137
:10409000114D04464FF00D080DF107060DF106070E
:1040A00013E02846314601224FF0FF338DF8078098
:1040B000FEF7DCFB20788DF8060028463946012201
:1040C0004FF0FF33FEF7D2FB013420780A28E8D006
:1040D0000028F0D1BDE8FC81380A0020B0B50446C4
:1040E0002248016811B120468847F0B3216C20486E
:1040F000204DA847616A2048A847A16A1F48A847E1
:10410000E16A1F48A847216B1E48A84761681E48FE
:10411000A847A1681DA0A847E16820A0A847216979
:1041200022A0A847616925A0A847A16927A0A847A0
:10413000E1692AA0A847216A2CA0A847616B2FA09B
:10414000A847A16B31A0A847E16B34A0A84720780D
:10415000400703D4364800F0F9F805E000F08AFD86
:104160000146324800F0F2F8FEE7B0BD080B00202F
:10417000005500084D430008BF540008CC54000807
:10418000D9540008E6540008F35400087230353A58
:10419000203078253038780A000000007230363A36
:1041A000203078253038780A000000007230373A25
:1041B000203078253038780A000000007230383A14
:1041C000203078253038780A000000007230393A03
:1041D000203078253038780A000000007231303AFB
:1041E000203078253038780A000000007231313AEA
:1041F000203078253038780A000000007231323AD9
:10420000203078253038780A00000000206C723A9F
:10421000203078253038780A000000002070633A9A
:10422000203078253038780A00000000A2540008B9
:104230008854000810B504320C4C22F0070E6FF0C1
:104240003F02AEF1400C02E04EF802400432002A78
:10425000FAD100224FF080744EE908124EE906228E
:104260004EE904234EE90204604610BDEFBEADDE08
:10427000B0B5084C0849094D626823680968B1FB6C
:10428000F5F148436168511A98BF19448142F9D346
:10429000B0BD00BF14E000E00C00002040420F0061
:1042A00010B5FBF761FF0446104801780131017039
:1042B0000448006800B180472046BDE81040FBF785
:1042C00057BF00BF0C1B002010B5FBF74DFF044685
:1042D00006480178013901700548006800B180473F
:1042E0002046BDE81040FBF743BF00BF181B00206D
:1042F000141B00200068143800F092BC70B505460D
:10430000084616460C4600F0F1FC012E01D0A6B17D
:1043100070BD28460068A8420FD090F8211094F88C
:1043200035208A42F6D2143804F1140281690A60F9
:10433000A16182611430606170BD686804F114018C
:104340000160A0616960656170BD000083B018B54F
:10435000844603A8074C0EC003AB7F21624620466B
:10436000009300F06BFE2046FFF790FEBDE818407A
:1043700003B07047201B00202DE9F047E8B3DFF8B9
:104380003C96033020F0030AD9F80800824534D85F
:1043900009F120084FF0FF31404600F025FABAF14C
:1043A0000C0F98BF4FF00C0AD9E902C0D9F81410CD
:1043B000ACEB0A020D1A2B4695421BD2C7187E8819
:1043C0007D68002EF7D103F10C06AC1B5445F2D3E7
:1043D0000AF11802944214D201227A80C21BD9E950
:1043E00006362A441A449642C9F8182026D2C9F83B
:1043F0001C2023E0404600F0CBF900252846BDE80C
:10440000F08706EB0A024FF4F5540CF10C060AF1A2
:104410000C0E84508418C4E9015301237B807A6018
:104420006368B3421CBF03449A60D9E9062372440F
:104430009342C9F8182038BFC9F81C204FF4F55230
:10444000B9423A800BD1D9F8102005E0914206D04C
:1044500049680144C9F814104B88002BF6D1404636
:1044600000F096F9D9F8002007F10C05002AC5D014
:10447000284651469047C1E7042A01D3830701D05B
:1044800003463AE070B5D643CBB20446154616F162
:10449000100F43EA032398BF6FF00F0643EA03436C
:1044A0001644103626F00F0E00EB0E0C05E0C4E9A2
:1044B0000033C4E902331034103D102DF7D2A2EBC3
:1044C0000E026546D64316F1040F98BF6FF003063F
:1044D0001644341D164624F0030EA40801E008C556
:1044E000043E042EFBD20CEB8403A2EB0E02BDE8CB
:1044F000704002E003F8011B013A002AFAD170472C
:104500002DE9F041064653488846A0F110014FF0CE
:10451000FF300130032806D801F11007097CB142B1
:104520003946F6D100E00027F868FFF725FF054679
:104530000024E8B1FA6828460021FFF79DFF2846CD
:10454000414608222E726C7200F0ECF94248016874
:1045500009B12846884705F10C04FBF705FE57F81A
:10456000041F4C60E9603C602F61FBF701FE00E036
:1045700000252846BDE8F08110B5044618480168BA
:1045800009B12046884700202072FBF7EDFD224646
:10459000216952F80C3F596021690B602261126059
:1045A000FBF7E6FD2046BDE81040FFF7D5BC00BF95
:1045B00010B504460A48016809B120468847002022
:1045C0002072FBF7D1FD54F80C1F62684A606268E4
:1045D0001160C4E90044BDE81040FBF7C9BD00BF4D
:1045E000A41B0020F8B504461A480E461546A0F153
:1045F00010014FF0FF300130032806D801F11007F9
:10460000097CB1423946F6D100E00027FFF778FC7B
:10461000043738460068B842FCD1FFF77DFC46F00D
:104620008000294608222072204600F07BF90A48C3
:10463000016809B12046884704F10C05FBF794FD99
:1046400039684D60E1603D602761BDE8F840FBF7E7
:104650008FBD00BFB4030020A01B0020007AC0095A
:10466000704700002DE9F041FBF77EFDF24E044655
:10467000308820B12046BDE8F041FBF779BDF74F07
:10468000B868FFF7E9F801387D6807EBC001D1F899
:104690001480A8F114018D42ECD0726879603870F2
:1046A0000AB128469047064A08F1080105F11C00A6
:1046B000127812B1FBF75FFDDCE7FBF75CFDD9E791
:1046C000181B002010B50446FBF74EFD94F834107B
:1046D00094F83520DFF884C301F0F0010CEBC2023E
:1046E00041F0010184F8341004F114019369196058
:1046F000A361916102F114016161A16BDCF80820F2
:104700001143CCF80810BDE81040FBF731BD00BFE5
:1047100010B50446FBF728FD214651F8142F4B68CD
:1047200053604B681A60C1E9001191F82120CB4910
:1047300001EBC20252F8143F934204D1A26B8B6882
:1047400023EA02028A60BDE81040FBF711BD00BFFA
:10475000B0B50D46014602201446FFF7D1FE28B140
:1047600000F1140185834472C0E90511B0BD70B534
:1047700015460A4602211C460646FFF733FF06F19E
:104780001400C6E905000020B583747270BD0000F6
:10479000B0B504461348016809B120468847FBF7C5
:1047A000E3FC0546204650F8141F814207D0FFF76E
:1047B000A1FD2846FBF7DCFCFFF754FF09E0A08BC6
:1047C0004FF6FF71884206D00130A0832846FBF7E0
:1047D000CFFC0020B0BD2846FBF7CAFC6FF00200FA
:1047E000B0BD00BFA81B0020F8B504461F480E4608
:1047F0000091016809B120468847FBF7B5FC0546E2
:10480000A08B60B10138A0832846FBF7B1FC1848A3
:10481000016809B120468847002001B0F0BDFEB113
:1048200000F028FA07460020386304F114003946E6
:10483000627AFFF763FD012E09DB07F144066A4641
:104840000021304600F038FB304600F089FB284656
:10485000FBF78EFCFFF706FF386B0028DDD1D6E7AB
:104860002846FBF785FC6FF00100D6E7B01B00205F
:10487000AC1B00201CB50B4C07A0A0470AA0A0470A
:1048800012A0032101220523009013A0A0471AA023
:104890002146BDE81C4008470A205C207C202F0AE6
:1048A000000000004D4300082D205254202D2020F0
:1048B000202020546872656164204F7065726174B5
:1048C000696E672053797374656D0A0041756720BE
:1048D0003236203230323400202F207C205C2020E1
:1048E00020202025642E25642E2564206275696CA5
:1048F000642025730A0000002032303036202D203D
:104900003230323020436F70797269676874206288
:10491000792072742D746872656164207465616DAC
:104920000A00000080B5B2B18446034691F800E069
:1049300003F801EBBEF1000F05D0013A01F10101CE
:104940009C46F3D107E00121002302E00CF801307E
:1049500001318A42FAD180BD0A46014622F00300A5
:10496000192828D3CB1CA0F1180C23F003039C4575
:1049700021D310B5114CC11A4FF0000CA1F118024F
:104980000C39E360A2604FF4F552C3E90021A0F1B5
:104990000C02C3F808C000232261094A40E9032140
:1049A00040F8041C04F1200006A10122FFF7DFFEFD
:1049B000E068606110BD05A0FFF7C8BC900400204E
:1049C000A01E010068656170000000006D656D202B
:1049D000696E69742C206572726F722062656769F6
:1049E0006E206164647265737320307825782C20A2
:1049F000616E6420656E6420616464726573732007
:104A0000307825780A0000000B4800210180134807
:104A100005E04218083102F11403C2E905334029C8
:104A2000F7D107220021027000F10C02C0E9011148
:104A3000C0E90322704700BF4405002010B5074CB1
:104A4000A068FEF709FF04EBC000C068A0F11401E4
:104A500008306160BDE81040FBF7BBBBD00400200C
:104A6000024800F10C01C0E9031170473005002035
:104A70007047FEB50E46014601201F461546FFF75A
:104A80003FFD044690B13846FFF776FC034650B12F
:104A9000DDE908102A46CDE9007102902046314632
:104AA000FEF7F4FE03E02046FFF766FD00242046F3
:104AB00003B0F0BD80B500F0E1F8002080BD00003B
:104AC000B0B5C0480568FBF74FFB04462846FEF723
:104AD0001BFF2846FFF71CFE042085F8340005F173
:104AE000440000F00EFA2846FFF7B8FD012803D174
:104AF0002846FFF75DFD07E01F4805F11402016835
:104B00004A600260C5E90510FFF7ACFD2046BDE82C
:104B1000B040FBF72DBB00BFB0B5344C0025042DD1
:104B200003D100F009F80025F9E754F8250000B199
:104B300080470135F3E700BF70B50F4D10E0D6E9AF
:104B40000001416071680860C6E900667069FFF79E
:104B500003FAA6F11400FFF70FFD2046FBF708FB50
:104B6000FBF702FB2E680446AE42E8D12046BDE8C2
:104B70007040FBF7FDBA00BFDC0400201FB5202009
:104B80000B4C0E4A0BA100230390072002904FF418
:104B90008070019005480090204600F029F82046DA
:104BA00004B0BDE8104000F08BB800BFBC1B002073
:104BB000800A00207469646C65000000194B0008CD
:104BC00070B50A4D04460026FBF7CEFA032E07D82F
:104BD00002CD01360029F9D145F8044C002401E04A
:104BE0006FF00204FBF7C4FA204670BDF80A0020FB
:104BF0007FB515460A4601211C460646FFF7F2FC22
:104C00000B98089B2946224602900A980190099821
:104C100000903046FEF73AFE002004B070BD000060
:104C2000B0B5044690F8340000F00F0002281CBF15
:104C30004FF0FF30B0BDFBF797FA21460546A0695B
:104C400051F8142F5060A069026004F14400A16182
:104C5000096000F0CFF92846FBF78AFA2046FFF7F3
:104C600031FD0348016809B1204688470020B0BDE6
:104C7000B81B002053480068704700BFF8B500908B
:104C8000FBF772FA05464F480468204600F02EF8FC
:104C900004F144066A4600210027304600F00CF972
:104CA000304600F05DF92846FBF762FAFFF7DAFCC0
:104CB000206B023008BF2763002001B0F0BD00BFA9
:104CC00080B50221012280F8341090F8361080F867
:104CD000351002FA01F18163FFF7A2FF394800683D
:104CE00008B1FFF7BFFC002080BD00BFB0B504468F
:104CF00090F8340000F00F0001281CBF4FF0FF3087
:104D0000B0BDFBF731FA05462046FFF701FD94F8E8
:104D1000340000F0F00040F0020084F8340004F1A8
:104D2000440000F067F92846FBF722FA03480168BF
:104D300009B1204688470020B0BD00BFBC1C002040
:104D400080B56FF0010102460163816952F8143F9A
:104D5000596081690B6082611260FFF7B3FCBDE8A6
:104D60008040FFF77FBC000080B5FBF7FDF91549D7
:104D7000096891F8342002F00F02012A1ED10A4678
:104D800052F814EFD2F804C0E64517D0CEF804C0AC
:104D90008B69C3F800E08A610B4B91F835C003EBD7
:104DA000CC03D3F804C0CCF80020C1F818C05A6076
:104DB0004B61FBF7DDF9FFF755FC01E0FBF7D8F994
:104DC000002080BDD4040020E40400200B480068CB
:104DD000704700BF80B50948016801310160FFF7E5
:104DE00049FF016C0139016403D1C16B0164FFF714
:104DF000BBFFBDE8804000F003B800BFC41C00202A
:104E00002DE9FC47E946CDE90099FFF7DFFF0646AB
:104E1000FBF7AAF980467648744C824641E07869EF
:104E20005146301A504541D82168A7F1140509B1FF
:104E300028468847D7E90001416079680860C7E9DA
:104E4000007717F80B0C10F0020F04BF00F0FE0003
:104E500007F80B0C0098476038600097C7F804907B
:104E6000D7E902108847FFF7B1FF6168064609B12C
:104E7000284688470098484513D0D7E9000141608B
:104E800079680860C7E9007717F80B0C00F0030198
:104E9000032906D100F0FE0007F80B0C284600F0AD
:104EA0005FF8204650F80C7F8742B8D14046FBF7A8
:104EB0005FF9BDE8FC8700BF70B514460E46054695
:104EC000FBF752F9042E18D8DFE806F00306080CA9
:104ED00011002168696210E0696A0DE0697A01F0E9
:104EE000FD0102E0697A41F00201697205E0697A28
:104EF000C9070CBF002101212160FBF739F900200F
:104F000070BD10B50446FBF72FF92246A16952F88F
:104F1000143F5960A1690B60A261617A01F0FE0142
:104F200061721260FBF724F92046FFF741FB002075
:104F300010BD70B515460A460A211C460646FFF705
:104F400051FB0598F56100F0FE007072002034629C
:104F5000B0620498706206F11400C6E9050070BDE5
:104F60002DE9F0410446FBF7FFF82646804656F847
:104F7000140F716841607168086016F80B0C00F03E
:104F8000FE0006F80B0C1848C6E90066016809B176
:104F900020468847FFF71AFF616A154F012508442C
:104FA0001249A062C2430B6901F10C0008E00068DD
:104FB000984204D005686D691544BD42F7D20025BA
:104FC000ED07F5D18A6801328A6001684E6061613F
:104FD0000660A061607A40F0010060724046FBF715
:104FE000C7F80020BDE8F081AC1B00203005002090
:104FF000FEFFFF7F10B50446407AC00704BF4FF0A4
:10500000FF3010BD0C48016809B120468847FBF706
:10501000ABF854F8141F62684A606268116014F8B3
:105020000B1C01F0FE0104F80B1CC4E90044FBF763
:105030009FF8002010BD00BFA81B00202DE9F04FF5
:1050400087B000EB010A00299946074606920491B1
:105050004FF0200BB8BF4FF0FF3A0590107825288D
:1050600007D0002800F02781574538BF3870013736
:10507000DAE0501C4FF0000809E0042204E00822A6
:1050800002E0202200E0012248EA02080130017813
:105090002029F4D02329F4D010223029F3D02D294F
:1050A000F2D02B29E9D0A1F130020690092A05D8C7
:1050B00006A800F034F9064606980EE02A290AD11F
:1050C0000130069059F8046BB6F1FF3FDCBF48F0A1
:1050D0001008764201E04FF0FF3601782E290AD100
:1050E000411C06914178A1F13002092A06D806A890
:1050F00000F015F908E04FF0FF300BE02A2908D145
:105100000230069059F8040BB0F1FF3FD8BF0020E1
:1051100000E00020069D2B7843F004026C2A05D1A4
:10512000691C9C4606916A780D4602E04FF0000C1F
:105130001A46A2F16F04092C0CD9252A00F07880B8
:10514000582A54D0692A18BF642A0DD148F00208A1
:105150000A234FE00A23DFE804F0052A71713B714E
:105160004D71714C082345E0632A67D15FEAC8603E
:1051700007D5304608E05745064638BF87F800B0E7
:105180000137701E022EF6DA574509F104013CBFC3
:10519000D9F800203A7005E05745A0F1010038BF6A
:1051A00087F800B001370228F6DA89463CE0711C26
:1051B00059F8042B4FF01003B1FA81F108BF08260B
:1051C0004909CDE90060384641EA0801C9B226E044
:1051D00059F8041B41A20023002908BF114600E032
:1051E00001339E4238D0CA5C002AF9D135E048F03C
:1051F00040081023BCF16C0F02D159F8042B09E0D0
:1052000059F8042BBCF1680F04D15FEA88714CBFD8
:1052100012B292B25FFA88F1CDE90060384602918D
:105220005146FEF791FD07460698421C069215E787
:105230005745BFF41CAF2520387018E7574503D2F7
:1052400025203870069D2A78781C8AB3504507F1CE
:10525000020738BF0270E7E7334683421A46C8BFE9
:1052600002460028D8BF1A465FEAC86007D5304614
:1052700008E05745064638BF87F800B00137701E72
:10528000B242F6DB002604E053453CBF8D5D1D7045
:105290000136BB199642F7DB06E05345A0F1010049
:1052A00038BF83F800B001338242F6DB1F46BBE70C
:1052B000691E0691B7E70498059A0028B8BFD04345
:1052C00038B1574538464FF0000128BFAAF1010018
:1052D0000170B81A07B0BDE8F08F00BF284E554CDA
:1052E0004C290000002070470020704700207047C4
:1052F0000020704780B5FAF737FFFEF79FFEFFF7F3
:10530000B9FAFFF7ADFBFFF77FFBFEF7D5FDFFF71F
:10531000AFFBFFF733FCFFF791FB002080BD026875
:1053200000211378303B092B84BF08467047531C7B
:1053300001EB81010360127802EB41011A4630391A
:10534000EFE780B5FDF7AAFB4FF47A70FFF7B2FBE9
:10535000F8E702E008C8121F08C1002AFAD1704716
:105360007047002001E001C1121F002AFBD17047E5
:105370000000000000000000010203040607080905
:10538000000000000102030400000100020001000F
:1053900003000100020001000400010002000100FE
:1053A00003000100020001000500010002000100ED
:1053B00003000100020001000400010002000100DE
:1053C00003000100020001000600010002000100CC
:1053D00003000100020001000400010002000100BE
:1053E00003000100020001000500010002000100AD
:1053F000030001000200010004000100020001009E
:10540000030001000200010007000100020001008A
:10541000030001000200010004000100020001007D
:10542000030001000200010005000100020001006C
:10543000030001000200010004000100020001005D
:10544000030001000200010006000100020001004B
:10545000030001000200010004000100020001003D
:10546000030001000200010005000100020001002C
:10547000030001000200010004000100020001001D
:10548000030001000200010068617264206661751A
:105490006C74206F6E2068616E646C65720D0A0D0D
:1054A0000A0068617264206661756C74206F6E20FA
:1054B0007468726561643A2025730D0A0D0A0072E2
:1054C00030303A203078253038780A007230313A5E
:1054D000203078253038780A007230323A2030781F
:1054E000253038780A007230333A20307825303849
:1054F000780A007230343A203078253038780A0043
:105500007073723A203078253038780A0000000035
:10551000F1520008E9520008E5520008ED52000877
:105520004055000800000020000400001009000899
:105530001058000800040020D01F0000625300082B
:1055400042019210A324F44201820142024202333A
:10555000080142028203420382044204820642029C
:1055600082074202421033028042028211420282CA
:1055700012420282134202822042028221420282AD
:10558000224202822342024228330A024202522964
:1055900032024202522A32024202522B32024202AA
:1055A0008230420382314203823242038233420319
:1055B0008238420382394203823A4203823B6203C9
:1055C00020EFC1C081C1400101C3C003800241C2BC
:1055D00001C6C006800741C70005C1C581C440049B
:1055E00001CCC00C800D41CD000FC1CF81CE400E4B
:1055F000000AC1CA81CB400B01C9C009800841C85B
:1056000001D8C018801941D9001BC1DB81DA401ACA
:10561000001EC1DE81DF401F01DDC01D801C41DC9A
:105620000014C1D481D5401501D7C017801641D6CA
:1056300001D2C012801341D30011C1D181D04010DA
:1056400001F0C030803141F10033C1F381F24032CA
:105650000036C1F681F7403701F5C035803441F49A
:10566000003CC1FC81FD403D01FFC03F803E41FE4A
:1056700001FAC03A803B41FB0039C1F981F840385A
:105680000028C1E881E9402901EBC02B802A41EACA
:1056900001EEC02E802F41EF002DC1ED81EC402C9A
:1056A00001E4C024802541E50027C1E781E64026CA
:1056B00020F022C1E281E3402301E1C021802041AA
:1056C000E001A0C060806141A10063C1A381A2404C
:1056D000620066C1A681A7406701A5C065806441DC
:1056E000A4006CC1AC81AD406D01AFC06F806E4154
:1056F000AE01AAC06A806B41AB0069C1A981A84014
:10570000680078C1B881B9407901BBC07B807A411B
:10571000BA01BEC07E807F41BF007DC1BD81BC405B
:105720007C01B4C074807541B50077C1B781B640C3
:10573000760072C1B281B3407301B1C07180704113
:10574000B00050C190819140510193C053805241AB
:10575000920196C056805741970055C1958194405B
:1057600054019CC05C805D419D005FC19F819E4053
:105770005E005AC19A819B405B0199C05980584193
:10578000980188C04880494189004BC18B818A407B
:105790004A004EC18E818F404F018DC04D804C41DB
:1057A0008CC02144C184818540450187C047804623
:1057B00041860182C042804341830041C181818092
:1057C000404001C202C203C204C205C206C207C2EF
:1057D0000842014AB8030020B80300207842024A78
:1057E000C8030020C80300202042054AD803002037
:1057F000D803002030420A0A10E8030020E8030022
:10580000202C00000000000000000000000000004C
:0400000508000131BD
:00000001FF
