:020000040800F2
:1000000028A1002045010008613C00080D020008FD
:10001000FD3500082D120008E9430008000000002B
:10002000000000000000000000000000D53D0008B6
:10003000ED1200080000000097010008D73D0008FD
:100040005F0100085F0100085F0100085F01000810
:100050005F0100085F0100085F0100085F01000800
:100060005F0100085F0100085D1400085F010008DF
:100070005F010008311200085F0100085F010008FD
:100080005F0100085F0100085F0100085F010008D0
:100090005F0100085F0100085F0100085F010008C0
:1000A0005F0100085F0100085F0100085F010008B0
:1000B0005F0100085F0100085F0100085F010008A0
:1000C0005F0100085F0100085F0100085F01000890
:1000D0005F010008614200085F01000869420008F2
:1000E0005F0100085F0100085F0100085F01000870
:1000F0005F0100085F0100085F0100085F01000860
:100100005F0100085F0100085F0100085F0100084F
:100110005F0100085F0100085F0100085F0100083F
:100120005F0100085F0100085F0100085F0100082F
:10013000DFF80CD000F032FD004800471B0C00082F
:1001400028A100200648804706480047FEE7FEE752
:10015000FEE7FEE7FEE7FEE7FEE7FEE7FEE7FEE777
:10016000A93E000831010008EFF3108072B6704715
:1001700080F310887047324A1368012B04D04FF087
:10018000010313602F4A10602F4A11602F484FF06F
:10019000805101607047EFF3108272B62848016801
:1001A00091B14FF0000101602648016829B1EFF3D9
:1001B000098121E9F00F0068016023490968096895
:1001C000B1E8F00F81F3098882F310884EF0040E35
:1001D00070471D4908601B494FF00000086018492E
:1001E0004FF0010008601A481A49D0F8002041EA8F
:1001F0000201016015484FF0805101601648006807
:10020000006880F3088861B662B670471EF0040F7C
:100210000CBFEFF30880EFF3098020E9F00F40F8FE
:1002200004ED1EF0040F0CBF80F3088880F30988EA
:1002300000B504F0F5FE5DF804EB4EF0040E7047D7
:10024000B88E0020088C0020148C002004ED00E003
:1002500020ED00E00000FFFF08ED00E040EA0103B0
:100260009B0703D009E008C9121F08C0042AFAD26C
:1002700003E011F8013B00F8013B521EF9D2704730
:10028000D2B201E000F8012B491EFBD270470022D8
:10029000F6E710B513460A4604461946FFF7F0FF85
:1002A000204610BDF0B480EA0102D40F4200B2EB48
:1002B000410F02D20246084611464A0042D0C30D01
:1002C000DDB2C1F3C752AD1A202D35DAC1F31601E4
:1002D00041F4000204B15242C5F1200602FA06F1CF
:1002E0002A411044B3EBD05F23D0C4B1012DA0EB61
:1002F000C35009DCF0BC4FF0004202EAC352DBB24B
:1003000000F5000000F08EBB400000F1807000EBB3
:10031000C350A0F1807040EAD170490009E049085B
:1003200041EAC071A0EBC35000F50000400800EBAB
:10033000C350F0BC00F06DBB6142012202EB4101F1
:10034000001BF6E7F0BC704781F00041AAE780F09F
:100350000040A7E780EA010210B502F00043400028
:1003600022D04A001FD0010E01EB1261C0F35600EB
:10037000C2F3560240F4000042F40002A0FB022047
:1003800000047F39140400D0401C50EA124001D40C
:100390004000491EC2B20C0604EBD010401C4008BD
:1003A000802A02D003E0002010BD20F001000029C7
:1003B00000DA0020184310BD30B480EA010202F0D8
:1003C000004530F0004221F0004013D090B1C30D41
:1003D000D40DC2F31601C0F31600E41A41F4000173
:1003E00040F400027D34914201D3641C00E04900D6
:1003F000002C02DA30BC002070474FF400000023CC
:10040000914201D3891A034340084FEA4101F7D1D1
:1004100051B1914202D14FF0004105E002D24FF0BC
:10042000010101E06FF0010103EBC450284430BC2E
:1004300000F0EFBA2DE9FE4F804681EA0300C00FBD
:100440000C46009021F0004123F00045B8EB02007B
:10045000A94105D24046214690461C460B4602461D
:1004600023F00040104347D0270DC7F30A00C3F321
:100470000A510290401A019040286BDAC3F313002E
:1004800040F4801B0098924620B10023D2EB030A6F
:1004900063EB0B0B01985946C0F14002504600F047
:1004A00097FA06460D4650465946019A00F09FFAC3
:1004B00010EB08006141002487EA115284EAE773D7
:1004C0001A4340D0009A62B3019A012A4FEA0752B8
:1004D00015DC001B61EB02014FF0004202EA0752FB
:1004E000CDE90042001C41F5801132462B4600F058
:1004F000D6FA03B0BDE8F08F40462146F9E7001B6D
:1005000061EB0201001C41F5801300185B412018CB
:10051000A2F5001747EB030140EAD570B6196D410B
:1005200011E06D084FEA360645EAC0754FEA0752FA
:10053000001B61EB0201001C41F5801149084FEAE4
:1005400030000019514132462B4603B0BDE8F04F50
:1005500000F096BA0098012240000023D0EB02027E
:1005600063EBE073009821464FEAE074B8EB0000BB
:1005700061EB0401E9E783F000435BE781F00041B0
:1005800058E72DE9FE4F81EA030404F0004421F00E
:10059000004100944FF0000B23F0004350EA0104A7
:1005A0005ED052EA03045BD0C3F30A54C1F30A5588
:1005B0002C44A4F2F3340194A0FB0254C1F31301C0
:1005C00041F48011C3F3130343F4801301FB02448D
:1005D00000FB034E840A970A44EA815447EA835792
:1005E000A4FB076802958D0A05FB07854FEA932C4B
:1005F00004FB0C542705029D4FEA065847EA1637BC
:10060000B5EB08056EEB070C870E920E47EA8117D3
:1006100042EA8312A7FB0201B6EB0B0164EB000474
:100620002B0D43EA0C335E1844EB1C50DA4651465E
:10063000E7FB0201C5F313044FEA0B3343EA1453FB
:100640004FEA0432019C43EA0603A4F10C0402942D
:10065000009CCDE900B400F022FA03B0BDE8F08FB1
:1006600000200146F9E72DE9F04D81EA030404F08A
:10067000004B21F0004514464FF0000A23F00041E2
:1006800050EA050220D054EA01021DD0C5F30A57F2
:100690000246C5F31303C1F31300C1F30A5640F435
:1006A000801543F48013A7EB0608101BD64608F20A
:1006B000FD3873EB050002D308F1010801E0921840
:1006C0005B41B8F1000F03DA00200146BDE8F08D70
:1006D00000204FF48011064684460EE0171B73EB92
:1006E000050705D3121B63EB050306434CEA010C17
:1006F00049084FEA300092185B4150EA0107EDD1FA
:1007000052EA030012D082EA040083EA050108439A
:1007100005D0101BAB4106D20122002306E00022C7
:100720004FF0004302E06FF0010253101AEB060095
:100730004CEB085110EB0A0041EB0B01BDE8F04D0A
:1007400000F09EB9002801DBC0F10040002901DB68
:10075000C1F10041814201D801207047002070475B
:10076000002801DBC0F10040002901DBC1F100419C
:10077000814201D20120704700207047002801DB30
:10078000C0F10040002901DBC1F10041814201D3E9
:100790000120704700207047002801DBC0F10040B5
:1007A000002901DBC1F10041814201D901207047DC
:1007B00000207047002801DBC0F10040002901DB68
:1007C000C1F10041814201D10120704700207047F2
:1007D00030B5041E71F1000404DB4FF000444042C8
:1007E00064EB0101141E73F1000405DB1C464FF09D
:1007F0000043524263EB0403801A994101D3012064
:1008000030BD002030BD30B5041E71F1000404DBA2
:100810004FF00044404264EB0101141E73F10004E8
:1008200005DB1C464FF00043524263EB0403101AF1
:100830008B4101D2012030BD002030BD30B5041EF7
:1008400071F1000404DB4FF00044404264EB01010D
:10085000141E73F1000405DB1C464FF000435242A6
:1008600063EB0403101A8B4101D3012030BD00203B
:1008700030BD30B5041E71F1000404DB4FF00044BC
:10088000404264EB0101141E73F1000405DB1C46B9
:100890004FF00043524263EB0403801A994101D2A6
:1008A000012030BD002030BD0EB5C10F80EAE070E0
:1008B0000844CA07002140F233438DE80E000A467F
:1008C0000B4600F0ECF803B000BD0EB540F233412A
:1008D00002910021CDE900110A460B4600F0DFF835
:1008E00003B000BD00F0004230F000400AD0C10D5E
:1008F00001F56071C0F3160042EA0151C2084007D9
:100900001143704700200146704701F0004330B4A6
:1009100021F0004150EA010206D00A0DA2F56072F2
:10092000C1F31301002A02DC30BC00207047440FE1
:1009300044EAC104C100E01830BC00EBC25000F032
:1009400068B830B50B46014600202022012409E09A
:1009500021FA02F59D4205D303FA02F5491B04FA78
:1009600002F52844151EA2F10102F1DC30BD2DE98B
:10097000F05F0546002092469B4688460646814623
:1009800040241BE0284641464746224600F018F91D
:1009900053465A46C01A914110D311461846224672
:1009A00000F016F82D1A67EB01084F462246012089
:1009B000002100F00DF817EB00094E41201EA4F1B4
:1009C0000104DFDC484631462A464346BDE8F09F35
:1009D000202A04DB203A00FA02F1002070479140FF
:1009E000C2F1200320FA03F3194390407047202AF4
:1009F00006DBCB17203A41FA02F043EAE07306E047
:100A000041FA02F3D040C2F1200291400843194656
:100A100070470029A8BF7047401C490008BF20F05C
:100A20000100704710B4B0FA80FC00FA0CF050EAF4
:100A3000010404BF10BC704749B1CCF1200421FA75
:100A400004F411FA0CF118BF012121430843A3EB70
:100A50000C01CB1D4FEA00614FEA102042BF00207D
:100A600010BC704700EBC35010440029A4BF10BC59
:100A70007047401C490008BF20F0010010BC7047BF
:100A800010B5141E73F1000408DA401C41F1000196
:100A900092185B411A4301D120F0010010BD2DE9ED
:100AA000F04D92469B4611B1B1FA81F202E0B0FAE4
:100AB00080F220329046FFF78BFF04460F4640EA53
:100AC0000A0041EA0B0153465A46084313D0114627
:100AD00053EA010019D0C8F14002504600F070F806
:100AE00005460E46504659464246FFF771FF0843F9
:100AF00005D0012004E020463946BDE8F08D0020F5
:100B0000054346EAE0762C4337430A986305E40A36
:100B1000A0EB08000022FD0A44EA47540A3002D53F
:100B200000200146E9E7010510196941DDE90845A2
:100B300000196941BDE8F04DA2E7C1F30A52C1F3C3
:100B4000130140F2FF3341F480119A4202DA00208F
:100B50000146704740F233439A42A2F2334202DC2C
:100B6000524200F02DB8FFF733BF000030B5041E2D
:100B700071F1000404DB4FF00044404264EB0101DA
:100B8000141E73F1000405DB1C464FF00043524273
:100B900063EB0403994208BF904230BD064C074DF9
:100BA00006E0E06840F0010394E80700984710343D
:100BB000AC42F6D3FFF7C0FA106E0008306E0008A2
:100BC000202A04DB203A21FA02F00021704721FAA2
:100BD00002F3D040C2F12002914008431946704709
:100BE00030B58C1810F8012B12F00F0301D110F85A
:100BF000013B120906D110F8012B03E010F8015B4C
:100C000001F8015B5B1EF9D101E001F8013B521EC6
:100C1000FBD1A142E6D3002030BD80B505F010FB2A
:100C2000002080BDB0B54FF0000E4FF0070C0A0653
:100C300004BF5FFA8EF0B0BD80220FE005788CEA29
:100C40004E042A400EF0800518BF0122B2EBD51FDA
:100C50004FEA530208BF4FEA4E04A646D3B2002B18
:100C6000ECD101390130E2E780B5A8B1D0F804C079
:100C7000BCF1000F10D090F808E0002309E002EB6F
:100C8000420201335CF82200884204BF0CEB820070
:100C900080BDDAB27245F2D9002080BDF0B585B0D2
:100CA00006460020002ECDE90200CDE900002DD03F
:100CB0003046FFF7D9FF044640B32078012702AD44
:100CC00067F39F108DF80800717AA26830780029C8
:100CD00018BF0132511CCAB2294602F073FA767A63
:100CE000012E16D12078694667F39F108DF8000019
:100CF000A068023002E0AB5C01378B54FAB290423C
:100D0000F9DCC1B26846FFF78DFF03E04FF0FF301A
:100D10002FE00020022E18D1217801206A4660F3CE
:100D20009F118DF80010A168023102E0EF5C0130E4
:100D3000D754C3B29942F9DC00206A4603E012F8A6
:100D4000013B013958400B06F9D1000602D06FF083
:100D500001000EE0002001226060A16806E00702A9
:100D600001326760EB5C43EA00206060D3B29942D5
:100D7000F5DA05B0F0BDE0B501464FF0FF300029CF
:100D8000CDE9000004D008786946082202F060FA34
:100D900002B080BD2DE9FC4104460020002CCDE9C5
:100DA00000002FD0C9B22046FFF75EFF054648B3CA
:100DB000287800216E4600F03F008DF8000068683A
:100DC00003E0BA1A0131B0540012AF68CAB29742B8
:100DD000F7DC94F80980B8F1000F07D0781CC1B295
:100DE0003046FFF71FFFF1194870AF680220B8F1D5
:100DF000000F694608BF01203844C2B2207802F0D3
:100E000027FA01E04FF0FF3002B0BDE8F0810000AA
:100E10000138072888BF7047DFE800F004070A0D93
:100E200010131619012000F01DBB022000F01ABBA0
:100E3000032000F017BB042000F014BB052000F0D5
:100E400011BB062000F00EBB072000F00BBB0820F2
:100E500000F008BBF8B5044602F012F9244EA020B9
:100E6000B047244FB847250A2846B047B847E0B2F4
:100E7000B047B8476FF05E0000EB450402F000F9A0
:100E8000E0B2B047B847002002F090F8044602F004
:100E90000FF9204601B0F0BDB0B50C460546FFF78E
:100EA000D9FFA04208BFB0BD28462146BDE8B040EA
:100EB000AFF30080F8B50C46054602F0E1F80C4EA1
:100EC000A020B0470B4FB847280AB047B847E8B250
:100ED000B047B8472046B047B84702F0E9F80A20C3
:100EE00004F08EFD28462146BDE8F840FFF7D4BF48
:100EF00035300008E53000082DE9F047DFF8D091E3
:100F00000E461C461546074699F80010052900F2C2
:100F1000CD800898DFE801F003B10E314BCC002101
:100F2000C9E90F11C9F844104FF07E51016003F078
:100F3000CDF91BE0D9F83C100131C9F83C104FF055
:100F40007E51016003F0C2F938463146FFF7DDFCFF
:100F5000C9F840008046D9F84400FFF7C3FC3A4680
:100F60003346FFF735FC08B9C9F8448038463146A6
:100F70002A462346FFF72CFC8FE0D9F83C100131BC
:100F8000C9F83C100021016003F0A0F9D9F8400035
:100F9000FFF7A8FC3A463346FFF750FC002876D10D
:100FA00038463146FFF7B1FCC9F840006FE0002138
:100FB000016003F08BF94FF07E5040F20111C9F847
:100FC00034009948018101218172D9E90F40D9F893
:100FD0004410FFF7B9F9FFF785FC3E4D00222B4680
:100FE000FFF7CFFA3C4A3D4BFFF7CBFA0B463C49A3
:100FF00002460020FFF737FBFFF787FCC9F84800DF
:10100000FFF770FC374B4FF03332FFF7BAFAFFF7B8
:101010007CFCDFF84CACC9F85400CAF89000FFF72C
:1010200061FC804620460F46FFF74FFC00222B460E
:1010300004460E46FFF7A5FA02460B4640463946DF
:10104000FFF711FBFFF761FC0546C9F85800204681
:10105000314600224FF07F53FFF793FA42463B465A
:10106000FFF78FFAFFF751FCC9F83800CAE925509D
:1010700003F0A2FB04F02EFB13E00021016003F05B
:1010800025F938463146FFF740FCC9F84400384698
:1010900031462A462346FFF7D1FB002818BFBDE89A
:1010A000F08799F80000013089F80000BDE8F0876A
:1010B000E948D0E91E45D0F88000FFF713FC02464E
:1010C0000B4620462946BDE8F04702F0CBBD00BFE5
:1010D000000000200000E03F894160E5D022094087
:1010E000000079403333E33F2DE9F84F474F484E36
:1010F000D7E90001421CB0F5967F3A60D64AD36F1B
:10110000926F46F8312006EBC10201F101015360F4
:101110004FF4967291FBF2F303FB12117960B8BFA2
:10112000BDE8F88FD6E900984FF0080BCA4647464D
:101130001BE0374852463B4650F80B405844456840
:1011400020462946FFF795FB0646204629464A4693
:101150004346FFF758FB00280BF1080B1CBFA846BD
:10116000A146002E1CBF2F46A246BBF5166FE0D14C
:10117000504639464A464346FFF7FDF9254A274B74
:10118000C2E90001244AFFF73EFBA0B3B24E244B54
:101190000022D6E92C01FFF74DF9224B0022C6E9C7
:1011A0002C01FFF730FB194D50BB194F00240020D4
:1011B000002105E03B193A595B68FFF73BF9083419
:1011C000B4F5166FF6D1184A0123937300235371B7
:1011D0009370C6E92C332B60124B0022FFF743FAC1
:1011E000C6E92A01FFF791FBC6F8800003F0E4FA94
:1011F00004F070FA04E0054D97490020C1E92C0085
:101200004FF496702860BDE8F88F00BF9C05002061
:10121000C8930020F80B00208DEDB5A0F7C6B03EB6
:101220000000F03F00C07240A4060020FEE700006E
:10123000014800F0B3BD00BF7C0A002010B5D0E922
:101240000FCE012404FA0EF4CCF804400468636065
:1012500040681028084608BF1046A06008BF0A462C
:10126000E26010BD10B5174C6078072807D8DFE89A
:1012700000F0040404040404040400F033F91248E8
:101280004FF40071016120780138072888BF10BD34
:10129000DFE800F00406080A0C0E101212480CE0F9
:1012A00010480AE00E4808E00C4806E00A4804E04E
:1012B000084802E0064800E004480121BDE810406B
:1012C000FFF768BD800400207C000020140400208B
:1012D00008040020FC030020F0030020E4030020A9
:1012E000D8030020CC030020C0030020704700007A
:1012F0000138072888BF7047DFE800F0040B10169C
:101300001C22282E744810210122A0F5805000F0E4
:10131000BCBF71488021012200F0B7BF6E484FF476
:101320008071012200F0B1BF6B484FF400710122BF
:1013300000F0ABBF68484FF48061012200F0A5BF08
:1013400065484FF40061012200F09FBF62484FF4EE
:101350008051012200F099BF5F484FF400510122F3
:1013600000F093BFF8B53B4C0026E51C05E0B0B299
:10137000FFF770FD05F801090136042EF7D1264666
:10138000354D002756F8030BC5F8900006E0381DD0
:1013900080B2FFF75FFD06F801090137042FF6D18F
:1013A0002646002756F8030BC5F8940007E007F11E
:1013B000080080B2FFF74EFD06F801090137042F3F
:1013C000F5D12646002756F8030BC5F8980007E02C
:1013D00007F10C0080B2FFF73DFD06F80109013767
:1013E000042FF5D12646002756F8030BC5F818013F
:1013F00007E007F1100080B2FFF72CFD06F80109A5
:101400000137042FF5D12646002756F8030BC5F8FF
:101410001C0107E007F1140080B2FFF71BFD06F87E
:1014200001090137042FF5D12646002756F80F0B86
:10143000C5F8A00007E007F1180080B2FFF70AFD29
:1014400006F801090137082FF5D1D4E90201C5E9F1
:101450002A01F8BD6804002058090020102000F07F
:1014600025BE00000138072888BF7047DFE800F07C
:10147000040B10161C22282E174810210022A0F55C
:10148000805000F002BF14488021002200F0FDBE11
:1014900011484FF48071002200F0F7BE0E484FF45F
:1014A0000071002200F0F1BE0B484FF48061002271
:1014B00000F0EBBE08484FF40061002200F0E5BEEA
:1014C00005484FF48051002200F0DFBE02484FF47F
:1014D0000051002200F0D9BE00180140EFF3108047
:1014E00072B6FEE72DE9F8433C2004F089FADFF8F4
:1014F00060673078072888BFBDE8F883DFE810F020
:10150000080023003E005A00750090005D01AB000A
:10151000DFF854070421FFF7C1FBDFF83C476060A8
:1015200002F042FCC4E90C010120FFF7E1FEDFF804
:10153000340748F260018165DFF84C071021FFF79E
:1015400029FC022053E1DFF840070421FFF7A6FB46
:10155000DFF80447606002F027FCC4E90E010220B6
:10156000FFF7C6FEDFF8FC0648F260018165DFF890
:1015700014071021FFF70EFC032038E1DFF8040701
:1015800004210424FFF78AFBDFF8CC56686002F0E0
:101590000BFCC5E910010320FFF7AAFEDFF8C40623
:1015A00048F260018165DFF8D8061021FFF7F2FBF1
:1015B0002C701DE1DFF8C8060421FFF76FFBDFF890
:1015C0009846606002F0F0FBC4E912010420FFF7C6
:1015D0008FFEDFF8900648F260018165DFF89C0617
:1015E0001021FFF7D7FB052001E1DFF89006042169
:1015F000FFF754FBDFF86046606002F0D5FBC4E9FA
:1016000014010520FFF774FEDFF8580648F2600168
:101610008165DFF864061021FFF7BCFB0620E6E0D9
:10162000DFF854060421FFF739FBDFF82C46606031
:1016300002F0BAFBC4E916010620FFF759FEDFF8F5
:10164000240648F260018165DFF828061021FFF7C3
:10165000A1FB0720CBE0DFF8FC050421FFF71EFB10
:10166000DFF8F485C8F8040002F09EFB04460D463E
:10167000C8E9044598F90170072F2DD808F1300307
:101680000FCBFEF7D7FED8E91023FEF7D3FED8E93B
:101690001223FEF7CFFED8E91423FEF7CBFED8E9DC
:1016A0001623FEF7C7FED8E91823FEF7C3FE02464D
:1016B0000B4620462946FEF7BDFE00224FF07F5321
:1016C000FEF75FFFDD4ADE4BFEF7CDFFDFF88C252E
:1016D00052F82720C2E90001DFF8847507F14803BA
:1016E0000FCBFEF7A7FED7E91623FEF7A3FED7E937
:1016F0001823FEF79FFE07F1280304460D460FCB83
:10170000FEF798FED7E90E23FEF794FED7E91023E3
:10171000FEF790FE22462B46FEF72DFFC7E9080193
:101720000820FFF7E5FDDFF83C0548F26001816520
:10173000DFF834051021FFF72DFB03F039F803F033
:10174000C9FF98F80100072800F27281DFE810F065
:10175000080055008C00CB0013017C01CC01240251
:10176000B84DDFF80C754FF48071002205F5006468
:101770002046B84728464FF400410122B84705F5F6
:1017800080654FF4807100222846B84728468021A2
:101790000122B847284640210122B84720464FF48D
:1017A00000410022B84720464FF480410022B8474C
:1017B00020464FF4005101224BE0DFF8B804042129
:1017C000FFF76CFADFF89044606002F0EDFAC4E9CC
:1017D00018010720FFF78CFDDFF8880448F260014C
:1017E0008165DFF870041021FFF7D4FA082020701B
:1017F000307801303070BDE8F883924DDFF87074B6
:101800004FF48071002205F500642046B847284651
:101810004FF400410122B84705F580654FF480710F
:1018200000222846B847284680210122B84728468A
:1018300040210022B84720464FF400410122B8471A
:1018400020464FF480410122B84720464FF4005112
:101850000022B84720464FF480510022B847204666
:101860004FF40061012235E0764DDFF804744FF447
:101870008071002205F500642046B84728464FF4E1
:1018800000410122B84705F580654FF480710022C0
:101890002846B847284680210122B84728464021DB
:1018A0000022B84720464FF400410122B8472046A5
:1018B0004FF480410022B84720464FF400510122E6
:1018C000B84720464FF480510122B84720464FF4D4
:1018D00000610022B847204601210022B847204677
:1018E000022101223CE0E14DE14F4FF480710022E2
:1018F00005F500642046B84728464FF40041012210
:10190000B84705F580654FF4807100222846B84736
:10191000284680210122B847284640210022B847A6
:1019200020464FF400410122B84720464FF4804141
:101930000022B84720464FF400510122B847204604
:101940004FF480510022B84720464FF40061012235
:10195000B847204601210122B84720460221002233
:10196000B84720464FF480610022B84720464FF424
:101970000071012246E0BD4DBD4F4FF48071002241
:1019800005F500642046B84728464FF4004101227F
:10199000B84705F580654FF4807100222846B847A6
:1019A000284680210122B847284640210022B84716
:1019B00020464FF400410122B84720464FF48041B1
:1019C0000022B84720464FF400510122B847204674
:1019D0004FF480510022B84720464FF400610122A5
:1019E000B847204601210022B847204602210122A3
:1019F000B84720464FF480610122B84720464FF493
:101A000000710022B847204610210022B847204626
:101A100020210122B847204604210022B847204651
:101A200008210122B84798F80100471C88F8017086
:101A3000012088F800000020DCE600BF3D0AD7A3A3
:101A400070FD3340000C0140884D894F4FF4807188
:101A5000002205F500642046B84728464FF40041AF
:101A60000122B84705F580654FF4807100222846B1
:101A7000B847284680210122B84728464021002245
:101A8000B84720464FF400410122B84720464FF4A2
:101A900080410022B84720464FF400510122B84748
:101AA00020464FF480510022B84720464FF4006191
:101AB0000122B847204601210022B84720460221D2
:101AC0000122B84720464FF480610022B8472046E3
:101AD0004FF400710122B847204610210122B84777
:101AE00020462021002295E7604D614F4FF4807120
:101AF000002205F500642046B84728464FF400410F
:101B00000122B84705F580654FF480710022284610
:101B1000B847284680210122B847284640210022A4
:101B2000B84720464FF400410122B84720464FF401
:101B300080410022B84720464FF400510122B847A7
:101B400020464FF480510022B84720464FF40061F0
:101B50000122B847204601210022B8472046022131
:101B60000122B84720464FF480610022B847204642
:101B70004FF400710122B847204610210022B847D7
:101B8000204620210122B847204604210122B847DF
:101B900020460821002245E7344DDFF8D4904FF469
:101BA00080710022002705F500642046C8472846BA
:101BB0004FF400410122C84705F580654FF480715C
:101BC00001222846C847284680210022C8472846C7
:101BD00040210022C84720464FF400410122C84757
:101BE00020464FF480410022C84720464FF4005160
:101BF0000122C84720464FF480510022C8472046A2
:101C00004FF400610122C847204601210022C84745
:101C1000204602210122C84720464FF4806100225D
:101C2000C84720464FF400710122C84720461021C2
:101C30000022C847204620210122C847204604210F
:101C40000022C847204608210122C847EEE600BF0F
:101C5000B40600201404002080040020306C00082A
:101C6000580900207C000020C0030020000C014027
:101C70008B22000808040020FC030020F003002051
:101C8000E4030020D8030020CC03002090F82110AA
:101C9000022912D1016801230A6822F00E020A60AB
:101CA0000A6822F001020A60D0E90F1203FA02F278
:101CB0004A60002180F8213002E004218163012183
:101CC000002280F8202008467047000090F821107C
:101CD000022919D10268116821F00E011160116802
:101CE00021F001011160A04901F17C039A420FD952
:101CF000A54B9A4224D0A54B9A4223D0A44B9A429A
:101D000022D14FF4807327E004218163012143E055
:101D1000964B9A4226D0964B9A4225D0954B9A42A2
:101D200024D0954B9A4224D0944B9A4217D0944B8E
:101D30009A4221D0934B9A4211D14FF080721DE00C
:101D4000012309E0102307E001F5886C4FF480338C
:101D5000624508BF4FF48053C1F800340FE04FF4E0
:101D600080320BE0012209E0102207E04FF480727C
:101D700004E04FF4805201E04FF480120A60002129
:101D8000012280F8201080F82120426B22B180B51A
:101D900090470021BDE880400846704710B5D0E963
:101DA0000FC3DCF80020D0F800E0DEF8001011F0DE
:101DB000040F1EBF04249C4014EA020424D18C07A3
:101DC0003ED502249C4014403AD0DEF8001011F0B9
:101DD000200F08D1DEF8001021F00A01CEF8001023
:101DE000012180F82110604A02F17C018E4542D920
:101DF00065498E456FD065498E456ED064498E45E4
:101E00006DD14FF4007172E0DEF80010564A11F007
:101E1000200F02BFDEF8001021F00401CEF8001000
:101E200002F17C018E453ED957498E4562D0574913
:101E30008E4561D056498E4560D14FF4806165E092
:101E4000090740F1908008219940114008BF10BD5A
:101E5000DEF8001021F00E01CEF80010012101FA89
:101E600003F2CCF804200022816380F8202080F85F
:101E70002110016B73E03D498E4550D03C498E45A1
:101E80004FD03C498E454ED03B498E454ED03B49C4
:101E90008E453ED03A498E454BD03A498E4538D191
:101EA0004FF0007147E031498E454AD030498E45A8
:101EB00049D030498E4548D02F498E4548D02F49CA
:101EC0008E4529D02E498E4545D02E498E4523D1A9
:101ED0004FF0806141E0022109E0202107E002F596
:101EE00088634FF400319E4508BF4FF40051C2F89B
:101EF000001421E0042109E0402107E002F5886395
:101F00004FF480219E4508BF4FF48041C2F8001471
:101F100024E04FF400310EE04FF480211DE0022157
:101F200009E0202107E04FF4007104E04FF4005174
:101F300001E04FF400111160002180F82010816A47
:101F40000DE0042109E0402107E04FF4806104E046
:101F50004FF4804101E04FF480011160C16A11B17A
:101F6000BDE81040084710BD0400024008000240D0
:101F70001C00024030000240440002405800024071
:101F80006C00024080000240080402401C04024031
:101F90003004024001460120002908BF7047B0B557
:101FA00002221C4C81F82120194A0B6802F1080C0E
:101FB000634538BFA2F5806238BF04F5806403EB47
:101FC000040C1424BCFBF4F4A400C1E90F2443F670
:101FD000F0741A6822EA040CD1E90142D1E903E560
:101FE00044EA0C04224342EA0E022A434D692A4382
:101FF0008D692A43CD692A431A6000228A6381F8D9
:10200000202081F821000020BDE8B040704700BFCB
:1020100000040240F8FBFDBF10B5044690F8200014
:10202000012820D0012084F8200094F82100012804
:1020300016D1022084F821000020A063D4F800C04B
:10204000DCF8000020F00100CCF800002046FFF78B
:10205000F5F82068E26A01683AB141F00E010AE041
:10206000002084F8200002200BE021F00401016030
:10207000016841F00A010160016841F0010101605D
:102080000020C0B210BD000080B5C00658BF80BDA2
:102090000548402100F0ECF800B180BD02F090FB53
:1020A000BDE8804003F016BB0008014003490A6800
:1020B000024214BF08607047FFF7E6BF14040140F6
:1020C0002DE9FC4F81465F4806234FF0000C4FF08E
:1020D00001084FF00F0E4FF0000A81455A4808BF23
:1020E000052348444FEAB022052A4FF0000238BFCA
:1020F0004FEAB02300930C6834FA02F508BFBDE83C
:10210000FC8F08FA02F73C4200F098804D68032DDE
:1021100016D9112D26D0122D28D04E48854213D025
:102120004D48854210D04D4885420DD04C488542DF
:102130000AD04C48854207D04B48854204D022E063
:10214000DFE805F002181B1F8C6844B1012C4FF02A
:10215000080A14BFC9F81470C9F8107013E04FF0E2
:10216000040A10E0CC6804F1040A0CE0CC6804F125
:102170000C0A08E0D1F80CA005E0CC6804F1080ACC
:1021800001E04FF0000A082A6446484628BF203C78
:1021900028BF043006680EFA04F50AFA04F426EAA9
:1021A00005052C430460C879C00647D57948274EF9
:1021B00022F0030503460068B346354440F00100B1
:1021C00018601868294B00F0010001900CF00C0019
:1021D000019E0EFA00F49E46EE58009B03FA00F0B2
:1021E00026EA04041A4B204345F80E004FF00F0E68
:1021F0004D68DBF8080015F4801F0CBF20EA0704C7
:1022000040EA0704A802CBF80840186854BF20EA47
:10221000070440EA0704A8031C60DBF8040054BF6D
:1022200020EA070440EA0704E803CBF80440DBF89F
:10223000000054BFB8433843CBF800000CF1040C45
:10224000013258E7001C014000F8FEBF00040140C5
:102250000C040140000011100000121000002110B9
:1022600000002210000031100000321008FCFFFFB7
:102270008068084018BF01207047C26802EA010365
:10228000914341EA034101617047002A08BF0904F4
:102290000161704730488068704700BFB0B50446A0
:1022A00018B320684CF6CC41016045F255510160ED
:1022B00061684160A1688160FFF7ECFF0546206816
:1022C000C16811F0030F0BD0FFF7E4FF401B282873
:1022D000F5D32068C06810F0030FF0D0032005E0AC
:1022E0004AF6AA210160002000E00120C0B2B0BD82
:1022F00000684AF6AA2101600020704780B50748AF
:10230000016841F010010160032000F089F80F20FE
:1023100000F006F800F022F8002080BD0020024006
:1023200070B50D4E04464FF47A713078B1FBF0F081
:102330009A490968B1FBF0F000F01AFB01250F2C57
:1023400008D838B94FF0FF3021460022002500F0B0
:1023500045F87460284670BD6C00002082B00D48BE
:102360000222016841F001010160016801F00101F0
:1023700001910199416841F080514160406800F04D
:102380008050009000980448016862F31A6101606F
:1023900002B07047181002400400014000280CDB16
:1023A00000F01F010122400902FA01F1034A42F83C
:1023B0002010BFF34F8FBFF36F8F704780E100E0B5
:1023C000002808DB00F01F010122400902FA01F198
:1023D000014A42F82010704700E100E010B5164BAA
:1023E0001B68C3F3022E0EF1040CAEF103048EF051
:1023F0000703BCF1070F4FF0010C38BF0024042B7A
:1024000028BF04230CFA03F3013B19400CFA04F330
:10241000013BA1401A401143BDE8104001F0E6BF66
:1024200005494FF6FF030A681A4060F30A22034881
:1024300010430860704700BF0CED00E00000FA0593
:102440002DE9F04188460446002800F08880464F78
:102450004FF48050395801F0070141450AD23958EC
:1024600021F0070141EA08013950385800F007000F
:10247000404574D1206810F0020F11D0410742BFCF
:10248000796841F4E0617960010742BF796841F4FD
:10249000605179607968A26821F0F0011143796098
:1024A000C00727D06068012804D1396811F4003FC3
:1024B00008D154E03968022802D1890102D44EE0E3
:1024C00089074CD5796821F0030108437860FFF74C
:1024D000E1FE064641F288357868616800F00C003C
:1024E000B0EB810F06D0FFF7D5FE801BA842F3D9D1
:1024F000032035E04FF48050395801F00701414581
:102500000AD9395821F0070141EA080139503858F1
:1025100000F00700404522D1206810F0040F05D0DC
:102520007968E26821F4E06111437960000706D51B
:102530007868216920F4605040EAC100786000F0BA
:1025400031F87968094AC1F30311515CC840134955
:10255000086007480068FFF7E3FE002000E0012064
:10256000C0B2BDE8F08100BF00100240506C00080E
:10257000700000200948FA49094A00680968C1F357
:102580000221515CC8407047F748F549044A006889
:102590000968C1F3C221515CC8407047780000202F
:1025A000606C000810B50D4C0D48226802F00C0359
:1025B000082B18BF10BDC2F383430AA112F4803F59
:1025C000CB5C02D10C48584310BD216809A2584386
:1025D000C1F34041515CB0FBF1F010BD041002406A
:1025E00000127A0002030405060708090A0B0C0D05
:1025F0000E0F10100102000000093D002DE9FE43FE
:102600000446002800F05C812078D44ED44FC007E7
:10261000B14650D0386800F00C00042818D0386853
:1026200000F00C00082803D1386810F4803F0FD167
:102630006068A0B1B0F5803F06D03168B0F5A02F3A
:1026400025D141F480203060306840F4803024E0AF
:10265000306810F4003F2ED0606860BB30E1306815
:1026600020F480303060306820F480203060FFF744
:1026700011FE0546D9F800004E4610F4003F1AD06E
:10268000FFF708FE411B03206429F3D919E121F467
:1026900080303060306820F480203060FFF7FAFD31
:1026A0000546306810F4003F05D1FFF7F3FD401BED
:1026B0006428F6D9E6E0207880072FD5386810F036
:1026C0000C0F08D0386800F00C0008280BD13868CF
:1026D00010F4803F07D1306810F0020F17D0206946
:1026E000012814D0ECE021699E48002900F08A807E
:1026F00001210160FFF7CEFD0546306810F0020FA2
:1027000005D1FFF7C7FD401B0228F6D9BAE03068B3
:10271000616920F0F80040EAC100306020780007CD
:1027200030D5A06980B18F480121C0F88014FFF72F
:10273000B1FD0546386A10F0020F16D1FFF7AAFD69
:10274000401B0228F6D99DE086480021C0F880147D
:10275000FFF7A0FD0546386A10F0020F12D0FFF710
:1027600099FD401B0228F6D98CE07F484FF4FA51BE
:102770000068B0FBF1F0029000BF0298411E0028F3
:102780000291F9D12078400740F18580B86910F0B6
:10279000805F0BD1B8694FF0010840F08050B861FC
:1027A000B86900F080500190019801E04FF00008F6
:1027B0006E4E484659F8060010F4807F14D159F83F
:1027C000060040F4807049F80600FFF763FD0546F7
:1027D000484659F8060010F4807F05D1FFF75AFDEE
:1027E000401B6428F4D94DE0E068F0B1012805D021
:1027F000F969052831D141F00400F861F86940F029
:10280000010030E000210160FFF744FD0546484625
:10281000D9F8000010F0020F3FF480AFFFF73AFD47
:10282000411B03200229F2D94BE0F86920F0010096
:10283000F861F86920F00400F861FFF72BFD054608
:1028400041F28836F86910F0020F1DD0FFF722FD23
:10285000411B0320B142F5D933E021F00100F861BA
:10286000F86920F00400F861FFF714FD054641F215
:102870008836F86910F0020F06D1FFF70BFD401BF8
:10288000B042F6D903201CE0B8F1000F1EBFB869B2
:1028900020F08050B861E669002E5DD0386800F005
:1028A0000C00082811D1012E0AD03868216A00F4E2
:1028B00080328A4204D1616A00F4701088424BD0A1
:1028C0000120C0B203B0BDE8F0832649002088464D
:1028D0000866FFF7DFFC0546022E0DD14646484646
:1028E000D9F8000010F0007F13D0FFF7D3FC411B94
:1028F00003200229F3D9E4E74846D9F8000010F094
:10290000007F29D0FFF7C6FC411B03200229F3D921
:10291000D7E7206AB0F5803F05D13968A26821F475
:102920000031114339603968626A104321F474112F
:102930000843386001203066FFF7ACFC0446484687
:10294000D9F8000010F0007F06D1FFF7A3FC011BAF
:1029500003200229F3D9B4E70020B2E700100240B7
:102960000410024000004242780000200060FEFF98
:10297000411E0020B0EB116F1CBF01207047044ABC
:10298000F023516003490B7007219060116070477C
:1029900010E000E023ED00E0704710B50446006849
:1029A000416994F84120212A15D111F0800101D10B
:1029B00011E0206850E8050F216820F0800041E810
:1029C0000502002AF5D1A06B08B1FFF75FF9204698
:1029D00001F00DFB2068416994F84220222A14D1AD
:1029E00011F0400101D110E0206850E8050F216886
:1029F00020F0400041E80502002AF5D1E06B08B163
:102A0000FFF744F9204601F0CBFA002010BD7047D3
:102A1000BCB50446006802680146D0F80CE051F8E5
:102A2000143F12F00F0F65D00EF4907503F0010CF7
:102A30005CEA050368D0D0071FBF1EF48070606C8D
:102A400040F001006064500706D5BCF1000F1EBFC6
:102A5000606C40F002006064900706D5BCF1000F86
:102A60001EBF606C40F004006064100708D50EF0D3
:102A7000200050EA0C001EBF606C40F0080060644B
:102A8000606C002800F009810EEA0200800605D57E
:102A9000204601F0BAFA206800F114010868616C60
:102AA00000F0400001F00801084300F0E2802046F9
:102AB00001F076FA2068416911F0400F01D1D3E0AE
:102AC000206850E8050F216820F0400041E8050229
:102AD000002AF5D1E06B002800F0C68074494163FC
:102AE000FFF7F4F8002800F0D880E06B416BBDE8F8
:102AF000BC4008470EEA020111F0200F06D0204624
:102B0000BDE8BC4001F081BA0EEA0201226BCB069F
:102B10003DD5012A3BD10021019101680191416815
:102B200001910199416911F0400F41D1E18DA28DD0
:102B3000E38D002B00F0B180511A0A0401D1ACE002
:102B4000206850E8030F226820F4907042E80303E5
:102B5000002BF5D1206850E8050F226820F0010015
:102B600042E80503002BF5D1202084F84200002024
:102B70002063206850E8030F226820F0100042E82C
:102B80000303002BF5D1022089B2606357E00A06E7
:102B90005AD4490640F18180C16821F04001C160EA
:102BA000202084F841002046BDE8BC4000F0ABB9CD
:102BB000E26B11684B6899B200296ED0B4F82CC052
:102BC00061456AD2E3859169202901D131E020680D
:102BD00050E8030F216820F4807041E80302002AC6
:102BE000F5D1206850E8050F216820F0010041E888
:102BF0000502002AF5D1206850E8050F216820F071
:102C0000400041E80502002AF5D1202084F8420066
:102C100000202063206850E8030F216820F0100096
:102C200041E80302002AF5D1E06BFFF72FF8B4F872
:102C30002CC002206063E08DACEB000081B2204626
:102C4000BDE8BC40FFF7A8BE94F84110212924D16B
:102C5000A168B1F5805F01D1216981B1216A4A1C67
:102C600022620978416011E02046BDE8BC40FFF7D0
:102C7000CEBE2046FFF7CBFE00206064BCBD216ABB
:102C800031F8022B6FF35F2242602162E18C4FF634
:102C9000FF7201391142E18400D0BCBDC16821F04E
:102CA0008001C160C16841F04001C160BCBD00BF8E
:102CB000AB3E000810B5044648B394F8410028B96B
:102CC000002084F84000204600F024F8242084F8F6
:102CD00041002068C16821F40051C160204601F024
:102CE000F9F92068016921F490410161416921F0FD
:102CF0002A014161C16841F40051C16000202021D6
:102D0000606484F8411084F84210606310BD0120B3
:102D100010BD0000F0B585B0002704464149CDE95B
:102D20000377CDE901770068884233D03E49884275
:102D300076D191483D4C01AD016841F4804101607C
:102D4000016801F4804100910099016841F004019B
:102D500001602946006800F00400009000980220FD
:102D600002904FF400700190032004902046FFF77A
:102D7000A7F900204FF48061029001910390204652
:102D80002946FFF79DF9252000210022FFF726FBA9
:102D9000252043E0784801AE416841F4802141603C
:102DA000416801F4802100910099016841F0080117
:102DB00001603146006800F0080000900098022091
:102DC00002904FF48060019003200490EA4800F5DF
:102DD00080652846FFF774F94FF40060029731468A
:102DE000019028460397FFF76BF9114D1148802198
:102DF000C5E900072846C5E90271C5E90477C5E9B8
:102E00000677FFF7C7F808B1FEF768FB2720002117
:102E10000022E5636C62FFF7E1FA2720FFF7D0FAA2
:102E200005B0F0BD004800400038014000080140F6
:102E30007C0A00203000024010B590F84230202B70
:102E400007D1012431B12AB10024046301F084F9CF
:102E500000E00224E0B210BD704770472DE9F8434E
:102E6000044690F841001D461746884620281CD18C
:102E7000B8F1000F4FF0010018BF002F3FD04FF006
:102E800000092120C4F8449084F84100FFF702FAB9
:102E9000A784E7840646A068B0F5805F07D127695C
:102EA000002F0CBFC146474619E0022027E04746E5
:102EB00015E02046802132462B4601F099F9C0B931
:102EC0001FB117F8011B206805E039F8021B2068C4
:102ED00000276FF35F214160E08C0138E084E08CD3
:102EE0000028E6D12046402132462B4601F080F9E9
:102EF00008B1032003E0202084F841000020C0B284
:102F000001B0BDE8F0837047B0B5894C744D4021E5
:102F100000222046A84700F07FF8204680210022AA
:102F2000A847204640210122A847204640210022F0
:102F30002B46BDE8B040184770B586B000207C4CE9
:102F40000122C025012604900B48016841F00801C8
:102F50000160C021006800F008000190019820463F
:102F6000FFF793F90320CDE9025602A90590204608
:102F7000FFF7A6F806B070BD18100240B0B56C4C53
:102F8000574D402100222046A84700F045F8204632
:102F900080210122A847204640210122A84720463F
:102FA000402100222B46BDE8B0401847F8B5044642
:102FB00000F026F85E4D0027002614E02846402148
:102FC0000022FFF762F9284640210122FFF75DF950
:102FD00028468021FFF74CF9002807F1010718BFA8
:102FE000012040EA4606F8B20728E7D914B1FFF7F6
:102FF0008BFF01E0FFF7C2FFF0B201B0F0BD00BFF0
:10300000F8B500208021CDE90200CDE90010484844
:103010006946FFF755F88FBDF8B5802069460090E6
:103020000020029001200190032003904048FFF708
:1030300047F88FBD70B50446FFF7EEFF3C4D4021C9
:10304000002200262846FFF720F9F0B2072888BFA3
:1030500070BD60B28021B0F1FF3F2846CCBF002296
:103060000122FFF712F9284640210122FFF70DF94E
:10307000284640210022FFF708F901366400E4E702
:10308000B0B5FFF7C9FF2A4C154D8021012220461B
:10309000A847204640210122A8472046802100223F
:1030A000A8472046402100222B46BDE8B0401847E3
:1030B000B0B5FFF7B1FF1E4C094D4021002220465C
:1030C000A847204680210022A8472046402101220F
:1030D000A8472046802101222B46BDE8B040184772
:1030E0008B220008B0B5FFF78BFF114C8021012225
:1030F0002046FFF7CAF8204640210122FFF7C5F815
:10310000002520468021FFF7B3F840B1E9B2681CE2
:10311000FA290546F5D3FFF7CBFF012505E0204648
:10312000402100220025FFF7B0F82846B0BD00BFBF
:10313000000C014070B5964C002500262046202149
:103140000122FFF7A2F8012002F034F8F0B20728BC
:1031500084BFE8B270BD204620210022FFF795F819
:10316000012002F027F820464021FFF781F840EACD
:1031700045050136E2E700BF0008014070B5F24D99
:103180000446202101222846FFF77FF80026F0B2EE
:10319000072888BF70BD20064FF08001284654BF25
:1031A00000220122FFF771F8284620210022FFF7B4
:1031B0006CF8284620210122FFF767F801366400E9
:1031C000E5E700BF2DE9FF4190460D46002102AA28
:1031D0000026ADF80C100291ADF80410009103E048
:1031E000AB5D9355A9550136B045F9D10138072893
:1031F00016D8DFE800F00406080A0C0E10120120B1
:103200000CE002200AE0032008E0042006E005208C
:1032100004E0062002E0072000E00820FEF722F983
:103220009DF80800FFF7AAFF01246F4603E0FFF7AF
:1032300081FF38550134B442F9D3002002E0395CF3
:10324000295401308642FAD1404604B0BDE8F081ED
:103250002DE9FC4100251446E846CDE9005503E080
:103260004A5D08F805200135AC42F9D10027461E19
:103270001DE0072E16D8DFE806F00406080A0C0E3B
:10328000101201200CE002200AE0032008E00420D4
:1032900006E0052004E0062002E0072000E0082008
:1032A000FEF7E0F818F80700FFF768FF0137BD42A6
:1032B000DFD1204602B0BDE8F081000080B50548AE
:1032C000FFF716F820B104A0BDE8804001F0E0BF90
:1032D00080BD00BFC00A00205761746368646F67D7
:1032E0002072656672657368206661696C65642129
:1032F0000A000000F8B504460078FDF789FD1B20A0
:1033000020812046FDF737FD8F4D202101222846E0
:10331000FEF7BBFF284680210122FEF7B6FF4FF4DF
:10332000167001F047FF1B4E0025002707E075606F
:10333000666020463178FDF7B1FC0C360137207A03
:103340008742F4D3134D48F26000134E102165609C
:10335000A8652046B04702200221E8612046B04718
:103360000020012128612046B0474FF4F850202169
:10337000C5F888002046B04711202821C5F8B800BC
:103380002046B0472078BDE8F840FDF7B1BF00BF48
:10339000000801407C000020950D0008E0B50A48B7
:1033A0000022016841F0010101600021006800F085
:1033B0000100019001980D20FFF710F80D20BDE8E5
:1033C0008C40FEF7FDBF00BF141002402DE9F04F06
:1033D00087B05C485C4F5D4E01224FF010080168D9
:1033E00041F004010160016801F0040103910399B7
:1033F000016841F010010160016801F010010391C2
:103400000399016841F040010160016801F0400149
:1034100003910399016841F008010160016801F01E
:10342000080103910399016841F020010160102116
:10343000006800F02000039003983846B0473846F3
:10344000A02100224FF0000BB04707F580504FF449
:103450007E5101220090B04707F580604FF4704123
:1034600000220190B04707F540604FF6FF7100223F
:103470000290B04707F500644FF4EE510022204659
:10348000B047012503AE4FF0020A3846CDE9038567
:10349000DFF8BC803146CDF814B0CDF818A0C04795
:1034A000A020049531464FF0010903900320CDF888
:1034B00014B006903846C0474020CDF810B03146D1
:1034C00003903846CDF814B0C047224831460490E6
:1034D000102003902046CDF814B0C0474FF47E5022
:1034E000CDF8109031460390CDE905BA0098C04759
:1034F0004FF47040CDF8109031460390CDE905BAF5
:103500000198C0474FF6FF70CDF8109031460390F8
:10351000CDE905BA0298C0474FF4EE50CDF81090AF
:10352000314603902046CDE905BAC0470A20002164
:103530000022FEF753FF0A20FEF742FF07B0BDE866
:10354000F08F00BF18100240000801408B220008D5
:10355000C12000080000111080B50848084A042165
:1035600040F6FF73C0E900218360FEF797FE002854
:1035700014BFBDE8804080BDFDF7B0BFC00A002089
:103580000030004080B50C480C4A4FF4E131002374
:103590004FF00C0CC0E90021C0E90233C0E9043C43
:1035A000C0E90633FFF786FB002814BFBDE8804062
:1035B00080BDFDF793BF00BFCC0A0020003801405A
:1035C00080B50C480C4A4FF4E13100234FF00C0C4D
:1035D000C0E90021C0E90233C0E9043CC0E9063378
:1035E000FFF768FB002814BFBDE8804080BDFDF7F1
:1035F00075BF00BF140B002000480040FEE700002C
:103600002DE9F04FA1B0DFF8C00CDFF830560646C8
:10361000074636F8021B8C1EC1F58171FF2C05EBA5
:10362000040088BF0021FCF732FE284631462246BE
:10363000FCF714FE2846214600F052FF209042BAC3
:103640003888DFF8FC15DFF8E89F009030440A80E6
:1036500009F1A80330F8020C00BA000C1F90488052
:10366000D9E94610CDE91D10D9F870001C90D9F8A1
:1036700084001B90D9F848001390D9F84C0014909E
:10368000D9F850001590D9F854001690D9F8580080
:103690001790D9F85C001890D9F860001990D9F803
:1036A00064001A90D9E90A50D9F86CA00190D9F8B1
:1036B00030000590D9F834000690D9F838000E9003
:1036C000D9F83C000F90D9F840001090D9F8440088
:1036D0001190D9F898000D90DFF86805C1790C9128
:1036E00081790A9141781291C1780B9101794079E1
:1036F0000990D9F8A00008910790D9F874000490B7
:10370000D9F880000390D9F868000290D9E92448DC
:10371000D9E934CE0FCBD9E91E7697FA87FBDFF8CB
:10372000287536BA09BA12BA1BBABE619CFA8CF671
:1037300095FA85FC019DC7F81CB090FA80FB9EFAB3
:103740008EF0C7E9081B07F13001C7E90A32DFF83C
:1037500000BF95FA85FEDFF8F454A1E84140C7F8B0
:103760003CC005981E9900BA09BA7864069800BA58
:10377000386420BA78609AFA8AF0386098FA88F04B
:10378000B860029800BAF860039800BA38610498EB
:1037900000BA7861079800BAB864089840BAA7F8E8
:1037A0004C00099840BAA7F84E000A9840BAA7F80A
:1037B00050000C9840BAA7F852000B9840BAA7F8EE
:1037C00054000D9800BAC7F856000E9800BAC7F812
:1037D00066000F9800BAC7F86200109800BAC7F8E0
:1037E0006E00119800BAC7F86A00139800BAC7F8BB
:1037F0007600149800BAC7F87200159800BAC7F896
:103800007E00169800BAC7F87A00179800BAC7F871
:103810008600189800BAC7F88200199800BAC7F84D
:103820008E001A9800BAC7F88A001B9800BAC7F829
:103830005E001C9800BAC7F85A00129840BAA7F860
:1038400092001D9800BAC7E9250105F19C0064218A
:10385000FCF71DFD284639469C22FCF7FFFC20980A
:103860001F9900BAB1EB304F40F0E0819BF80300A4
:1038700010285DD006287DD0032840F0D7819BF822
:1038800006009BF80770DFF8B8A3DFF8D0834FF489
:10389000807147EA0024BBF80400A1EB44017F2CAF
:1038A000CAF8084000BA4FEA104608EB4400AAF8EC
:1038B000046088BF0021FCF7EAFC05EB46006600C7
:1038C000A0F5007140463246FCF7C8FCDFF8809353
:1038D00040F2013041463246A9F80000780009F173
:1038E000030789F802003846FCF7B8FC032000EB18
:1038F0004401484600F0F4FDDAF808100BF2011616
:1039000027F81100052000EB4105FA20A0EB41014A
:10391000FE2D06EB050088BF0021FCF7B8FC304601
:1039200049462A46FCF79AFCCA48AAB2314679E1D0
:10393000BBF80400C24900BA4FEA104AA1F804A03B
:103940004FF48171B1EB104F00F07B80BAF5A67F88
:1039500000F07A80BAF5927F37D040F22B10824582
:1039600036D0BAF5A57F36D0BAF5827F70D1B5488A
:1039700009306BE0BBF80400B14A01BA080C908032
:10398000B54A02EB114104290DD8DFE801F0032705
:10399000334351009BF80700AA4901280CBF0120BE
:1039A0000020087132E140F24911884240F02E8136
:1039B0009BF80700A34901284FF0000011BF487091
:1039C000C8714FF48070088020E19E480D303DE0C2
:1039D0009C480A303AE09B480B3037E09BF80700E0
:1039E000012840F00581974901208870A1F8050061
:1039F00000201AE09BF80700012840F0FE80914962
:103A000000200A4688704FF48071A2F80510D0712A
:103A10001180FBE09BF80700012840F0F380894902
:103A200000208870A1F805000120C8710880EDE031
:103A30009BF80700834901280CBF01200020C870B3
:103A4000E4E08048083001E07E480C30012101703C
:103A50009BF806009BF807109BF8082041EA002815
:103A600077480BF10901C0F8088005EB4A00A0F582
:103A70000070FCF7F3FB744C29469C222046FCF7AF
:103A8000EDFBBAF5837F06D16E490120C873E0686B
:103A900000BAC9F8800004F1180604F12C0BD4E92F
:103AA00001EC4CCED4E909509BE8820812BA1BBA4B
:103AB00036BA2DBA00BA09BA3FBA9BFA8BFBC9E9EC
:103AC0002E32C9E93056C9E93210C9E934B704F1D8
:103AD00038052FCD00BAC9F8DC0008BAD4F8621056
:103AE000C9F8D80010BAD4F86620C9F8E40018BAAA
:103AF000D4F86A3009BAC9F8E0009EFA8EF0C9F825
:103B000090009CFA8CF01BBAC9F8940028BAC9F846
:103B1000A000D4F8720000BAC9F8FC00D4F876000E
:103B200000BAC9F8F800C9F8F430D4F86E30D4F807
:103B300056001BBA00BAC9F8F030C9F8EC1011BA37
:103B4000C9F8E810C9F89800D4F87A00D4F87E10C3
:103B500000BAC9F8040108BAD4F88610C9F80001FF
:103B6000D4F8820000BAC9F80C0108BAD4F88E1053
:103B7000C9F80801D4F88A0000BAC9F8140108BAD3
:103B8000C9F81001D4E92501314C00BA09BAC9E9D4
:103B9000460141F201002A49208098FA98F00A462D
:103BA00088609AFA9AF1A08020469180618006216F
:103BB00000F096FCDFF898BAE080F7210BF20910CC
:103BC000FCF765FBD4E9000108224FF6FF73CBF840
:103BD00001012048CBF805110BF20111FFF73EF966
:103BE0000020ABF8000000F0E7FD01F073FD1DE0E0
:103BF000144900208870487108E01249002048707C
:103C0000887103E00F4900200870C871009C0BF216
:103C100001150BF1020128462246FCF71FFB0D4857
:103C2000294622464FF6FF73FFF718F90BF1020001
:103C3000FF21FCF72CFB21B0BDE8F08FA40500208C
:103C4000E8040020A4060020B80600205407002045
:103C5000C08E0020140B0020DAFEFFFF5408002065
:103C6000FEE700002DE9F84F15464C4ADFF8888F33
:103C70001C46D2E924BAD2F89890C8E913BAC8F819
:103C80000490FCF742FE0646C8F808002846214684
:103C9000FCF73BFE3146C8F80C00FCF755FBC8F8B2
:103CA00010000446D8F83010D8F81450FCF758FD2E
:103CB000074620462946FCF7F5FA0646002F08BFBE
:103CC0002E460A98009004D130460021FCF756FD9C
:103CD00048B930460021FCF743FD002818BF0026F4
:103CE0003546C8F81460D8F818102046FCF72CFBAD
:103CF00000210646C8F81C00FCF75CFD18B1D8F896
:103D00002060C8F81C6020465946C8F82060C8F8F2
:103D10001840FCF71FFB044628465146FCF71AFBE7
:103D200001462046FCF7BEFA044630464946FCF7F9
:103D300011FB01462046FCF7B5FAD8E90A670146AF
:103D40003846FCF707FBFCF7CDFD814638460D46AB
:103D5000FCF7C8FD0B46124902460020FCF70BFC9D
:103D6000074630460C46FCF7BDFD02460B4638467A
:103D70002146FCF706FC4A462B46FCF75BFBFCF7AA
:103D8000C4FD0849C8E90900FCF716FB0099086062
:103D90000846BDE8F84F00F099BA00BF5809002066
:103DA0000000F03F0000FA4380B5FCF78EFD0022D2
:103DB0004FF07853FCF7E5FB044B0022FCF73AFB8D
:103DC000034B0022FCF7DDFB80BD00BF0000F0BF0D
:103DD00000000440704780B501F004FA01F0A0FF34
:103DE000BDE8804001F012BAB0B590B0002401A83F
:103DF00014210B94CDE90944FCF749FA4FF48030C3
:103E00000921022507900691012108940A910C913D
:103E1000CDE90D504FF4E0100F9006A8FEF7EEFB31
:103E200018B1EFF3108072B6FEE70F200221019067
:103E30004FF480600394CDE9040401A80295FEF7D5
:103E4000FFFA18B1EFF3108072B6FEE710B0B0BD04
:103E50001048016801F00C020F49082A0FD10268CE
:103E6000C2F383420368023213F4803F01D10B494D
:103E700004E0036813F4003F18BF08495143084A9F
:103E8000084B11600068C0F30310185C21FA00F0C1
:103E9000106070470410024000127A0000093D00D3
:103EA00078000020506C00087047406A0021C185EE
:103EB000C184FEF7ACBD10B5446A206850F8141FE9
:103EC00094F84120212A09D111F0800106D0002068
:103ED000E084204600F08BF820681430006894F8E5
:103EE0004210222907D110F0400004D00020E085C4
:103EF000204600F055F8606C40F0100060642046E9
:103F0000BDE81040FEF783BD0168406A096811F002
:103F1000200F2FD10021C185016851E8031F0268DD
:103F200021F4807142E80313002BF5D1016851E8B8
:103F3000051F026821F0010142E80513002BF5D1AD
:103F4000016851E8051F026821F0400142E80513AD
:103F5000002BF5D1202180F84210016B012909D1F5
:103F6000016851E8031F026821F0100142E80313C1
:103F7000002BF5D100214163016B012918BFFEF729
:103F80006BBF818DFEF708BD406A01214163016B63
:103F9000012918BFFEF761BF818D4908FEF7FCBCFF
:103FA000016851E8031F026821F4907142E803138D
:103FB000002BF5D1016851E8051F026821F00101CD
:103FC00042E80513002BF5D1016B012909D10168E5
:103FD00051E8031F026821F0100142E80313002B8F
:103FE000F5D1202180F8421000210163704701685B
:103FF00051E8031F026821F0C00142E80313002BBF
:10400000F5D1202180F84110704790F84210222904
:1040100018BF70478368B3F5805F05D10169B1B1FE
:1040200000F128010A680BE00146002B51F8282F07
:1040300001D1036923B103685B6803F07F0301E0EA
:1040400003685B6813700A6801320A6007E0016860
:10405000826A49686FF35F2122F8021B8262C18D78
:104060004FF6FF7201391142C18500D070470168D7
:10407000CA6822F02002CA60CA6822F48072CA604C
:104080004A6922F001024A61202280F8422000227F
:104090004263036B012B18BFFEF7DEBE026351E8DB
:1040A000031F026821F0100142E803130168002B8E
:1040B000F5D10A6812F0100F08D081B000220092EA
:1040C0000A68009249680091009901B0818DFEF75D
:1040D00063BC000010B5044600680169E26821F481
:1040E0004051114341F20C620161D4F808C0D4E997
:1040F00004E3C16891434EEA0C021A431143C160C4
:104100004169A26921F4407111434161114988421A
:1041100002D0FEF72FFA01E0FEF736FA19214843E4
:10412000D4E900126FF063049200B0FBF2F0642255
:10413000B0FBF2F303FB0400322404EB0010B0FBED
:10414000F2F000F0F00200F00F0002EB0312104357
:10415000886010BD00380140BCB5134600250446F8
:104160000A46DFF880C0DFF884E045648385816219
:1041700022201D4984F84200E06B00F1280787E8FF
:104180000250456321680431FDF746FF0195206820
:1041900001680191416801910199216909B909E01A
:1041A000206850E8030F216840F4807041E8030262
:1041B000002AF5D1206850E8050F216840F0010081
:1041C00041E80502002AF5D1206850E8050F216872
:1041D00040F0400041E80502002AF5D1002002B07D
:1041E000B0BD00BF893F0008093F0008B73E000886
:1041F0002DE9F0411D4690460F4604465E1C20689E
:1042000000683840B84226D0002EF8D02DB1FEF715
:1042100041F8A0EB0800A842F1D9206850E8030F4C
:10422000216820F4D07041E80302002AF5D120680B
:1042300050E8050F216820F0010041E80502002A3E
:10424000F5D12020002184F8410084F8401084F842
:104250004200032000E00020C0B2BDE8F081000071
:104260005448FEF7D5BB00BF10B5154C2046FEF7ED
:10427000CFFB2068016811F0100F14D06FF010010F
:1042800001602046FEF789FB0E48F14901220068D3
:10429000406881F80022C0F58070088000F094FA30
:1042A00001F018FA2068C1684FF4807241F02001D3
:1042B000C160E748811C0248BDE81040FEF7BCBD64
:1042C000140B00207C0A0020C291002070B5066803
:1042D00004464FF07E514FF07E553046FCF75CFAB5
:1042E00028B9304600210025FCF748FA08B92E46C7
:1042F00025602B4C2948F12104F58875C0F88460AD
:104300002846FBF7C4FF04F2011426A10F22204621
:10431000FBF7A4FF27482146FF224FF6FF73FEF765
:104320009DFD20464FF48071FBF7B1FF3046FCF74E
:10433000D9FA214A214BFCF724F9FCF7E6FA0021CF
:104340000646FCF7FFF9D8B93046FCF7CBFA02462F
:104350000B461CA1204601F0E9FF164E2146FF2224
:104360004FF6FF733046FEF779FD2846F121FBF743
:104370008EFF19A120460F22FBF770FF304605E0A3
:104380000F4920461022FBF769FF0A482146FF2209
:104390004FF6FF73FEF762FD70BD00BF58090020A5
:1043A000C08F0020564F4C542031302C28403129EA
:1043B0000D0A0000CC0A00209A9999999999014018
:1043C000F06D00084355525220252E33662C2840AC
:1043D00031290D0A000000004F555450204F4E2C3B
:1043E000284031290D0A0000FEE7000010B5074CF7
:1043F00000F00F03044AB0F1FF3F2344C8BF831805
:104400000801187010BD00BF00E400E014ED00E0EA
:1044100018B1C1B219B101200EE00020704710F4AC
:104420007F4102D0090A092006E010F47F0107BF8E
:10443000010E1920090C1120014A515C08447047F3
:10444000686C00081CB500F1280C0446ACE80E00AE
:104450002321049A42631C30C4E90700184600F087
:10446000ADFF04F128030FCB1A44124B043A00F0BD
:1044700083FE6062104A2346059884F83E0084F863
:104480003D00002020640699C4E91111A06384F85E
:104490003C00C4E92000CDE9000004F14C002146B5
:1044A00001F0EDFC0548016819B12046BDE81C404B
:1044B00008471CBD0D5A00088D5C0008AC8C00201C
:1044C000B0B50546FBF750FED5F88010044609B19B
:1044D000284688472046BDE8B040FBF749BE0000AB
:1044E00080B5DFF82CC04FF6FF7E0BE010F8012BF3
:1044F0005FFA8EF301395A400EF47F433CF81220E4
:1045000082EA132E0029F1D11FFA8EF080BD00BF80
:10451000C0010020F8B5224D6868C0B900F092FCD7
:1045200001F0FAFB044600260AE068680130686082
:10453000009602E000980130009000986328F9D9B5
:1045400001F0EAFB001B0928EFD900F087FC0027E7
:1045500001F0E2FB0446002608E0009702E0009824
:104560000130009000986328F9D9013601F0D4FB9E
:10457000001B0928F1D96868B0420BD9811B64225D
:104580005143B1FBF0F303FB10112B705143B1FB0E
:10459000F0F002E0002028706E606870F8BD00BF87
:1045A00060040020014801F0B1BA00BF15450008C1
:1045B00080B500F005F94FF0FF3101F0B7F80028A1
:1045C000F7D1FCF74FFEF4E7F0B5ADF5677DB8AC79
:1045D000154D14212046A8478AA81421A8475CA895
:1045E0001421A8472EA81421A84768461421A847DB
:1045F0000E4D6D4E162700F0DBF84FF0FF3101F045
:1046000095F80028F7D12868D6E90823411C152819
:10461000296006DB204601F03AFEC6E91E012F6044
:10462000E9E7C6E91E23E6E7D1470008780A00203B
:104630005809002010B5064C00F0C6F84FF0FF31C5
:1046400001F074F820880028F6D0FEF7D9FFF3E7D0
:10465000C29100202DE9F047FCF784FE534D514CE8
:10466000DFF890954FF0000A05F10F0800F0A4F86C
:104670004FF0FF3101F05AF80028F7D1207A80B1CD
:10468000D9F890002E46002746F8030B05E016F8EF
:104690000119B8B2FCF70EFC0137042FF7D184F8EA
:1046A00008A0607A88B1D9F894002E46002746F811
:1046B000030B06E0381D16F8011980B2FCF7FAFB6F
:1046C0000137042FF6D184F809A0A07A90B1D9F867
:1046D00098002E46002746F8030B07E007F1080074
:1046E00016F8011980B2FCF7E5FB0137042FF5D16C
:1046F00084F80AA0E07A90B1D9F818012E46002774
:1047000046F8030B07E007F10C0016F8011980B218
:10471000FCF7D0FB0137042FF5D184F80BA0207BE8
:1047200090B1D9F81C012E46002746F8030B07E08C
:1047300007F1100016F8011980B2FCF7BBFB013736
:10474000042FF5D184F80CA0607B90B1D9F8A000BB
:104750002E46002746F8030B07E007F1140016F871
:10476000011980B2FCF7A6FB0137042FF5D184F8BC
:104770000DA0A07B00283FF479AFD9E92A010026DB
:104780004746C5E9020107E006F1180017F80119CC
:1047900080B2FCF78FFB0136082EF5D184F80EA00D
:1047A00064E700BFA4060020580900206804002028
:1047B000BA484068704700BFB848C068704700BF3B
:1047C000B6480068704700BFB4488068704700BFB3
:1047D00000220023C0E92C22C0E92812C0F8A8203A
:1047E0008B42A8BF7047E0E802220133F8E70000DF
:1047F00010B5A34C20464FF48051FDF73EFD282014
:1048000001F0FEF820464FF48051FDF736FD4FF4DD
:10481000707001F0F5F8EDE77CB5FDF76FFDFFF77F
:10482000E3FAFEF7D3FDFEF7B9FDFEF795FEFEF7BE
:10483000C7FEFEF7A7FEFFF7B5FEFEF77DFB0A20D9
:10484000FDF7ACFD8348844C0021A047834800213C
:10485000A04783480021A04782480021A047824802
:104860000021A04781480021A04781480021A0479E
:1048700080480021A0470A20FDF7A2FD7E4C20467B
:10488000FEF78BF820687D4CC16841F02001C160C3
:10489000C16841F01001C1602046FEF77EF8206833
:1048A000774D784E0022C16805F5006441F0200183
:1048B000C160C16841F01001C16020464FF48071B1
:1048C000B04728464FF400410122B04705F5806506
:1048D0004FF4807101222846B047284680210022EB
:1048E000B047284640210022B04720464FF40041FF
:1048F0000122B04720464FF480410022B0472046B5
:104900004FF400510122B04720464FF4805100225D
:10491000B04720464FF400610122B04720460121F4
:104920000022B047204602210122B04720464FF422
:1049300080610022B04720464FF400710122B04749
:10494000204610210022B047204620210122B047F6
:10495000204604210022B047204608210122B0470A
:104960004D4C49A001210022A0474C4D01210022BD
:1049700028604BA0A04768604EA001210022A047FC
:10498000A8604FA001210022A047E8601424052060
:10499000504900224FF48063CDE900044BA001F0A0
:1049A0000EF8002852D001F031F906204D490022BE
:1049B000FF23CDE9000448A001F001F8002845D00C
:1049C00001F024F9142403204B490022FF23CDE9F0
:1049D000000445A000F0F3FFC0B301F017F9042074
:1049E0004A4900224FF48063CDE9000443A000F05F
:1049F000E6FF58B301F00AF91424072047490022C2
:104A0000FF23CDE9000442A000F0D9FFF0B101F08E
:104A1000FDF80820444900224FF40073CDE900045A
:104A20003FA000F0CCFF88B101F0F0F8142009217C
:104A300000224FF40073CDE900103F493BA000F085
:104A4000BEFF18B101F0E2F8002001E04FF0FF30A6
:104A500002B070BDC0030020F5320008CC03002076
:104A6000D8030020E4030020F0030020FC03002012
:104A70000804002014040020140B0020CC0A00209D
:104A8000000C01408B2200086D795F73656D6170C9
:104A9000686F72650000000095560008F40400205D
:104AA000646174615F70726F636573735F73656D6A
:104AB0000000000075617274335F73656D00000063
:104AC000656570726F6D5F73656D00006C65643154
:104AD00000000000F14700087761746368646F6745
:104AE000000000001D630008646174615F636F6E05
:104AF00076657273696F6E00B14500086461746118
:104B00005F70726F6365737300000000C945000831
:104B1000646174615F73656E64000000354600086F
:104B2000656570726F6D0000554600086D61696EB5
:104B30007461736B000000003D4B00082DE9FE4FCF
:104B40002E48DFF8B4902A4C2A4D4FF0000800F2AE
:104B5000111100F2011B09F15C0A0291207870B179
:104B6000D5E91E67D5F88000FBF7BCFE02460B4670
:104B700030463946CDF800A0FFF774F82DE0607894
:104B800070B1D5E91E67D5F88000FBF7ABFE024691
:104B90000B4630463946CDF800A0FCF7ADF91CE0D5
:104BA000A07810B1FCF7A0FA17E0C5E92C88F02135
:104BB000C9F85C80C9F81480C5F884800298FBF7B6
:104BC00066FB0F4958461022FBF748FB0D48594633
:104BD000FF224FF6FF73FEF741F9E07B18B184F82E
:104BE0000F80C9F8148040F2D23000F009FFB5E719
:104BF000A40600205809002000000020C08F0020DB
:104C0000F06D0008CC0A0020B0B58D4C044D01E0D9
:104C100001CC8047AC42FBD3BDE8B040FFF7FCBD00
:104C20000C6E000810B5DFF8D8CCD0F804E0DCF842
:104C30000C1001EB0E02824214D0538893B9DCF8B9
:104C400010309A420ED0DCF814309342A0EB0103EE
:104C500008BFCCF81400D2F804E0C0F804E05268B1
:104C60000A44936082688B18834208BF10BD5C8839
:104C700004B110BDDCF81440844208BFCCF81430F5
:104C8000C3F804E040680844826010BD2DE9FF4F7E
:104C9000DDF83CA04FA754A61AF0400F08BF3E46CF
:104CA0001AF0100F18BF2AF0010A1AF0020F02D1F1
:104CB0004FF000090EE0B2F1FF3F08DD5FEA4A77EE
:104CC0005ABF202707EA8A094FF02B0902E0524217
:104CD0004FF02D09DDE90D8CD2B14FF0000E4FF0F1
:104CE0000A0B6D4611E00A2B06D1B2FBFBF707EB6E
:104CF0008704A2EB440402E0170902F00F04345DBC
:104D00003A4605F80E400EF1010E002AEBD104E000
:104D100030224FF0010E8DF80020E6456346C8BFF3
:104D200073461AF0110FA8EB030212D10024002AD7
:104D30004D46C8BF0124B9F1000F18BF01252C4012
:104D40002025121B03E0884238BF05700130013A6C
:104D5000F9DAB9F1000F06D08842A2F1010238BF9A
:104D600080F8009001305FEACA6409D420256AF314
:104D7000041503E0884238BF05700130013AF9DAC2
:104D8000302405E08842A3F1010338BF04700130EC
:104D90009E45F7DB6B460AE08842AEF101043EBF58
:104DA00003EB0E0717F8017C07700130A646BCF133
:104DB000000F02D0BEF1000FEEDC012ABCBF04B030
:104DC000BDE8F08F8842A2F101023CBF20230370AE
:104DD0000130F2E7303132333435363738396162F9
:104DE0006364656600000000303132333435363795
:104DF000383941424344454600000000E0B51420E4
:104E00000A2100224FF48073CDE90010054903A068
:104E100000F0D5FDBDE88C4000F0F8BE6D61696E14
:104E200000000000094C0008B0B5044C044DAC4231
:104E300028BFB0BD01CC8047F9E700BF046E000871
:104E4000086E000880B5FBF78FF912490A88013215
:104E50000A80BDE88040FBF78BB900BF80B5FBF747
:104E600083F90C490A88013A0A8012B2002A03DD4C
:104E7000BDE88040FBF77CB900220A80FBF778F997
:104E800005484068002814BFBDE8804080BD00F0A0
:104E90008BBB00BF9405002060050020F8B50446D8
:104EA000E8B31F4F796809B120468847F868A042E7
:104EB00035D83869A04232D907F120054FF0FF31CB
:104EC000284600F033FC34F80A0CA4F10C0618B1A3
:104ED0003088B0F5F55F0AD012A000F0D9F934F8A7
:104EE0000C3C34F80A2C16A0314600F0D1F94FF4EE
:104EF000F55044F80C0C7869B04288BF7E6154F8D4
:104F0000080CF968BA69301A401A1044B861304682
:104F1000FFF788FE2846BDE8F84000F0DBBBF8BD8F
:104F200010050020746F2066726565206120626143
:104F300064206461746120626C6F636B3A0A0000E4
:104F40006D656D3A203078253038782C2075736582
:104F50006420666C61673A2025642C206D61676966
:104F60006320636F64653A203078253034780A0016
:104F700002487047014800F500407047040C0020CB
:104F800010B5FEF765FF95484FF47A710068B0FBE5
:104F9000F1F0411E0020B0EB116F07D10A4AFF2348
:104FA00051600A490B70072111609060FFF73CFFC8
:104FB000FFF7DEFF0446FFF7DDFF01462046BDE8B0
:104FC000104000F06BBC00BF10E000E023ED00E0FB
:104FD0002DE9FC41114D04464FF00D080DF1070677
:104FE0000DF1060713E02846314601224FF0FF334A
:104FF0008DF80780FDF732FF20788DF806002846EF
:10500000394601224FF0FF33FDF728FF01342078A5
:105010000A28E8D00028F0D1BDE8FC81140B00205C
:10502000B0B504462248016811B120468847F0B364
:10503000216C2048204DA847616A2048A847A16AF2
:105040001F48A847E16A1F48A847216B1E48A84788
:1050500061681E48A847A1681DA0A847E16820A074
:10506000A847216922A0A847616925A0A847A1698E
:1050700027A0A847E1692AA0A847216A2CA0A84731
:10508000616B2FA0A847A16B31A0A847E16B34A0AA
:10509000A8472078400703D4364800F0F9F805E027
:1050A00000F08EFD0146324800F0F2F8FEE7B0BD98
:1050B000000C0020E06D0008915200089F6D000870
:1050C000AC6D0008B96D0008C66D0008D36D00080E
:1050D0007230353A203078253038780A00000000E8
:1050E0007230363A203078253038780A00000000D7
:1050F0007230373A203078253038780A00000000C6
:105100007230383A203078253038780A00000000B4
:105110007230393A203078253038780A00000000A3
:105120007231303A203078253038780A000000009B
:105130007231313A203078253038780A000000008A
:105140007231323A203078253038780A0000000079
:10515000206C723A203078253038780A0000000040
:105160002070633A203078253038780A000000003B
:10517000826D0008686D000810B504320C4C22F0F6
:10518000070E6FF03F02AEF1400C02E04EF8024015
:105190000432002AFAD100224FF080744EE908123E
:1051A0004EE906224EE904234EE90204604610BD92
:1051B000EFBEADDEB0B5084C0849094D6268236802
:1051C0000968B1FBF5F148436168511A98BF194469
:1051D0008142F9D3B0BD00BF14E000E078000020A8
:1051E00040420F0010B5FAF7BFFF0446104801789F
:1051F000013101700448006800B180472046BDE8D5
:105200001040FAF7B5BF00BF048C002010B5FAF7C4
:10521000ABFF044606480178013901700548006873
:1052200000B180472046BDE81040FAF7A1BF00BF9B
:10523000108C00200C8C002000681C3800F096BCFC
:1052400070B50546084616460C4600F0F5FC012EE2
:1052500001D0A6B170BD28460068A8420FD090F8D2
:10526000211094F83D208A42F6D21C3804F11C0229
:10527000016A0A60216202621C30E06170BD6868E8
:1052800004F11C01016020626960E56170BD0000ED
:1052900083B018B5844603A8074C0EC003AB7F212A
:1052A00062462046009300F06FFE2046FFF790FE16
:1052B000BDE8184003B07047188C00202DE9F04776
:1052C000E8B3DFF83C96033020F0030AD9F8080071
:1052D000824534D809F120084FF0FF31404600F0F4
:1052E00025FABAF10C0F98BF4FF00C0AD9E902C0A9
:1052F000D9F81410ACEB0A020D1A2B4695421BD2BA
:10530000C7187E887D68002EF7D103F10C06AC1B10
:105310005445F2D30AF11802944214D201227A8041
:10532000C21BD9E906362A441A449642C9F8182005
:1053300026D2C9F81C2023E0404600F0CBF9002516
:105340002846BDE8F08706EB0A024FF4F5540CF14D
:105350000C060AF10C0E84508418C4E90153012391
:105360007B807A606368B3421CBF03449A60D9E9CA
:10537000062372449342C9F8182038BFC9F81C208C
:105380004FF4F552B9423A800BD1D9F8102005E01C
:10539000914206D049680144C9F814104B88002B8B
:1053A000F6D1404600F096F9D9F8002007F10C0537
:1053B000002AC5D0284651469047C1E7042A01D3A8
:1053C000830701D003463AE070B5D643CBB204461A
:1053D000154616F1100F43EA032398BF6FF00F062E
:1053E00043EA03431644103626F00F0E00EB0E0C72
:1053F00005E0C4E90033C4E902331034103D102D38
:10540000F7D2A2EB0E026546D64316F1040F98BF01
:105410006FF003061644341D164624F0030EA4084C
:1054200001E008C5043E042EFBD20CEB8403A2EB82
:105430000E02BDE8704002E003F8011B013A002AA9
:10544000FAD170472DE9F041064653488846A0F14D
:1054500010014FF0FF300130032806D801F110078A
:10546000097CB1423946F6D100E00027F868FFF721
:1054700025FF05460024E8B1FA6828460021FFF719
:105480009DFF2846414610222E746C7400F0ECF902
:105490004248016809B12846884705F11404FAF723
:1054A00063FE57F8041F4C6069613C60AF61FAF716
:1054B0005FFE00E000252846BDE8F08110B50446F7
:1054C0001848016809B12046884700202074FAF77F
:1054D0004BFE2246A16952F8143F5960A1690B6046
:1054E000A2611260FAF744FE2046BDE81040FFF7C3
:1054F000D5BC00BF10B504460A48016809B1204672
:10550000884700202074FAF72FFE54F8141F6268B1
:105510004A6062681160C4E90044BDE81040FAF7CF
:1055200027BE00BF9C8C0020F8B504461A480E46E2
:105530001546A0F110014FF0FF300130032806D8C6
:1055400001F11007097CB1423946F6D100E000278D
:10555000FFF778FC043738460068B842FCD1FFF703
:105560007DFC46F08000294610222074204600F081
:105570007BF90A48016809B12046884704F11405FF
:10558000FAF7F2FD39684D6061613D60A761BDE8E1
:10559000F840FAF7EDBD00BF20040020988C0020F1
:1055A000007CC009704700002DE9F041FAF7DCFDEE
:1055B000F24E0446308820B12046BDE8F041FAF7AB
:1055C000D7BDDFF8E083D8F80800FEF721FFF649E1
:1055D0000138D8F8045051F83070A7F11C018D4201
:1055E000EAD07268C8F8041088F800000AB12846AA
:1055F0009047064A07F1080105F12400127812B11C
:10560000FAF7B9FDD8E7FAF7B6FDD5E7108C002018
:1056100010B50446FAF7A8FD94F83C1094F83D2024
:1056200004F11C0301F0F00141F0010184F83C1089
:10563000DD4901EBC2014A6813602262D94A4B601E
:10564000E161216C936819439160BDE81040FAF75D
:105650008FBD00BF10B50446FAF786FD214651F80C
:105660001C2F4B6853604B681A60C1E90011CE4A89
:1056700091F8211002EBC10352F83110994205D183
:10568000C84A216C936823EA01019160BDE810408B
:10569000FAF76EBDB0B50D46014602201446FFF77D
:1056A000D1FE28B100F11C0185844474C0E90711C2
:1056B000B0BD70B515460A4602211C460646FFF7E6
:1056C00033FF06F11C00C6E907000020B58474749E
:1056D00070BD0000B0B504461348016809B120460A
:1056E0008847FAF741FD0546204650F81C1F8142C5
:1056F00007D0FFF7A1FD2846FAF73AFDFFF754FF60
:1057000009E0A08C4FF6FF71884206D00130A084DA
:105710002846FAF72DFD0020B0BD2846FAF728FDEF
:105720006FF00200B0BD00BFA08C0020F8B50446A9
:105730001F480E460091016809B120468847FAF7D4
:1057400013FD0546A08C60B10138A0842846FAF705
:105750000FFD1848016809B120468847002001B0B4
:10576000F0BDFEB100F02CFA07460020B86304F14A
:105770001C003946627CFFF763FD012E09DB07F14F
:105780004C066A460021304600F03CFB304600F0F3
:105790008DFB2846FAF7ECFCFFF706FFB86B0028F4
:1057A000DDD1D6E72846FAF7E3FC6FF00100D6E733
:1057B000A88C0020A48C00201CB50B4C07A0A0478F
:1057C0000AA0A04712A0032101220523009013A0E4
:1057D000A0471AA02146BDE81C4008470A205C20CB
:1057E0007C202F0A00000000915200082D20525406
:1057F000202D2020202020546872656164204F7085
:1058000065726174696E672053797374656D0A00FF
:105810004F6374203234203230323400202F207C09
:10582000205C202020202025642E25642E25642045
:105830006275696C642025730A00000020323030E4
:1058400036202D203230323020436F7079726967F4
:1058500068742062792072742D74687265616420A6
:105860007465616D0A00000080B5B2B184460346DC
:1058700091F800E003F801EBBEF1000F05D0013A0A
:1058800001F101019C46F3D107E00121002302E070
:105890000CF8013001318A42FAD180BD0A46014636
:1058A00022F00300192828D3CB1CA0F1180C23F0F8
:1058B00003039C4521D310B5114CC11A4FF0000CC5
:1058C000A1F118020C39E360A2604FF4F552C3E96C
:1058D0000021A0F10C02C3F808C000232261094A8C
:1058E00040E9032140F8041C04F1200006A1012234
:1058F000FFF7DFFEE068606110BD05A0FFF7C8BCE0
:1059000010050020A01E0100686561700000000005
:105910006D656D20696E69742C206572726F7220DE
:10592000626567696E2061646472657373203078A4
:1059300025782C20616E6420656E64206164647239
:1059400065737320307825780A0000000B49002029
:105950000880F04903E00A180A5052600830B0F598
:10596000807FF8D10F481F220021027000F10C0245
:10597000C0E90111C0E90322704700BF940500206F
:1059800010B5084CA068FEF743FDE24901EBC000EA
:1059900050F8080CA0F11C0108306160BDE810400F
:1059A000FAF717BC60050020B08C0020024800F117
:1059B0000C01C0E903117047800500207047FEB557
:1059C0000E46014601201F461546FFF73BFD0446E3
:1059D00090B13846FFF772FC034650B1DDE908107C
:1059E0002A46CDE90071029020463146FEF72AFD95
:1059F00003E02046FFF762FD0024204603B0F0BD1F
:105A000080B500F0E1F8002080BD0000B0B5C048CE
:105A10000568FAF7A9FB04462846FEF751FD28461B
:105A2000FFF718FE042085F83C0005F14C0000F05B
:105A30000EFA2846FFF7B4FD012803D12846FFF7E8
:105A400059FD07E01F4805F11C0201684A60026029
:105A5000C5E90710FFF7A8FD2046BDE8B040FAF7FA
:105A600087BB00BFB0B5344C0025042D03D100F036
:105A700009F80025F9E754F8250000B18047013501
:105A8000F3E700BF70B50F4D10E0D6E900014160AB
:105A900071680860C6E900667069FFF7FFF9A6F152
:105AA0001C00FFF70BFD2046FAF762FBFAF75CFBE0
:105AB0002E680446AE42E8D12046BDE87040FAF7B1
:105AC00057BB00BF6C0500201FB520200B4C0E4AB1
:105AD0000BA1002303901F2002904FF480700190CF
