:020000040800F2
:10000000101A002045010008872100080D02000891
:10001000852100087D0B0008B524000800000000C1
:10002000000000000000000000000000BD210008EA
:10003000D10D00080000000097010008BF21000852
:100040005F0100085F0100085F0100085F01000810
:100050005F0100085F0100085F0100085F01000800
:100060005F0100085F010008490E00085F010008F9
:100070005F0100085F0100085F0100085F010008E0
:100080005F0100085F0100085F0100085F010008D0
:100090005F0100085F0100085F0100085F010008C0
:1000A0005F0100085F0100085F0100085F010008B0
:1000B0005F0100085F0100085F0100085F010008A0
:1000C0005F0100085F0100085F0100085F01000890
:1000D0005F0100085F0100085F010008A924000813
:1000E0005F0100085F0100085F0100085F01000870
:1000F0005F0100085F0100085F0100085F01000860
:100100005F0100085F0100085F0100085F0100084F
:100110005F0100085F0100085F0100085F0100083F
:100120005F0100085F0100085F0100085F0100082F
:10013000DFF80CD000F0B8FB004800474309000886
:10014000101A00200648804706480047FEE7FEE7F1
:10015000FEE7FEE7FEE7FEE7FEE7FEE7FEE7FEE777
:100160009122000831010008EFF3108072B6704749
:1001700080F310887047324A1368012B04D04FF087
:10018000010313602F4A10602F4A11602F484FF06F
:10019000805101607047EFF3108272B62848016801
:1001A00091B14FF0000101602648016829B1EFF3D9
:1001B000098121E9F00F0068016023490968096895
:1001C000B1E8F00F81F3098882F310884EF0040E35
:1001D00070471D4908601B494FF00000086018492E
:1001E0004FF0010008601A481A49D0F8002041EA8F
:1001F0000201016015484FF0805101601648006807
:10020000006880F3088861B662B670471EF0040F7C
:100210000CBFEFF30880EFF3098020E9F00F40F8FE
:1002200004ED1EF0040F0CBF80F3088880F30988EA
:1002300000B503F03BFB5DF804EB4EF0040E704795
:1002400004160020541400206014002004ED00E087
:1002500020ED00E00000FFFF08ED00E0D2B201E079
:1002600000F8012B491EFBD270470022F6E710B5BB
:1002700013460A4604461946FFF7F0FF204610BD14
:10028000F0B480EA0102D40F4200B2EB410F02D277
:100290000246084611464A0042D0C30DDDB2C1F302
:1002A000C752AD1A202D35DAC1F3160141F4000210
:1002B00004B15242C5F1200602FA06F12A41104467
:1002C000B3EBD05F23D0C4B1012DA0EBC35009DC48
:1002D000F0BC4FF0004202EAC352DBB200F500006E
:1002E00000F057BA400000F1807000EBC350A0F15D
:1002F000807040EAD170490009E0490841EAC071C4
:10030000A0EBC35000F50000400800EBC350F0BC68
:1003100000F036BA6142012202EB4101001BF6E710
:10032000F0BC704781F00041AAE780F00040A7E7E9
:1003300080EA010210B502F00043400022D04A00DA
:100340001FD0010E01EB1261C0F35600C2F356023A
:1003500040F4000042F40002A0FB022000047F39B8
:10036000140400D0401C50EA124001D44000491E41
:10037000C2B20C0604EBD010401C4008802A02D008
:1003800003E0002010BD20F00100002900DA002069
:10039000184310BD2DE9FE4F804681EA0300C00FCF
:1003A0000C46009021F0004123F00045B8EB02001C
:1003B000A94105D24046214690461C460B460246BE
:1003C00023F00040104347D0270DC7F30A00C3F3C2
:1003D0000A510290401A019040286BDAC3F31300CF
:1003E00040F4801B0098924620B10023D2EB030A10
:1003F00063EB0B0B01985946C0F14002504600F0E8
:100400009EF906460D4650465946019A00F0A6F957
:1004100010EB08006141002487EA115284EAE77377
:100420001A4340D0009A62B3019A012A4FEA075258
:1004300015DC001B61EB02014FF0004202EA07529B
:10044000CDE90042001C41F5801132462B4600F0F8
:10045000DDF903B0BDE8F08F40462146F9E7001B07
:1004600061EB0201001C41F5801300185B4120186C
:10047000A2F5001747EB030140EAD570B6196D41AC
:1004800011E06D084FEA360645EAC0754FEA07529B
:10049000001B61EB0201001C41F5801149084FEA85
:1004A00030000019514132462B4603B0BDE8F04FF1
:1004B00000F09DB90098012240000023D0EB020219
:1004C00063EBE073009821464FEAE074B8EB00005C
:1004D00061EB0401E9E783F000435BE781F0004151
:1004E00058E72DE9FE4F81EA030404F0004421F0AF
:1004F000004100944FF0000B23F0004350EA010448
:100500005ED052EA03045BD0C3F30A54C1F30A5528
:100510002C44A4F2F3340194A0FB0254C1F3130160
:1005200041F48011C3F3130343F4801301FB02442D
:1005300000FB034E840A970A44EA815447EA835732
:10054000A4FB076802958D0A05FB07854FEA932CEB
:1005500004FB0C542705029D4FEA065847EA16375C
:10056000B5EB08056EEB070C870E920E47EA811774
:1005700042EA8312A7FB0201B6EB0B0164EB000415
:100580002B0D43EA0C335E1844EB1C50DA465146FF
:10059000E7FB0201C5F313044FEA0B3343EA14539C
:1005A0004FEA0432019C43EA0603A4F10C040294CE
:1005B000009CCDE900B400F029F903B0BDE8F08F4C
:1005C00000200146F9E72DE9F04D81EA030404F02B
:1005D000004B21F0004514464FF0000A23F0004183
:1005E00050EA050220D054EA01021DD0C5F30A5793
:1005F0000246C5F31303C1F31300C1F30A5640F4D6
:10060000801543F48013A7EB0608101BD64608F2AA
:10061000FD3873EB050002D308F1010801E09218E0
:100620005B41B8F1000F03DA00200146BDE8F08D10
:1006300000204FF48011064684460EE0171B73EB32
:10064000050705D3121B63EB050306434CEA010CB7
:1006500049084FEA300092185B4150EA0107EDD19A
:1006600052EA030012D082EA040083EA050108433B
:1006700005D0101BAB4106D20122002306E0002268
:100680004FF0004302E06FF0010253101AEB060036
:100690004CEB085110EB0A0041EB0B01BDE8F04DAB
:1006A00000F0A5B896230022114600F072B800F0C1
:1006B000004220F00040C10DC0F3160040F40000DD
:1006C0007F2901DA00207047962903DCC1F19601E9
:1006D000C84001E096398840002AF4D04042704773
:1006E00000F0004230F000400AD0C10D01F5607109
:1006F000C0F3160042EA0151C20840071143704797
:1007000000200146704701F0004330B421F0004161
:1007100050EA010206D00A0DA2F56072C1F313017E
:10072000002A02DC30BC00207047440F44EAC104B8
:10073000C100E01830BC00EBC25000F021B8202A04
:1007400004DB203A00FA02F1002070479140C2F128
:10075000200320FA03F3194390407047202A06DB58
:10076000CB17203A41FA02F043EAE07306E041FA7F
:1007700002F3D040C2F1200291400843194670476D
:100780000029A8BF7047401C490008BF20F00100A5
:10079000704710B4B0FA80FC00FA0CF050EA010483
:1007A00004BF10BC704749B1CCF1200421FA04F415
:1007B00011FA0CF118BF012121430843A3EB0C01EE
:1007C000CB1D4FEA00614FEA102042BF002010BC51
:1007D000704700EBC35010440029A4BF10BC704701
:1007E000401C490008BF20F0010010BC704710B544
:1007F000141E73F1000408DA401C41F10001921844
:100800005B411A4301D120F0010010BD2DE9F04DEC
:1008100092469B4611B1B1FA81F202E0B0FA80F241
:1008200020329046FFF78BFF04460F4640EA0A004D
:1008300041EA0B0153465A46084313D0114653EA86
:10084000010019D0C8F14002504600F03FF80546BB
:100850000E46504659464246FFF771FF084305D001
:10086000012004E020463946BDE8F08D0020054314
:1008700046EAE0762C4337430A986305E40AA0EB86
:1008800008000022FD0A44EA47540A3002D500203D
:100890000146E9E7010510196941DDE9084500193C
:1008A0006941BDE8F04DA2E7064C074D06E0E0685F
:1008B00040F0010394E8070098471034AC42F6D3A7
:1008C000FFF73AFC684E0008884E0008202A04DB37
:1008D000203A21FA02F00021704721FA02F3D040B9
:1008E000C2F12002914008431946704770B58C1838
:1008F00010F8015B15F0070301D110F8013B2A1134
:1009000006D110F8012B03E010F8016B01F8016B20
:100910005B1EF9D12B0705D40023521E0DD401F81C
:10092000013BFAE710F8013BCB1A921C03E013F8E5
:10093000015B01F8015B521EF9D5A142D8D300201A
:1009400070BD80B504F0BEF8002080BDB0B54FF09A
:10095000000E4FF0070C0A0604BF5FFA8EF0B0BD20
:1009600080220FE005788CEA4E042A400EF08005C4
:1009700018BF0122B2EBD51F4FEA530208BF4FEA5E
:100980004E04A646D3B2002BECD101390130E2E788
:1009900080B5A8B1D0F804C0BCF1000F10D090F819
:1009A00008E0002309E002EB420201335CF8220078
:1009B000884204BF0CEB820080BDDAB27245F2D9E6
:1009C000002080BDF0B585B006460020002ECDE9A0
:1009D0000200CDE900002DD03046FFF7D9FF0446D4
:1009E00040B32078012702AD67F39F108DF808000F
:1009F000717AA2683078002918BF0132511CCAB23E
:100A0000294601F0F1F9767A012E16D1207869464F
:100A100067F39F108DF80000A068023002E0AB5C25
:100A200001378B54FAB29042F9DCC1B26846FFF745
:100A30008DFF03E04FF0FF302FE00020022E18D191
:100A4000217801206A4660F39F118DF80010A1689B
:100A5000023102E0EF5C0130D754C3B29942F9DCB5
:100A600000206A4603E012F8013B013958400B06AA
:100A7000F9D1000602D06FF001000EE00020012243
:100A80006060A16806E0070201326760EB5C43EA40
:100A900000206060D3B29942F5DA05B0F0BDE0B550
:100AA00001464FF0FF300029CDE9000004D008785E
:100AB0006946082201F0DEF902B080BD2DE9FC4153
:100AC00004460020002CCDE900002FD0C9B22046FA
:100AD000FFF75EFF054648B3287800216E4600F018
:100AE0003F008DF80000686803E0BA1A0131B05485
:100AF0000012AF68CAB29742F7DC94F80980B8F1E7
:100B0000000F07D0781CC1B23046FFF71FFFF11964
:100B10004870AF680220B8F1000F694608BF012095
:100B20003844C2B2207801F0A5F901E04FF0FF305F
:100B300002B0BDE8F08100000138072888BF704787
:100B4000DFE800F004070A0D10131619012000F069
:100B50007FB9022000F07CB9032000F079B90420AD
:100B600000F076B9052000F073B9062000F070B9E6
:100B7000072000F06DB9082000F06AB9FEE7000018
:100B8000F8B5904D2878072888BFF8BDDFE800F059
:100B900004333E6D78A8B3E78B4C8C4E20210022A5
:100BA0002046B04720464FF480510122B0472046EE
:100BB00040210122B04720464FF400610022B04797
:100BC000204601210122B04720464FF40071002247
:100BD000B047204602210122B04720464FF48071E1
:100BE0000022B047204604210122B047A4F500604E
:100BF0004FF4004172E0744C744E202101222046D3
:100C0000B04720464FF48051002209E06E4C6F4EF1
:100C1000202100222046B04720464FF48051012277
:100C2000B047204640210022B04720464FF40061E3
:100C30000122B047204601210122B04720464FF44F
:100C400000710022B047204602210122B047204611
:100C50004FF480710022B047204604210022B047A3
:100C6000A4F500604FF4004173E0574C574E20212B
:100C700001222046B04720464FF48051002209E06F
:100C8000514C524E202100222046B04720464FF4BE
:100C900080510122B047204680210122B0472046E2
:100CA0004FF480610022B047204601210022B04766
:100CB00020464FF400710122B04720460221002255
:100CC000B04720464FF480710122B04720460821EA
:100CD0000122B047A4F500604FF48041002239E0C2
:100CE000394C3A4E202101222046B04720464FF48D
:100CF0008051002209E0344C344E2021002220464D
:100D0000B04720464FF480510122B0472046802151
:100D10000022B04720464FF480610122B0472046B0
:100D200001210022B04720464FF400710122B04754
:100D3000204602210022B04720464FF48071012254
:100D4000B047204608210022B047A4F500604FF4C8
:100D500080410122B0472878461C2E70F8BD1A4CFD
:100D60001A4F202101222046B84720464FF48051D7
:100D700000220026B847204640210122B8472046DD
:100D80004FF400610022B847204601210122B847F4
:100D900020464FF400710022B8472046022101226C
:100DA000B84720464FF480710022B84720460421FE
:100DB0000122B847A4F500604FF400410022B84773
:100DC000CBE700BF6C030020001401400F120008A5
:100DD000704700000138072888BF7047DFE800F03F
:100DE000040B10161C22282E364810210122A0F5D3
:100DF000805000F00CBA33488021012200F007BA7D
:100E000030484FF48071012200F001BA2D484FF4B0
:100E10000071012200F0FBB92A484FF480610122E1
:100E200000F0F5B927484FF40061012200F0EFB956
:100E300024484FF48051012200F0E9B921484FF4D1
:100E40000051012200F0E3B9102000F0F1B80000D9
:100E50000138072888BF7047DFE800F0040B101640
:100E60001C22282E174810210022A0F5805000F0E7
:100E7000CEB914488021002200F0C9B911484FF4BE
:100E80008071002200F0C3B90E484FF400710022B7
:100E900000F0BDB90B484FF48061002200F0B7B9F3
:100EA00008484FF40061002200F0B1B905484FF442
:100EB0008051002200F0ABB902484FF400510022EB
:100EC00000F0A5B900180140EFF3108072B6FEE7FC
:100ED00090F82110022912D1016801230A6822F03A
:100EE0000E020A600A6822F001020A60D0E90F12BD
:100EF00003FA02F24A60002180F8213002E0042166
:100F000081630121002280F82020084670470000FC
:100F100090F82110022919D10268116821F00E0100
:100F20001160116821F0010111602D4901F17C036C
:100F30009A420FD9324B9A4224D0324B9A4223D054
:100F4000314B9A4222D14FF4807327E00421816310
:100F5000012143E0234B9A4226D0234B9A4225D0CD
:100F6000224B9A4224D0224B9A4224D0214B9A42BF
:100F700017D0214B9A4221D0204B9A4211D14FF0E9
:100F800080721DE0012309E0102307E001F5886C61
:100F90004FF48033624508BF4FF48053C1F80034EA
:100FA0000FE04FF480320BE0012209E0102207E04D
:100FB0004FF4807204E04FF4805201E04FF480124D
:100FC0000A600021012280F8201080F82120426B65
:100FD00022B180B590470021BDE8804008467047A7
:100FE00004000240080002401C00024030000240A1
:100FF00044000240580002406C0002408000024061
:10100000080402401C0402403004024080B5C006BF
:1010100058BF80BD0548402100F0ECF800B180BD0C
:1010200002F02EF9BDE8804002F09ABF00080140AE
:1010300003490A68024214BF08607047FFF7E6BF21
:10104000140401402DE9FC4F81465F4806234FF010
:10105000000C4FF001084FF00F0E4FF0000A8145D1
:101060005A4808BF052348444FEAB022052A4FF0EA
:10107000000238BF4FEAB02300930C6834FA02F53F
:1010800008BFBDE8FC8F08FA02F73C4200F09880E8
:101090004D68032D16D9112D26D0122D28D04E487B
:1010A000854213D04D48854210D04D4885420DD021
:1010B0004C4885420AD04C48854207D04B4885426F
:1010C00004D022E0DFE805F002181B1F8C6844B151
:1010D000012C4FF0080A14BFC9F81470C9F8107039
:1010E00013E04FF0040A10E0CC6804F1040A0CE0AD
:1010F000CC6804F10C0A08E0D1F80CA005E0CC683B
:1011000004F1080A01E04FF0000A082A6446484644
:1011100028BF203C28BF043006680EFA04F50AFAFE
:1011200004F426EA05052C430460C879C00647D5B7
:101130007948274E22F0030503460068B34635443C
:1011400040F0010018601868294B00F00100019080
:101150000CF00C00019E0EFA00F49E46EE58009B27
:1011600003FA00F026EA04041A4B204345F80E0067
:101170004FF00F0E4D68DBF8080015F4801F0CBF10
:1011800020EA070440EA0704A802CBF808401868E0
:1011900054BF20EA070440EA0704A8031C60DBF8F8
:1011A000040054BF20EA070440EA0704E803CBF830
:1011B0000440DBF8000054BFB8433843CBF80000CC
:1011C0000CF1040C013258E7001C014000F8FEBF8E
:1011D000000401400C040140000011100000121036
:1011E0000000211000002210000031100000321019
:1011F00008FCFFFF8068084018BF01207047C268E4
:1012000002EA0103914341EA034101617047002A68
:1012100008BF09040161704730488068704700BF0B
:10122000B0B5044618B320684CF6CC41016045F2D5
:101230005551016061684160A1688160FFF7ECFF72
:1012400005462068C16811F0030F0BD0FFF7E4FFDB
:10125000401B2828F5D32068C06810F0030FF0D099
:10126000032005E04AF6AA210160002000E00120E9
:10127000C0B2B0BD00684AF6AA21016000207047E4
:1012800080B50748016841F010010160032000F0BB
:1012900089F80F2000F006F800F022F8002080BD49
:1012A0000020024070B50D4E04464FF47A7130783C
:1012B000B1FBF0F09A490968B1FBF0F000F01AFBBD
:1012C00001250F2C08D838B94FF0FF3021460022F5
:1012D000002500F045F87460284670BD000000202D
:1012E00082B00D480222016841F0010101600168ED
:1012F00001F0010101910199416841F08051416083
:10130000406800F08050009000980448016862F343
:101310001A61016002B070471810024004000140D9
:1013200000280CDB00F01F010122400902FA01F144
:10133000034A42F82010BFF34F8FBFF36F8F7047FF
:1013400080E100E0002808DB00F01F0101224009D5
:1013500002FA01F1014A42F82010704700E100E072
:1013600010B5164B1B68C3F3022E0EF1040CAEF140
:1013700003048EF00703BCF1070F4FF0010C38BFD8
:101380000024042B28BF04230CFA03F3013B19406B
:101390000CFA04F3013BA1401A401143BDE8104090
:1013A00001F08AB805494FF6FF030A681A4060F356
:1013B0000A22034810430860704700BF0CED00E0AC
:1013C0000000FA052DE9F04188460446002800F0A7
:1013D0008880464F4FF48050395801F0070141454D
:1013E0000AD2395821F0070141EA0801395038582A
:1013F00000F00700404574D1206810F0020F11D0B2
:10140000410742BF796841F4E0617960010742BF5A
:10141000796841F4605179607968A26821F0F0013F
:1014200011437960C00727D06068012804D139686A
:1014300011F4003F08D154E03968022802D1890133
:1014400002D44EE089074CD5796821F003010843A6
:101450007860FFF7E1FE064641F2883578686168FA
:1014600000F00C00B0EB810F06D0FFF7D5FE801B1B
:10147000A842F3D9032035E04FF48050395801F0E9
:10148000070141450AD9395821F0070141EA08010D
:101490003950385800F00700404522D1206810F03C
:1014A000040F05D07968E26821F4E06111437960A6
:1014B000000706D57868216920F4605040EAC10031
:1014C000786000F031F87968094AC1F30311515C82
:1014D000C8401349086007480068FFF7E3FE002092
:1014E00000E00120C0B2BDE8F08100BF0010024062
:1014F000404B0008040000200948FA49094A0068E6
:101500000968C1F30221515CC8407047F748F549AA
:10151000044A00680968C1F3C221515CC8407047A1
:101520000C000020504B000810B50D4C0D482268EF
:1015300002F00C03082B18BF10BDC2F383430AA1AD
:1015400012F4803FCB5C02D10C48584310BD216897
:1015500009A25843C1F34041515CB0FBF1F010BD0A
:101560000410024000127A0002030405060708096D
:101570000A0B0C0D0E0F10100102000000093D00B7
:101580002DE9FE430446002800F05C812078D44E0B
:10159000D44FC007B14650D0386800F00C00042882
:1015A00018D0386800F00C00082803D1386810F40F
:1015B000803F0FD16068A0B1B0F5803F06D03168A0
:1015C000B0F5A02F25D141F480203060306840F480
:1015D000803024E0306810F4003F2ED0606860BB9B
:1015E00030E1306820F480303060306820F48020B2
:1015F0003060FFF711FE0546D9F800004E4610F4A2
:10160000003F1AD0FFF708FE411B03206429F3D9DD
:1016100019E121F480303060306820F4802030609F
:10162000FFF7FAFD0546306810F4003F05D1FFF7DB
:10163000F3FD401B6428F6D9E6E0207880072FD51B
:10164000386810F00C0F08D0386800F00C0008283B
:101650000BD1386810F4803F07D1306810F0020FCA
:1016600017D02069012814D0ECE021699E48002998
:1016700000F08A8001210160FFF7CEFD0546306849
:1016800010F0020F05D1FFF7C7FD401B0228F6D965
:10169000BAE03068616920F0F80040EAC1003060CB
:1016A0002078000730D5A06980B18F480121C0F8AB
:1016B0008014FFF7B1FD0546386A10F0020F16D10D
:1016C000FFF7AAFD401B0228F6D99DE086480021BD
:1016D000C0F88014FFF7A0FD0546386A10F0020F2D
:1016E00012D0FFF799FD401B0228F6D98CE07F4805
:1016F0004FF4FA510068B0FBF1F0029000BF02987D
:10170000411E00280291F9D12078400740F18580E0
:10171000B86910F0805F0BD1B8694FF0010840F054
:101720008050B861B86900F080500190019801E0E4
:101730004FF000086E4E484659F8060010F4807FBE
:1017400014D159F8060040F4807049F80600FFF7FC
:1017500063FD0546484659F8060010F4807F05D120
:10176000FFF75AFD401B6428F4D94DE0E068F0B162
:10177000012805D0F969052831D141F00400F8614C
:10178000F86940F0010030E000210160FFF744FDFE
:1017900005464846D9F8000010F0020F3FF480AF2C
:1017A000FFF73AFD411B03200229F2D94BE0F8690B
:1017B00020F00100F861F86920F00400F861FFF7FB
:1017C0002BFD054641F28836F86910F0020F1DD056
:1017D000FFF722FD411B0320B142F5D933E021F090
:1017E0000100F861F86920F00400F861FFF714FDCA
:1017F000054641F28836F86910F0020F06D1FFF76E
:101800000BFD401BB042F6D903201CE0B8F1000FDD
:101810001EBFB86920F08050B861E669002E5DD027
:10182000386800F00C00082811D1012E0AD0386861
:10183000216A00F480328A4204D1616A00F4701097
:1018400088424BD00120C0B203B0BDE8F0832649E6
:10185000002088460866FFF7DFFC0546022E0DD102
:1018600046464846D9F8000010F0007F13D0FFF735
:10187000D3FC411B03200229F3D9E4E74846D9F8F9
:10188000000010F0007F29D0FFF7C6FC411B0320A9
:101890000229F3D9D7E7206AB0F5803F05D139682E
:1018A000A26821F40031114339603968626A10433B
:1018B00021F474110843386001203066FFF7ACFC56
:1018C00004464846D9F8000010F0007F06D1FFF723
:1018D000A3FC011B03200229F3D9B4E70020B2E7DF
:1018E0000010024004100240000042420C000020A0
:1018F0000060FEFF411E0020B0EB116F1CBF0120F5
:101900007047044AF023516003490B70072190602F
:101910001160704710E000E023ED00E07047704771
:10192000BCB50446006802680146D0F80CE051F8E6
:10193000143F12F00F0F65D00EF4907503F0010CF8
:101940005CEA050368D0D0071FBF1EF48070606C8E
:1019500040F001006064500706D5BCF1000F1EBFC7
:10196000606C40F002006064900706D5BCF1000F87
:101970001EBF606C40F004006064100708D50EF0D4
:10198000200050EA0C001EBF606C40F0080060644C
:10199000606C002800F009810EEA0200800605D57F
:1019A000204600F0A3FC206800F114010868616C77
:1019B00000F0400001F00801084300F0E2802046FA
:1019C00000F06DFC2068416911F0400F01D1D3E0B7
:1019D000206850E8050F216820F0400041E805022A
:1019E000002AF5D1E06B002800F0C68074494163FD
:1019F000FFF78EFA002800F0D880E06B416BBDE85D
:101A0000BC4008470EEA020111F0200F06D0204624
:101A1000BDE8BC4000F06ABC0EEA0201226BCB06B6
:101A20003DD5012A3BD10021019101680191416816
:101A300001910199416911F0400F41D1E18DA28DD1
:101A4000E38D002B00F0B180511A0A0401D1ACE003
:101A5000206850E8030F226820F4907042E80303E6
:101A6000002BF5D1206850E8050F226820F0010016
:101A700042E80503002BF5D1202084F84200002025
:101A80002063206850E8030F226820F0100042E82D
:101A90000303002BF5D1022089B2606357E00A06E8
:101AA0005AD4490640F18180C16821F04001C160EB
:101AB000202084F841002046BDE8BC4000F04CB92D
:101AC000E26B11684B6899B200296ED0B4F82CC053
:101AD00061456AD2E3859169202901D131E020680E
:101AE00050E8030F216820F4807041E80302002AC7
:101AF000F5D1206850E8050F216820F0010041E889
:101B00000502002AF5D1206850E8050F216820F071
:101B1000400041E80502002AF5D1202084F8420067
:101B200000202063206850E8030F216820F0100097
:101B300041E80302002AF5D1E06BFFF7C9F9B4F8D8
:101B40002CC002206063E08DACEB000081B2204627
:101B5000BDE8BC40FFF7E2BE94F84110212924D132
:101B6000A168B1F5805F01D1216981B1216A4A1C68
:101B700022620978416011E02046BDE8BC40FFF7D1
:101B8000CEBE2046FFF7CBFE00206064BCBD216ABC
:101B900031F8022B6FF35F2242602162E18C4FF635
:101BA000FF7201391142E18400D0BCBDC16821F04F
:101BB0008001C160C16841F04001C160BCBD00BF8F
:101BC0009322000810B5044648B394F8410028B9A0
:101BD000002084F84000204600F024F8242084F8F7
:101BE00041002068C16821F40051C160204600F026
:101BF000E1FB2068016921F490410161416921F014
:101C00002A014161C16841F40051C16000202021D6
:101C1000606484F8411084F84210606310BD0120B4
:101C200010BD000070B586B000261E4CCDE90466DC
:101C3000CDE902660068A4F5444188422FD11A48D4
:101C400002AD416841F480214160416801F4802186
:101C500001910199016841F008010160294600687D
:101C600000F0080001900198022003904FF480607A
:101C70000290032005902046FFF7E4F94FF400603E
:101C800003962946029020460496FFF7DBF92720A9
:101C900000210022FFF764FB2720FFF753FB06B06B
:101CA00070BD00BF000C01401810024070472DE9C4
:101CB000F843044690F841001D4617468846202800
:101CC0001CD1B8F1000F4FF0010018BF002F3FD01A
:101CD0004FF000092120C4F8449084F84100FFF738
:101CE0009BFAA784E7840646A068B0F5805F07D119
:101CF0002769002F0CBFC146474619E0022027E0A4
:101D0000474615E02046802132462B4600F094FBE2
:101D1000C0B91FB117F8011B206805E039F8021B94
:101D2000206800276FF35F214160E08C0138E08478
:101D3000E08C0028E6D12046402132462B4600F0B8
:101D40007BFB08B1032003E0202084F84100002041
:101D5000C0B201B0BDE8F0837047000070B5EC4C34
:101D600000250026204620210122FFF750FA0120FD
:101D700001F066FEF0B2072884BFE8B270BD2046CD
:101D800020210022FFF743FA012001F059FE2046EE
:101D90004021FFF72FFA40EA45050136E2E700BF90
:101DA00070B5DB4D0446202101222846FFF72FFAAB
:101DB0000026F0B2072888BF70BD20064FF08001D2
:101DC000284654BF00220122FFF721FA284620218D
:101DD0000022FFF71CFA284620210122FFF717FAFC
:101DE00001366400E5E700BF2DE9FF4190460D464E
:101DF000002102AA0026ADF80C100291ADF80410E3
:101E0000009103E0AB5D9355A9550136B045F9D17A
:101E10000138072816D8DFE800F00406080A0C0E7F
:101E2000101201200CE002200AE0032008E0042048
:101E300006E0052004E0062002E0072000E008207C
:101E4000FFF706F89DF80800FFF7AAFF01246F4688
:101E500003E0FFF783FF38550134B442F9D3002083
:101E600002E0395C295401308642FAD1404604B080
:101E7000BDE8F0812DE9FC4100251446E846CDE996
:101E8000005503E04A5D08F805200135AC42F9D160
:101E90000027461E1DE0072E16D8DFE806F00406D0
:101EA000080A0C0E101201200CE002200AE00320A8
:101EB00008E0042006E0052004E0062002E00720F8
:101EC00000E00820FEF7C4FF18F80700FFF768FFDE
:101ED0000137BD42DFD1204602B0BDE8F0810000ED
:101EE00080B50548FFF7C6F920B104A0BDE88040E1
:101EF00001F014BE80BD00BF700300205761746301
:101F000068646F67207265667265736820666169D0
:101F10006C6564210A000000F8B504460078FEF7FD
:101F20000BFE1B2020812046FEF7B9FD784D2021B5
:101F300001222846FFF76BF9284680210122FFF78E
:101F400066F94FF4167001F07BFD1A4E002500274C
:101F500007E07560666020463178FEF733FD0C3689
:101F60000137207A8742F4D3124D48F26000124EB6
:101F700010216560A8652046B04702200221E86173
:101F80002046B0470020012128612046B0474FF489
:101F9000F8502021C5F888002046B0471420282199
:101FA000C5F8B8002046B0472078BDE8F840FEF7F5
:101FB00011BF00BF10000020BD0A00082DE9F04F3E
:101FC00085B05248524C534D01224FF01009016820
:101FD00041F004010160016801F0040101910199DF
:101FE000016841F010010160016801F010010191E8
:101FF0000199016841F040010160016801F0400170
:1020000001910199016841F008010160016801F046
:10201000080101910199016841F02001016010213E
:10202000006800F02000019001982046A847204653
:10203000A02100220026A84704F580574FF47E51C6
:1020400001223846A84704F5806A4FF47041002207
:102050005046A84704F5406843F6FF710022404609
:10206000A8474FF0010B01AD0220CDE9019BDFF83D
:10207000A8900396049020462946C847A020CDF892
:1020800008B029464FF0010B0190032003960490FD
:102090002046C847402002962946019020460396D4
:1020A000C8471E48294602901020019004F50060A0
:1020B0000396C8474FF47E50CDF808B00224294655
:1020C0000190384603960494C8474FF47040CDF809
:1020D00008B0294601905046CDE903640224C84760
:1020E00043F6FF70CDF808B0294601904046CDE98F
:1020F0000364C8470A2000210022FFF731F90A20B3
:10210000FFF720F905B0BDE8F08F00BF18100240BE
:10211000000801400F1200084510000800001110CF
:1021200080B50848084A042140F6FF73C0E9002141
:102130008360FFF775F8002814BFBDE8804080BDBC
:10214000FEF7C2BE700300200030004080B5D848C2
:102150000B4A4FF4E13100234FF00C0CC0E9002191
:10216000C0E90233C0E9043CC0E90633FFF72AFDA9
:10217000002814BFBDE8804080BDFEF7A5BE00BFAB
:1021800000480040FEE7FEE780B5FEF78BFAFEF759
:10219000A7FA00224FF07853FEF7A3F9054B00226F
:1021A000FEF7F8F8044B0022FEF79BF9FEF7ABFAB6
:1021B00080BD00BF0000F0BF00000440704780B544
:1021C00001F056FC02F0EEF9BDE8804001F064BC7D
:1021D000B0B590B0002401A814210B94CDE90944B6
:1021E000FEF743F84FF4803009210225079006914D
:1021F000012108940A910C91CDE90D504FF4E010A3
:102200000F9006A8FFF7BCF918B1EFF3108072B673
:10221000FEE70F20022101904FF480600394CDE986
:10222000040401A80295FFF7CDF818B1EFF3108070
:1022300072B6FEE710B0B0BD1048016801F00C02A4
:102240000F49082A0FD10268C2F3834203680232A1
:1022500013F4803F01D10B4904E0036813F4003FFD
:1022600018BF08495143084A084B11600068C0F381
:102270000310185C21FA00F010607047041002404F
:1022800000127A0000093D000C000020404B0008BD
:102290007047406A0021C185C184FFF740BB0168D7
:1022A00051E8031F026821F4907142E80313002BE8
:1022B000F5D1016851E8051F026821F0010142E8EB
:1022C0000513002BF5D1016B012909D1016851E8F3
:1022D000031F026821F0100142E80313002BF5D11F
:1022E000202180F8421000210163704790F84210CD
:1022F000222918BF70478368B3F5805F05D1016953
:10230000B1B100F128010A680BE00146002B51F839
:10231000282F01D1036923B103685B6803F07F03B1
:1023200001E003685B6813700A6801320A6007E025
:102330000168826A49686FF35F2122F8021B82629A
:10234000C18D4FF6FF7201391142C18500D070472F
:102350000168CA6822F02002CA60CA6822F480724A
:10236000CA604A6922F001024A61202280F84220B4
:1023700000224263036B012B18BFFFF797BC026377
:1023800051E8031F026821F0100142E803130168BD
:10239000002BF5D10A6812F0100F08D081B000228E
:1023A00000920A68009249680091009901B0818DFD
:1023B000FFF7B4BA10B5044600680169E26821F479
:1023C0004051114341F20C620161D4F808C0D4E9D4
:1023D00004E3C16891434EEA0C021A431143C16001
:1023E0004169A26921F44071114341611149884258
:1023F00002D0FFF781F801E0FFF788F81921484380
:10240000D4E900126FF063049200B0FBF2F0642292
:10241000B0FBF2F303FB0400322404EB0010B0FB2A
:10242000F2F000F0F00200F00F0002EB0312104394
:10243000886010BD003801402DE9F0411D469046EE
:102440000F4604465E1C206800683840B84226D01B
:10245000002EF8D02DB1FEF7DFFEA0EB0800A84259
:10246000F1D9206850E8030F216820F4D07041E8CA
:102470000302002AF5D1206850E8050F216820F0FA
:10248000010041E80502002AF5D12020002184F84E
:10249000410084F8401084F84200032000E000204E
:1024A000C0B2BDE8F08100000148FFF739BA00BFB3
:1024B0007C030020FEE7000010B5074C00F00F037E
:1024C000044AB0F1FF3F2344C8BF831808011870C5
:1024D00010BD00BF00E400E014ED00E018B1C1B28F
:1024E00019B101200EE00020704710F47F4102D0A6
:1024F000090A092006E010F47F0107BF010E192028
:10250000090C1120014A515C08447047584B0008DF
:102510001CB500F1200C0446ACE80E002321049AFF
:10252000C2621430C4E90500184601F08DFB04F1C5
:1025300020030FCB1A44124B043A01F063FAE06116
:10254000104A2346059884F8360084F835000020A8
:10255000A0630699C4E90F11206384F83400C4E92C
:102560001C00CDE9000004F14400214602F0C9F846
:102570000548016819B12046BDE81C4008471CBD4C
:102580009142000811450008F8140020B0B5054636
:10259000FDF7EAFD296F044609B128468847204621
:1025A000BDE8B040FDF7E4BDF8B5224D6868C0B99C
:1025B00001F08EF801F0F2FF044600260AE0686898
:1025C00001306860009602E00098013000900098A9
:1025D0006328F9D901F0E2FF001B0928EFD901F0C7
:1025E00083F8002701F0DAFF0446002608E0009790
:1025F00002E000980130009000986328F9D9013674
:1026000001F0CCFF001B0928F1D96868B0420BD952
:10261000811B64225143B1FBF0F303FB10112B70BB
:102620005143B1FBF0F002E0002028706E6068704A
:10263000F8BD00BF00020020014801F0A9BE00BFA4
:10264000A92500082DE9F84FDFF83C96DFF858A6D9
:10265000DFF8B06DDFF8B07DDFF8B08DE24C4FF4FD
:10266000007B00F00DFE4FF0FF3101F0A5FC0028CB
:10267000F7D1FA2001F006FE99F80000172800F2C1
:10268000B782DFE810F0180036004B0077008E00AC
:10269000A800D200E90003012D0144015E01880178
:1026A0009D01B301DD01F00103022D02400253023E
:1026B0007D029402D1024546DFF8408D0421404658
:1026C000FEF780F9C9F80400FFF75EFD2146C9F85E
:1026D0001000FDF72DFEFDF7EAFF0146DFF8980632
:1026E00001F01CFA48F26100CAF858004046A846BA
:1026F00076E2DFF8085D04212846FEF763F9C9F8A1
:102700000800FFF741FD2146C9F81400FDF710FE4F
:10271000FDF7CDFF0146DFF85C065AE2DFF8DC5C2E
:1027200004212846FEF74EF9C9F80C00FFF72CFDEE
:102730002146C9F81800FDF7FBFDFDF7B8FF01467B
:10274000DFF82C0601F0EAF948F260001021CAF81F
:1027500058002846FEF7B2F90120FEF73BFB0220A5
:10276000CAF810B089F8010099F80000013089F822
:1027700000004BE230460421FEF724F9C9F80400BA
:10278000FFF702FD2146C9F81C00FDF7D1FDFDF75A
:102790008EFF0146DFF8D00501F0C0F948F2610074
:1027A00015E030460421FEF70DF9C9F80800FFF7DF
:1027B000EBFC2146C9F82000FDF7BAFDFDF777FFD5
:1027C0000146DFF8A00501F0A9F948F26200CAF855
:1027D0005800304604E230460421FEF7F3F8C9F809
:1027E0000C00FFF7D1FC2146C9F82400FDF7A0FD3D
:1027F000FDF75DFF0146DFF8680501F08FF948F24B
:1028000060001021CAF858003046FEF757F9022040
:10281000FEF7E0FA0320CAF810B089F8010099F831
:102820000000013089F80000F2E138460421FEF78B
:10283000C9F8C9F80400FFF7A7FC2146C9F8280029
:10284000FDF776FDFDF733FF0146DFF8100501F0D7
:1028500065F948F2610015E038460421FEF7B2F848
:10286000C9F80800FFF790FC2146C9F82C00FDF7D5
:102870005FFDFDF71CFF0146DFF8DC0401F04EF9B7
:1028800048F26200CAF858003846A9E138460421E7
:10289000FEF798F8C9F80C00FFF776FC2146C9F856
:1028A0003000FDF745FDFDF702FF0146DFF8A40407
:1028B00001F034F948F260001021CAF85800384697
:1028C000FEF7FCF80320FEF785FA0420CAF810B0E2
:1028D00089F8010099F80000013089F8000099E1B9
:1028E00040460421FEF76EF8C9F80400FFF74CFCDF
:1028F0002146C9F83400FDF71BFDFDF7D8FE01465F
:10290000DFF84C0401F00AF948F2610015E0404696
:102910000421FEF757F8C9F80800FFF735FC2146F7
:10292000C9F83800FDF704FDFDF7C1FE0146DFF8E8
:102930001C0401F0F3F848F26200CAF8580040465F
:102940004EE140460421FEF73DF8C9F80C00FFF7C0
:102950001BFC2146C9F83C00FDF7EAFCFDF7A7FE89
:102960000146DFF8E40301F0D9F848F260001021D5
:10297000CAF858004046FEF7A1F80420FEF72AFAEC
:102980000520CAF810B089F8010099F8000001305C
:1029900089F8000040E1DFF8785A04212846FEF764
:1029A00011F8C9F80400FFF7EFFB2146C9F8400011
:1029B000FDF7BEFCFDF77BFE0146DFF88803F1E082
:1029C000DD4D04212846FDF7FDFFC9F80800FFF79B
:1029D000DBFB2146C9F84400FDF7AAFCFDF767FEC2
:1029E0000146D748F5E000BF00247449D24D0421C8
:1029F0002846FDF7E7FFC9F80C00FFF7C5FB2146A5
:102A0000C9F84800FDF794FCFDF751FE0146CB489C
:102A100001F084F848F260001021CAF858002846F6
:102A2000FEF74CF80520FEF7D5F90620CAF810B0DD
:102A300089F8010099F80000013089F80000EDE004
:102A4000B94D04212846FDF7BDFFC9F80400FFF782
:102A50009BFB2146C9F84C00FDF76AFCFDF727FEF9
:102A60000146B4489EE0B04D04212846FDF7AAFF78
:102A7000C9F80800FFF788FB2146C9F85000FDF7A8
:102A800057FCFDF714FE0146A948A2E0A64D04211B
:102A90002846FDF797FFC9F80C00FFF775FB2146A4
:102AA000C9F85400FDF744FCFDF701FE01469F48BC
:102AB00001F034F848F260001021CAF858002846A6
:102AC000FDF7FCFF0620FEF785F90720CAF810B0D5
:102AD00089F8010099F80000013089F800009FE0B2
:102AE0007E4D04212846FDF76DFFC9F80400FFF76D
:102AF0004BFB2146C9F85800FDF71AFCFDF7D7FD3E
:102B0000014683A04EE0754D04212846FDF75AFF8B
:102B1000C9F80800FFF738FB2146C9F85C00FDF74B
:102B200007FCFDF7C4FD014673A052E06B4D042184
:102B30002846FDF747FFC9F80C00FFF725FB2146A3
:102B4000C9F86000FDF7F4FBFDF7B1FD014664A094
:102B500000F0E4FF48F260001021CAF8580028464F
:102B6000FDF7ACFF0720FEF735F90820CAF810B0D2
:102B700089F8010099F80000013089F8000051E05F
:102B8000424D04212846FDF71DFFC9F80400FFF758
:102B9000FBFA2146C9F86400FDF7CAFBFDF787FD83
:102BA000014648A000F0BAFF48F2610015E0374D39
:102BB00004212846FDF706FFC9F80800FFF7E4FAEC
:102BC0002146C9F86800FDF7B3FBFDF770FD01462B
:102BD00036A000F0A3FF48F26200CAF85800284669
:102BE0001021FDF76BFF99F80000013089F8000013
:102BF00099F80100CAF810B0013807283FF631AD46
:102C0000DFE800F03D0406080A0C0E10304637E0FD
:102C1000384635E0404633E0474831E042482FE04F
:102C20002E482DE019482BE0184D04212846FDF7C9
:102C3000C9FEC9F80C00FFF7A7FA2146C9F86C00D5
:102C4000FDF776FBFDF733FD014611A000F066FFAE
:102C500048F260001021CAF858002846FDF72EFF00
:102C6000FDF78EFF00F008FB01F07AF90820FEF76F
:102C7000B1F84FF48070CAF810B0A9F800003B48D2
:102C80000121FDF71BFFECE410020020A801002049
:102C9000565F4144385F43683233203A2025642030
:102CA00075560D0A0000000010000020565F4144D8
:102CB000385F43683133203A2025642075560D0A69
:102CC00000000000565F4144385F43683033203ACB
:102CD0002025642075560D0A000000009C0100208C
:102CE000565F4144375F43683233203A20256420E1
:102CF00075560D0A00000000565F4144375F436877
:102D00003133203A2025642075560D0A000000005A
:102D1000565F4144375F43683033203A20256420B2
:102D200075560D0A0000000090010020BD4D0008FE
:102D30003F4D0008C14C000884010020A84D000848
:102D40002A4D0008AC4C0008934D0008154D0008B2
:102D5000974C00087E4D0008004D0008824C00088A
:102D6000694D0008EB4C00086D4C00085401002030
:102D7000544D0008D64C0008584C00082DE9F84F77
:102D8000DFF86894DFF86884DFF86844DFF8685497
:102D9000DFF86864DFF86874DFF874A4DFF890B4D3
:102DA00000F06AFA4FF0FF3101F006F999F80000DF
:102DB0000728F5D8DFE810F05700080038010800B0
:102DC000AA010800C8000800D8F800002168FDF733
:102DD00057FA2968FDF754FA3168FDF751FA396856
:102DE000FDF74EFADFF81C140968FDF749FADFF821
:102DF00018140968FDF744FADFF810140968FDF7A4
:102E00003FFA4FF07851FDF793FADFF80C14CAF847
:102E10000800DFF8000400680968FDF731FADFF800
:102E2000FC130968FDF72CFADFF8F4130968FDF7C5
:102E300027FADFF8F0130968FDF722FADFF8E81344
:102E40000968FDF71DFADFF8E4130968FDF718FAC1
:102E5000DBF80010FDF714FA4FF07851FDF768FA2F
:102E6000CAF800009CE7D8F800002168FDF708FACE
:102E70002968FDF705FA3168FDF702FA3968FDF7B0
:102E8000FFF9DFF880130968FDF7FAF9DE490968F0
:102E9000FDF7F6F9DD490968FDF7F2F94FF07851D1
:102EA000FDF746FADC490646CAF80C00D948006826
:102EB0000968FDF7E5F9D9490968FDF7E1F9D8494D
:102EC0000968FDF7DDF9D7490968FDF7D9F9D64951
:102ED0000968FDF7D5F9D5490968FDF7D1F9DBF89F
:102EE0000010FDF7CDF94FF07851FDF721FACAF83F
:102EF000100004463146DAF80800DAF80050FDF711
:102F000011FAFDF7EDFBCB4B0022FDF7EAFA06467E
:102F10000F4628462146B84DB64CFDF703FAFDF79B
:102F2000DFFB02460B4630463946B44EB44FFDF740
:102F30004AFBFDF7E8FBCAF80400FDF7B8FB0146C1
:102F4000BDA000F0EBFD2BE7D8F800002168FDF7ED
:102F500097F92968FDF794F93168FDF791F9396817
:102F6000FDF78EF9A7490968FDF78AF9A6490968AE
:102F7000FDF786F9A5490968FDF782F94FF0785108
:102F8000FDF7D6F9A4490646CAF80C00A148006826
:102F90000968FDF775F9A1490968FDF771F9A049BC
:102FA0000968FDF76DF99F490968FDF769F99E49C0
:102FB0000968FDF765F99D490968FDF761F9DBF8D6
:102FC0000010FDF75DF94FF07851FDF7B1F9CAF83F
:102FD000100004463146DAF80800DAF80050FDF730
:102FE000A1F9FDF77DFB934B0022FDF77AFA064627
:102FF0000F4628462146804D7E4CFDF793F9FDF79C
:103000006FFB02460B46304639467C4E7C4FFDF73F
:10301000DAFAFDF778FBCAF81C00FDF748FB014619
:1030200089A000F07BFDBBE6D8F800002168FDF721
:1030300027F92968FDF724F93168FDF721F9396886
:10304000FDF71EF96F490968FDF71AF96E4909681D
:10305000FDF716F96D490968FDF712F94FF078513F
:10306000FDF766F96C490646CAF80C006948006825
:103070000968FDF705F969490968FDF701F968492B
:103080000968FDF7FDF867490968FDF7F9F8664931
:103090000968FDF7F5F865490968FDF7F1F8DBF80F
:1030A0000010FDF7EDF84FF07851FDF741F9CAF83F
:1030B000100007463146DAF80800DAF80050FDF74C
:1030C00031F9FDF70DFB5B4B0022FDF70AFA0646CE
:1030D0004446884628463946474D494FFDF722F970
:1030E000FDF7FEFA02460B4630464146A046434EE7
:1030F000404CFDF768FAFDF706FBCAF81400FDF72F
:10310000D6FA014658A000F009FD49E6D8F80000BB
:103110002168FDF7B5F82968FDF7B2F83168FDF7C9
:10312000AFF83968FDF7ACF836490968FDF7A8F83B
:1031300035490968FDF7A4F834490968FDF7A0F896
:103140004FF07851FDF7F4F833490646CAF80C0001
:10315000304800680968FDF793F830490968FDF7C1
:103160008FF82F490968FDF78BF82E490968FDF79C
:1031700087F82D490968FDF783F82C490968FDF7A0
:103180007FF8DBF80010FDF77BF84FF07851FDF782
:10319000CFF8CAF8100005463146DAF80800DAF828
:1031A0000070FDF7BFF8FDF79BFA224B0022FDF7F8
:1031B00098F906460C4638462946114F0E4DFDF744
:1031C000B1F8FDF78DFA02460B46304621460B4E0C
:1031D000084CFDF7F8F9FDF796FACAF81800FDF764
:1031E00066FA01461CA000F099FCD9E56C030020AA
:1031F00024020020300200203C020020480200206F
:1032000054020020600200206C020020780200209E
:1032100090020020280200203402002040020020FA
:103220004C0200205802002064020020700200209E
:103230007C0200200088A3405234203A20256420DC
:103240006F686D0D0A0000005233203A202564207B
:103250006F686D0D0A0000005232203A202564206C
:103260006F686D0D0A0000005231203A202564205D
:103270006F686D0D0A0000006F484068704700BF1E
:103280006D480068704700BF10B5094C20464FF4E8
:103290008051FDF7B4FF282000F0F4FF20464FF4E2
:1032A0008051FDF7ACFF4FF4707000F0EBFFEDE7DD
:1032B000000C0140BCB5FDF7E3FFFEF789FFFEF708
:1032C0007DFEFEF72DFFFEF741FF00F0BBFEFFF78E
:1032D000B3F90A20FEF724F84848494C0021A047DA
:1032E00048480021A04748480021A04747480021FE
:1032F000A04747480021A04746480021A04746482C
:103300000021A04745480021A0470A20FEF71AF8EF
:10331000434C444D202101222046A84720464FF42B
:1033200080510022A847204640210122A84720467C
:103330004FF400610022A847204601210122A8473E
:1033400020464FF400710022A847204602210122A6
:10335000A84720464FF480710022A8472046042148
:103360000122A847A4F500604FF400410022A847BD
:103370002DA00121002200F0D3FD2F4C01210022BD
:1033800020602EA000F0CCFD60601424052032499E
:1033900000224FF40073CDE900042DA000F051FF8E
:1033A00040B301F075F806202F490022FF23CDE934
:1033B00000042AA000F045FFE0B101F069F81424F0
:1033C00003202E490022FF23CDE9000427A000F0AE
:1033D00038FF78B101F05CF804202D490022FF236A
:1033E000CDE9000426A000F02CFF18B101F050F840
:1033F000002001E04FF0FF3002B0B0BD54010020CA
:10340000191F0008600100206C01002078010020D5
:1034100084010020900100209C010020A8010020D0
:10342000001401400F1200086D795F73656D6170C3
:10343000686F7265000000008002002064617461A2
:103440005F70726F636573735F73656D000000007A
:103450006C65643100000000893200087761746394
:1034600068646F6700000000134B000864617461BA
:103470005F636F6E76657273696F6E004526000834
:10348000646174615F70726F636573730000000044
:103490007D2D0008B0B58D4C044D01E001CC804776
:1034A000AC42FBD3BDE8B040FFF704BF644E000858
:1034B00010B5DFF8D8CCD0F804E0DCF80C1001EB44
:1034C0000E02824214D0538893B9DCF810309A422D
:1034D0000ED0DCF814309342A0EB010308BFCCF807
:1034E0001400D2F804E0C0F804E052680A44936083
:1034F00082688B18834208BF10BD5C8804B110BD80
:10350000DCF81440844208BFCCF81430C3F804E05F
:1035100040680844826010BD2DE9FF4FDDF83CA0F3
:103520004FA754A61AF0400F08BF3E461AF0100FDE
:1035300018BF2AF0010A1AF0020F02D14FF0000959
:103540000EE0B2F1FF3F08DD5FEA4A775ABF20275D
:1035500007EA8A094FF02B0902E052424FF02D0989
:10356000DDE90D8CD2B14FF0000E4FF00A0B6D4625
:1035700011E00A2B06D1B2FBFBF707EB8704A2EBA5
:10358000440402E0170902F00F04345D3A4605F8DE
:103590000E400EF1010E002AEBD104E030224FF074
:1035A000010E8DF80020E6456346C8BF73461AF049
:1035B000110FA8EB030212D10024002A4D46C8BF08
:1035C0000124B9F1000F18BF01252C402025121B42
:1035D00003E0884238BF05700130013AF9DAB9F1E9
:1035E000000F06D08842A2F1010238BF80F8009097
:1035F00001305FEACA6409D420256AF3041503E0A8
:10360000884238BF05700130013AF9DA302405E00C
:103610008842A3F1010338BF047001309E45F7DBF7
:103620006B460AE08842AEF101043EBF03EB0E0791
:1036300017F8017C07700130A646BCF1000F02D0DC
:10364000BEF1000FEEDC012ABCBF04B0BDE8F08F74
:103650008842A2F101023CBF202303700130F2E74F
:1036600030313233343536373839616263646566F8
:1036700000000000303132333435363738394142BA
:103680004344454600000000E0B51420022100221A
:103690004FF48073CDE90010054903A000F0D1FD7F
:1036A000BDE88C4000F0F4BE6D61696E0000000062
:1036B00095340008B0B5044C044DAC4228BFB0BDF1
:1036C00001CC8047F9E700BF5C4E0008604E00085F
:1036D00080B5FCF749FD12490A8801320A80BDE82D
:1036E0008040FCF745BD00BF80B5FCF73DFD0C49AF
:1036F0000A88013A0A8012B2002A03DDBDE8804040
:10370000FCF736BD00220A80FCF732FD0548406810
:10371000002814BFBDE8804080BD00F08BBB00BF17
:1037200064030020F0020020F8B50446E8B31F4F00
:10373000796809B120468847F868A04235D83869C9
:10374000A04232D907F120054FF0FF31284600F0A2
:1037500033FC34F80A0CA4F10C0618B13088B0F52B
:10376000F55F0AD012A000F0D9F934F80C3C34F817
:103770000A2C16A0314600F0D1F94FF4F55044F868
:103780000C0C7869B04288BF7E6154F8080CF96867
:10379000BA69301A401A1044B8613046FFF788FE03
:1037A0002846BDE8F84000F0DBBBF8BDB0020020C1
:1037B000746F2066726565206120626164206461B7
:1037C000746120626C6F636B3A0A00006D656D3A3C
:1037D000203078253038782C207573656420666C2D
:1037E00061673A2025642C206D6167696320636FEF
:1037F00064653A203078253034780A0002487047F2
:10380000014800F5805070475004002010B5FEF7C5
:1038100013FD95484FF47A710068B0FBF1F0411E3A
:103820000020B0EB116F07D10A4AFF2351600A490B
:103830000B70072111609060FFF73CFFFFF7DEFF80
:103840000446FFF7DDFF01462046BDE8104000F0CA
:103850006BBC00BF10E000E023ED00E02DE9FC416F
:10386000114D04464FF00D080DF107060DF1060746
:1038700013E02846314601224FF0FF338DF80780D0
:10388000FEF715FA20788DF8060028463946012201
:103890004FF0FF33FEF70BFA013420780A28E8D006
:1038A0000028F0D1BDE8FC817C030020B0B50446BF
:1038B0002248016811B120468847F0B3216C2048A6
:1038C000204DA847616A2048A847A16A1F48A84719
:1038D000E16A1F48A847216B1E48A84761681E4837
:1038E000A847A1681DA0A847E16820A0A8472169B2
:1038F00022A0A847616925A0A847A16927A0A847D9
:10390000E1692AA0A847216A2CA0A847616B2FA0D3
:10391000A847A16B31A0A847E16B34A0A847207845
:10392000400703D4364800F0F9F805E000F08AFDBE
:103930000146324800F0F2F8FEE7B0BD4C0400202A
:103940004A4E00081D3B0008094E0008164E0008AC
:10395000234E0008304E00083D4E00087230353AC4
:10396000203078253038780A000000007230363A6E
:10397000203078253038780A000000007230373A5D
:10398000203078253038780A000000007230383A4C
:10399000203078253038780A000000007230393A3B
:1039A000203078253038780A000000007231303A33
:1039B000203078253038780A000000007231313A22
:1039C000203078253038780A000000007231323A11
:1039D000203078253038780A00000000206C723AD8
:1039E000203078253038780A000000002070633AD3
:1039F000203078253038780A00000000EC4D0008AF
:103A0000D24D000810B504320C4C22F0070E6FF0B6
:103A10003F02AEF1400C02E04EF802400432002AB0
:103A2000FAD100224FF080744EE908124EE90622C6
:103A30004EE904234EE90204604610BDEFBEADDE40
:103A4000B0B5084C0849094D626823680968B1FBA4
:103A5000F5F148436168511A98BF19448142F9D37E
:103A6000B0BD00BF14E000E00C00002040420F0099
:103A700010B5FCF779FB044610480178013101705C
:103A80000448006800B180472046BDE81040FCF7BC
:103A90006FBB00BF5014002010B5FCF765FB044657
:103AA00006480178013901700548006800B1804777
:103AB0002046BDE81040FCF75BBB00BF5C14002053
:103AC000581400200068143800F092BC70B5054608
:103AD000084616460C4600F0F1FC012E01D0A6B1B6
:103AE00070BD28460068A8420FD090F8211094F8C5
:103AF00035208A42F6D2143804F1140281690A6032
:103B0000A16182611430606170BD686804F11401C4
:103B10000160A0616960656170BD000083B018B587
:103B2000844603A8074C0EC003AB7F2162462046A3
:103B3000009300F06BFE2046FFF790FEBDE81840B2
:103B400003B07047641400202DE9F047E8B3DFF8B4
:103B50003C96033020F0030AD9F80800824534D897
:103B600009F120084FF0FF31404600F025FABAF184
:103B70000C0F98BF4FF00C0AD9E902C0D9F8141005
:103B8000ACEB0A020D1A2B4695421BD2C7187E8851
:103B90007D68002EF7D103F10C06AC1B5445F2D31F
:103BA0000AF11802944214D201227A80C21BD9E988
:103BB00006362A441A449642C9F8182026D2C9F873
:103BC0001C2023E0404600F0CBF900252846BDE844
:103BD000F08706EB0A024FF4F5540CF10C060AF1DB
:103BE0000C0E84508418C4E9015301237B807A6051
:103BF0006368B3421CBF03449A60D9E90623724448
:103C00009342C9F8182038BFC9F81C204FF4F55268
:103C1000B9423A800BD1D9F8102005E0914206D084
:103C200049680144C9F814104B88002BF6D140466E
:103C300000F096F9D9F8002007F10C05002AC5D04C
:103C4000284651469047C1E7042A01D3830701D093
:103C500003463AE070B5D643CBB20446154616F19A
:103C6000100F43EA032398BF6FF00F0643EA0343A4
:103C70001644103626F00F0E00EB0E0C05E0C4E9DA
:103C80000033C4E902331034103D102DF7D2A2EBFB
:103C90000E026546D64316F1040F98BF6FF0030677
:103CA0001644341D164624F0030EA40801E008C58E
:103CB000043E042EFBD20CEB8403A2EB0E02BDE803
:103CC000704002E003F8011B013A002AFAD1704764
:103CD0002DE9F041064653488846A0F110014FF007
:103CE000FF300130032806D801F11007097CB142EA
:103CF0003946F6D100E00027F868FFF725FF0546B2
:103D00000024E8B1FA6828460021FFF79DFF284605
:103D1000414608222E726C7200F0ECF942480168AC
:103D200009B12846884705F10C04FCF71DFA57F83D
:103D3000041F4C60E9603C602F61FCF719FA00E059
:103D400000252846BDE8F08110B5044618480168F2
:103D500009B12046884700202072FCF705FA224668
:103D6000216952F80C3F596021690B602261126091
:103D7000FCF7FEF92046BDE81040FFF7D5BC00BFB8
:103D800010B504460A48016809B12046884700205A
:103D90002072FCF7E9F954F80C1F62684A60626807
:103DA0001160C4E90044BDE81040FCF7E1B900BF70
:103DB000E8140020F8B504461A480E461546A0F14E
:103DC00010014FF0FF300130032806D801F1100731
:103DD000097CB1423946F6D100E00027FFF778FCB4
:103DE000043738460068B842FCD1FFF77DFC46F046
:103DF0008000294608222072204600F07BF90A48FC
:103E0000016809B12046884704F10C05FCF7ACF9BC
:103E100039684D60E1603D602761BDE8F840FCF71E
:103E2000A7B900BFB4010020E4140020007AC00943
:103E3000704700002DE9F041FCF796F9F24E044678
:103E4000308820B12046BDE8F041FCF791B9F74F2A
:103E5000B868FEF743FB01387D6807EBC001D1F875
:103E60001480A8F114018D42ECD07268796038702A
:103E70000AB128469047064A08F1080105F11C00DE
:103E8000127812B1FCF777F9DCE7FCF774F9D9E79F
:103E90005C14002010B50446FCF766F994F8341061
:103EA00094F83520DFF884C301F0F0010CEBC20276
:103EB00041F0010184F8341004F114019369196090
:103EC000A361916102F114016161A16BDCF808202A
:103ED0001143CCF80810BDE81040FCF749B900BF09
:103EE00010B50446FCF740F9214651F8142F4B68F1
:103EF00053604B681A60C1E9001191F82120CB4949
:103F000001EBC20252F8143F934204D1A26B8B68BA
:103F100023EA02028A60BDE81040FCF729B900BF1D
:103F2000B0B50D46014602201446FFF7D1FE28B178
:103F300000F1140185834472C0E90511B0BD70B56C
:103F400015460A4602211C460646FFF733FF06F1D6
:103F50001400C6E905000020B583747270BD00002E
:103F6000B0B504461348016809B120468847FCF7FC
:103F7000FBF80546204650F8141F814207D0FFF792
:103F8000A1FD2846FCF7F4F8FFF754FF09E0A08BE9
:103F90004FF6FF71884206D00130A0832846FCF717
:103FA000E7F80020B0BD2846FCF7E2F86FF0020009
:103FB000B0BD00BFEC140020F8B504461F480E4603
:103FC0000091016809B120468847FCF7CDF8054605
:103FD000A08B60B10138A0832846FCF7C9F81848C7
:103FE000016809B120468847002001B0F0BDFEB14C
:103FF00000F028FA07460020386304F1140039461F
:10400000627AFFF763FD012E09DB07F144066A4679
:104010000021304600F038FB304600F089FB28468E
:10402000FCF7A6F8FFF706FF386B0028DDD1D6E7CE
:104030002846FCF79DF86FF00100D6E7F414002045
:10404000F01400201CB50B4C07A0A0470AA0A04705
:1040500012A0032101220523009013A0A0471AA05B
:104060002146BDE81C4008470A205C207C202F0A1E
:10407000000000001D3B00082D205254202D202060
:10408000202020546872656164204F7065726174ED
:10409000696E672053797374656D0A0041756720F6
:1040A0003231203230323400202F207C205C20201E
:1040B00020202025642E25642E2564206275696CDD
:1040C000642025730A0000002032303036202D2075
:1040D0003230323020436F707972696768742062C1
:1040E000792072742D746872656164207465616DE5
:1040F0000A00000080B5B2B18446034691F800E0A2
:1041000003F801EBBEF1000F05D0013A01F1010106
:104110009C46F3D107E00121002302E00CF80130B6
:1041200001318A42FAD180BD0A46014622F00300DD
:10413000192828D3CB1CA0F1180C23F003039C45AD
:1041400021D310B5114CC11A4FF0000CA1F1180287
:104150000C39E360A2604FF4F552C3E90021A0F1ED
:104160000C02C3F808C000232261094A40E9032178
:1041700040F8041C04F1200006A10122FFF7DFFE35
:10418000E068606110BD05A0FFF7C8BCB002002068
:10419000A01E010068656170000000006D656D2063
:1041A000696E69742C206572726F7220626567692E
:1041B0006E206164647265737320307825782C20DA
:1041C000616E6420656E642061646472657373203F
:1041D000307825780A0000000B4800210180134840
:1041E00005E04218083102F11403C2E90533402901
:1041F000F7D107220021027000F10C02C0E9011181
:10420000C0E90322704700BF6403002010B5074CCB
:10421000A068FEF763F904EBC000C068A0F11401C8
:1042200008306160BDE81040FBF7D3BFF00200200A
:10423000024800F10C01C0E903117047500300204F
:104240007047FEB50E46014601201F461546FFF792
:104250003FFD044690B13846FFF776FC034650B167
:10426000DDE908102A46CDE900710290204631466A
:10427000FEF74EF903E02046FFF766FD00242046D6
:1042800003B0F0BD80B500F0E1F8002080BD000073
:10429000B0B5C0480568FBF767FF04462846FEF73F
:1042A00075F92846FFF71CFE042085F8340005F157
:1042B000440000F00EFA2846FFF7B8FD012803D1AC
:1042C0002846FFF75DFD07E01F4805F1140201686D
:1042D0004A600260C5E90510FFF7ACFD2046BDE865
:1042E000B040FBF745BF00BFB0B5344C0025042DEE
:1042F00003D100F009F80025F9E754F8250000B1D2
:1043000080470135F3E700BF70B50F4D10E0D6E9E7
:104310000001416071680860C6E900667069FFF7D6
:1043200003FAA6F11400FFF70FFD2046FBF720FF6C
:10433000FBF71AFF2E680446AE42E8D12046BDE8DE
:104340007040FBF715BF00BFFC0200201FB5202006
:104350000B4C0E4A0BA100230390072002904FF450
:104360008070019005480090204600F029F8204612
:1043700004B0BDE8104000F08BB800BF001500206D
:10438000C40300207469646C65000000E942000801
:1043900070B50A4D04460026FBF7E6FE032E07D84B
:1043A00002CD01360029F9D145F8044C002401E082
:1043B0006FF00204FBF7DCFE204670BD3C040020D9
:1043C0007FB515460A4601211C460646FFF7F2FC5A
:1043D0000B98089B2946224602900A98019009985A
:1043E00000903046FEF794F8002004B070BD000045
:1043F000B0B5044690F8340000F00F0002281CBF4E
:104400004FF0FF30B0BDFBF7AFFE21460546A06977
:1044100051F8142F5060A069026004F14400A161BA
:10442000096000F0CFF92846FBF7A2FE2046FFF70F
:1044300031FD0348016809B1204688470020B0BD1E
:10444000FC14002053480068704700BFF8B5009086
:10445000FBF78AFE05464F480468204600F02EF818
:1044600004F144066A4600210027304600F00CF9AA
:10447000304600F05DF92846FBF77AFEFFF7DAFCDC
:10448000206B023008BF2763002001B0F0BD00BFE1
:1044900080B50221012280F8341090F8361080F89F
:1044A000351002FA01F18163FFF7A2FF3948006875
:1044B00008B1FFF7BFFC002080BD00BFB0B50446C7
:1044C00090F8340000F00F0001281CBF4FF0FF30BF
:1044D000B0BDFBF749FE05462046FFF701FD94F805
:1044E000340000F0F00040F0020084F8340004F1E1
:1044F000440000F067F92846FBF73AFE03480168DC
:1045000009B1204688470020B0BD00BF001600203A
:1045100080B56FF0010102460163816952F8143FD2
:10452000596081690B6082611260FFF7B3FCBDE8DE
:104530008040FFF77FBC000080B5FBF715FE1549F2
:10454000096891F8342002F00F02012A1ED10A46B0
:1045500052F814EFD2F804C0E64517D0CEF804C0E4
:104560008B69C3F800E08A610B4B91F835C003EB0F
:10457000CC03D3F804C0CCF80020C1F818C05A60AE
:104580004B61FBF7F5FDFFF755FC01E0FBF7F0FD94
:10459000002080BDF4020020040300200B480068C6
:1045A000704700BF80B50948016801310160FFF71D
:1045B00049FF016C0139016403D1C16B0164FFF74C
:1045C000BBFFBDE8804000F003B800BF0816002024
:1045D0002DE9FC47E946CDE90099FFF7DFFF0646E4
:1045E000FBF7C2FD80467648744C824641E078690C
:1045F0005146301A504541D82168A7F1140509B138
:1046000028468847D7E90001416079680860C7E912
:10461000007717F80B0C10F0020F04BF00F0FE003B
:1046200007F80B0C0098476038600097C7F80490B3
:10463000D7E902108847FFF7B1FF6168064609B164
:10464000284688470098484513D0D7E900014160C3
:1046500079680860C7E9007717F80B0C00F00301D0
:10466000032906D100F0FE0007F80B0C284600F0E5
:104670005FF8204650F80C7F8742B8D14046FBF7E0
:1046800077FDBDE8FC8700BF70B514460E460546B1
:10469000FBF76AFD042E18D8DFE806F00306080CC5
:1046A00011002168696210E0696A0DE0697A01F021
:1046B000FD0102E0697A41F00201697205E0697A60
:1046C000C9070CBF002101212160FBF751FD00202B
:1046D00070BD10B50446FBF747FD2246A16952F8AC
:1046E000143F5960A1690B60A261617A01F0FE017B
:1046F00061721260FBF73CFD2046FFF741FB002092
:1047000010BD70B515460A460A211C460646FFF73D
:1047100051FB0598F56100F0FE00707200203462D4
:10472000B0620498706206F11400C6E9050070BD1D
:104730002DE9F0410446FBF717FD2646804656F862
:10474000140F716841607168086016F80B0C00F076
:10475000FE0006F80B0C1848C6E90066016809B1AE
:1047600020468847FFF71AFF616A154F0125084464
:104770001249A062C2430B6901F10C0008E0006815
:10478000984204D005686D691544BD42F7D20025F2
:10479000ED07F5D18A6801328A6001684E60616177
:1047A0000660A061607A40F0010060724046FBF74D
:1047B000DFFC0020BDE8F081F01400205003002051
:1047C000FEFFFF7F10B50446407AC00704BF4FF0DC
:1047D000FF3010BD0C48016809B120468847FBF73F
:1047E000C3FC54F8141F62684A606268116014F8D0
:1047F0000B1C01F0FE0104F80B1CC4E90044FBF79C
:10480000B7FC002010BD00BFEC1400202DE9F04FD4
:1048100087B000EB010A00299946074606920491E9
:104820004FF0200BB8BF4FF0FF3A059010782528C5
:1048300007D0002800F02781574538BF387001376E
:10484000DAE0501C4FF0000809E0042204E00822DE
:1048500002E0202200E0012248EA0208013001784B
:104860002029F4D02329F4D010223029F3D02D2987
:10487000F2D02B29E9D0A1F130020690092A05D8FF
:1048800006A800F034F9064606980EE02A290AD157
:104890000130069059F8046BB6F1FF3FDCBF48F0D9
:1048A0001008764201E04FF0FF3601782E290AD138
:1048B000411C06914178A1F13002092A06D806A8C8
:1048C00000F015F908E04FF0FF300BE02A2908D17D
:1048D0000230069059F8040BB0F1FF3FD8BF00201A
:1048E00000E00020069D2B7843F004026C2A05D1DD
:1048F000691C9C4606916A780D4602E04FF0000C58
:104900001A46A2F16F04092C0CD9252A00F07880F0
:10491000582A54D0692A18BF642A0DD148F00208D9
:104920000A234FE00A23DFE804F0052A71713B7186
:104930004D71714C082345E0632A67D15FEAC86076
:1049400007D5304608E05745064638BF87F800B01F
:104950000137701E022EF6DA574509F104013CBFFB
:10496000D9F800203A7005E05745A0F1010038BFA2
:1049700087F800B001370228F6DA89463CE0711C5E
:1049800059F8042B4FF01003B1FA81F108BF082643
:104990004909CDE90060384641EA0801C9B226E07C
:1049A00059F8041B41A20023002908BF114600E06A
:1049B00001339E4238D0CA5C002AF9D135E048F074
:1049C00040081023BCF16C0F02D159F8042B09E008
:1049D00059F8042BBCF1680F04D15FEA88714CBF11
:1049E00012B292B25FFA88F1CDE9006038460291C6
:1049F0005146FEF791FD07460698421C069215E7C0
:104A00005745BFF41CAF2520387018E7574503D22F
:104A100025203870069D2A78781C8AB3504507F106
:104A2000020738BF0270E7E7334683421A46C8BF21
:104A300002460028D8BF1A465FEAC86007D530464C
:104A400008E05745064638BF87F800B00137701EAA
:104A5000B242F6DB002604E053453CBF8D5D1D707D
:104A60000136BB199642F7DB06E05345A0F1010081
:104A700038BF83F800B001338242F6DB1F46BBE744
:104A8000691E0691B7E70498059A0028B8BFD0437D
:104A900038B1574538464FF0000128BFAAF1010050
:104AA0000170B81A07B0BDE8F08F00BF284E554C12
:104AB0004C290000002070470020704700207047FC
:104AC0000020704780B5FBF74FFBFEF79FFEFFF716
:104AD000B9FAFFF7ADFBFFF77FFBFEF7D5FDFFF758
:104AE000AFFBFFF733FCFFF791FB002080BD0268AE
:104AF00000211378303B092B84BF08467047531CB4
:104B000001EB81010360127802EB41011A46303952
:104B1000EFE780B5FDF7E4F94FF47A70FFF7B2FBE9
:104B2000F8E702E008C8121F08C1002AFAD170474E
:104B30007047002001E001C1121F002AFBD170471D
:104B4000000000000000000001020304060708093D
:104B50000000000001020304000001000200010047
:104B60000300010002000100040001000200010036
:104B70000300010002000100050001000200010025
:104B80000300010002000100040001000200010016
:104B90000300010002000100060001000200010004
:104BA00003000100020001000400010002000100F6
:104BB00003000100020001000500010002000100E5
:104BC00003000100020001000400010002000100D6
:104BD00003000100020001000700010002000100C3
:104BE00003000100020001000400010002000100B6
:104BF00003000100020001000500010002000100A5
:104C00000300010002000100040001000200010095
:104C10000300010002000100060001000200010083
:104C20000300010002000100040001000200010075
:104C30000300010002000100050001000200010064
:104C40000300010002000100040001000200010055
:104C50000300010002000100565F4144315F4368D8
:104C60003033203A2025642075560D0A00565F41E6
:104C700044325F43683033203A2025642075560D56
:104C80000A00565F4144335F43683033203A2025A1
:104C9000642075560D0A00565F4144345F43683006
:104CA00033203A2025642075560D0A00565F414492
:104CB000355F43683033203A2025642075560D0A4D
:104CC00000565F4144365F43683033203A20256404
:104CD0002075560D0A00565F4144315F43683133F9
:104CE000203A2025642075560D0A00565F41443253
:104CF0005F43683133203A2025642075560D0A0041
:104D0000565F4144335F43683133203A20256420A5
:104D100075560D0A00565F4144345F4368313320B5
:104D20003A2025642075560D0A00565F4144355FD0
:104D300043683133203A2025642075560D0A005609
:104D40005F4144365F43683133203A202564207543
:104D5000560D0A00565F4144315F43683233203AB2
:104D60002025642075560D0A00565F4144325F438A
:104D7000683233203A2025642075560D0A00565FAC
:104D80004144335F43683233203A2025642075560E
:104D90000D0A00565F4144345F43683233203A20A5
:104DA00025642075560D0A00565F4144355F4368FF
:104DB0003233203A2025642075560D0A00565F4193
:104DC00044365F43683233203A2025642075560DFF
:104DD0000A0068617264206661756C74206F6E20D1
:104DE00068616E646C65720D0A0D0A006861726418
:104DF000206661756C74206F6E20746872656164E2
:104E00003A2025730D0A0D0A007230303A203078AE
:104E1000253038780A007230313A20307825303821
:104E2000780A007230323A203078253038780A001B
:104E30007230333A203078253038780A00723034B6
:104E40003A203078253038780A007073723A203072
:104E500078253038780A0000C14A0008B94A0008AD
:104E6000B54A0008BD4A0008904E00080000002026
:104E700000020000EC080008304F0008000200208B
:104E800010180000324B0008000000000000000075
:104E9000320182109324F429182904415A02041A79
:104EA0000811290872032908720429089A06309A01
:104EB000070C29604B02800C9A11189A120C9A1355
:104EC0000C9A200C9A210C9A220C9A230C32281A44
:104ED0000A09290C5A2915290C9A2A0C9A2B0C9A82
:104EE00030C09A310C9A320C9A330C9A380C9A3999
:104EF0000C9A3A0C9A3B0CB201297081291C81B2A0
:104F000004B205B206B207B208296013B8012A201C
:104F1000045A78641AC80C29045A20501AD80C294B
:104F20000429EC320A1AE80C2904F22C00000000D3
:0400000508000131BD
:00000001FF
