:020000040800F2
:10000000A81C0020250200087D3200080903000812
:10001000793200080D130008313400080000000098
:100020000000000000000000000000008132000815
:100030001113000800000000930200088532000838
:100040003F0200083F0200083F0200083F0200088C
:100050003F0200083F0200083F0200083F0200087C
:100060003F0200083F020008B91300083F020008E1
:100070003F0200083F0200083F0200083F0200085C
:100080003F0200083F0200083F0200083F0200084C
:100090003F0200083F0200083F0200083F0200083C
:1000A0003F0200083F0200083F0200083F0200082C
:1000B0003F0200083F0200083F0200083F0200081C
:1000C0003F0200083F0200083F0200083F0200080C
:1000D0003F020008193400083F02000825340008D8
:1000E0003F0200083F0200083F0200083F020008EC
:1000F0003F0200083F0200083F0200083F020008DC
:100100003F0200083F0200083F0200083F020008CB
:100110003F0200083F0200083F0200083F020008BB
:100120003F0200083F0200083F0200083F020008AB
:1001300000F002F800F067F80AA090E8000C824492
:100140008344AAF10107DA4501D100F05CF8AFF26F
:10015000090EBAE80F0013F0010F18BFFB1A43F0A5
:1001600001031847A8750000C87500000A444FF045
:10017000000C10F8013B13F0070408BF10F8014B06
:100180001D1108BF10F8015B641E05D010F8016B4B
:10019000641E01F8016BF9D113F0080F1EBF10F8AF
:1001A000014BAD1C0C1B09D16D1E58BF01F801CBD2
:1001B000FAD505E014F8016B01F8016B6D1EF9D555
:1001C0009142D6D37047000000230024002500266A
:1001D000103A28BF78C1FBD8520728BF30C148BFAA
:1001E0000B607047662907F0E380002070471FB559
:1001F00000F0F0FB04000020002106F077FDE06035
:100200001FBD10B510BD00F0E5FC1146FFF7EFFF74
:1002100000F056FD00F003FD03B4FFF7F2FF03BC4E
:1002200000F046FD0948804709480047FEE7FEE721
:10023000FEE7FEE7FEE7FEE7FEE7FEE7FEE7FEE796
:1002400004480549054A064B704700000933000879
:1002500031010008A8160020A81C0020A8180020C2
:10026000A8180020EFF3108072B6704780F3108852
:100270007047324A1368012B04D04FF0010313601A
:100280002F4A10602F4A11602F484FF080510160B3
:100290007047EFF3108272B62848016891B14FF0B1
:1002A000000101602648016829B1EFF3098121E9C5
:1002B000F00F00680160234909680968B1E8F00F90
:1002C00081F3098882F310884EF0040E70471D49AF
:1002D00008601B494FF00000086018494FF001000A
:1002E00008601A481A49D0F8002041EA020101606A
:1002F00015484FF08051016016480068006880F38F
:10030000088861B662B670471EF0040F0CBFEFF3A9
:100310000880EFF3098020E9F00F40F804ED1EF0AB
:10032000040F0CBF80F3088880F3098800B504F03F
:100330009DFA5DF804EB4EF0040E7047181600208D
:10034000681400207414002004ED00E020ED00E0AB
:100350000000FFFF08ED00E00FB41CB5074B06AA34
:100360007B4469460090059800F0C3FA0020694676
:1003700000F0D2FA1CBC5DF814FB0000B5050000CB
:100380002DE9F0410E460446002020622046E16837
:10039000884730B3252805D0D4E901219047206A49
:1003A000401CF2E7E168204600278847050018D086
:1003B000A5F14100192802D820354FF400673246D4
:1003C000294620462760FFF70DFF40B1012804D0E1
:1003D000F61D26F007060836D8E7361DD6E728466C
:1003E000DAE7206ABDE8F081032A40F2308010F09D
:1003F000030C00F0158011F8013BBCF1020F6244C0
:1004000098BF11F801CB00F8013B38BF11F8013B50
:10041000A2F1040298BF00F801CB38BF00F8013BFD
:1004200011F0030300F07D82083AC0F0088051F813
:10043000043B083A51F804CBA0E80810F5E7121D78
:100440005CBF51F8043B40F8043BAFF30080D20797
:1004500024BF11F8013B11F801CB48BF11F8012B63
:1004600024BF00F8013B00F801CB48BF00F8012B86
:10047000704702F0FF0343EA032242EA024200F01F
:1004800002B84FF000020429C0F0128010F0030CF3
:1004900000F07B82CCF1040CBCF1020F18BF00F815
:1004A000012BA8BF20F8022BA1EB0C0100F06DBAC4
:1004B0005FEAC17C24BF00F8012B00F8012B48BF84
:1004C00000F8012B70477047704770472DE9FF4FC8
:1004D0000C461E464FF0FF378BB0D2E90001DDF825
:1004E00060800A908A46C1F30A5505B93D4600214D
:1004F00008464FF00000BAF1000F00F4400005DAA2
:1005000000EB80004FF4400101EA50004FEA90599F
:10051000B9F1010F00DDB9460A9850EA4A000ED041
:1005200044F61050A5F2FF3545432F14B8F1000FE3
:100530001ED07542291E1EDDC9F100021CE0B8F173
:10054000010F4FF0000001D0302103E0F24305E03D
:100550002154401CB042FBDB3046002200212154D4
:100560000B99C1F80880C1E900200FB0BDE8F08FF9
:10057000BD1B6D1CDEE74A4600DA694206A800F0A2
:10058000B3FA06AB93E8070003AB83E807005046D5
:100590000A9905F0CEFF8DE80700A0F500501F383E
:1005A00000900398002D0ADD42F21F014A460844DC
:1005B000002303A90390684606F037FA09E0A0F586
:1005C00000504A461F38002303A90390684606F0EE
:1005D00041FA8DE807000004000C03D04FF0FF3013
:1005E000410800E01046B8F1000F03D0002200924D
:1005F00015461EE0751E05D400F0F0F93032625544
:100600006D1EF9D5B3460122084302D000227F1C9B
:1006100004E02078302801D100227F1E002A0997AB
:1006200084D01DE0112D07DA00F0D8F93032625580
:100630006D1C50EA0102F5D1084302D00098C8B100
:100640000EE00021681E05E0235C625C63542254C6
:10065000401E491C8142F7DBAB46A81B401E099097
:10066000002004F80B000B98099AC0F80880C0E934
:10067000002B7AE711264FF0000857E72DE9F04FDD
:1006800088460446D21D22F0070191B0D1E900014D
:10069000CDE90A0106F015FB02460B98C00F01D008
:1006A0002D2007E02068810701D52B2002E02021C2
:1006B00001EAC000032A099001D0072A05DB03469E
:1006C0004146204600F0D0F90BE12078800601D5A4
:1006D000E06900E00620B8F1650F814606D0B8F168
:1006E000660F18D0B8F1670F70D131E00020B9F172
:1006F000110F009001DB112301E009F101030AAAA7
:1007000001A90CA8FFF7E2FEDDE90C70002609F153
:100710000105834647E001204B4600904FF000471B
:100720000AAA01A90CA8FFF7D1FEDDE90DB00C99CA
:100730005D46002610B909F101000D18B9EB05005E
:1007400003D4C0F1FF3609F10105A5EB09002BE048
:10075000B9F1010F01DA4FF001090020B9F1110FD1
:100760000090484601DD112300E003460AAA01A9D2
:100770000CA8FFF7ABFEDDE90C704D460026834662
:10078000207800070AD4AB4500DA5D4601A8012DA8
:1007900004DD411911F8011C302907D04F4502DA58
:1007A00017F1040F04DA012082460FE06D1EEEE718
:1007B000002F02DCED1B3E4403E0781CA84200DD64
:1007C0007D1CB81B00F1010A4FF00047207800079C
:1007D00003D4AA4501DB4FF0FF3A0021B7F1004FE7
:1007E0000DF143088DF8431024D002202B23002F55
:1007F00001DA7F422D230A21021EA0F1010000DC54
:100800005FB197FBF1FC97FBF1F201FB1C7C1746F3
:100810000CF1300C08F801CDEEE7A8F101000370EF
:100820002188090501D5452100E06521A0F10108D5
:1008300000F8011C09980FA9A1EB0807FF1D00B1E2
:100840000120411901EBEA70A1693844081A401EE1
:10085000A0612078C00602D42046AFF3008009983A
:1008600028B1D4E901219047206A401C20622078F9
:10087000C00622D52046AFF300801EE0002E04DB28
:10088000B34502DD01A8805D00E03020D4E90121FC
:100890009047206A401C2062761CAAF101005FEAA2
:1008A000000A0AD100F096F8C0680168405CD4E9FB
:1008B00001219047206A401C2062281EA5F10105F5
:1008C000DCDC07E0D4E9012118F8010B9047206A2D
:1008D000401C2062381EA7F10107F3DC2046AFF36D
:1008E0000080032011B041E601694A1C02610878CA
:1008F000704700B58FB0CDE9013100210591054960
:100900007944CDE9031011466846FFF739FD0FB071
:1009100000BD0000E5FFFFFF0A6802F8010B0A6056
:10092000704710B5203AC0F00B80B1E81850A0E82D
:100930001850B1E81850A0E81850203ABFF4F5AFAD
:100940005FEA027C24BFB1E81850A0E8185044BF09
:1009500018C918C0BDE810405FEA827C24BF51F876
:10096000043B40F8043B08BF7047D20728BF31F86A
:10097000023B48BF11F8012B28BF20F8023B48BFBB
:1009800000F8012B70474FF0000200B51346944663
:100990009646203922BFA0E80C50A0E80C50B1F1D7
:1009A0002001BFF4F7AF090728BFA0E80C5048BFEB
:1009B0000CC05DF804EB890028BF40F8042B08BF89
:1009C000704748BF20F8022B11F0804F18BF00F885
:1009D000012B7047004870472002002030B5B0F16D
:1009E0000A0271F100034FEA900E4EEA817EB0EBED
:1009F0000E0061EB91014FEA101E4EEA017E10EBF2
:100A00000E0041EB11114FEA102E4EEA016E10EB71
:100A10000E0041EB11214FEA104E4EEA014E10EB51
:100A20000E0041EB1141401841F100014FEAD000A6
:100A300040EA41704FEAD1014FEA810444EA9074E0
:100A400010EB800544EB01046D1944EB0404521BC8
:100A5000A3414FF0000348BF0A3200D530BD401C0F
:100A600041F1000130BD00002DE9F0411F46044670
:100A700003260168072A01F4006004DB08B116A50B
:100A800005E016A503E008B115A500E015A521F0C5
:100A900010002060A069C01EA0610FB1401EA061BF
:100AA0002046AFF300804FB1D4E90121384690478A
:100AB000206A401C2062C01C206206E0206AFAE71F
:100AC000D4E9012115F8010B9047761EF8D2204693
:100AD000AFF30080BDE8F0814E414E006E616E00C4
:100AE000494E4600696E66002DE9F047814616467C
:100AF0008AB0354878440DC88DE80D0032487844F6
:100B0000801C03AC0DC884E80D0041F69B300844FE
:100B1000372190FBF1F290FBF1F5A5F1800501FB87
:100B200012041B3C02D56442012000E00020DFF8E3
:100B300098A080460027FA44AAF1BE0A0EE0E0071A
:100B40000AD03246684607EB470101230AEB8101D0
:100B500005F080FF8DE8070064107F1C002CEED1AB
:100B6000194F7F44AE3F19E0E80715D007EB04109A
:100B70000DF1180A90E80E008AE80E00C068F042F5
:100B800001D1981908903246012306A903A805F05F
:100B900061FF03AB83E807006D10641C002DE3D1F7
:100BA0004FF0010332466946B8F1000F03A802D0A6
:100BB00005F03BFF01E005F04DFFC9E90001C9F870
:100BC00008200AB0BDE8F087386900000048704787
:100BD000000200207546FFF7F9FFAE4605006946A2
:100BE000534620F00700854618B020B5FFF728FBD4
:100BF000BDE820404FF000064FF000074FF000081E
:100C00004FF0000BAC46ACE8C009ACE8C009ACE85A
:100C1000C009ACE8C00921F007018D46704710B546
:100C20000446AFF300802046BDE81040FFF7F4BA59
:100C30004FF0013C50F8042B51F8043B9A4221D16B
:100C4000A2EB0C03934313EACC1317D150F8042BF7
:100C500051F8043B9A4215D1A2EB0C03934313EADB
:100C6000CC130BD150F8042B51F8043B9A4209D114
:100C7000A2EB0C03934313EACC13DBD04FF000003C
:100C8000704700BFD01A01BAB1FA81F101F0180122
:100C900022FA01F0CB40DBB2C0B2C01AC1F1200190
:100CA0002CFA01F3D11A914311EAC311E6D170472E
:100CB00001491820ABBEFEE7260002007047000085
:100CC00080B582B0FFF7CEFA03F084FD04F016FB86
:100CD00004F058FC04F00CFC1420022100224FF414
:100CE0008073CDE9001047F26F6044F29111C0F6B5
:100CF0000000C0F6000104F051FC04F01DFE04F0F9
:100D00004BFC04F027FD04F029FC002002B080BD5C
:100D1000F0B549B101F0010C012908D10021BCF165
:100D2000000F00F00581B2E00021C8B2F0BDA1EBD8
:100D30000C0E0021072300BF047801F0800683EA2F
:100D400041054278AEF1020E0230E709B7EBD61F3B
:100D500008BF4D00C4F3801705F0800683EA450103
:100D6000B7EBD61F08BF6900C4F3401701F0800637
:100D700083EA4105B7EBD61F08BF4D00C4F3001747
:100D800005F0800683EA4501B7EBD61F08BF69006E
:100D9000C4F3C00701F0800683EA4105B7EBD61F14
:100DA00008BF4D00C4F3800705F0800683EA4501C3
:100DB000B7EBD61F08BF6900C4F3400704F0010475
:100DC00001F0800683EA4105B7EBD61F08BF4D004E
:100DD00005F0800683EA4501B4EBD61F4FEAD21630
:100DE00008BF690001F0800583EA4104B6EBD51F16
:100DF00008BF4C00C2F3801604F0800583EA44016A
:100E0000B6EBD51F08BF6100C2F3401601F08005A4
:100E100083EA4104B6EBD51F08BF4C00C2F30016AD
:100E200004F0800583EA4401B6EBD51F08BF6100DA
:100E3000C2F3C00601F0800583EA4104B6EBD51F7A
:100E400008BF4C00C2F3800604F0800583EA440129
:100E5000B6EBD51F08BF6100C2F3400602F00102E5
:100E600001F0800583EA4104B6EBD51F08BF4C00B2
:100E700004F0800583EA4401B2EBD51F08BF61008E
:100E80001EF0FF0F7FF458AFBCF1000F50D0007878
:100E9000072201F0800782EA4103C609B6EBD71F9B
:100EA00008BF4B00C0F3801603F0800782EA4301BD
:100EB000B6EBD71F08BF5900C0F3401601F08007FA
:100EC00082EA4103B6EBD71F08BF4B00C0F3001600
:100ED00003F0800782EA4301B6EBD71F08BF590031
:100EE000C0F3C00601F0800782EA4103B6EBD71FCA
:100EF00008BF4B00C0F3800603F0800782EA43017D
:100F0000B6EBD71F08BF5900C0F3400600F0010040
:100F100001F0800782EA4103B6EBD71F08BF4B0000
:100F200082EA430103F08002B0EBD21F08BF5900F0
:100F3000C8B2F0BD2DE9F04784B0054600200C464C
:100F4000002DCDE90200CDE900003BD04FF4FA704E
:100F500003F06EFD6868A8B30022D1B201EB410333
:100F600050F82370A74232D042F001012B7AC9B267
:100F7000994227D801EB410350F82370A74226D0AD
:100F800042F002012B7AC9B299421BD801EB41030E
:100F900050F82370A7421AD042F003012B7AC9B24D
:100FA00099420FD801EB410350F82370A7420ED0AD
:100FB0000432297AD3B28B42CFD94FF0FF3004B03C
:100FC000BDE8F0874FF0FF3004B0BDE8F08701279F
:100FD00001EB410100EB83080DF1080A67F39F1450
:100FE00000EB81068DF80840B1466A7A59F8081F6F
:100FF0002878002A18BF01310131CAB2514601F0E8
:1010000005FF6D7A012D30D198F8000067F39F102D
:101010008DF80000D9F80010881C00291EDB012380
:10102000694601221AF80370CF54531CDBB2984270
:1010300014DD1AF80370CF54931CDBB298420DDD17
:101040001AF80370CF54D31CDBB2984206DD1AF8AD
:1010500003700432CF54D3B29842E3DCC1B2684685
:10106000FFF756FE022D03D062E00020022D5FD173
:1010700098F80000012161F39F108DF80000D9F865
:101080000010881C00291FDB01276A46012300BFCE
:101090001AF80750D5555F1CFFB2B84214DD1AF894
:1010A0000750D5559F1CFFB2B8420DDD1AF8075006
:1010B000D555DF1CFFB2B84206DD1AF807500433DD
:1010C000D555DFB2B842E3DC02063AD0421E00F04A
:1010D000030CD2B2032A05D200206A46BCF1000FED
:1010E00018D125E0A0EB0C0300206A46177855784C
:1010F0009178D478043B043213F0FF0F80EA0700A4
:1011000080EA050080EA010080EA0400EED1BCF12B
:10111000000F0DD01178BCF1010F80EA010007D05B
:101120005178BCF1020F80EA01001CBF9178484061
:1011300000061EBF6FF0010004B0BDE8F087D9F8CB
:1011400000100020012946F8040F2FDB01230020A6
:10115000012200BF070237601AF8033043EA00207B
:10116000531CDBB23060994220DB070237601AF86B
:10117000033043EA0020931CDBB23060994215DB58
:10118000070237601AF8033043EA0020D31CDBB2B1
:10119000306099420ADB0702043237601AF80330E4
:1011A00043EA0020D3B299423060D3DA04B0BDE8FC
:1011B000F087000070B5012812D140F600044DF60A
:1011C000FF460125C4F20104C0F26D06204640210D
:1011D00000F0C6FAB54288BF70BD01350028F5D1D0
:1011E00070BD00002DE9F04182B0044600200D469C
:1011F000002CCDE9000037D04FF4FA7003F018FC52
:10120000606888B3E9B20022D3B203EB430750F819
:1012100027708F422DD042F00103277ADBB2BB4208
:1012200022D803EB430750F827708F4221D042F0B9
:101230000203277ADBB2BB4216D803EB430750F810
:1012400027708F4215D042F00303277ADBB2BB42EE
:101250000AD803EB430750F827708F4209D00432B5
:10126000237AD7B29F42CFD94FF0FF3002B0BDE80A
:10127000F08105F03F018DF8001003EB430100EB16
:101280008100064656F8087F012F26DB40680023C0
:1012900069460022FB1AC85442F001033768DBB2EA
:1012A0009F421ADDFB1A070ACF5442F00203376847
:1012B000DBB29F4211DDFB1A070CCF5442F003034F
:1012C0003768DBB29F4208DDFB1A070E0432C017F5
:1012D000CF54D3B237689F42DCDC657A4DB1781CBD
:1012E000E846C1B24046FFF713FD08EB070148701E
:1012F00037680220002D694608BF01203844C2B279
:10130000207801F02FFE02B0BDE8F081FEE700007A
:10131000704700000138072888BF7047DFE800F0F9
:10132000040E161F28313A4341F600001021012215
:10133000C4F20100A0F5805000F020BA41F6000090
:1013400080210122C4F2010000F018BA41F6000029
:101350004FF480710122C4F2010000F00FBA41F68F
:1013600000004FF400710122C4F2010000F006BA3F
:1013700041F600004FF480610122C4F2010000F048
:10138000FDB941F600004FF400610122C4F20100F2
:1013900000F0F4B941F600004FF480510122C4F28C
:1013A000010000F0EBB941F600004FF400510122BA
:1013B000C4F2010000F0E2B9102000F0D1B8000042
:1013C000EFF3108072B600BFFEE7000090F8211026
:1013D000022916D1016801230A6822F00E020A6070
:1013E0000A6822F001020A60D0E90F1203FA02F241
:1013F0004A60002180F82130002280F82020084631
:101400007047042181630121002280F820200846D2
:101410007047000090F82110022926D10268116857
:1014200021F00E011160116821F001011160042109
:10143000C4F2020101F17C039A421BD940F2084335
:10144000C4F202039A4248D040F21C43C4F20203A1
:101450009A4246D040F23043C4F202039A4244D149
:101460004FF48073C1F8003457E0042181630121F7
:10147000084670474323C4F202039A420EDD6B23F1
:10148000C4F202039A421BDC4423C4F202039A42D0
:1014900039D05823C4F202039A4231E00823C4F23F
:1014A00002039A4232D01C23C4F202039A4232D081
:1014B0003023C4F202039A4222D14FF480722BE00F
:1014C0006C23C4F202039A4222D08023C4F20203A6
:1014D0009A4215D14FF080721EE00123C1F800340A
:1014E0001BE01023C1F8003417E001F5886C4FF4BD
:1014F0008033624508BF4FF48053C1F800340CE0DC
:101500004FF4803208E04FF4805205E0012203E0FE
:101510004FF4801200E010220A600021012280F8BE
:10152000201080F82120426B22B180B59047002125
:10153000BDE880400846704780B5C00658BF80BDF2
:1015400040F600004021C4F2010000F009F900B1AA
:1015500080BD02F061FDBDE8804003F00BBE0000DD
:1015600040F21441C4F201010A68024214BF08604B
:101570007047FFF7E1BF00002DE9F04F82B0D1F8CE
:1015800000E0BEF1000F00F0E78041F600420627C0
:101590004FF0000C4FF001080F254FF0000A4FF0FC
:1015A000000BC4F201029042A0F18042A2F5843205
:1015B00008BF05274FEAB223052B38BF4FEAB227F1
:1015C00040F20042C4F20102009700BF08FA0AF993
:1015D0001EEA090F00F0B6804FF6FF734E68C1F2A5
:1015E00010039E4210DC122E50D8DFE806F0330ABA
:1015F00041454F4F4F4F4F4F4F4F4F4F4F4F4F481A
:101600004C00D1F80CB041E04FF6FF73C1F221035A
:101610009E420FDC0023C1F211039E421AD0002328
:10162000C1F212039E4215D00023C1F221039E4253
:1016300010D02BE00023C1F222039E420AD00023E7
:10164000C1F231039E4205D00023C1F232039E4213
:101650001CD100BF8E6846B1012E4FF0080B14BF9D
:10166000C0F81490C0F8109010E04FF0040B0DE09B
:10167000CE6806F1080B09E04FF0000B06E0CE68DB
:1016800006F1040B02E0CE6806F10C0BBAF1080F6C
:101690006346044628BF203B28BF0434276805FA68
:1016A00003F60BFA03F3B7433B432360CB79DB0626
:1016B00048D541F218032AF00306C4F20203164487
:1016C0001F461B6843F001033B603B6803F00103C6
:1016D00001930CF00C03019C05FA03F74FF6084444
:1016E000CFF6FF742546345924EA0707009C04FA14
:1016F00003F33B4340F20C477351C4F201070F253B
:101700004E68936816F4801F0CBF23EA090443EA6D
:101710000904B30294603B6854BF23EA090443EA16
:101720000904B3033C60536854BF23EA090443EA45
:101730000904F3035460136854BF23EA090343EA1E
:1017400009031360D1F800E00AF1010A0CF1040C5E
:101750003EFA0AF37FF43AAF02B0BDE8F08F000022
:101760008068084018BF012070470000C26802EA84
:101770000103914341EA034101617047002A08BF18
:10178000090401617047000040F20000C2F200004D
:1017900080687047B0B5044628B320684CF6CC4149
:1017A000016045F25551016061684160A168816046
:1017B000FFF7EAFF05462068C16811F0030F0CD05F
:1017C000FFF7E2FF411B20682829F5D3C16811F01B
:1017D000030FF1D00320C0B2B0BD4AF6AA210160C8
:1017E0000020C0B2B0BD0120C0B2B0BD00684AF652
:1017F000AA2101600020704780B542F20000C4F2C7
:101800000200016841F010010160032000F08EF831
:101810000F2000F005F800F025F8002080BD000042
:1018200070B540F2000604464FF47A71C2F2000629
:101830003078B1FBF0F040F20C01C2F2000109680F
:10184000B1FBF0F000F0C8FB01250F2C08D838B927
:101850004FF0FF3021460022002500F035F874607B
:10186000284670BD82B041F218000222C4F2020084
:10187000016841F001010160016801F0010101917D
:101880000199416841F080514160406800F080500A
:10189000009000980420C4F20100016862F31A610C
:1018A000016002B0704700000028B8BF704700F028
:1018B0001F010122400902FA01F14EF20012CEF29C
:1018C000000242F82010704710B500F00F034EF6EA
:1018D0000C5E00F1604CB0F1FF3FA3F10403CEF2C7
:1018E000000E734403F10C04C8BF0CF56444DEF829
:1018F0000000C0F3022000F1040CC31E80F00700BA
:10190000BCF1070F4FF0010C38BF0023042828BF9B
:1019100004200CFA00F0013808400CFA03F10F31F2
:101920009840114008430001207010BD4EF60C5144
:101930004FF6FF03CEF200010A681A4060F30A2254
:1019400042F0806040F0FD70086070472DE9F04182
:101950000D460446002875D041F20407C4F2020780
:10196000D7F8FC0F00F00700A8420CD2D7F8FC0F04
:1019700020F007002843C7F8FC0FD7F8FC0F00F051
:101980000700A8425ED1206810F0020F11D0410775
:1019900042BF396841F4E0613960010742BF3968EC
:1019A00041F4605139603968A26821F0F0011143B7
:1019B0003960C0073ED1D7F8FC0F00F00700A842FD
:1019C0000CD9D7F8FC0F20F007002843C7F8FC0F0C
:1019D000D7F8FC0F00F00700A84233D1206810F0C0
:1019E000040F05D03968E26821F4E06111433960E1
:1019F000000706D53868216920F4605040EAC1002C
:101A00003860396841F20020C0F27A0001F00C021F
:101A1000082A2DD147F26253C1F3834211F4803F6B
:101A2000C0F600039A5C18D140F60010C0F23D00E9
:101A300050431DE06068012808D157F8041C11F4D8
:101A4000003F30D10120C0B2BDE8F08157F8041C3E
:101A5000022826D18901F5D525E03968504347F29F
:101A60006042C0F60002C1F34041515CB0FBF1F0AE
:101A7000396847F24842C0F60002C1F30311515CD5
:101A8000C84040F20C01C2F20001086040F20400BC
:101A9000C2F200000068FFF7C3FE0020C0B2BDE83C
:101AA000F0818907CED5396821F0030108433860F9
:101AB000FFF76AFE06463868616800F00C00B0EB7C
:101AC000810F3FF478AF41F2883800BFFFF75CFE2A
:101AD000801B404507D83868616800F00C00B0EB07
:101AE000810FF3D167E70320C0B2BDE8F0810000A9
:101AF00040F20C0041F2040147F25842C2F20000E9
:101B0000C4F20201C0F6000200680968C1F30221B4
:101B1000515CC8407047000040F20C0041F20401E3
:101B200047F25842C2F20000C4F20201C0F60002BD
:101B300000680968C1F3C221515CC84070470000C9
:101B40002DE9F04383B00446E8B1207841F2000962
:101B500041F22007C4F20209C4F20207C00770D0A4
:101B600057F81C0C00F00C00042811D1D9F8000023
:101B700010F4003F65D06068002862D10120C0B237
:101B800003B0BDE8F0830120C0B203B0BDE8F0832C
:101B900057F81C0C00F00C00082804D157F81C0C56
:101BA00010F4803FE2D1606880B1B0F5803F08D08A
:101BB000D9F80010B0F5A02F27D141F48020C9F842
:101BC0000000D9F8000040F4803026E0D9F8000089
:101BD00020F48030C9F80000D9F8000020F48020FB
:101BE000C9F80000FFF7D0FD054600BFD9F8000096
:101BF00010F4003F25D0FFF7C7FD401B6428F5D93E
:101C00000320C0B203B0BDE8F08321F48030C9F8EE
:101C10000000D9F8000020F48020C9F80000FFF788
:101C2000B3FD0546D9F8000010F4003F09D1FFF7D5
:101C3000ABFD401B6428F5D90320C0B203B0BDE85A
:101C4000F0832078800741D557F81C0C10F00C0F5A
:101C50000AD057F81C0C00F00C00082811D157F8D6
:101C60001C0C10F4803F0CD1D9F8000010F0020FCA
:101C700023D02069012820D00120C0B203B0BDE8E4
:101C8000F08321690020C4F24220002900F0DB80AB
:101C900001210160FFF778FD054600BFD9F800007B
:101CA00010F0020F09D1FFF76FFD401B0228F5D994
:101CB0000320C0B203B0BDE8F083D9F80000616929
:101CC00020F0F80040EAC100C9F8000020780007C1
:101CD00054D5A1690020C4F24220D1B30121C0F83B
:101CE0008014FFF751FD0546786810F0020F09D106
:101CF000FFF74AFD401B0228F6D90320C0B203B00B
:101D0000BDE8F08340F20C0044F6D351C2F200006B
:101D1000C1F262010068A0FB0101480A029000BF05
:101D200000BF0298411E0028029127D000BF0298F0
:101D3000411E0028029121D000BF0298411E0028B8
:101D400002911BD000BF0298411E00280291E7D1EA
:101D500014E00021C0F88014FFF716FD054600BF0F
:101D6000786810F0020F09D0FFF70EFD401B022823
:101D7000F6D90320C0B203B0BDE8F0832078400755
:101D800040F1998057F8040C10F0805F0ED157F89D
:101D9000040C4FF0010840F0805047F8040C57F84D
:101DA000040C00F080500190019801E04FF0000811
:101DB00046F20006CFF6FE7659F8060010F4807F52
:101DC00017D159F8060040F4807049F80600FFF773
:101DD000DBFC054659F8060010F4807F09D1FFF7B7
:101DE000D3FC401B6428F5D90320C0B203B0BDE882
:101DF000F083E06858B1012805D03968052837D14B
:101E000041F004003860386840F0010036E038687E
:101E100020F001003860386820F004003860FFF7D7
:101E2000B3FC0546386810F0020F3BD041F288360B
:101E3000FFF7AAFC401BB04200F2BF80386810F0E8
:101E4000020FF5D12EE000210160FFF79DFC054651
:101E5000D9F8000010F0020F3FF438AFFFF794FC00
:101E6000401B0228F4D90320C0B203B0BDE8F083C0
:101E700021F001003860386820F004003860FFF776
:101E800083FC0546386810F0020F0BD141F288360A
:101E9000FFF77AFC401BB04200F28580386810F0F2
:101EA000020FF5D0B8F1000F1EBF57F8040C20F058
:101EB000805047F8040CE669002E6FD057F81C0CD0
:101EC00000F00C00082806D1012E4AD10120C0B232
:101ED00003B0BDE8F08340F200080020C4F24228BD
:101EE000C8F86000FFF750FC0546D9F80000022E44
:101EF00000F0007046D148B1FFF746FC401B0228B5
:101F000060D8D9F8000010F0007FF5D1206AB0F554
:101F1000803F07D157F81C1CA26821F400311143FF
:101F200047F81C1C57F81C1C626A104321F47411FA
:101F3000084347F81C0C0120C8F86000FFF724FC98
:101F4000044600BFD9F8000010F0007F26D1FFF74B
:101F50001BFC001B0228F5D90320C0B203B0BDE86A
:101F6000F08357F81C0C216A00F480328A421FD19A
:101F7000616A00F47010884210D00120C0B203B032
:101F8000BDE8F08350B100BFFFF7FEFB401B022805
:101F90001DD8D9F8000010F0007FF5D10020C0B2A4
:101FA00003B0BDE8F0830320C0B203B0BDE8F08306
:101FB0000120C0B203B0BDE8F0830320C0B203B07B
:101FC000BDE8F0830320C0B203B0BDE8F083032076
:101FD000C0B203B0BDE8F083411E0020B0EB116F2A
:101FE0001CBF012070474EF21002F023CEF2000217
:101FF00051604EF62351CEF200010B700721906024
:1020000011607047704700007047000010B582B043
:10201000D0F800E00446DEF80010DEF80C20DEF810
:10202000143011F00F0F00F0C28002F4907003F032
:102030000103184300F0FF80C8071FBF12F480702F
:10204000606C40F001006064480705D5002B1EBF9E
:10205000606C40F002006064880705D5002B1EBF4D
:10206000606C40F004006064080707D502F02000AF
:1020700018431EBF606C40F008006064606C00286C
:1020800000F07C8202EA0100800604D5204601F0BF
:1020900043F9D4F800E0DEF81400616C00F0400071
:1020A00001F00801084300F0A9815EE8030F02E097
:1020B000206850E8030F216820F4907041E8030283
:1020C000E2B1206850E8030F216820F4907041E8E5
:1020D00003029AB1206850E8030F216820F4907041
:1020E00041E8030252B1206850E8030F216820F450
:1020F000907041E80302002ADAD100BF206850E85E
:10210000050F216820F0010041E80502DAB12068DE
:1021100050E8050F216820F0010041E8050292B166
:10212000206850E8050F216820F0010041E8050211
:102130004AB1206850E8050F216820F0010041E80D
:102140000502002ADAD1206B012824D1206850E84A
:10215000030F216820F0100041E80302DAB1206883
:1021600050E8030F216820F0100041E8030292B10B
:10217000206850E8030F216820F0100041E80302B6
:102180004AB1206850E8030F216820F0100041E8B0
:102190000302002ADAD1202084F8420000202063C4
:1021A0002068416911F0400F00F022810BE01140DE
:1021B00011F0200F40D0204602B0BDE8104001F0E1
:1021C000ABB800BF206850E8050F216820F0400040
:1021D00041E80502DAB1206850E8050F216820F0D7
:1021E000400041E8050292B1206850E8050F2168DF
:1021F00020F0400041E805024AB1206850E8050F90
:10220000216820F0400041E80502002ADAD1E06BA5
:10221000002800F0ED8043F20D31C0F6000141636B
:10222000FFF7F8F8002800F0A981E06B416B02B0DD
:10223000BDE8104008471140226BC8061DD5012A91
:102240001BD100200190DEF800000190DEF80400B0
:1022500001900198DEF8140010F0400F40F0A080CB
:10226000E18DA28DE08D00281CBF511A5FEA01406C
:1022700000F084815EE8030F17E0080600F1A480F7
:10228000480640F17B81DEF80C0020F04000CEF8DB
:102290000C00202084F84100204602B0BDE8104028
:1022A00000F0E8BB206850E8030F226820F490702B
:1022B00042E80303E3B1206850E8030F226820F4EA
:1022C000907042E803039BB1206850E8030F226836
:1022D00020F4907042E8030353B1206850E8030FE4
:1022E000226820F4907042E80303002BDAD100BF8B
:1022F000206850E8050F226820F0010042E805033D
:10230000DBB1206850E8050F226820F0010042E8A8
:10231000050393B1206850E8050F226820F0010002
:1023200042E805034BB1206850E8050F226820F011
:10233000010042E80503002BDAD1202084F8420096
:1023400000202063206850E8030F226820F010006E
:1023500042E80303DBB1206850E8030F226820F055
:10236000100042E8030393B1206850E8030F22688D
:1023700020F0100042E803034BB1206850E8030F3F
:10238000226820F0100042E80303002BDAD102207B
:1023900089B26063204602B0BDE81040FFF732BE4C
:1023A000E26B1068436899B2002900F0E780B4F846
:1023B0002CC0614580F0E280E3859069202800F020
:1023C000C2805EE8030F23E094F84100212840F02A
:1023D000D580A068B0F5805F03D12069002800F0A7
:1023E000BE80206A411C21620078CEF80400BEE065
:1023F000204602B0BDE81040FFF706BE2046FFF7BA
:1024000003FE0020606402B010BD206850E8030F96
:10241000216820F4807041E80302DAB1206850E8B6
:10242000030F216820F4807041E8030292B1206814
:1024300050E8030F216820F4807041E803024AB19C
:10244000206850E8030F216820F4807041E80302FF
:10245000002ADAD1206850E8050F216820F0010039
:1024600041E80502DAB1206850E8050F216820F044
:10247000010041E8050292B1206850E8050F21688B
:1024800020F0010041E805024AB1206850E8050F3C
:10249000216820F0010041E80502002ADAD1206815
:1024A00050E8050F216820F0400041E80502DAB14C
:1024B000206850E8050F216820F0400041E805023F
:1024C00092B1206850E8050F216820F0400041E8F3
:1024D00005024AB1206850E8050F216820F040004D
:1024E00041E80502002ADAD1202084F842000020C9
:1024F0002063206850E8030F216820F0100041E8B5
:102500000302DAB1206850E8030F216820F01000C0
:1025100041E8030292B1206850E8030F216820F0DF
:10252000100041E803024AB1206850E8030F216817
:1025300020F0100041E80302002ADAD1E06BFEF738
:1025400045FFB4F82CC002206063E08DACEB0000C6
:1025500081B2204602B0BDE81040FFF753BD206AAB
:1025600030F8021B6FF35F21CEF804102062E08C7C
:102570004FF6FF7101380842E08401D002B010BD6F
:10258000DEF80C0020F08000CEF80C00DEF80C0025
:1025900040F04000CEF80C0002B010BD10B504466B
:1025A000002804BF012010BD94F8410028B9002084
:1025B00084F84000204600F061F8242084F84100AF
:1025C0002068C16821F40051C1600169E26821F40A
:1025D0004051114341F20C620161D4F808C0D4E9C2
:1025E00004E3C16891434EEA0C021A431143C160EF
:1025F0004169A26921F440711143416143F6000130
:10260000C4F20101884202D0FFF772FA01E0FFF73D
:1026100083FA192148F21F5C4843D4E90012C5F23D
:10262000EB1C9200B0FBF2F0A0FB0C3252096FF0F1
:10263000630302FB0300322303EB0010A0FB0C0337
:10264000F02000EA531000EB0210C3F343121043D2
:102650008860086920F490400861486920F02A00E9
:102660004861C86840F40050C860002020216064C0
:1026700084F8411084F84210606310BD70B586B0D4
:10268000002644F60001CDE90466CDE90266C4F2F5
:102690000001006888423FD043F60001C4F2010106
:1026A000884272D141F2180040F6000402ADC4F233
:1026B0000200C4F20104016841F480410160016834
:1026C00001F4804101910199016841F00401016028
:1026D0002946006800F00400019001980220039050
:1026E0004FF400700290032005902046FEF744FF4F
:1026F00000204FF480610390029104902046294607
:10270000FEF73AFF252000210022FFF7DDF8252003
:10271000FFF7CAF806B070BD41F2180002ADC4F26E
:102720000200416841F480214160416801F4802148
:1027300001910199016841F0080101602946006892
:1027400000F0080001900198022003904FF480608F
:1027500002900320059040F60000C4F2010000F54D
:1027600080642046FEF708FF4FF400600396294678
:10277000029020460496FEF7FFFE2720002100224B
:10278000FFF7A2F82720FFF78FF806B070BD000012
:10279000704700002DE9F04381B0044690F84100F5
:1027A0001D4616460F46202809D1002F4FF0010084
:1027B00018BF002E08D1C0B201B0BDE8F0830220DE
:1027C000C0B201B0BDE8F0834FF000092120C4F889
:1027D000449084F84100FEF7D7FFA684E684804643
:1027E000A068B0F5805F05D12669002E0CBFB94600
:1027F0003E4600E03E46E28C20680168002A3ED05A
:102800006A1C19D0002D40F0BD8000BF090640F1C0
:10281000D9801EB116F8011B05E000BF39F8021B74
:1028200000266FF35F214160E18C0139E184E28C85
:102830000168002AEAD122E009060FD4016811F0EC
:10284000800F0BD1016811F0800F07D1016811F0E2
:10285000800F03D1016811F0800FEFD016B116F888
:10286000011B04E039F8021B00266FF35F21416071
:10287000E18C0139E184E28C0168002ADCD149064F
:102880001FD43DB3691C11D1016811F0400F18D15C
:10289000016811F0400F14D1016811F0400F10D100
:1028A000016811F0400FEFD00BE000BFFEF76CFFA6
:1028B000A0EB0800A8420DD82068006810F0400F77
:1028C000F4D0202084F841000020C0B201B0BDE85F
:1028D000F08300BF206850E8030F216820F4D07017
:1028E00041E80302E2B1206850E8030F216820F4B8
:1028F000D07041E803029AB1206850E8030F2168C4
:1029000020F4D07041E8030252B1206850E8030F70
:10291000216820F4D07041E80302002ADAD100BF18
:10292000206850E8050F216820F0010041E8050209
:10293000DAB1206850E8050F216820F0010041E875
:10294000050292B1206850E8050F216820F00100CF
:1029500041E805024AB1206850E8050F216820F0DF
:10296000010041E80502002ADAD12020002184F884
:10297000410084F8401084F842000320C0B201B046
:10298000BDE8F08309060AD4FEF7FEFEA0EB0800BE
:10299000A84217D82068016811F0800FF4D016B152
:1029A00016F8011B04E039F8021B00266FF35F21C3
:1029B0004160E18C0139E184E28C0168002AE1D1B7
:1029C0005DE700BF206850E8030F216820F4D07055
:1029D00041E80302E2B1206850E8030F216820F4C7
:1029E000D07041E803029AB1206850E8030F2168D3
:1029F00020F4D07041E8030252B1206850E8030F80
:102A0000216820F4D07041E80302002ADAD100BF27
:102A1000206850E8050F216820F0010041E8050218
:102A2000DAB1206850E8050F216820F0010041E884
:102A3000050292B1206850E8050F216820F00100DE
:102A400041E805024AB1206850E8050F216820F0EE
:102A5000010041E80502002ADAD12020002184F893
:102A6000410084F8401084F842000320C0B201B055
:102A7000BDE8F0837047000070B586B0002040F6D6
:102A800000440122C0250126049041F21800C4F23E
:102A90000104C4F20200016841F008010160C02194
:102AA000006800F00800019001982046FEF766FEDD
:102AB0000320CDE9025602A905902046FEF75CFDF1
:102AC00006B070BD2DE9F04F81B040F60004202122
:102AD0000122C4F201042046FEF750FE012001F05D
:102AE000A7FF204620210022FEF748FE012001F02A
:102AF0009FFF20464021FEF733FE00902046202114
:102B00000122FEF73BFE012001F092FF204620212A
:102B10000022FEF733FE012001F08AFF204640210B
:102B2000FEF71EFE8146204620210122FEF726FEEA
:102B3000012001F07DFF204620210022FEF71EFE2D
:102B4000012001F075FF20464021FEF709FE824674
:102B5000204620210122FEF711FE012001F068FF2E
:102B6000204620210022FEF709FE012001F060FF2F
:102B700020464021FEF7F4FD834620462021012215
:102B8000FEF7FCFD012001F053FF2046202100222A
:102B9000FEF7F4FD012001F04BFF20464021FEF737
:102BA000DFFD0646204620210122FEF7E7FD012039
:102BB00001F03EFF204620210022FEF7DFFD01202C
:102BC00001F036FF20464021FEF7CAFD07462046A9
:102BD00020210122FEF7D2FD012001F029FF20462D
:102BE00020210022FEF7CAFD012001F021FF20462E
:102BF0004021FEF7B5FD0546204620210122FEF7C3
:102C0000BDFD012001F014FF204620210022FEF727
:102C1000B5FD012001F00CFF20464021FEF7A0FD8C
:102C20008046204620210122FEF7A8FD012001F068
:102C3000FFFE009849EA40004AEA40004BEA4000A3
:102C400046EA400047EA400045EA400048EA4000C2
:102C5000C0B201B0BDE8F08FB0B540F60004054643
:102C600020210122C4F201042046FEF787FD012045
:102C700001F0DEFE15F0800F20464FF080010CBF02
:102C800000220122FEF77AFD204620210022FEF7D5
:102C900075FD012001F0CCFE204620210122FEF727
:102CA0006DFD012001F0C4FE68064FF08001204652
:102CB00054BF00220122FEF761FD204620210022A0
:102CC000FEF75CFD012001F0B3FE20462021012229
:102CD000FEF754FD012001F0ABFEA8064FF0800185
:102CE000204654BF00220122FEF748FD2046202145
:102CF0000022FEF743FD012001F09AFE204620212C
:102D00000122FEF73BFD012001F092FEE8064FF0A4
:102D10008001204654BF00220122FEF72FFD2046ED
:102D200020210022FEF72AFD012001F081FE20462D
:102D300020210122FEF722FD012001F079FE280763
:102D40004FF08001204654BF00220122FEF716FDFD
:102D5000204620210022FEF711FD012001F068FE2F
:102D6000204620210122FEF709FD012001F060FE2E
:102D700068074FF08001204654BF00220122FEF771
:102D8000FDFC204620210022FEF7F8FC012001F086
:102D90004FFE204620210122FEF7F0FC012001F029
:102DA00047FEA8074FF08001204654BF00220122B1
:102DB000FEF7E4FC204620210022FEF7DFFC012084
:102DC00001F036FE204620210122FEF7D7FC01202B
:102DD00001F02EFEE8074FF0800120460CBF0022D4
:102DE0000122FEF7CBFC204620210022FEF7C6FC84
:102DF000012001F01DFE204620210122FEF7BEFC2D
:102E00000120BDE8B04001F013BE00002DE9F04301
:102E100085B0894600219046002AADF81010039134
:102E2000ADF8081001913DD0A8F1010108F0030CA4
:102E300000230022032917D3A8EB0C0103AC0022C6
:102E400019F8027009EB0206A75409F80230A71816
:102E50000432757891427D707370B578BD70B3702F
:102E6000F578FD70F370EBD1BCF1000F1AD019F8B2
:102E7000023003A9BCF1010F8B544FF0000309F895
:102E800002300FD0571CBCF1020F19F80760CE5565
:102E900009F8073006D0023219F802308B540021AD
:102EA00009F802100138072833D8DFE800F0040CD5
:102EB00010151A1F242941F600001021C4F2010048
:102EC000A0F5805022E041F6000080211CE041F690
:102ED00000004FF4807117E041F600004FF40071DC
:102EE00012E041F600004FF480610DE041F6000071
:102EF0004FF4006108E041F600004FF4805103E018
:102F000041F600004FF40051C4F201000022FEF728
:102F100035FC012001F08CFD9DF80C00FFF79CFEB4
:102F2000012001F085FDB8F1020F0BD301A8A8F133
:102F3000010440F0010700BFFFF7C4FD07F8010BD3
:102F4000013CF9D1012001F073FDB8F1000F04D06C
:102F500001A948464246FDF747FA404605B0BDE89C
:102F6000F08300002DE9F04182B006460020904633
:102F7000002ACDE9000054D068464246FDF734FAF5
:102F800041F60005022EC4F2010511D0012E1DD11B
:102F90006C46A5F580554646284610210022FEF7CE
:102FA000EDFB14F8010BFFF757FE013EF4D138E0BA
:102FB0006C464646284680210022FEF7DFFB14F8C7
:102FC000010BFFF749FE013EF4D12AE06F46033EB4
:102FD000444600BF052E1ED8DFE806F003070B0F9E
:102FE000131728464FF4807112E028464FF4007101
:102FF0000EE028464FF480610AE028464FF4006155
:1030000006E028464FF4805102E028464FF4005174
:103010000022FEF7B3FB17F8010BFFF71DFE013C82
:10302000D8D1012001F004FD404602B0BDE8F08196
:103030002DE9F04F87B041F2180040F6000501225B
:103040001026C4F20200C4F20105016841F0040137
:103050000160016801F0040103910399016841F0E6
:1030600010010160016801F01001039103990168EA
:1030700041F040010160016801F0400103910399B2
:10308000016841F008010160016801F00801039145
:103090000399016841F0200101601021006800F0EF
:1030A0002000039003982846FEF768FB2846A021DD
:1030B00000224FF00009FEF761FB05F5805B4FF43D
:1030C0007E5101225846FEF759FB05F580604FF40A
:1030D000704100220190FEF751FB05F540604FF66C
:1030E000FF7100220290FEF749FB05F500644FF4E2
:1030F000EE5100222046FEF741FB012703A84FF0C6
:10310000020A80E8C00203AE2846CDF818A0314676
:10311000FEF732FAA020049731464FF001080390E1
:103120000320CDF8149006902846FEF725FA40209B
:10313000CDF81090314603902846CDF81490FEF754
:103140001BFA00203146C1F21100049010200390B8
:103150002046CDF81490FEF70FFA4FF47E50CDF8CC
:103160001080314603905846CDE9059AFEF704FADF
:103170004FF47040CDF8108031460390CDE9059AA8
:103180000198FEF7F9F94FF6FF70CDF8108031463F
:103190000390CDE9059A0298FEF7EEF94FF4EE5050
:1031A000CDF81080314603902046CDE9059AFEF710
:1031B000E3F90A2005210022FEF786FB0A20FEF72C
:1031C00073FB07B0BDE8F08F80B540F23C3043F2AE
:1031D0000002042140F6FF73C2F20000C4F20002B4
:1031E000C0E900218360FEF7D5FA002814BFBDE8CE
:1031F000804080BDFEF7E4B880B540F2483043F629
:1032000000024FF4E13100234FF00C0CC2F2000039
:10321000C4F20102C0E90021C0E90233C0E9043C64
:10322000C0E90633FFF7BAF9002814BFBDE88040B3
:1032300080BDFEF7C5B8000080B540F2903044F67E
:1032400000024FF4E13100234FF00C0CC2F20000F9
:10325000C4F20002C0E90021C0E90233C0E9043C25
:10326000C0E90633FFF79AF9002814BFBDE8804093
:1032700080BDFEF7A5B80000FEE70000FEE70000F5
:103280007047000080B501F009FC02F023FCBDE8A6
:10329000804001F01BBC000041F20400C4F20200B7
:1032A000016801F00C0241F20021C0F27A01082A03
:1032B00018D10268C2F383420368023213F4803FDC
:1032C00005D140F60011C0F23D0151430AE0036808
:1032D00013F4003F01D1514304E040F60011C0F265
:1032E0003D01514340F20C0247F24843C2F2000252
:1032F000C0F6000311600068C0F30310185C21FAE7
:1033000000F010607047000070470000406A002124
:10331000C185C184FEF778BE90F84210222918BFFB
:1033200070478368B3F5805F05D10169B1B100F1E1
:1033300028010A680BE00146002B51F8282F01D123
:10334000036923B103685B6803F07F0301E003684E
:103350005B6813700A6801320A6007E00168826ADC
:1033600049686FF35F2122F8021B8262C18D4FF61C
:10337000FF7201391142C18500D070470168CA68E7
:1033800022F02002CA60CA6822F48072CA604A69C8
:1033900022F001024A61202280F84220002242638A
:1033A000036B012B18BFFFF7F3B9026351E8031F4A
:1033B000026821F0100142E803130168DBB151E813
:1033C000031F026821F0100142E80313016893B162
:1033D00051E8031F026821F0100142E8031301685D
:1033E0004BB151E8031F026821F0100142E80313BA
:1033F0000168002BDAD10A6812F0100F08D081B0F2
:10340000002200920A68009249680091009901B078
:10341000818DFEF7F7BD000040F24830C2F2000097
:10342000FEF7F4BD40F29030C2F20000FEF7EEBDB0
:10343000FEE70000002804BF00207047C1B209B1B8
:1034400001200CE010F47F4102D0090A092006E0B7
:1034500010F47F0107BF010E1920090C112047F25B
:103460006242C0F60002515C084470472DE9F04FFB
:1034700081B040F2602440F21005002640F20008BE
:1034800041F2246A47F2526B4FF40079C2F2000411
:10349000C2F20005CBF6F076C4F20408C2F2000ACC
:1034A000C0F6000B03E000BF0121FDF79BFE00F01A
:1034B000B3FD4FF0FF3101F08BFE0028F7D12078EB
:1034C000172800F2CE84DFE810F0180046007400E0
:1034D000B800E500120156018301B001F401210298
:1034E0004E029202BF02EC022E0359038403C5036D
:1034F000EF0319045B048D040D050120FDF75AFE4E
:10350000022001F095FA40F254170421C2F200079C
:103510003846FDF70FFD606003F0ECFE03F0BEFEE1
:1035200000224FF0785303F0D1FC0022334603F021
:1035300025FC0022434603F0C9FC03F0EDFB2061AB
:1035400003F0ACFE0B4647F2725102465046C0F6FD
:10355000000100F03EBC0120FDF72CFE022001F02E
:1035600067FA40F254170421C2F200073846FDF70B
:10357000E1FCA06003F0BEFE03F090FE00224FF0DD
:10358000785303F0A3FC0022334603F0F7FB00223C
:10359000434603F09BFC03F0BFFB606103F07EFE3B
:1035A0000B4647F2C25102465046C0F6000100F0F9
:1035B00042BC0120FDF7FEFD022001F039FA40F285
:1035C00054170421C2F200073846FDF7B3FCE0604F
:1035D00003F090FE03F062FE00224FF0785303F0F8
:1035E00075FC0022334603F0C9FB0022434603F07A
:1035F0006DFC03F091FBA06103F050FE0B4647F217
:10360000126102465046C0F60001FCF7A5FE58467E
:10361000514601F073FA48F260001021A86538465F
:10362000FDF7E0FD2020012128613846FDF7DAFD95
:103630000120FDF76FFE0220A0E30120FDF7BAFD97
:10364000022001F0F5F940F260170421C2F20007F0
:103650003846FDF76FFC606003F04CFE03F01EFE81
:1036600000224FF0785303F031FC0022334603F080
:1036700085FB0022434603F029FC03F04DFB20614B
:1036800003F00CFE0B4647F2825102465046C0F64C
:1036900000019EE30120FDF78DFD022001F0C8F935
:1036A00040F260170421C2F200073846FDF742FCE1
:1036B000A06003F01FFE03F0F1FD00224FF07853ED
:1036C00003F004FC0022334603F058FB002243467B
:1036D00003F0FCFB03F020FB606103F0DFFD0B4611
:1036E00047F2D25102465046C0F60001A3E3012042
:1036F000FDF760FD022001F09BF940F26017042104
:10370000C2F200073846FDF715FCE06003F0F2FD59
:1037100003F0C4FD00224FF0785303F0D7FB0022E2
:10372000334603F02BFB0022434603F0CFFB03F0AC
:10373000F3FAA06103F0B2FD0B4647F222610246A4
:103740005046C0F60001FCF707FE5846514601F00E
:10375000D5F948F260001021A8653846FDF742FD12
:103760002020012128613846FDF73CFD0220FDF7AD
:10377000D1FD032002E30120FDF71CFD022001F032
:1037800057F940F26C170421C2F200073846FDF7E2
:10379000D1FB606003F0AEFD03F080FD00224FF02E
:1037A000785303F093FB0022334603F0E7FA00223C
:1037B000434603F08BFB03F0AFFA206103F06EFD8C
:1037C0000B4647F2925102465046C0F6000100E314
:1037D0000120FDF7EFFC022001F02AF940F26C17FE
:1037E0000421C2F200073846FDF7A4FBA06003F0F5
:1037F00081FD03F053FD00224FF0785303F066FB88
:103800000022334603F0BAFA0022434603F05EFB7F
:1038100003F082FA606103F041FD0B4647F2E2518A
:1038200002465046C0F6000105E30120FDF7C2FC48
:10383000022001F0FDF840F26C170421C2F20007EB
:103840003846FDF777FBE06003F054FD03F026FDFA
:1038500000224FF0785303F039FB0022334603F087
:103860008DFA0022434603F031FB03F055FAA061C4
:1038700003F014FD0B4647F2326102465046C0F693
:103880000001FCF769FD5846514601F037F948F24E
:1038900060001021A8653846FDF7A4FC2020012116
:1038A00028613846FDF79EFC0320FDF733FD042018
:1038B00064E20120FDF77EFC022001F0B9F840F23D
:1038C00078170421C2F200073846FDF733FB606029
:1038D00003F010FD03F0E2FC00224FF0785303F0F8
:1038E000F5FA0022334603F049FA0022434603F07A
:1038F000EDFA03F011FA206103F0D0FC0B4647F219
:10390000A25102465046C0F6000162E20120FDF7D6
:1039100051FC022001F08CF840F278170421C2F229
:1039200000073846FDF706FBA06003F0E3FC03F058
:10393000B5FC00224FF0785303F0C8FA002233465A
:1039400003F01CFA0022434603F0C0FA03F0E4F946
:10395000606103F0A3FC0B4647F2F2510246504669
:10396000C0F6000167E20120FDF724FC022001F00F
:103970005FF840F278170421C2F200073846FDF7DD
:10398000D9FAE06003F0B6FC03F088FC00224FF0A7
:10399000785303F09BFA0022334603F0EFF900223C
:1039A000434603F093FA03F0B7F9A06103F076FC05
:1039B0000B4647F2426102465046C0F60001FCF752
:1039C000CBFC5846514601F099F848F260001021AE
:1039D000A8653846FDF706FC2020012128613846FD
:1039E000FDF700FC0420FDF795FC0520C6E1012051
:1039F000FDF7E0FB022001F01BF840F284170421E0
:103A0000C2F200073846FDF795FA606003F072FCD9
:103A100003F044FC00224FF0785303F057FA0022E1
:103A2000334603F0ABF90022434603F04FFA03F0AC
:103A300073F9206103F032FC0B4647F2B2510246A3
:103A40005046C0F60001C4E10120FDF7B3FB02209F
:103A500000F0EEFF40F284170421C2F2000738465E
:103A6000FDF768FAA06003F045FC03F017FC0022A4
:103A70004FF0785303F02AFA0022334603F07EF920
:103A80000022434603F022FA03F046F9606103F096
:103A900005FC0B4647F2026102465046C0F60001A3
:103AA000C9E10120FDF786FB022000F0C1FF40F2D2
:103AB00084170421C2F200073846FDF73BFAE060A4
:103AC00003F018FC03F0EAFB00224FF0785303F0F8
:103AD000FDF90022334603F051F90022434603F07A
:103AE000F5F903F019F9A06103F0D8FB02460B4683
:103AF00050460FF21451FCF72FFC5846514600F087
:103B0000FDFF48F260001021A8653846FDF76AFB0A
:103B10002020012128613846FDF764FB0520FDF7D0
:103B2000F9FB06202AE10120FDF744FB022000F00A
:103B30007FFF40F290170421C2F200073846FDF7DC
:103B4000F9F9606003F0D6FB03F0A8FB00224FF008
:103B5000785303F0BBF90022334603F00FF900223B
:103B6000434603F0B3F903F0D7F8206103F096FB66
:103B700002460B4650460FF280412AE10120FDF734
:103B800019FB022000F054FF40F290170421C2F20A
:103B900000073846FDF7CEF9A06003F0ABFB03F059
:103BA0007DFB00224FF0785303F090F9002233465A
:103BB00003F0E4F80022434603F088F903F0ACF880
:103BC000606103F06BFB02460B4650460FF2184152
:103BD00031E10120FDF7EEFA022000F029FF40F26A
:103BE00090170421C2F200073846FDF7A3F9E06000
:103BF00003F080FB03F052FB00224FF0785303F0F8
:103C000065F90022334603F0B9F80022434603F079
:103C10005DF903F081F8A06103F040FB02460B461A
:103C20005046EDA1FCF798FB5846514600F066FF60
:103C300048F260001021A8653846FDF7D3FA20202D
:103C4000012128613846FDF7CDFA0620FDF762FB19
:103C5000072093E00120FDF7ADFA022000F0E8FE16
:103C600040F29C170421C2F200073846FDF762F9C2
:103C7000606003F03FFB03F011FB00224FF078532C
:103C800003F024F90022334603F078F8002243467B
:103C900003F01CF903F040F8206103F0FFFA02463C
:103CA0000B465046C8A194E00120FDF783FA02209C
:103CB00000F0BEFE40F29C170421C2F20007384615
:103CC000FDF738F9A06003F015FB03F0E7FA0022D6
:103CD0004FF0785303F0FAF80022334603F04EF821
:103CE0000022434603F0F2F803F016F8606103F097
:103CF000D5FA02460B465046AFA19CE00120FDF7E5
:103D000059FA022000F094FE40F29C170421C2F2FE
:103D100000073846FDF70EF9E06003F0EBFA03F018
:103D2000BDFA00224FF0785303F0D0F8002233465A
:103D300003F024F80022434603F0C8F802F0ECFF39
:103D4000A06103F0ABFA02460B46504696A1FCF781
:103D500003FB5846514600F0D1FE48F260001021A6
:103D6000A8653846FDF73EFA202001212861384633
:103D7000FDF738FA0720FDF7CDFA082060706DE0F6
:103D80000120FDF717FA022000F052FE40F2A817BA
:103D90000421C2F200073846FDF7CCF8606003F05A
:103DA000A9FA03F07BFA00224FF0785303F08EF863
:103DB0000022334602F0E2FF0022434603F086F879
:103DC00002F0AAFF206103F069FA02460B46504652
:103DD00071A1FCF7C1FA5846514600F08FFE48F237
:103DE000610030E00120FDF7E5F9022000F020FE3F
:103DF00040F2A8170421C2F200073846FDF79AF8EE
:103E0000A06003F077FA03F049FA00224FF07853EC
:103E100003F05CF80022334602F0B0FF0022434674
:103E200003F054F802F078FF606103F037FA0246BD
:103E30000B46504654A1FCF78FFA5846514600F005
:103E40005DFE48F26200A86538461021FDF7CAF908
:103E50002020012128613846FDF7C4F92078471C4D
:103E600027704FF47A7001F0F9FB6078C5F8109074
:103E7000013807283FF61BABDFE800F004220A10E8
:103E800016282E1C40F25410C2F20000FFF70CBBA3
:103E900040F26C10C2F20000FFF706BB40F278104F
:103EA000C2F20000FFF700BB40F28410C2F2000033
:103EB000FFF7FABA40F2A810C2F20000FFF7F4BA16
:103EC00040F26010C2F20000FFF7EEBA40F290102C
:103ED000C2F20000FFF7E8BA40F29C10C2F2000004
:103EE000FFF7E2BA0120FDF765F9022000F0A0FD1E
:103EF000D946C34640F2A8180421C2F20008404641
:103F0000FDF718F8E06003F0F5F903F0C7F90022B7
:103F10004FF07853002702F0D9FF0022334602F019
:103F20002DFF00225B4602F0D1FF02F0F5FEA061FA
:103F300003F0B4F902460B4650460FA1FCF70CFA09
:103F40004846514600F0DAFD48F260001021A865AD
:103F50004046FDF747F92020012128614046D84618
:103F6000CB464FF40079FDF73DF90820FDF7D2F973
:103F70000120607074E700BF565F4144385F4368BA
:103F800032333A25660D0A00565F4144385F436874
:103F900031333A25660D0A00565F4144385F436865
:103FA00030333A25660D0A00565F4144375F436857
:103FB00032333A25660D0A00565F4144375F436845
:103FC00031333A25660D0A00565F4144375F436836
:103FD00030333A25660D0A00565F4144365F436828
:103FE00032333A25660D0A00565F4144365F436816
:103FF00031333A25660D0A00565F4144365F436807
:1040000030333A25660D0A00565F4144355F4368F8
:1040100032333A25660D0A0041F22060C2F20000F8
:104020000068704710B540F60044C4F2010400BFB8
:1040300020464FF48051FDF799FB142001F00EFB50
:1040400020464FF48051FDF791FB4FF46B7001F067
:1040500005FBEDE7B0B592B0FDF7CEFB00240920DB
:10406000012102250D94CDE90B440794CDE90544C7
:10407000CDE9034408904FF48030CDE909040C9158
:104080000E91CDE90F504FF4E010119008A8FDF704
:1040900057FD20B1EFF3108072B600BFFEE70F208E
:1040A000022103904FF480600594CDE9060403A833
:1040B0000495FDF74BFC20B1EFF3108072B600BF02
:1040C000FEE7FEF7B5FFFFF7B7F8FFF77DF8FFF75C
:1040D00093F8FEF7D1FC01F011F920A00121002294
:1040E00001F026F841F22061052500224FF400730B
:1040F000C2F20001086044F225010A20CDE9005017
:104100001AA0C0F6000101F049FA10B301F014FC46
:1041100046F2FD41142417A00022FF23C0F600013F
:10412000CDE9005401F03AFA98B101F005FC43F2F0
:104130006D4103200022FF23CDE9000410A0C0F64A
:10414000000101F02BFA20B101F0F6FB002012B0C3
:10415000B0BD4FF0FF3012B0B0BD00BF6D795F73DE
:10416000656D6170686F7265000000006C65643198
:10417000000000007761746368646F6700000000EE
:10418000646174615F636F6E76657273696F6E00F0
:10419000B0B547F2087447F20470C0F60004C0F6E8
:1041A0000000A04209D247F20475C0F6000500BF26
:1041B00055F8040B8047A542FAD3BDE8B040FFF79D
:1041C00049BF00002DE9F04F84B0DDF83CB00FF29C
:1041D00004470FF214451BF0400F08BF3D461BF08B
:1041E000100F18BF2BF0010B1BF0020F1FD14FF067
:1041F000000ADDE90D8952B30A2B40F0C3804CF66A
:10420000CD474FF0000C6E46CCF6CC47A2FB0734EE
:104210000A2A4FEAD40303EB8304A2EB44041A46B0
:104220002C5D06F80C400CF1010CEFD214E0B2F159
:10423000FF3F40F3D4805FEA4B775ABF202707EA5D
:104240008B0A4FF02B0ADDE90D89002AD4D13022E8
:104250004FF0010C8DF80020CC45CE46C8BFE64695
:104260001BF0110FA8EB0E0243D10023002A544685
:10427000C8BF0123BAF1000F18BF01242340D51A8B
:104280006A1E36DB5B42074643445C1EA3EB0E0806
:10429000A4EB0E0918F0030609D0884200F10107CB
:1042A0003CBF20220270012E40F06A81AA1EB9F1A3
:1042B000030FDDF8389019D3FD1C0432202600BF0F
:1042C000EB1E043A8B4238BF1E70AB1E8B42A5F129
:1042D000010338BF05F8026C8B4238BF05F8016C4A
:1042E0008D4238BF2E700435032AE9DC40444FF07C
:1042F000FF32BAF1000F06D08842A2F1010238BFA6
:1043000080F800A001305FEACB6306D5CC4573DBB3
:10431000B9F1000F40F0CF80FFE0561E68DB20258A
:1043200012F00308374604466BF3041509D088429F
:1043300000F1010438BF0570B8F1010F40F0828030
:10434000971E032E18D303343E1D00BFE31E043E08
:104350008B4238BF1D70A31E8B42A4F1010338BFEE
:1043600004F8025C8B4238BF04F8015C8C4238BF11
:1043700025700434032EE9DC10444FF0FF32CC45A5
:10438000C6DA39E000276E464FF0000C02F00F034A
:10439000B7EB121FEB5C06F80C3060D0130906EB8C
:1043A0000C04B7EB122F03F00F03EB5C637059D0D2
:1043B000130AB7EB123F03F00F03EB5CA37000F09E
:1043C000EE80130B0CF1040CB7EB124F03F00F034C
:1043D000EB5CE3704FEA12431A46D7D13CE75242F6
:1043E0004FF02D0ADDE90D89002A7FF405AF2EE795
:1043F0003246CC45BFF68CAFAEF10104AEEB0C08F3
:10440000A4EB0C0518F003070BD0884200F101065D
:104410003CBF30230370012F07D1A646032D2DD2B8
:1044200045E00646032D29D241E08E42AEF102035B
:104430003CBF30243470861C022F16D19E46032DBB
:104440001CD234E08C4238BF2570841CB8F1020FB6
:1044500040F0A880D71E032EBFF475AF8CE74CF058
:10446000010CF9E64CF0020CF6E68E42AEF1030EBA
:104470003CBF30233370C61C032D18D3F51C3026E7
:10448000EB1EAEF1040E8B4238BF1E70AB1E8B428A
:10449000A5F1010338BF05F8026C8B4238BF05F85F
:1044A000016C8D4238BF2E700435F445E8DB404482
:1044B000B9F1000F31D06B469F1E00BF88423EBF4E
:1044C00007EB0C035B780370BCF1010F00F10103F3
:1044D00026DD8B423CBF17F80C601E70831CBCF1BC
:1044E000030F1DDB8B423EBF07EB0C0616F8016C79
:1044F0001E70BCF1040F00F1030615DB8E42ACF117
:10450000040300F104003EBF07EB0C0515F8025C44
:1045100035701E1D9C46042ED0DC012A07DA24E0EB
:104520001846012A03DA20E03046012A1DDB202349
:10453000884200F1010738BF0370012A1CDD8F4259
:1045400038BF3B70871C032A12DB8F4238BF3B7099
:10455000C71C042A0CDB8F42A2F1040200F1040004
:1045600038BF3B70171D042FE2DC04B0BDE8F08FAC
:10457000384604B0BDE8F08F384604B0BDE8F08F8F
:104580008F423CBF20223A70871C022E14D1EA1EB3
:10459000B9F1030FDDF83890BFF48EAEA6E60CF14A
:1045A000030C59E68C42A2F1040738BF2570C41CE5
:1045B000032EBFF4C8AEDFE68F423CBF20223A7024
:1045C000C71C2A1FB9F1030FDDF83890BFF474AE91
:1045D0008CE600BF303132333435363738396162DA
:1045E000636465660000000030313233343536379D
:1045F000383941424344454600000000B0B547F217
:10460000047447F20070C0F60004C0F60000A04237
:1046100028BFB0BD47F20075C0F6000555F8040B81
:104620008047A542FAD3B0BD80B5FBF71BFE40F230
:104630003431C2F200010A8801320A80BDE88040AC
:10464000FBF714BE80B5FBF70DFE40F23431C2F229
:1046500000010A88013A0A8012B2002A03DDBDE88F
:104660008040FBF703BE00220A80FBF7FFFD40F20B
:10467000C020C2F200004068002814BFBDE880409E
:1046800080BD00F0C7BC00002DE9F04104460028C1
:104690005CD040F28027C2F20007796809B1204659
:1046A0008847F868A04251D83869A04298BFBDE851
:1046B000F08107F120084FF0FF31404600F088FDFF
:1046C00034F80A0CA4F10C0618B13088B0F5F55F87
:1046D0000AD026A000F012FA34F80C3C34F80A2C68
:1046E00029A0314600F00AFA4FF4F55044F80C0CBA
:1046F000D7F814C0B44584BF7E61B44654F8082C82
:10470000F868BD69B31A1B1A2B44BB618318B34206
:1047100010D05D8875B93D69AB420BD09C45A6EBC6
:10472000000504BF7E61B4465A6844F8082C5B68F3
:1047300003449D6054F8043CC518B54201D0698813
:1047400031B14046BDE8F04100F014BDBDE8F08154
:10475000B44508BF7D616A6054F8081C0844836052
:104760004046BDE8F04100F005BD00BF746F206613
:1047700072656520612062616420646174612062F9
:104780006C6F636B3A0A00006D656D3A20307825D6
:104790003038782C207573656420666C61673A2028
:1047A00025642C206D6167696320636F64653A201E
:1047B0003078253034780A0040F26440C2F20000BC
:1047C0007047000040F26440C2F2000000F58050E3
:1047D0007047000010B5FEF75FFD40F20C0044F694
:1047E000D351C2F20000C1F262010068A0FB0101D6
:1047F0004FF0FF3000EB91110020B0EB116F0DD1A5
:104800004EF21002FF23CEF2000251604EF6235109
:10481000CEF200010B70072111609060FFF7EEFEF1
:10482000FFF7CAFF0446FFF7CDFF01462046BDE86B
:10483000104000F003BE0000B0B50446FFF7F4FEE0
:10484000207870B140F29035C2F20005284621462A
:1048500001224FF47A73FDF79DFF14F8010F002831
:10486000F4D1BDE8B040FFF7EDBE000010B504463E
:1048700040F26040C2F20000016821B12046884742
:10488000002808BF10BD47F2EC60216CC0F60000A4
:1048900000F034F947F2AB60616AC0F6000000F046
:1048A0002DF947F2B860A16AC0F6000000F026F9C1
:1048B00047F2C560E16AC0F6000000F01FF947F258
:1048C000D260216BC0F6000000F018F947F2DF60FB
:1048D0006168C0F6000000F011F9A1681DA000F0A9
:1048E0000DF9E1681FA000F009F9216921A000F08D
:1048F00005F9616923A000F001F9A16925A000F084
:10490000FDF8E16927A000F0F9F8216A29A000F07C
:10491000F5F8616B2BA000F0F1F8A16B2DA000F071
:10492000EDF8E16B2FA000F0E9F82078400706D4FD
:1049300047F27460C0F6000000F0E0F808E000F014
:10494000ADFF014647F28E60C0F6000000F0D6F8D9
:10495000FEE700BF7230353A203078253038780ACB
:10496000000000007230363A203078253038780A5E
:10497000000000007230373A203078253038780A4D
:10498000000000007230383A203078253038780A3C
:10499000000000007230393A203078253038780A2B
:1049A000000000007231303A203078253038780A23
:1049B000000000007231313A203078253038780A12
:1049C000000000007231323A203078253038780A01
:1049D00000000000206C723A203078253038780AC8
:1049E000000000002070633A203078253038780AC3
:1049F0000000000004324BF6EF6C22F00702CDF607
:104A0000AD6C42F840CDC2E901CCC2E903CCC2E9A9
:104A100005CCC2E907C100214FF0807CC2E9091131
:104A2000C2E90B11C2E90D301046C2F83CC0704714
:104A300010B54EF2180C40F20C01CEF2000CC2F28E
:104A40000001DCF800405CF8043CD1F800E04DF6D1
:104A50008361C4F21B31AEFB0112910C484300BFCD
:104A6000DCF80010611A98BF1944814215D2DCF8B5
:104A70000010611A98BF194481420ED2DCF8001070
:104A8000611A98BF1944814228BF10BDDCF800109C
:104A9000611A98BF19448142E2D310BD10B5FBF7EB
:104AA000E1FB044641F27040C2F20000017801319E
:104AB000017041F26440C2F200000068002818BF93
:104AC00080472046BDE81040FBF7D0BB10B5FBF790
:104AD000C9FB044641F27040C2F20000017801397E
:104AE000017041F26C40C2F200000068002818BF5B
:104AF00080472046BDE81040FBF7B8BB83B010B537
:104B000081B041F27844844603A8C2F200040EC08A
:104B100003AB7F2162462046009301F04DF9204609
:104B2000FFF78AFE01B0BDE8104003B070470000F7
:104B30002DE9F04F81B078B140F280290330C2F204
:104B4000000920F0030AD9F80800824509D9002598
:104B5000284601B0BDE8F08F0025284601B0BDE829
:104B6000F08F09F120084FF0FF31404600F030FB94
:104B7000BAF10C0F98BF4FF00C0AD9E902CBD9F863
:104B800014E0ACEB0A02AEEB0B0191425DD20BEBF1
:104B900001063546374635F8020F57F8043F20B96D
:104BA00001F10C001C1A544557D293424DD20BEB25
:104BB00003063546374635F8020F57F8041F20B96B
:104BC00003F10C000C1A544520D291423DD20BEB5C
:104BD00001063546374635F8020F57F8043F20B92D
:104BE00001F10C001C1A544537D293422DD20BEB25
:104BF00003063546374635F8020F57F8041F0028DC
:104C0000C3D103F10C000C1A5445BED31A460B460F
:104C10000AF118018C4225D350444FF4F5540AF19F
:104C20000C014BF800400BEB0004C4E901320122F7
:104C300038600CF10C032A8062689A421CBF5A4407
:104C40009060D9E90602084414E0404600F092FA68
:104C50000025284601B0BDE8F08F0A460AF1180188
:104C60008C42D9D201202880ABEB0600D9E906128C
:104C7000184408448242C9F8180038BFC9F81C001B
:104C80004FF4F550B64530802FD1BEF8020060B326
:104C9000D9F81000704528D0DEF804100BEB010E97
:104CA000BEF80210002918BF70451CD0DEF80410B1
:104CB0000BEB010EBEF80210002918BF704512D090
:104CC000DEF804100BEB010EBEF80210002918BF2D
:104CD000704508D0DEF804100BEB010EBEF8021090
:104CE00009B17045D8D1C9F814E0404600F042FA45
:104CF000D9F8002006F10C05002AAAD02846514612
:104D00009047284601B0BDE8F08F0000F0B581B0B3
:104D100013460446CAB2042B03D22046002B72D19C
:104D200074E0A00701D020466DE042EA0220102B7B
:104D300040EA00411AD3A3F1100C012000EB1C1033
:104D40002CF00F0E10F0030504EB0E0000F1100024
:104D50000ED0012DC4E90011C4E9021164D104F19F
:104D600010056346BCF1300F06D219E020461BE067
:104D70002546BCF1300F13D3403BC5E90011C5E90E
:104D80000211C5E90411C5E90611C5E90811C5E913
:104D90000A11C5E90C11C5E90E1140350F2BEBD8EE
:104DA000ACEB0E03042B2DD3C3F103054FF0010E22
:104DB000A3F1040C15F1040F98BF6FF003055E1901
:104DC0000EEB960515F003070AD00546012F45F8AE
:104DD000041B1ED163460EEB9C0E0C2E06D20DE07A
:104DE00005460EEB9C0E0C2E08D300BF103BC5E908
:104DF0000011C5E902111035032BF7D800EB8E0026
:104E00000CF0030313B11946FBF733FB204601B046
:104E1000F0BD022F416014D1083B00F108050EEBF4
:104E20009C0E0C2EE2D2E9E7022DC4E90411C4E97C
:104E300006110FD1203B04F12005BCF1300F9BD2AD
:104E4000AEE781600C3B00F10C050EEB9C0E0C2EC6
:104E5000CCD2D3E7C4E90811C4E90A11303B04F10C
:104E60003005BCF1300FBFF487AF99E72DE9F04171
:104E7000064640F2B4108846C2F2000001780746A8
:104E8000B1420FD0074617F8101FB1420AD00746AB
:104E900017F8201FB14205D010F8301FB14218BFDB
:104EA00000200746F868FFF743FE0546002410B3CC
:104EB000FA6828460021FFF729FF284641460822C4
:104EC0002E726C7200F076FA41F2F840C2F20000E5
:104ED000016809B12846884705F10C04FBF7C2F9BF
:104EE00057F8041F4C60E9603C602F61FBF7BEF986
:104EF0002846BDE8F08100252846BDE8F081000085
:104F000010B5044641F2FC40C2F20000016809B14C
:104F10002046884700202072FBF7A4F92246216929
:104F200052F80C3F596021690B6022611260FBF757
:104F30009DF92046BDE81040FFF7A6BB10B504461A
:104F400041F2FC40C2F20000016809B120468847E6
:104F500000202072FBF786F954F80C1F62684A6043
:104F600062681160C4E90044BDE81040FBF77EB9F7
:104F7000F0B581B0044640F2B4100E461546C2F2B8
:104F8000000001780746B1420FD0074617F8101FFE
:104F9000B1420AD0074617F8201FB14205D010F8D9
:104FA000301FB14218BF00200746FFF73DFB043712
:104FB000384600BF0068B84208D00068B84205D043
:104FC0000068B84202D00068B842F3D1FFF73AFB5C
:104FD00046F08000294608222072204600F0EAF9B7
:104FE00041F2F840C2F20000016809B1204688474A
:104FF00004F10C05FBF736F939684D60E1603D605E
:10500000276101B0BDE8F040FBF730B9007AC00974
:10501000704700002DE9F041FBF724F940F23436E7
:105020000446C2F20006308820B12046BDE8F041B7
:10503000FBF71CB940F2C027C2F20007B868FEF7C0
:10504000F9F901387D6807EBC001D1F81480A8F1A7
:1050500014018D42E9D07268796038700AB128462F
:10506000904741F2704208F1080105F11C00C2F2BC
:105070000002127832B1FBF7FCF82046BDE8F0419F
:10508000FBF7F4B8FBF7F5F82046BDE8F041FBF775
:10509000EDB8000010B50446FBF7E4F894F83410BE
:1050A00040F2C02C94F83520C2F2000C01F0F0015F
:1050B0000CEBC20241F0010184F8341004F1140138
:1050C00093691960A361916102F114016161A16B9F
:1050D000DCF808201143CCF80810BDE81040FBF7BD
:1050E000C5B8000010B50446FBF7BCF8214651F8DE
:1050F000142F4B6853604B681A60C1E9001191F896
:10510000212040F2C021C2F2000101EBC20252F89C
:10511000143F934203D0BDE81040FBF7A7B8A26B41
:105120008B6823EA02028A60BDE81040FBF79EB854
:10513000B0B50D46014602201446FFF797FE002841
:1051400008BFB0BD00F1140185834472C0E90511A8
:10515000B0BD000070B515460A4602211C46064641
:10516000FFF706FF06F11400C6E905000020B5832D
:10517000747270BDB0B5044641F20050C2F2000036
:10518000016809B120468847FBF76CF821460546BF
:1051900051F8140F884209D0143800F051FB28460A
:1051A000FBF764F8FFF736FF0020B0BDA08B4FF689
:1051B000FF71884206D00130A0832846FBF756F8DD
:1051C0000020B0BD2846FBF751F86FF00200B0BDDB
:1051D0002DE9F04182B0044641F208500E4601919B
:1051E000C2F20000016809B120468847FBF73AF88F
:1051F0000546A08B80B10138A0832846FBF736F81E
:1052000041F20450C2F20000016871B320468847A1
:10521000002002B0BDE8F0815EB300F03FFB8046A5
:105220000020C8F830004046677A00F0BBFB04F16C
:105230001400012F25D0002F44D0012E09DB08F1E6
:10524000440601AA0021304600F0C4FC304600F0BC
:1052500025FD2846FBF70AF8FFF7DCFED8F83000FA
:105260000028CDD002B0BDE8F081002002B0BDE83A
:10527000F0812846FAF7FAFF6FF0010002B0BDE8AE
:10528000F081026882421DD098F8351092F82130E2
:10529000994223D31268824214D092F82130994265
:1052A0001CD3126882420DD092F82130994215D356
:1052B0001268824206D092F8213099420ED31268C9
:1052C0008242E3D1A16908F114020A60C8F81810FB
:1052D000A261C8F81400012EB1DABAE7A2F11400F5
:1052E00008F1140281690A60C8F81810826114304C
:1052F000C8F81400012EA2DAABE7000080B582B036
:1053000009A0FFF7FBFB0BA0FFF7F8FB13A003219D
:1053100001220523009014A0FFF7F0FB1AA002B0B1
:10532000BDE88040FFF7EABB0A205C207C202F0DFF
:105330000A0000002D205254202D2020202020542F
:105340006872656164204F7065726174696E672070
:1053500053797374656D0D0A000000004175672074
:105360003230203230323400202F207C205C20204C
:1053700020202025642E25642E2564206275696C0A
:10538000642025730D0A00002032303036202D2095
:105390003230323020436F707972696768742062EE
:1053A000792072742D746872656164207465616D12
:1053B0000D0A00002DE9F0418046BAB3C2F1000C9D
:1053C000002440460F5D002F08F804701DD00CEB40
:1053D0000406771C2AD00F1908EB04057B78002BF4
:1053E0006B7016D0B31C21D0BB78002BAB7019D0DA
:1053F000F31C1BD0FB78002BEB701AD00434043064
:10540000043A1CEB0403DDD110E00130511E04D13D
:105410000CE0013A0230511E08D0FBF732F840464A
:10542000BDE8F081023A0330511EF6D14046BDE896
:10543000F081281D033A511EEFD1F7E70A460146D5
:1054400022F0030019282ED3CB1CA0F1180C23F056
:1054500003039C4527D310B540F28024C11A4FF0B6
:10546000000CC2F20004A1F118020C39E360A26042
:105470004FF4F552C3E90021A0F10C02C3F808C0B3
:105480000023226141F6A062C0F2010240E903213B
:1054900040F8041C04F1200004A10122FFF75AFE89
:1054A000E068606110BD03A0FFF728BB686561700C
:1054B000000000006D656D20696E69742C206572B6
:1054C000726F7220626567696E20616464726573D1
:1054D0007320307825782C20616E6420656E6420FE
:1054E0006164647265737320307825780A00000067
:1054F000B0B540F234304FF0000C0722C2F2000089
:10550000A0F800C040F2C020C2F2000000F1240167
:10551000027000F12C0300F1340400F13C0500F1AD
:10552000140200F11C0EC0E9091100F14401C0E9A8
:105530000B33C0E90D44C0E90F5500F14C03C0E93D
:10554000111100F10C01C0E91333C0E901CCC0E92D
:105550000311C0E90522C0E907EEB0BD10B540F265
:10556000C024C2F20004A068FDF764FF04EBC00091
:10557000C068A0F1140108306160BDE81040FAF77E
:10558000A6BE000040F22030C2F2000000F10C0183
:10559000C0E9031170470000704700002DE9F04397
:1055A00083B00F46014601201D461646FFF75EFCFC
:1055B0000446002844D02846FFF7BAFA002844D011
:1055C00004F11401DDE90A98C4E90876C4E90A0582
:1055D0002A46C4E905112321FFF798FB04F12003B3
:1055E0000FCB1A4445F26963043AC0F60003FFF793
:1055F00001FAE06145F60122002084F8369084F833
:10560000359021462346C4E90E08C4F84080206343
:1056100084F83400C4E91C00CDE9000004F1440022
:10562000C0F6000200F022FB41F20C50C2F2000072
:10563000016809B120468847204603B0BDE8F083E1
:105640000024204603B0BDE8F0832046FFF758FC55
:105650000024204603B0BDE8F083000080B500F0D0
:1056600023F9002080BD000070B540F2C420C2F2D2
:1056700000000568FAF7F6FD0446FAF7F3FD296F16
:10568000064609B1284688473046FAF7EFFD284616
:10569000FFF728FD042085F8340005F1440000F0F0
:1056A000CDFA2846FFF7B2FC012809D12846FFF7BA
:1056B00045FCFFF7AFFC2046BDE87040FAF7D6BDC9
:1056C00040F2CC2005F11402C2F2000001684A60E9
:1056D0000260C5E90510FFF79DFC2046BDE870405B
:1056E000FAF7C4BDF0B581B040F2504540F2CC2687
:1056F000C2F20005C2F2000603E000BF2046FAF73E
:10570000B5FD2868002818BF80476868002818BFC2
:105710008047A868002818BF8047E86898B180478C
:1057200011E000BFD7E90001416079680860C7E96E
:1057300000777869FEF7A8FFA7F11400FFF7E0FBF8
:105740002046FAF793FDFAF78DFD37680446B74215
:10575000E8D1D3E710B584B041F2145340F2D83405
:105760004FF4807220200721C2F20003C2F200042D
:10577000CDE9003245F2E562CDE9021006A12046EE
:105780000023C0F6000200F00BF8204604B0BDE88C
:10579000104000F0D1B800BF7469646C650000006F
:1057A00070B582B016460A4601211D460446FFF731
:1057B000DFFB04F11400079A2321C4E905000698D1
:1057C000C4E90865A062E262FFF7A0FA04F12003D1
:1057D0000FCB1A4445F26963043AC0F60003FFF7A1
:1057E00009F9E0610898099945F601222346C0F6B7
:1057F000000284F8360084F835000020A063C4E974
:105800000F11206384F83400C4E91C00CDE90000C6
:1058100004F14400214600F029FA41F20C50C2F292
:105820000000016809B120468847002002B070BD21
:1058300080B500F02FF900F037F8002080BD00009F
:10584000B0B5044690F8340000F00F0002281CBFE9
:105850004FF0FF30B0BDFAF705FD21460546A069BF
:1058600051F8142F5060A069026004F14400A16156
:10587000096000F07DFA2846FAF7F8FC2046FFF7A9
:1058800009FC41F21050C2F200000168002904BF77
:105890000020B0BD204688470020B0BD40F2C420A3
:1058A000C2F2000000687047F0B581B00090FAF7CE
:1058B000D9FC054640F2C420C2F20000046894F806
:1058C000340000F00F0001281ED1FAF7CBFC074688
:1058D0002046FFF707FC94F8340004F1440600F07A
:1058E000F00040F0020084F83400304600F040FA46
:1058F0003846FAF7BBFC41F21460C2F200000168BE
:1059000021B12046884701E004F144066A4630464A
:105910000021002700F05EF9304600F0BFF928466C
:10592000FAF7A4FCFFF776FB206B023008BF276371
:10593000002001B0F0BD0000B0B5044602200121F6
:1059400084F8340094F8360084F8350001FA00F049
:10595000A063FAF787FC21460546A06951F8142F89
:105960005060A069026004F14400A161096000F088
:10597000FFF92846FAF77AFC2046FFF78BFB41F245
:105980001050C2F20000016809B12046884740F279
:10599000C420C2F200000068002818BFFFF73AFBDD
:1059A0000020B0BDB0B5044690F8340000F00F0000
:1059B00001281CBF4FF0FF30B0BDFAF753FC05467D
:1059C0002046FFF78FFB94F8340000F0F00040F021
:1059D000020084F8340004F1440000F0C9F92846BC
:1059E000FAF744FC41F21460C2F200000168002999
:1059F00004BF0020B0BD204688470020B0BD000095
:105A000080B56FF0010102460163816952F8143FCD
:105A1000596081690B6082611260FFF73BFBBDE852
:105A20008040FFF7F7BA000080B5FAF71BFC40F2A0
:105A3000C421C2F20001096891F8342002F00F027B
:105A4000012A22D10A4652F814EFD2F804C0E645E2
:105A50001BD0CEF804C08B69C3F800E08A6140F225
:105A6000D42391F835C0C2F2000303EBCC03D3F882
:105A700004C0CCF80020C1F818C05A604B61FAF796
:105A8000F5FBFFF7C7FA002080BDFAF7EFFB002017
:105A900080BD00000028BCBF4FF0FF30704744F6C7
:105AA000D35CC1F2620CA0FB0C239A094FF47A7309
:105AB00002FB130002FB03F1584300F2E730A0FBA6
:105AC0000C0201EB9210704741F21C60C2F2000020
:105AD0000068704780B541F21C60C2F200000168A6
