:020000040800F2
:10000000B097002045010008813F00080D0200085C
:100010008D3900086D1000085146000800000000EE
:10002000000000000000000000000000DD400008AB
:10003000811100080000000097010008DF4000085F
:100040005F0100085F0100085F0100085F01000810
:100050005F0100085F0100085F0100085F01000800
:100060005F0100085F010008F51200085F01000849
:100070005F010008711000085F0100085F010008BF
:100080005F0100085F0100085F0100085F010008D0
:100090005F0100085F0100085F0100085F010008C0
:1000A0005F0100085F0100085F0100085F010008B0
:1000B0005F0100085F0100085F0100085F010008A0
:1000C0005F0100085F0100085F0100085F01000890
:1000D0005F010008694500085F01000871450008DC
:1000E0005F0100085F0100085F0100085F01000870
:1000F0005F0100085F0100085F0100085F01000860
:100100005F0100085F0100085F0100085F0100084F
:100110005F0100085F0100085F0100085F0100083F
:100120005F0100085F0100085F0100085F0100082F
:10013000DFF80CD000F0EEFC00480047930B0008FD
:10014000B09700200648804706480047FEE7FEE7D4
:10015000FEE7FEE7FEE7FEE7FEE7FEE7FEE7FEE777
:10016000B141000831010008EFF3108072B670470A
:1001700080F310887047324A1368012B04D04FF087
:10018000010313602F4A10602F4A11602F484FF06F
:10019000805101607047EFF3108272B62848016801
:1001A00091B14FF0000101602648016829B1EFF3D9
:1001B000098121E9F00F0068016023490968096895
:1001C000B1E8F00F81F3098882F310884EF0040E35
:1001D00070471D4908601B494FF00000086018492E
:1001E0004FF0010008601A481A49D0F8002041EA8F
:1001F0000201016015484FF0805101601648006807
:10020000006880F3088861B662B670471EF0040F7C
:100210000CBFEFF30880EFF3098020E9F00F40F8FE
:1002200004ED1EF0040F0CBF80F3088880F30988EA
:1002300000B505F0E1F85DF804EB4EF0040E7047F0
:10024000A08E0020F08B0020FC8B002004ED00E04D
:1002500020ED00E00000FFFF08ED00E040EA0103B0
:100260009B0703D009E008C9121F08C0042AFAD26C
:1002700003E011F8013B00F8013B521EF9D2704730
:10028000D2B201E000F8012B491EFBD270470022D8
:10029000F6E710B513460A4604461946FFF7F0FF85
:1002A000204610BDF0B480EA0102D40F4200B2EB48
:1002B000410F02D20246084611464A0042D0C30D01
:1002C000DDB2C1F3C752AD1A202D35DAC1F31601E4
:1002D00041F4000204B15242C5F1200602FA06F1CF
:1002E0002A411044B3EBD05F23D0C4B1012DA0EB61
:1002F000C35009DCF0BC4FF0004202EAC352DBB24B
:1003000000F5000000F04ABB400000F1807000EBF7
:10031000C350A0F1807040EAD170490009E049085B
:1003200041EAC071A0EBC35000F50000400800EBAB
:10033000C350F0BC00F029BB6142012202EB410135
:10034000001BF6E7F0BC704781F00041AAE780F09F
:100350000040A7E780EA010210B502F00043400028
:1003600022D04A001FD0010E01EB1261C0F35600EB
:10037000C2F3560240F4000042F40002A0FB022047
:1003800000047F39140400D0401C50EA124001D40C
:100390004000491EC2B20C0604EBD010401C4008BD
:1003A000802A02D003E0002010BD20F001000029C7
:1003B00000DA0020184310BD30B480EA010202F0D8
:1003C000004530F0004221F0004013D090B1C30D41
:1003D000D40DC2F31601C0F31600E41A41F4000173
:1003E00040F400027D34914201D3641C00E04900D6
:1003F000002C02DA30BC002070474FF400000023CC
:10040000914201D3891A034340084FEA4101F7D1D1
:1004100051B1914202D14FF0004105E002D24FF0BC
:10042000010101E06FF0010103EBC450284430BC2E
:1004300000F0ABBA2DE9FE4F804681EA0300C00F01
:100440000C46009021F0004123F00045B8EB02007B
:10045000A94105D24046214690461C460B4602461D
:1004600023F00040104347D0270DC7F30A00C3F321
:100470000A510290401A019040286BDAC3F313002E
:1004800040F4801B0098924620B10023D2EB030A6F
:1004900063EB0B0B01985946C0F14002504600F047
:1004A00053FA06460D4650465946019A00F05BFA4B
:1004B00010EB08006141002487EA115284EAE773D7
:1004C0001A4340D0009A62B3019A012A4FEA0752B8
:1004D00015DC001B61EB02014FF0004202EA0752FB
:1004E000CDE90042001C41F5801132462B4600F058
:1004F00092FA03B0BDE8F08F40462146F9E7001BB1
:1005000061EB0201001C41F5801300185B412018CB
:10051000A2F5001747EB030140EAD570B6196D410B
:1005200011E06D084FEA360645EAC0754FEA0752FA
:10053000001B61EB0201001C41F5801149084FEAE4
:1005400030000019514132462B4603B0BDE8F04F50
:1005500000F052BA0098012240000023D0EB0202C2
:1005600063EBE073009821464FEAE074B8EB0000BB
:1005700061EB0401E9E783F000435BE781F00041B0
:1005800058E72DE9FE4F81EA030404F0004421F00E
:10059000004100944FF0000B23F0004350EA0104A7
:1005A0005ED052EA03045BD0C3F30A54C1F30A5588
:1005B0002C44A4F2F3340194A0FB0254C1F31301C0
:1005C00041F48011C3F3130343F4801301FB02448D
:1005D00000FB034E840A970A44EA815447EA835792
:1005E000A4FB076802958D0A05FB07854FEA932C4B
:1005F00004FB0C542705029D4FEA065847EA1637BC
:10060000B5EB08056EEB070C870E920E47EA8117D3
:1006100042EA8312A7FB0201B6EB0B0164EB000474
:100620002B0D43EA0C335E1844EB1C50DA4651465E
:10063000E7FB0201C5F313044FEA0B3343EA1453FB
:100640004FEA0432019C43EA0603A4F10C0402942D
:10065000009CCDE900B400F0DEF903B0BDE8F08FF6
:1006600000200146F9E72DE9F04D81EA030404F08A
:10067000004B21F0004514464FF0000A23F00041E2
:1006800050EA050220D054EA01021DD0C5F30A57F2
:100690000246C5F31303C1F31300C1F30A5640F435
:1006A000801543F48013A7EB0608101BD64608F20A
:1006B000FD3873EB050002D308F1010801E0921840
:1006C0005B41B8F1000F03DA00200146BDE8F08D70
:1006D00000204FF48011064684460EE0171B73EB92
:1006E000050705D3121B63EB050306434CEA010C17
:1006F00049084FEA300092185B4150EA0107EDD1FA
:1007000052EA030012D082EA040083EA050108439A
:1007100005D0101BAB4106D20122002306E00022C7
:100720004FF0004302E06FF0010253101AEB060095
:100730004CEB085110EB0A0041EB0B01BDE8F04D0A
:1007400000F05AB9002801DBC0F10040002901DBAC
:10075000C1F10041814201D801207047002070475B
:10076000002801DBC0F10040002901DBC1F100419C
:10077000814201D20120704700207047002801DB30
:10078000C0F10040002901DBC1F10041814201D3E9
:100790000120704700207047002801DBC0F10040B5
:1007A000002901DBC1F10041814201D901207047DC
:1007B0000020704730B5041E71F1000404DB4FF0D7
:1007C0000044404264EB0101141E73F1000405DB98
:1007D0001C464FF00043524263EB0403101A8B4156
:1007E00001D3012030BD002030BD30B5041E71F1B1
:1007F000000404DB4FF00044404264EB0101141E8E
:1008000073F1000405DB1C464FF00043524263EBDA
:100810000403801A994101D2012030BD002030BD6F
:100820000EB5C10F80EAE0700844CA07002140F20B
:1008300033438DE80E000A460B4600F0ECF803B097
:1008400000BD0EB540F2334102910021CDE9001107
:100850000A460B4600F0DFF803B000BD00F000428E
:1008600030F000400AD0C10D01F56071C0F31600F0
:1008700042EA0151C2084007114370470020014677
:10088000704701F0004330B421F0004150EA01020A
:1008900006D00A0DA2F56072C1F31301002A02DC32
:1008A00030BC00207047440F44EAC104C100E01886
:1008B00030BC00EBC25000F068B830B50B460146C2
:1008C00000202022012409E021FA02F59D4205D3EF
:1008D00003FA02F5491B04FA02F52844151EA2F199
:1008E0000102F1DC30BD2DE9F05F054600209246A3
:1008F0009B4688460646814640241BE028464146E2
:100900004746224600F018F953465A46C01A91410C
:1009100010D311461846224600F016F82D1A67EB40
:1009200001084F4622460120002100F00DF817EB88
:1009300000094E41201EA4F10104DFDC4846314687
:100940002A464346BDE8F09F202A04DB203A00FAFD
:1009500002F1002070479140C2F1200320FA03F316
:10096000194390407047202A06DBCB17203A41FA02
:1009700002F043EAE07306E041FA02F3D040C2F12C
:10098000200291400843194670470029A8BF7047CC
:10099000401C490008BF20F00100704710B4B0FAB5
:1009A00080FC00FA0CF050EA010404BF10BC704750
:1009B00049B1CCF1200421FA04F411FA0CF118BF6A
:1009C000012121430843A3EB0C01CB1D4FEA006139
:1009D0004FEA102042BF002010BC704700EBC3500C
:1009E00010440029A4BF10BC7047401C490008BF38
:1009F00020F0010010BC704710B5141E73F1000404
:100A000008DA401C41F1000192185B411A4301D100
:100A100020F0010010BD2DE9F04D92469B4611B12A
:100A2000B1FA81F202E0B0FA80F220329046FFF78C
:100A30008BFF04460F4640EA0A0041EA0B01534689
:100A40005A46084313D0114653EA010019D0C8F1A1
:100A50004002504600F070F805460E465046594692
:100A60004246FFF771FF084305D0012004E020460D
:100A70003946BDE8F08D0020054346EAE0762C4378
:100A800037430A986305E40AA0EB08000022FD0A38
:100A900044EA47540A3002D500200146E9E701053F
:100AA00010196941DDE9084500196941BDE8F04DBB
:100AB000A2E7C1F30A52C1F3130140F2FF3341F43C
:100AC00080119A4202DA00200146704740F2334317
:100AD0009A42A2F2334202DC524200F02DB8FFF7F4
:100AE00033BF000030B5041E71F1000404DB4FF089
:100AF0000044404264EB0101141E73F1000405DB65
:100B00001C464FF00043524263EB0403994208BF76
:100B1000904230BD064C074D06E0E06840F001030E
:100B200094E8070098471034AC42F6D3FFF704FB73
:100B3000B8710008D8710008202A04DB203A21FA95
:100B400002F00021704721FA02F3D040C2F12002E6
:100B5000914008431946704730B58C1810F8012BA6
:100B600012F00F0301D110F8013B120906D110F861
:100B7000012B03E010F8015B01F8015B5B1EF9D16A
:100B800001E001F8013B521EFBD1A142E6D3002057
:100B900030BD80B505F040FD002080BDB0B54FF000
:100BA000000E4FF0070C0A0604BF5FFA8EF0B0BDCE
:100BB00080220FE005788CEA4E042A400EF0800572
:100BC00018BF0122B2EBD51F4FEA530208BF4FEA0C
:100BD0004E04A646D3B2002BECD101390130E2E736
:100BE00080B5A8B1D0F804C0BCF1000F10D090F8C7
:100BF00008E0002309E002EB420201335CF8220026
:100C0000884204BF0CEB820080BDDAB27245F2D993
:100C1000002080BDF0B585B006460020002ECDE94D
:100C20000200CDE900002DD03046FFF7D9FF044681
:100C300040B32078012702AD67F39F108DF80800BC
:100C4000717AA2683078002918BF0132511CCAB2EB
:100C5000294602F07FFC767A012E16D1207869466B
:100C600067F39F108DF80000A068023002E0AB5CD3
:100C700001378B54FAB29042F9DCC1B26846FFF7F3
:100C80008DFF03E04FF0FF302FE00020022E18D13F
:100C9000217801206A4660F39F118DF80010A16849
:100CA000023102E0EF5C0130D754C3B29942F9DC63
:100CB00000206A4603E012F8013B013958400B0658
:100CC000F9D1000602D06FF001000EE000200122F1
:100CD0006060A16806E0070201326760EB5C43EAEE
:100CE00000206060D3B29942F5DA05B0F0BDE0B5FE
:100CF00001464FF0FF300029CDE9000004D008780C
:100D00006946082202F06CFC02B080BD2DE9FC416E
:100D100004460020002CCDE900002FD0C9B22046A7
:100D2000FFF75EFF054648B3287800216E4600F0C5
:100D30003F008DF80000686803E0BA1A0131B05432
:100D40000012AF68CAB29742F7DC94F80980B8F194
:100D5000000F07D0781CC1B23046FFF71FFFF11912
:100D60004870AF680220B8F1000F694608BF012043
:100D70003844C2B2207802F033FC01E04FF0FF307B
:100D800002B0BDE8F08100000138072888BF704735
:100D9000DFE800F004070A0D10131619012000F017
:100DA000ADBA022000F0AABA032000F0A7BA0420CE
:100DB00000F0A4BA052000F0A1BA062000F09EBA07
:100DC000072000F09BBA082000F098BAF8B5044656
:100DD00002F01EFB244EA020B047244FB847250A3E
:100DE0002846B047B847E0B2B047B8476FF05E005A
:100DF00000EB450402F00CFBE0B2B047B84700201E
:100E000002F09CFA044602F01BFB204601B0F0BD44
:100E1000B0B50C460546FFF7D9FFA04208BFB0BDEC
:100E200028462146BDE8B040AFF30080F8B50C4637
:100E3000054602F0EDFA0C4EA020B0470B4FB84724
:100E4000280AB047B847E8B2B047B8472046B0478D
:100E5000B84702F0F5FA0A2004F0BEFF2846214602
:100E6000BDE8F840FFF7D4BFC5330008753400086B
:100E70002DE9F0475E4F054616460C4638780528A2
:100E800000F2A780DFE800F003940E2333A70020D0
:100E9000C7E90E0038644FF07E503060304603F0F2
:100EA00099FB0FE0B86B0130B8634FF07E503060B3
:100EB000304603F08FFBFD632946386CFFF742FC98
:100EC00000B93D6428462146FFF73CFC7AE0B86B48
:100ED0000130B86300203060304603F07BFBF86BD4
:100EE0002946FFF74BFC002868D1FD6366E000202F
:100EF0003060304603F06EFB4FF07E5040F201113F
:100F000038635948018101218172D7E90E40396C5B
:100F1000FFF71AFAFFF7A2FC364D00222B46FFF727
:100F200030FB354A354BFFF72CFB0B463449024664
:100F30000020FFF798FBFFF7A4FC7864FFF78EFC16
:100F4000304B4FF03332FFF71CFBFFF79AFCDFF812
:100F50009CAB7865CAF89000FFF780FC804620467D
:100F60008946FFF76EFC00222B4604460E46FFF72B
:100F700008FB02460B4640464946FFF774FBFFF765
:100F800080FC0546B8652046314600224FF07F536D
:100F9000FFF7F7FA42464B46FFF7F3FAFFF771FC0B
:100FA0007863CAE9255003F01FFE04F07FFD0DE0D1
:100FB00000203060304603F00DFB3D64284621469A
:100FC000FFF7DCFB002818BFBDE8F0873878013058
:100FD0003870BDE8F087C64A02F1780413CCFFF7F9
:100FE00050FC21463246BDE8F04702F0CBBF00BFBF
:100FF000000000200000E03F894160E5D022094068
:10100000000079403333E33FF8B5144E3068FFF702
:1010100025FCB74F02460B46D7E91E542846214609
:10102000FFF7A9FA0E4A0F4B21F00041FFF7C2FB70
:1010300058B97068411CB0F5957F716007DD0A48AA
:101040000021C7E92A54817001E000207060284621
:101050002146FFF716FC3060F8BD00BF8405002074
:10106000F168E388B5F8E43E94060020FEE700004E
:10107000014801F05BB800BF700A002010B5D0E94C
:101080000FCE012404FA0EF4CCF804400468636027
:1010900040681028084608BF1046A06008BF0A46EE
:1010A000E26010BD10B5A62004F096FE2A4C6078D0
:1010B0002F281ED8DFE800F04040404018181818CC
:1010C00018181818434343431818181818181818F4
:1010D0004646464618181818181818184949494914
:1010E000181818181818184C00F006FD6078013010
:1010F00060701A484FF400710161207801380728A8
:1011000088BF10BDDFE800F00406080A0C0E1012BC
:101110001A480CE018480AE0164808E0144806E0AF
:10112000124804E0104802E00E4800E00C4801219B
:10113000BDE81040FFF7EABD00F020F9D6E700F067
:101140000BFAD3E700F0F8FAD0E700F0E5FBCDE7C3
:1011500000F0D2FC0020CBE7700400206C000020DF
:1011600004040020F8030020EC030020E00300202A
:10117000D4030020C8030020BC030020B0030020DB
:10118000704700000138072888BF7047DFE800F08B
:10119000040B10161C22282E754810210122A0F5E0
:1011A000805001F03ABA72488021012201F035BA2C
:1011B0006F484FF48071012201F02FBA6C484FF450
:1011C0000071012201F029BA69484FF480610122BF
:1011D00001F023BA66484FF40061012201F01DBA04
:1011E00063484FF48051012201F017BA60484FF470
:1011F0000051012201F011BAF8B53C4C0026E51C63
:1012000005E0B0B2FFF7E2FD05F801090136042E52
:10121000F7D12646CF4D002756F8030BC5F89000AE
:1012200006E0381D80B2FFF7D1FD06F8010901374D
:10123000042FF6D12646002756F8030BC5F8940074
:1012400007E007F1080080B2FFF7C0FD06F80109CA
:101250000137042FF5D12646002756F8030BC5F8B1
:10126000980007E007F10C0080B2FFF7AFFD06F829
:1012700001090137042FF5D12646002756F8030B44
:10128000C5F8100107E007F1100080B2FFF79EFDDE
:1012900006F801090137042FF5D12646002756F834
:1012A000030BC5F8140107E007F1140080B2FFF743
:1012B0008DFD06F801090137042FF5D126460027D8
:1012C00056F8030BC5F8A00007E007F1180080B23C
:1012D000FFF77CFD06F801090137042FF5D12068DE
:1012E000FFF7BCFAC5E92A01F8BD00BF5804002089
:1012F00058090020102001F0A1B80000013807288B
:1013000088BF7047DFE800F0040B10161C22282E5F
:10131000174810210022A0F5805001F07EB9144832
:101320008021002201F079B911484FF48071002228
:1013300001F073B90E484FF40071002201F06DB94D
:101340000B484FF48061002201F067B908484FF460
:101350000061002201F061B905484FF4805100227C
:1013600001F05BB902484FF40051002201F055B979
:1013700000180140EFF3108072B6FEE72DE9F04748
:10138000DFF8CC8198F80000032888BFBDE8F0871B
:10139000DFE800F002B4182CE04C04212046FFF7EF
:1013A00039FCDF4D686002F083FEC5E90601DD48C7
:1013B00048F26201816520461021FFF7A7FC012059
:1013C0002870BCE0D54C04212046FFF723FCD44D07
:1013D000686002F06DFEC5E90801D24848F262017A
:1013E000816520461021FFF791FCA8E0CB4C042139
:1013F0002046FFF70FFCCA4D686002F059FEC5E9B0
:101400000A01C84848F26001816520461021FFF7B3
:101410007DFC05F11803D5E9024A0FCBFFF7ABF8C5
:10142000C14B00224FF00009FFF7ABF8D5E90A23C2
:1014300006460F4620465146FFF79DF802460B46EA
:1014400030463946FFF70FF9B84AB94DB94EC2E9EF
:10145000000128464FF400410122B04705F5006421
:101460004FF4807100222046B04705F5806040218E
:101470000022B04720464FF400410122B0472046E9
:101480004FF480410022B04720464FF40051012222
:10149000B04720464FF480510022B04720464FF419
:1014A00000610122B04720464FF480610022B0471E
:1014B00020464FF400710122B0472046012100224E
:1014C000B047204602210122B047204604210022D5
:1014D000B047204608210122B047204610210022B3
:1014E000B047204620210122B0472046402100225B
:1014F000B047204680210122B04724E0874C0421D8
:101500002046FFF787FB864D686002F0D1FDC5E9F4
:101510000201844848F26101816520461021FFF7ED
:10152000F5FB83484FF48071002200F5806420466B
:1015300001F073F820468021012201F06EF898F83E
:10154000000000F1010988F80090BDE8F08700BFB5
:10155000A3060020580900202DE9F047DFF8B881E4
:1015600098F80000032888BFBDE8F087DFE800F0A6
:1015700002AA0E22E14C04212046FFF74BFBE04D6E
:10158000686002F095FDC5E908010AE0DB4C042122
:101590002046FFF73FFBDA4D686002F089FDC5E9A0
:1015A0000601D84848F26201816520461021FFF704
:1015B000ADFBA8E0D14C04212046FFF72BFBD04D1A
:1015C000686002F075FDC5E90201CE4848F260018D
:1015D000816520461021FFF799FB05F11803D5E935
:1015E000024A0FCBFEF7C7FFC74B00224FF000099E
:1015F000FEF7C7FFD5E90A2306460F4620465146A7
:10160000FEF7B9FF02460B4630463946FFF72BF886
:10161000BE4ABF4DBF4EC2E9020128464FF4004109
:101620000122B04705F500644FF480710022204686
:10163000B04705F5806040210022B04720464FF4B6
:1016400000410122B04720464FF480410022B047BC
:1016500020464FF400510122B04720464FF48051FC
:101660000022B04720464FF400610122B0472046D7
:101670004FF480610022B04720464FF400710122F0
:10168000B047204601210022B04720460221012216
:10169000B047204604210022B047204608210122FD
:1016A000B047204610210022B047204620210122C9
:1016B000B047204640210022B04720468021012229
:1016C000B04724E08D4C04212046FFF7A3FA8C4D4F
:1016D000686002F0EDFCC5E90A018A4848F2610140
:1016E000816520461021FFF711FB89484FF4807176
:1016F000012200F58064204600F08FFF2046802103
:10170000002200F08AFF98F8000000F1010988F833
:101710000090BDE8F08700BFA4060020B0030020C1
:10172000700400206C0000200070A74058090020C1
:10173000000C01401B2600082DE9F047DFF8B881B6
:1017400098F80000032888BFBDE8F087DFE800F0C4
:1017500002AA0E22E14C04212046FFF75BFAE04D7D
:10176000686002F0A5FCC5E906010AE0DB4C042133
:101770002046FFF74FFADA4D686002F099FCC5E9A0
:101780000801D84848F26201816520461021FFF720
:10179000BDFAA8E0D14C04212046FFF73BFAD04D1A
:1017A000686002F085FCC5E90A01CE4848F2600194
:1017B000816520461021FFF7A9FA05F11803D5E944
:1017C000024A0FCBFEF7D7FEC74B00224FF00009AD
:1017D000FEF7D7FED5E90A2306460F4620465146B6
:1017E000FEF7C9FE02460B4630463946FEF73BFF80
:1017F000BE4ABF4DBF4EC2E9040128464FF4004126
:101800000122B04705F500644FF4807100222046A4
:10181000B04705F5806040210022B04720464FF4D4
:1018200000410122B04720464FF480410022B047DA
:1018300020464FF400510122B04720464FF480511A
:101840000022B04720464FF400610122B0472046F5
:101850004FF480610022B04720464FF4007101220E
:10186000B047204601210022B04720460221012234
:10187000B047204604210022B0472046082101221B
:10188000B047204610210022B047204620210122E7
:10189000B047204640210022B04720468021012247
:1018A000B04724E08D4C04212046FFF7B3F98C4D5E
:1018B000686002F0FDFBC5E902018A4848F2610157
:1018C000816520461021FFF721FA89484FF4807185
:1018D000002200F58064204600F09FFE2046802113
:1018E000012200F09AFE98F8000000F1010988F842
:1018F0000090BDE8F08700BFA5060020B0030020DF
:10190000700400206C0000200070A74058090020DF
:10191000000C01401B2600082DE9F047DFF8B881D4
:1019200098F80000032888BFBDE8F087DFE800F0E2
:1019300002AA0E22694C04212046FFF76BF9684D7C
:10194000686002F0B5FBC5E908010AE0634C0421B8
:101950002046FFF75FF9624D686002F0A9FBC5E918
:101960000601604848F26201816520461021FFF7B8
:10197000CDF9A8E0594C04212046FFF74BF9584D0A
:10198000686002F095FBC5E90201564848F2600123
:10199000816520461021FFF7B9F905F11803D5E953
:1019A000024A0FCBFEF7E7FD4F4B00224FF0000934
:1019B000FEF7E7FDD5E90A2306460F4620465146C5
:1019C000FEF7D9FD02460B4630463946FEF74BFE80
:1019D000464A474D474EC2E9060128464FF40041AA
:1019E0000122B04705F500644FF4807100222046C3
:1019F000B04705F5806040210022B04720464FF4F3
:101A000000410122B04720464FF480410022B047F8
:101A100020464FF400510122B04720464FF4805138
:101A20000022B04720464FF400610122B047204613
:101A30004FF480610022B04720464FF4007101222C
:101A4000B047204601210022B04720460221012252
:101A5000B047204604210022B04720460821012239
:101A6000B047204610210022B04720462021012205
:101A7000B047204640210022B04720468021012265
:101A8000B04724E0154C04212046FFF7C3F8144D5D
:101A9000686002F00DFBC5E90A01124848F26101D5
:101AA000816520461021FFF731F911484FF480710C
:101AB000012200F58064204600F0AFFD2046802121
:101AC000002200F0AAFD98F8000000F1010988F852
:101AD0000090BDE8F08700BFA6060020B0030020FC
:101AE000700400206C0000200070A74058090020FE
:101AF000000C01401B2600082DE9F041DFF8CC6402
:101B00003078072888BFBDE8F081DFE800F0043AAC
:101B100055711F8CA4C0DFF8E0040421FFF77AF8A8
:101B2000DFF8B044606002F0C3FAC4E90C010120A0
:101B3000FFF728FBDFF8BC0448F260018165DFF89D
:101B4000D8041021FFF7E2F802209AE0DFF8BC0485
:101B50000421FFF75FF8DFF87C44606002F0A8FA28
:101B6000C4E914010520FFF70DFBDFF8880448F2F3
:101B700060018165DFF890041021FFF7C7F80620A7
:101B80007FE0DFF894040421FFF744F8DFF84444D1
:101B9000606002F08DFAC4E90E010220FFF7F2FA4C
:101BA000DFF8500448F260018165DFF86804102115
:101BB000FFF7ACF8032064E0DFF8580404210424A4
:101BC000FFF728F8DFF80C54686002F071FAC5E9F5
:101BD00010010320FFF7D6FADFF8180448F260017D
:101BE0008165DFF82C041021FFF790F82C7049E094
:101BF000DFF81C040421FFF70DF8DFF8D84360601C
:101C000002F056FAC4E912010420FFF7BBFADFF82C
:101C1000E40348F260018165DFF8F0031021FFF76B
:101C200075F805202DE0DFF8E0030421FEF7F2FF50
:101C3000E84C606002F03CFAC4E916010620FFF7A8
:101C4000A1FAEC4848F260018165EE481021FFF7E7
:101C50005DF8072015E0EB480421FEF7DBFFDD4CC3
:101C6000606002F025FAC4E918010720FFF78AFA3C
:101C7000E04848F260018165D5481021FFF746F839
:101C800008202070307801303070BDE8F081D048F5
:101C90000421FEF7BFFFCF4F786002F009FA044637
:101CA0000D4607F13003C7E904450FCBFEF7C2FB31
:101CB000D7E91023FEF7BEFBD7E91223FEF7BAFBE4
:101CC000D7E91423FEF7B6FBD7E91623FEF7B2FBDC
:101CD000D7E91823FEF7AEFB02460B4620462946FD
:101CE000FEF7A8FB00224FF07F53FEF74AFCBA4AEA
:101CF000BA4BFEF7B8FCBA4ABA4BFEF79BFBBA4A9E
:101D0000BA4BFEF797FBBA4AC2E908010820FFF771
:101D100039FAB84848F261018165B7481021FEF7E9
:101D2000F5FF02F05DFF03F0C1FE78782F284ED05A
:101D3000172800F09A80232800F0ED800B2840F04F
:101D40004081AE48AE4D4FF4004100228046A84786
:101D500008F500644FF4807101222046A84708F579
:101D6000806040210022A84720464FF40041012214
:101D7000A84720464FF480410122A84720464FF44F
:101D800000510022A84720464FF480510022A84766
:101D900020464FF400610122A84720464FF480619D
:101DA0000022A84720464FF400710122A847204690
:101DB00001210022A847204602210122A8472046EF
:101DC00004210122A84720460821002244E08B4834
:101DD0008B4D4FF4004100228046A84708F500646F
:101DE0004FF4807101222046A84708F58060402109
:101DF0000122A84720464FF400410022A847204670
:101E00004FF480410022A84720464FF400510122A0
:101E1000A84720464FF480510022A84720464FF49F
:101E200000610122A84720464FF480610022A847A4
:101E300020464FF400710122A847204601210122CB
:101E4000A847204602210022A8472046042100225C
:101E5000A847204608210122A84720461021002239
:101E6000A8472046202101224CE06448644D4FF4ED
:101E7000004100228046A84708F500644FF48071B5
:101E800001222046A84708F5806040210022A8478B
:101E900020464FF400410122A84720464FF48041DC
:101EA0000022A84720464FF400510122A8472046AF
:101EB0004FF480510122A84720464FF400610022D0
:101EC000A84720464FF480610022A84720464FF4DF
:101ED00000710122A847204601210022A847204680
:101EE00002210122A847204604210022A8472046BB
:101EF00008210122A847204610210122A847204698
:101F000020210022A847204640210022A847204641
:101F10008021012254E03948394D4FF4004100221C
:101F20008046A84708F500644FF4807101222046DE
:101F3000A84708F5806040210022A84720464FF4BA
:101F400000410122A84720464FF480410022A847C3
:101F500020464FF400510122A84720464FF48051FB
:101F60000022A84720464FF400610122A8472046DE
:101F70004FF480610122A84720464FF400710022EF
:101F8000A847204601210022A8472046022101221D
:101F9000A847204604210022A84720460821012204
:101FA000A847204610210022A847204620210122D0
:101FB000A847204640210122A84720468021002230
:101FC000A8470120387000205EE600BFA706002069
:101FD00004040020700400203D0AD7A370FD3340A4
:101FE000A95956500768E13EBB911E2B9DB4F5BE22
:101FF000580900206C000020B0030020000C0140B4
:102000001B260008F8030020EC030020E00300205A
:10201000D4030020C8030020BC03002090F8211046
:10202000022912D1016801230A6822F00E020A6017
:102030000A6822F001020A60D0E90F1203FA02F2E4
:102040004A60002180F8213002E0042181630121EF
:10205000002280F8202008467047000090F82110E8
:10206000022919D10268116821F00E01116011686E
:1020700021F001011160A04901F17C039A420FD9BE
:10208000A54B9A4224D0A54B9A4223D0A44B9A4206
:1020900022D14FF4807327E004218163012143E0C2
:1020A000964B9A4226D0964B9A4225D0954B9A420F
:1020B00024D0954B9A4224D0944B9A4217D0944BFB
:1020C0009A4221D0934B9A4211D14FF080721DE079
:1020D000012309E0102307E001F5886C4FF48033F9
:1020E000624508BF4FF48053C1F800340FE04FF44D
:1020F00080320BE0012209E0102207E04FF48072E9
:1021000004E04FF4805201E04FF480120A60002195
:10211000012280F8201080F82120426B22B180B586
:1021200090470021BDE880400846704710B5D0E9CF
:102130000FC3DCF80020D0F800E0DEF8001011F04A
:10214000040F1EBF04249C4014EA020424D18C070F
:102150003ED502249C4014403AD0DEF8001011F025
:10216000200F08D1DEF8001021F00A01CEF800108F
:10217000012180F82110604A02F17C018E4542D98C
:1021800065498E456FD065498E456ED064498E4550
:102190006DD14FF4007172E0DEF80010564A11F074
:1021A000200F02BFDEF8001021F00401CEF800106D
:1021B00002F17C018E453ED957498E4562D0574980
:1021C0008E4561D056498E4560D14FF4806165E0FF
:1021D000090740F1908008219940114008BF10BDC7
:1021E000DEF8001021F00E01CEF80010012101FAF6
:1021F00003F2CCF804200022816380F8202080F8CC
:102200002110016B73E03D498E4550D03C498E450D
:102210004FD03C498E454ED03B498E454ED03B4930
:102220008E453ED03A498E454BD03A498E4538D1FD
:102230004FF0007147E031498E454AD030498E4514
:1022400049D030498E4548D02F498E4548D02F4936
:102250008E4529D02E498E4545D02E498E4523D115
:102260004FF0806141E0022109E0202107E002F502
:1022700088634FF400319E4508BF4FF40051C2F807
:10228000001421E0042109E0402107E002F5886301
:102290004FF480219E4508BF4FF48041C2F80014DE
:1022A00024E04FF400310EE04FF480211DE00221C4
:1022B00009E0202107E04FF4007104E04FF40051E1
:1022C00001E04FF400111160002180F82010816AB4
:1022D0000DE0042109E0402107E04FF4806104E0B3
:1022E0004FF4804101E04FF480011160C16A11B1E7
:1022F000BDE81040084710BD04000240080002403D
:102300001C000240300002404400024058000240DD
:102310006C00024080000240080402401C0402409D
:102320003004024001460120002908BF7047B0B5C3
:1023300002221C4C81F82120194A0B6802F1080C7A
:10234000634538BFA2F5806238BF04F5806403EBB3
:10235000040C1424BCFBF4F4A400C1E90F2443F6DC
:10236000F0741A6822EA040CD1E90142D1E903E5CC
:1023700044EA0C04224342EA0E022A434D692A43EE
:102380008D692A43CD692A431A6000228A6381F845
:10239000202081F821000020BDE8B040704700BF38
:1023A00000040240F8FBFDBF10B5044690F8200081
:1023B000012820D0012084F8200094F82100012871
:1023C00016D1022084F821000020A063D4F800C0B8
:1023D000DCF8000020F00100CCF800002046FEF7F9
:1023E0004DFE2068E26A01683AB141F00E010AE050
:1023F000002084F8200002200BE021F0040101609D
:10240000016841F00A010160016841F001010160C9
:102410000020C0B210BD000080B5C00658BF80BD0E
:102420000548402100F0ECF800B180BD02F0E0FB6F
:10243000BDE8804003F03ABB0008014003490A6848
:10244000024214BF08607047FFF7E6BF1404014062
:102450002DE9FC4F81465F4806234FF0000C4FF0FA
:1024600001084FF00F0E4FF0000A81455A4808BF8F
:10247000052348444FEAB022052A4FF0000238BF36
:102480004FEAB02300930C6834FA02F508BFBDE8A8
:10249000FC8F08FA02F73C4200F098804D68032D4B
:1024A00016D9112D26D0122D28D04E48854213D092
:1024B0004D48854210D04D4885420DD04C4885424C
:1024C0000AD04C48854207D04B48854204D022E0D0
:1024D000DFE805F002181B1F8C6844B1012C4FF097
:1024E000080A14BFC9F81470C9F8107013E04FF04F
:1024F000040A10E0CC6804F1040A0CE0CC6804F192
:102500000C0A08E0D1F80CA005E0CC6804F1080A38
:1025100001E04FF0000A082A6446484628BF203CE4
:1025200028BF043006680EFA04F50AFA04F426EA15
:1025300005052C430460C879C00647D57948274E65
:1025400022F0030503460068B346354440F001001D
:1025500018601868294B00F0010001900CF00C0085
:10256000019E0EFA00F49E46EE58009B03FA00F01E
:1025700026EA04041A4B204345F80E004FF00F0ED4
:102580004D68DBF8080015F4801F0CBF20EA070433
:1025900040EA0704A802CBF80840186854BF20EAB4
:1025A000070440EA0704A8031C60DBF8040054BFDA
:1025B00020EA070440EA0704E803CBF80440DBF80C
:1025C000000054BFB8433843CBF800000CF1040CB2
:1025D000013258E7001C014000F8FEBF0004014032
:1025E0000C04014000001110000012100000211026
:1025F00000002210000031100000321008FCFFFF24
:102600008068084018BF01207047C26802EA0103D1
:10261000914341EA034101617047002A08BF090460
:102620000161704730488068704700BFB0B504460C
:1026300018B320684CF6CC41016045F25551016059
:1026400061684160A1688160FFF7ECFF0546206882
:10265000C16811F0030F0BD0FFF7E4FF401B2828DF
:10266000F5D32068C06810F0030FF0D0032005E018
:102670004AF6AA210160002000E00120C0B2B0BDEE
:1026800000684AF6AA2101600020704780B507481B
:10269000016841F010010160032000F089F80F206B
:1026A00000F006F800F022F8002080BD0020024073
:1026B00070B50D4E04464FF47A713078B1FBF0F0EE
:1026C0009A490968B1FBF0F000F01AFB01250F2CC4
:1026D00008D838B94FF0FF3021460022002500F01D
:1026E00045F87460284670BD5C00002082B00D483B
:1026F0000222016841F001010160016801F001015D
:1027000001910199416841F080514160406800F0B9
:102710008050009000980448016862F31A610160DB
:1027200002B07047181002400400014000280CDB82
:1027300000F01F010122400902FA01F1034A42F8A8
:102740002010BFF34F8FBFF36F8F704780E100E021
:10275000002808DB00F01F010122400902FA01F104
:10276000014A42F82010704700E100E010B5164B16
:102770001B68C3F3022E0EF1040CAEF103048EF0BD
:102780000703BCF1070F4FF0010C38BF0024042BE6
:1027900028BF04230CFA03F3013B19400CFA04F39D
:1027A000013BA1401A401143BDE8104001F052BF67
:1027B00005494FF6FF030A681A4060F30A220348EE
:1027C00010430860704700BF0CED00E00000FA0500
:1027D0002DE9F04188460446002800F08880464FE5
:1027E0004FF48050395801F0070141450AD2395859
:1027F00021F0070141EA08013950385800F007007C
:10280000404574D1206810F0020F11D0410742BF3B
:10281000796841F4E0617960010742BF796841F469
:10282000605179607968A26821F0F0011143796004
:10283000C00727D06068012804D1396811F4003F2F
:1028400008D154E03968022802D1890102D44EE04F
:1028500089074CD5796821F0030108437860FFF7B8
:10286000E1FE064641F288357868616800F00C00A8
:10287000B0EB810F06D0FFF7D5FE801BA842F3D93D
:10288000032035E04FF48050395801F007014145ED
:102890000AD9395821F0070141EA0801395038585E
:1028A00000F00700404522D1206810F0040F05D049
:1028B0007968E26821F4E06111437960000706D588
:1028C0007868216920F4605040EAC100786000F027
:1028D00031F87968094AC1F30311515CC8401349C2
:1028E000086007480068FFF7E3FE002000E00120D1
:1028F000C0B2BDE8F08100BF0010024008700008BF
:10290000600000200948FA49094A00680968C1F3D3
:102910000221515CC8407047F748F549044A0068F5
:102920000968C1F3C221515CC840704768000020AB
:102930001870000810B50D4C0D48226802F00C0309
:10294000082B18BF10BDC2F383430AA112F4803FC5
:10295000CB5C02D10C48584310BD216809A25843F2
:10296000C1F34041515CB0FBF1F010BD04100240D6
:1029700000127A0002030405060708090A0B0C0D71
:102980000E0F10100102000000093D002DE9FE436A
:102990000446002800F05C812078D44ED44FC00754
:1029A000B14650D0386800F00C00042818D03868C0
:1029B00000F00C00082803D1386810F4803F0FD1D4
:1029C0006068A0B1B0F5803F06D03168B0F5A02FA7
:1029D00025D141F480203060306840F4803024E01C
:1029E000306810F4003F2ED0606860BB30E1306882
:1029F00020F480303060306820F480203060FFF7B1
:102A000011FE0546D9F800004E4610F4003F1AD0DA
:102A1000FFF708FE411B03206429F3D919E121F4D3
:102A200080303060306820F480203060FFF7FAFD9D
:102A30000546306810F4003F05D1FFF7F3FD401B59
:102A40006428F6D9E6E0207880072FD5386810F0A2
:102A50000C0F08D0386800F00C0008280BD138683B
:102A600010F4803F07D1306810F0020F17D02069B2
:102A7000012814D0ECE021699E48002900F08A80EA
:102A800001210160FFF7CEFD0546306810F0020F0E
:102A900005D1FFF7C7FD401B0228F6D9BAE0306820
:102AA000616920F0F80040EAC1003060207800073A
:102AB00030D5A06980B18F480121C0F88014FFF79C
:102AC000B1FD0546386A10F0020F16D1FFF7AAFDD6
:102AD000401B0228F6D99DE086480021C0F88014EA
:102AE000FFF7A0FD0546386A10F0020F12D0FFF77D
:102AF00099FD401B0228F6D98CE07F484FF4FA512B
:102B00000068B0FBF1F0029000BF0298411E00285F
:102B10000291F9D12078400740F18580B86910F022
:102B2000805F0BD1B8694FF0010840F08050B86168
:102B3000B86900F080500190019801E04FF0000862
:102B40006E4E484659F8060010F4807F14D159F8AB
:102B5000060040F4807049F80600FFF763FD054663
:102B6000484659F8060010F4807F05D1FFF75AFD5A
:102B7000401B6428F4D94DE0E068F0B1012805D08D
:102B8000F969052831D141F00400F861F86940F095
:102B9000010030E000210160FFF744FD0546484692
:102BA000D9F8000010F0020F3FF480AFFFF73AFDB4
:102BB000411B03200229F2D94BE0F86920F0010003
:102BC000F861F86920F00400F861FFF72BFD054675
:102BD00041F28836F86910F0020F1DD0FFF722FD90
:102BE000411B0320B142F5D933E021F00100F86127
:102BF000F86920F00400F861FFF714FD054641F282
:102C00008836F86910F0020F06D1FFF70BFD401B64
:102C1000B042F6D903201CE0B8F1000F1EBFB8691E
:102C200020F08050B861E669002E5DD0386800F071
:102C30000C00082811D1012E0AD03868216A00F44E
:102C400080328A4204D1616A00F4701088424BD00D
:102C50000120C0B203B0BDE8F083264900208846B9
:102C60000866FFF7DFFC0546022E0DD146464846B2
:102C7000D9F8000010F0007F13D0FFF7D3FC411B00
:102C800003200229F3D9E4E74846D9F8000010F000
:102C9000007F29D0FFF7C6FC411B03200229F3D98E
:102CA000D7E7206AB0F5803F05D13968A26821F4E2
:102CB0000031114339603968626A104321F474119C
:102CC0000843386001203066FFF7ACFC04464846F4
:102CD000D9F8000010F0007F06D1FFF7A3FC011B1C
:102CE00003200229F3D9B4E70020B2E70010024024
:102CF0000410024000004242680000200060FEFF15
:102D0000411E0020B0EB116F1CBF01207047044A28
:102D1000F023516003490B700721906011607047E8
:102D200010E000E023ED00E0704710B504460068B5
:102D3000416994F84120212A15D111F0800101D177
:102D400011E0206850E8050F216820F0800041E87C
:102D50000502002AF5D1A06B08B1FFF75FF9204604
:102D600001F0C9FA2068416994F84220222A14D15E
:102D700011F0400101D110E0206850E8050F2168F2
:102D800020F0400041E80502002AF5D1E06B08B1CF
:102D9000FFF744F9204601F087FA002010BD704784
:102DA000BCB50446006802680146D0F80CE051F852
:102DB000143F12F00F0F65D00EF4907503F0010C64
:102DC0005CEA050368D0D0071FBF1EF48070606CFA
:102DD00040F001006064500706D5BCF1000F1EBF33
:102DE000606C40F002006064900706D5BCF1000FF3
:102DF0001EBF606C40F004006064100708D50EF040
:102E0000200050EA0C001EBF606C40F008006064B7
:102E1000606C002800F009810EEA0200800605D5EA
:102E2000204601F076FA206800F114010868616C10
:102E300000F0400001F00801084300F0E280204665
:102E400001F032FA2068416911F0400F01D1D3E05E
:102E5000206850E8050F216820F0400041E8050295
:102E6000002AF5D1E06B002800F0C6807449416368
:102E7000FFF7F4F8002800F0D880E06B416BBDE864
:102E8000BC4008470EEA020111F0200F06D0204690
:102E9000BDE8BC4001F03DBA0EEA0201226BCB0650
:102EA0003DD5012A3BD10021019101680191416882
:102EB00001910199416911F0400F41D1E18DA28D3D
:102EC000E38D002B00F0B180511A0A0401D1ACE06F
:102ED000206850E8030F226820F4907042E8030352
:102EE000002BF5D1206850E8050F226820F0010082
:102EF00042E80503002BF5D1202084F84200002091
:102F00002063206850E8030F226820F0100042E898
:102F10000303002BF5D1022089B2606357E00A0653
:102F20005AD4490640F18180C16821F04001C16056
:102F3000202084F841002046BDE8BC4000F0ABB939
:102F4000E26B11684B6899B200296ED0B4F82CC0BE
:102F500061456AD2E3859169202901D131E0206879
:102F600050E8030F216820F4807041E80302002A32
:102F7000F5D1206850E8050F216820F0010041E8F4
:102F80000502002AF5D1206850E8050F216820F0DD
:102F9000400041E80502002AF5D1202084F84200D3
:102FA00000202063206850E8030F216820F0100003
:102FB00041E80302002AF5D1E06BFFF72FF8B4F8DF
:102FC0002CC002206063E08DACEB000081B2204693
:102FD000BDE8BC40FFF7A8BE94F84110212924D1D8
:102FE000A168B1F5805F01D1216981B1216A4A1CD4
:102FF00022620978416011E02046BDE8BC40FFF73D
:10300000CEBE2046FFF7CBFE00206064BCBD216A27
:1030100031F8022B6FF35F2242602162E18C4FF6A0
:10302000FF7201391142E18400D0BCBDC16821F0BA
:103030008001C160C16841F04001C160BCBD00BFFA
:10304000B341000810B5044648B394F8410028B9CC
:10305000002084F84000204600F024F8242084F862
:1030600041002068C16821F40051C160204601F090
:10307000B5F92068016921F490410161416921F0AD
:103080002A014161C16841F40051C1600020202142
:10309000606484F8411084F84210606310BD012020
:1030A00010BD0000F0B585B0002704464149CDE9C8
:1030B0000377CDE901770068884233D03E498842E2
:1030C00076D191483D4C01AD016841F480410160E9
:1030D000016801F4804100910099016841F0040108
:1030E00001602946006800F004000090009802206A
:1030F00002904FF400700190032004902046FFF7E7
:10310000A7F900204FF480610290019103902046BE
:103110002946FFF79DF9252000210022FFF726FB15
:10312000252043E0784801AE416841F480214160A8
:10313000416801F4802100910099016841F0080183
:1031400001603146006800F00800009000980220FD
:1031500002904FF48060019003200490EA4800F54B
:1031600080652846FFF774F94FF4006002973146F6
:10317000019028460397FFF76BF9114D1148802104
:10318000C5E900072846C5E90271C5E90477C5E924
:103190000677FFF7C7F808B1FEF7ECF82720002103
:1031A0000022E5636C62FFF7E1FA2720FFF7D0FA0F
:1031B00005B0F0BD00480040003801400008014063
:1031C000700A00203000024010B590F84230202BE9
:1031D00007D1012431B12AB10024046301F040F980
:1031E00000E00224E0B210BD704770472DE9F843BB
:1031F000044690F841001D461746884620281CD1F9
:10320000B8F1000F4FF0010018BF002F3FD04FF072
:1032100000092120C4F8449084F84100FFF702FA25
:10322000A784E7840646A068B0F5805F07D12769C8
:10323000002F0CBFC146474619E0022027E0474651
:1032400015E02046802132462B4601F055F9C0B9E1
:103250001FB117F8011B206805E039F8021B206830
:1032600000276FF35F214160E08C0138E084E08C3F
:103270000028E6D12046402132462B4601F03CF999
:1032800008B1032003E0202084F841000020C0B2F0
:1032900001B0BDE8F0837047B0B5894C744D402152
:1032A00000222046A84700F07FF820468021002217
:1032B000A847204640210122A8472046402100225D
:1032C0002B46BDE8B040184770B586B000207C4C56
:1032D0000122C025012604900B48016841F0080135
:1032E0000160C021006800F00800019001982046AC
:1032F000FFF793F90320CDE9025602A90590204675
:10330000FFF7A6F806B070BD18100240B0B56C4CBF
:10331000574D402100222046A84700F045F820469E
:1033200080210122A847204640210122A8472046AB
:10333000402100222B46BDE8B0401847F8B50446AE
:1033400000F026F85E4D0027002614E028464021B4
:103350000022FFF762F9284640210122FFF75DF9BC
:1033600028468021FFF74CF9002807F1010718BF14
:10337000012040EA4606F8B20728E7D914B1FFF762
:103380008BFF01E0FFF7C2FFF0B201B0F0BD00BF5C
:10339000F8B500208021CDE90200CDE900104848B1
:1033A0006946FFF755F88FBDF8B580206946009053
:1033B0000020029001200190032003904048FFF775
:1033C00047F88FBD70B50446FFF7EEFF3C4D402136
:1033D000002200262846FFF720F9F0B2072888BF10
:1033E00070BD60B28021B0F1FF3F2846CCBF002203
:1033F0000122FFF712F9284640210122FFF70DF9BB
:10340000284640210022FFF708F901366400E4E76E
:10341000B0B5FFF7C9FF2A4C154D80210122204687
:10342000A847204640210122A847204680210022AB
:10343000A8472046402100222B46BDE8B04018474F
:10344000B0B5FFF7B1FF1E4C094D402100222046C8
:10345000A847204680210022A8472046402101227B
:10346000A8472046802101222B46BDE8B0401847DE
:103470001B260008B0B5FFF78BFF114C80210122FD
:103480002046FFF7CAF8204640210122FFF7C5F881
:10349000002520468021FFF7B3F840B1E9B2681C4F
:1034A000FA290546F5D3FFF7CBFF012505E02046B5
:1034B000402100220025FFF7B0F82846B0BD00BF2C
:1034C000000C014070B5964C0025002620462021B6
:1034D0000122FFF7A2F8012002F058F8F0B2072805
:1034E00084BFE8B270BD204620210022FFF795F886
:1034F000012002F04BF820464021FFF781F840EA16
:1035000045050136E2E700BF0008014070B5F24D05
:103510000446202101222846FFF77FF80026F0B25A
:10352000072888BF70BD20064FF08001284654BF91
:1035300000220122FFF771F8284620210022FFF720
:103540006CF8284620210122FFF767F80136640055
:10355000E5E700BF2DE9FF4190460D46002102AA94
:103560000026ADF80C100291ADF80410009103E0B4
:10357000AB5D9355A9550136B045F9D101380728FF
:1035800016D8DFE800F00406080A0C0E101201201D
:103590000CE002200AE0032008E0042006E00520F9
:1035A00004E0062002E0072000E00820FDF7A6FE68
:1035B0009DF80800FFF7AAFF01246F4603E0FFF71C
:1035C00081FF38550134B442F9D3002002E0395C60
:1035D000295401308642FAD1404604B0BDE8F0815A
:1035E0002DE9FC4100251446E846CDE9005503E0ED
:1035F0004A5D08F805200135AC42F9D10027461E86
:103600001DE0072E16D8DFE806F00406080A0C0EA7
:10361000101201200CE002200AE0032008E0042040
:1036200006E0052004E0062002E0072000E0082074
:10363000FDF764FE18F80700FFF768FF0137BD4289
:10364000DFD1204602B0BDE8F081000080B505481A
:10365000FFF716F820B104A0BDE8804002F004B8DE
:1036600080BD00BFB40A00205761746368646F674F
:103670002072656672657368206661696C65642195
:103680000A000000F8B504460078FDF77DFB1B201A
:1036900020812046FDF72BFB8F4D2021012228465B
:1036A000FEF7BBFF284680210122FEF7B6FF4FF44C
:1036B000167001F06BFF1B4E0025002707E07560B8
:1036C000666020463178FDF7A5FA0C360137207A7E
:1036D0008742F4D3134D48F26100134E1021656008
:1036E000A8652046B04702200221E8612046B04785
:1036F0000020012128612046B0474FF4F8502021D6
:10370000C5F888002046B04712202821C5F8B80027
:103710002046B0472078BDE8F840FDF733BD00BF34
:10372000000801406C0000200D0D0008E0B50A48BB
:103730000022016841F0010101600021006800F0F1
:103740000100019001980D20FFF710F80D20BDE851
:103750008C40FEF7FDBF00BF141002402DE9F04F72
:1037600087B05C485C4F5D4E01224FF01008016845
:1037700041F004010160016801F004010391039923
:10378000016841F010010160016801F0100103912E
:103790000399016841F040010160016801F04001B6
:1037A00003910399016841F008010160016801F08B
:1037B000080103910399016841F020010160102183
:1037C000006800F02000039003983846B047384660
:1037D000A02100224FF0000BB04707F580504FF4B6
:1037E0007E5101220090B04707F580604FF4704190
:1037F00000220190B04707F540604FF6FF710022AC
:103800000290B04707F500644FF4EE5100222046C5
:10381000B047012503AE4FF0020A3846CDE90385D3
:10382000DFF8BC803146CDF814B0CDF818A0C04701
:10383000A020049531464FF0010903900320CDF8F4
:1038400014B006903846C0474020CDF810B031463D
:1038500003903846CDF814B0C04722483146049052
:10386000102003902046CDF814B0C0474FF47E508E
:10387000CDF8109031460390CDE905BA0098C047C5
:103880004FF47040CDF8109031460390CDE905BA61
:103890000198C0474FF6FF70CDF810903146039065
:1038A000CDE905BA0298C0474FF4EE50CDF810901C
:1038B000314603902046CDE905BAC0470A200021D1
:1038C0000022FEF753FF0A20FEF742FF07B0BDE8D3
:1038D000F08F00BF18100240000801401B260008AE
:1038E000512400080000111080B50848084A04213E
:1038F00040F6FF73C0E900218360FEF797FE0028C1
:1039000014BFBDE8804080BDFDF734BDB40A00207F
:103910000030004080B50C480C4A4FF4E1310023E0
:103920004FF00C0CC0E90021C0E90233C0E9043CAF
:10393000C0E90633FFF786FB002814BFBDE88040CE
:1039400080BDFDF717BD00BFC00A00200038014050
:1039500080B50C480C4A4FF4E13100234FF00C0CB9
:10396000C0E90021C0E90233C0E9043CC0E90633E4
:10397000FFF768FB002814BFBDE8804080BDFDF75D
:10398000F9BC00BF080B002000480040FEE7000023
:103990002DE9F04FA3B0DFF8380CDFF8C06505461D
:1039A000074635F8021B8C1EC1F58171FF2C06EB12
:1039B000040088BF0021FCF76AFC304629462246F5
:1039C000FCF74CFC3046214600F0BEFE229042BA85
:1039D0003888DFF88C15DFF8A49F019028440A800E
:1039E00009F1C80E30F8020C00BA000C2190488092
:1039F000D9F800011A90D9F804011B90D9F80801F0
:103A00001C90D9F80C011E90D9F810011F90D9F81C
:103A100014012090D9F884001D90D9F8E00010908E
:103A2000D9F8E4001190D9F8E8001290D9F8EC0028
:103A30001390D9F8F0001490D9F8F4001690D9F842
:103A4000F8001790D9F8FC001890D9F898000F905A
:103A5000DFF81005C1790E9181790C9141781991A7
:103A6000C1780D91017940790B90D9F8A0000A91A5
:103A70000990D9F880000890D9F894000590D9F8F9
:103A800068000690D9F86C000490D9F87000159081
:103A9000D9F874000790D9F890000390D9E9306103
:103AA0009EE80C50D9E936800290D9E92A4036BA0E
:103AB00009BA1BBAD9E91E5B24BA00BA95FA85FA8D
:103AC000DFF8A4549BFA8BF7C5F81CA0AF6192FAFB
:103AD00082FA9CFA8CF79EFA8EF2C5E90804C5E9D1
:103AE0000A1698FA88F0DFF8BC4EC5E90C3AC5E929
:103AF0000E276864DFF874740298209900BA09BA36
:103B00002864039800BA6860049800BA2860059891
:103B100000BAA860069800BAE860089800BA286160
:103B2000079800BA6861099800BAA8640A9840BA70
:103B3000A5F84C000B9840BAA5F84E000C9840BA76
:103B4000A5F850000E9840BAA5F852000D9840BA5A
:103B5000A5F854000F9800BAC5F85600109800BA9E
:103B6000C5F86600119800BAC5F86200129800BA4C
:103B7000C5F86E00139800BAC5F86A00149800BA28
:103B8000C5F87600169800BAC5F87200179800BA02
:103B9000C5F87E00189800BAC5F87A001A9800BADD
:103BA000C5F886001B9800BAC5F882001C9800BAB8
:103BB000C5F88E001E9800BAC5F88A001D9800BA94
:103BC000C5F85E00159800BAC5F85A00199840BAB1
:103BD000A5F892001F9800BAC5E9250107F19C00DD
:103BE0006421FCF754FB384629469C22FCF736FB3F
:103BF0002298219900BAB1EB304F40F0A681E078CD
:103C000010285CD0062876D0032840F09E81A07949
:103C100094F807A0DFF848B3DFF860834FF48071B1
:103C20004AEA0025A088A1EB45017F2DCBF808507A
:103C300000BA4FEA104608EB4500ABF8046088BFB5
:103C40000021FCF724FB07EB46006E00A0F5007195
:103C500040463246FCF702FBDFF8149340F2013095
:103C600041463246A9F800004FEA4A0009F103072D
:103C700089F802003846FCF7F1FA032000EB450111
:103C8000484600F061FDDBF8081004F2011627F841
:103C90001100052000EB4105FA20A0EB4101FE2DAB
:103CA00006EB050088BF0021FCF7F1FA30464946D3
:103CB0002A46FCF7D3FAAF48AAB2314641E1A088C0
:103CC000A74900BA4FEA104BA1F804B04FF4817134
:103CD000B1EB104F36D0BBF5A67F36D040F22B109B
:103CE000834535D0BBF5A57F35D0BBF5827F36D176
:103CF0009C48093031E0A088994A01BA080C9080AC
:103D00009D4A02EB114104290ED8DFE811F00500AD
:103D1000E900F200FB000401E079924901280CBFA0
:103D200001200020087101E140F24911884240F071
:103D3000FD80E079012840F0F6808A494FF48070D8
:103D40000880F3E08748083007E086480C3004E03C
:103D500084480A3001E083480B3001210170E1887A
:103D600007EB4B00227AA0F50070229104F10901C3
:103D7000FCF774FA284639469C22FCF76FFA05F1E5
:103D8000280CD5E901AED5F80C80D5E90637D5E980
:103D900008409CE846101BBA3FBA24BA00BA09BAD8
:103DA00012BA36BA9CFA8CFCC9E92C73C9E92E0404
:103DB000694CC9E93021C9E932C6A86BD5F862203F
:103DC000D5F86630D5F8561000BA12BAC9F8D40042
:103DD000E86B00BAC9F8D000286C00BAC9F8DC005A
:103DE000686C00BAC9F8D8009AFA8AF0C9F890004D
:103DF0009EFA8EF0C9F8940098FA88F0C9F880000D
:103E0000D5F8720000BAC9F8F400D5F8760000BA07
:103E1000C9F8F000D5F86A0000BAC9F8EC00D5F886
:103E20006E0000BAC9F8E800A86CC9F8E4201ABA14
:103E3000C9F8E02000BAC9F8A00008BAD5F87E1089
:103E4000C9F89800D5F87A0009BA00BAC9F8F8108C
:103E5000D5F88610C9F8FC00D5F8820000BAC9F878
:103E6000040108BAD5F88E10C9F80001D5F88A0007
:103E700000BAC9F80C0108BAC9F80801D5E925014A
:103E80003B4D229A00BA09BAC9E9440141F2010046
:103E900028803348AA80014682609BFA9BF0888084
:103EA00068802846062100F04FFCE88004F20910E3
:103EB000F721FCF7ECF9D5E9000108224FF6FF7372
:103EC000C4F801012B48C4F8051104F20111FFF7F1
:103ED0008DF90020208000F087FE01F0E7FD34E03E
:103EE000E079204901280CBF01200020887048712A
:103EF0001CE0E0791B4901280CBF0120002048701C
:103F0000887113E0E079174901280CBF01200020D7
:103F10000870C8710AE0E079124901280CBF01203D
:103F20000020C87002E00F4900204870019E04F292
:103F30000115A11C28463246FCF790F90D48294688
:103F400032464FF6FF73FFF751F9A01CFF21FCF733
:103F50009EF923B0BDE8F08FAA91002094050020BF
:103F6000D804002094060020B80600205407002042
:103F7000A88E0020080B0020DAFEFFFF5408002066
:103F8000FEE700002DE9F04F85B004920246464856
:103F9000DFF810B1D0E924A9D0F89800CBE913A933
:103FA0000290CBE90102CBF80C1008461146FCF751
:103FB000CBF9CBF810000546DBF82C10DBF81460C9
:103FC000FCF7CEFB044628463146FCF76BF9074662
:103FD000002C08BF374604D138460021FCF7CEFB41
:103FE00048B938460021FCF7BBFB002818BF002762
:103FF0003E46CBF81470DBF82400DBF81810DBF831
:1040000028800190DBF84800CBF818500390284630
:10401000FCF79AF90446CBF81C0028465146FCF7F9
:1040200099F9054630464946FCF794F90146284679
:10403000FCF738F9029905462046FCF78BF9014652
:104040002846FCF72FF901464046FCF783F9FCF7B8
:1040500005FC044640460D46FCF700FC0B461349A0
:1040600002460020FCF787FA064601980F46FCF747
:10407000F5FB02460B4630463946FCF782FA2246EB
:104080002B46FCF7D7F9FCF7FCFBCBE908000399BA
:10409000FCF792F904990860084605B0BDE8F04FB6
:1040A00000F098BA00000020580900200000F03FFE
:1040B00080B5FCF7C6FB00224FF07853FCF761FA9D
:1040C000044B0022FCF7B6F9034B0022FCF759FA27
:1040D00080BD00BF0000F0BF00000440704780B505
:1040E00001F06CFA02F008F8BDE8804001F07ABAFD
:1040F000B0B590B0002401A814210B94CDE9094477
:10410000FCF7C5F84FF4803009210225079006918D
:10411000012108940A910C91CDE90D504FF4E01063
:104120000F9006A8FEF732FC18B1EFF3108072B6BC
:10413000FEE70F20022101904FF480600394CDE947
:10414000040401A80295FEF743FB18B1EFF31080B9
:1041500072B6FEE710B0B0BD1048016801F00C0265
:104160000F49082A0FD10268C2F383420368023262
:1041700013F4803F01D10B4904E0036813F4003FBE
:1041800018BF08495143084A084B11600068C0F342
:104190000310185C21FA00F0106070470410024010
:1041A00000127A0000093D00680000200870000835
:1041B0007047406A0021C185C184FEF7F0BD10B58B
:1041C000446A206850F8141F94F84120212A09D12C
:1041D00011F0800106D00020E084204600F08BF82A
:1041E00020681430006894F84210222907D110F09A
:1041F000400004D00020E085204600F055F8606CB7
:1042000040F0100060642046BDE81040FEF7C7BDD6
:104210000168406A096811F0200F2FD10021C18583
:10422000016851E8031F026821F4807142E803131A
:10423000002BF5D1016851E8051F026821F001014A
:1042400042E80513002BF5D1016851E8051F02680B
:1042500021F0400142E80513002BF5D1202180F820
:104260004210016B012909D1016851E8031F02685E
:1042700021F0100142E80313002BF5D10021416326
:10428000016B012918BFFEF7AFBF818DFEF74CBD52
:10429000406A01214163016B012918BFFEF7A5BFE8
:1042A000818D4908FEF740BD016851E8031F02688F
:1042B00021F4907142E80313002BF5D1016851E815
:1042C000051F026821F0010142E80513002BF5D11A
:1042D000016B012909D1016851E8031F026821F02F
:1042E000100142E80313002BF5D1202180F8421081
:1042F000002101637047016851E8031F026821F043
:10430000C00142E80313002BF5D1202180F84110B1
:10431000704790F84210222918BF70478368B3F5A0
:10432000805F05D10169B1B100F128010A680BE095
:104330000146002B51F8282F01D1036923B10368EE
:104340005B6803F07F0301E003685B6813700A6831
:1043500001320A6007E00168826A49686FF35F21F1
:1043600022F8021B8262C18D4FF6FF7201391142A1
:10437000C18500D070470168CA6822F02002CA6077
:10438000CA6822F48072CA604A6922F001024A6156
:10439000202280F8422000224263036B012B18BFC9
:1043A000FEF722BF026351E8031F026821F01001EB
:1043B00042E803130168002BF5D10A6812F0100FD0
:1043C00008D081B0002200920A68009249680091EA
:1043D000009901B0818DFEF7A7BC000010B504461E
:1043E00000680169E26821F44051114341F20C6216
:1043F0000161D4F808C0D4E904E3C16891434EEAEE
:104400000C021A431143C1604169A26921F4407151
:10441000114341611149884202D0FEF773FA01E06D
:10442000FEF77AFA19214843D4E900126FF06304C9
:104430009200B0FBF2F06422B0FBF2F303FB040045
:10444000322404EB0010B0FBF2F000F0F00200F0B8
:104450000F0002EB03121043886010BD00380140CA
:10446000BCB51346002504460A46DFF880C0DFF8D5
:1044700084E045648385816222201D4984F84200DE
:10448000E06B00F1280787E802504563216804319A
:10449000FDF78AFF0195206801680191416801914B
:1044A0000199216909B909E0206850E8030F2168E2
:1044B00040F4807041E80302002AF5D1206850E8FA
:1044C000050F216840F0010041E80502002AF5D1FE
:1044D000206850E8050F216840F0400041E80502DF
:1044E000002AF5D1002002B0B0BD00BF9142000803
:1044F00011420008BF4100082DE9F0411D469046D9
:104500000F4604465E1C206800683840B84226D03A
:10451000002EF8D02DB1FEF785F8A0EB0800A842D8
:10452000F1D9206850E8030F216820F4D07041E8E9
:104530000302002AF5D1206850E8050F216820F019
:10454000010041E80502002AF5D12020002184F86D
:10455000410084F8401084F84200032000E000206D
:10456000C0B2BDE8F08100003848FEF719BC00BFBA
:1045700010B5154C2046FEF713FC2068016811F0B9
:10458000100F14D06FF0100101602046FEF7CDFB34
:104590000E480F4901220068406881F80022C0F5EA
:1045A0008070088000F028FB01F080FA2068C16864
:1045B0004FF4807241F02001C160FA48811C02482A
:1045C000BDE81040FEF700BE080B0020700A002076
:1045D000AA91002070B5046805464FF07E514FF057
:1045E0007E562046FCF7D8F828B920460021002640
:1045F000FCF7C4F808B934462E600D480D49C0F8E0
:1046000084402046FBF7A6FEFCF728F902460A483C
:104610000B460AA100F20114204602F073F80B4881
:104620002146FF224FF6FF73BDE87040FEF7DEBD66
:10463000580900200000A040A88F00204355525286
:10464000252E32662C284031290D0A00C00A002090
:10465000FEE7000010B5074C00F00F03044AB0F16C
:10466000FF3F2344C8BF83180801187010BD00BF66
:1046700000E400E014ED00E018B1C1B219B101206E
:104680000EE00020704710F47F4102D0090A092093
:1046900006E010F47F0107BF010E1920090C11205C
:1046A000014A515C08447047207000081CB500F1B5
:1046B000280C0446ACE80E002321049A42631C3007
:1046C000C4E90700184601F065F804F128030FCB90
:1046D0001A44124B043A00F03BFF6062104A234632
:1046E000059884F83E0084F83D0000202064069977
:1046F000C4E91111A06384F83C00C4E92000CDE9AD
:10470000000004F14C00214601F0A5FD05480168B8
:1047100019B12046BDE81C4008471CBDE55D0008F6
:1047200065600008948C0020B0B50546FBF71CFDC1
:10473000D5F88010044609B1284688472046BDE8D0
:10474000B040FBF715BD000080B5DFF82CC04FF678
:10475000FF7E0BE010F8012B5FFA8EF301395A400F
:104760000EF47F433CF8122082EA132E0029F1D187
:104770001FFA8EF080BD00BFB0010020F8B5224DB9
:104780006868C0B900F04AFD01F0B2FC044600269A
:104790000AE0686801306860009602E00098013025
:1047A000009000986328F9D901F0A2FC001B0928A9
:1047B000EFD900F03FFD002701F09AFC04460026E7
:1047C00008E0009702E0009801300090009863280C
:1047D000F9D9013601F08CFC001B0928F1D9686871
:1047E000B0420BD9811B64225143B1FBF0F303FBB0
:1047F00010112B705143B1FBF0F002E00020287043
:104800006E606870F8BD00BF50040020014801F0E0
:1048100069BB00BF7D47000880B500F0E9F94FF0A3
:10482000FF3101F06FF90028F7D1FCF73BFCF4E70A
:104830002DE9F04FADF5677D4F4CB8A81421A04786
:104840008AA81421A0475CA81421A0472EA81421EF
:10485000A04768461421A047DFF87CA7484F00F026
:10486000BFF94FF0FF3101F04DF90028F7D1DAE937
:104870000823B8A801F0F7FECAE91E0100223B4652
:10488000DAE9009B48465946FBF7AFFF18B14FF0F5
:104890000009BB460AE04846594600220023FBF7C0
:1048A00089FF28B94FF000094FF0000BCAE9009BBF
:1048B000DAE9024800223B46002520464146FBF744
:1048C00094FF08B1384608E0204641460022002304
:1048D0000025FBF76FFF10B90020CAE90250DAE9A2
:1048E000045400223B46002628462146FBF77DFF64
:1048F00040B928462146002200230026FBF75AFF34
:1049000010B90027CAE90467DAE906541C4F0022EF
:104910000026284621463B46FBF767FF40B928465C
:104920002146002200230026FBF744FF10B9002790
:10493000CAE90667134C8AA84A465B46A047FBF7BC
:10494000A0FFCAF868005CA8DAE90223A047FBF7D9
:1049500098FFCAF86C002EA8DAE90423A047FBF7F9
:1049600090FFCAF870006846DAE90623A047FBF713
:1049700088FFCAF8740071E7014C0008580900204C
:104980000070A7406766000810B5064C00F034F9C7
:104990004FF0FF3101F0B6F820880028F6D0FEF77E
:1049A000F7FFF3E7AA9100202DE9F84FFCF724FC6C
:1049B0008A4F894CDFF820B64FF0000907F10F0845
:1049C00007F1030A00F010F94FF0FF3101F09AF8F7
:1049D0000028F7D1207AF0B1DBF890003E460025A0
:1049E00046F8030B05E016F80119A8B2FCF71EFA09
:1049F0000135042DF7D10026554605E0B0B2FCF78D
:104A0000E5F905F801090136042EF7D1386884F874
:104A10000890CBF89000607A00B3DBF894003E4633
:104A2000002546F8030B06E0281D16F8011980B290
:104A3000FCF7FCF90135042DF6D10026554606E0B9
:104A4000301D80B2FCF7C2F905F801090136042EC9
:104A5000F6D1386884F80990CBF89400A07A10B3A6
:104A6000DBF898003E46002546F8030B07E005F109
:104A7000080016F8011980B2FCF7D8F90135042DA9
:104A8000F5D10026554607E006F1080080B2FCF794
:104A90009DF905F801090136042EF5D1386884F82E
:104AA0000A90CBF89800E07A10B3DBF810013E468C
:104AB000002546F8030B07E005F10C0016F8011974
:104AC00080B2FCF7B3F90135042DF5D10026554627
:104AD00007E006F10C0080B2FCF778F905F801094F
:104AE0000136042EF5D1386884F80B90CBF810010C
:104AF000207B10B3DBF814013E46002546F8030B7B
:104B000007E005F1100016F8011980B2FCF78EF9E4
:104B10000135042DF5D10026554607E006F11000B9
:104B200080B2FCF753F905F801090136042EF5D1DE
:104B3000386884F80C90CBF81401607B10B3DBF874
:104B4000A0003E46002546F8030B07E005F11400DF
:104B500016F8011980B2FCF769F90135042DF5D179
:104B60000026554607E006F1140080B2FCF72EF946
:104B700005F801090136042EF5D1386884F80D9046
:104B8000CBF8A000A07B00283FF41CAFDBE92A0192
:104B900000254646C7E9020107E005F1180016F8AE
:104BA000011980B2FCF742F90135082DF5D1002634
:104BB000454607E006F1180080B2FCF707F905F852
:104BC00001090136082EF5D1D7E9020184F80E90CB
:104BD000CBE92A01F6E600BF940600205804002025
:104BE000BE484068704700BFBC48C068704700BFFF
:104BF000BA480068704700BFB8488068704700BF77
:104C000000220023C0E92C22C0E92812C0F8A82005
:104C10008B42A8BF7047E0E802220133F8E70000AA
:104C200010B5A74C20464FF48051FDF7EEFC28202C
:104C300001F0D2F820464FF48051FDF7E6FC4FF426
:104C4000707001F0C9F8EDE77CB5FDF71FFDFFF7C7
:104C50004FFAFEF783FDFEF769FDFEF745FEFEF70E
:104C600077FEFEF757FEFFF7D1FDFEF72DFB0A207A
:104C7000FDF75CFD8748884C0021A047874800214C
:104C8000A04787480021A04786480021A0478648C2
:104C90000021A04785480021A04785480021A04762
:104CA00084480021A0470A20FDF752FD824C20468F
:104CB000FEF73BF82068814CC16841F02001C160DB
:104CC000C16841F01001C1602046FEF72EF820684F
:104CD0007B4C7C4E0122C16804F5806541F02001C7
:104CE000C160C16841F01001C16028464FF4807175
:104CF000B047284680210022B04720464FF40041AB
:104D00000022B04704F500644FF480710122204670
:104D1000B047284640210122B04720464FF40041C9
:104D20000022B04720464FF480410022B047204681
:104D30004FF400510122B04720464FF48051002229
:104D4000B04720464FF400610122B04720464FF49F
:104D500080610022B04720464FF400710122B04725
:104D6000204601210122B047204602210022B047FF
:104D7000204604210022B047204608210122B047E6
:104D8000204610210022B047204620210122B047B2
:104D9000204640210022B047204680210122B04712
:104DA0004D4C49A001210022A0474C4D0121002279
:104DB00028604BA0A04768604EA001210022A047B8
:104DC000A8604FA001210022A047E860142405201C
:104DD000504900224FF48063CDE900044BA000F05D
:104DE000DAFF002852D001F0FDF806204D490022DC
:104DF000FF23CDE9000448A000F0CDFF002845D0F6
:104E000001F0F0F8142403204B490022FF23CDE9E0
:104E1000000445A000F0BFFFC0B301F0E3F8042098
:104E20004A4900224FF48063CDE9000443A000F01A
:104E3000B2FF58B301F0D6F81424072047490022E6
:104E4000FF23CDE9000442A000F0A5FFF0B101F07E
:104E5000C9F80820444900224FF40073CDE900044A
:104E60003FA000F098FF88B101F0BCF814200921A0
:104E700000224FF40073CDE900103F493BA000F041
:104E80008AFF18B101F0AEF8002001E04FF0FF30CA
:104E900002B070BDB003002085360008BC030020BE
:104EA000C8030020D4030020E0030020EC0300200E
:104EB000F803002004040020080B0020C00A002092
:104EC000000C01401B2600086D795F73656D6170F1
:104ED000686F7265000000006D5A0008E40400204D
:104EE000646174615F70726F636573735F73656D26
:104EF0000000000075617274335F73656D0000001F
:104F0000656570726F6D5F73656D00006C6564310F
:104F100000000000214C00087761746368646F67CB
:104F200000000000F5660008646174615F636F6EE5
:104F300076657273696F6E00194800086461746168
:104F40005F70726F63657373000000003148000882
:104F5000646174615F73656E6400000089490008D4
:104F6000656570726F6D0000A94900086D61696E1A
:104F70007461736B000000007D4F00082DE9F04163
:104F8000144E164C144F4FF00008307848B107F11A
:104F9000780523CDFBF775FC29462246FEF7F2FF84
:104FA00013E0707850B1D7E91E01D7F88850FBF7AD
:104FB00068FC29462246FBF75BFF06E0B078002834
:104FC0000CBFC4F80080FCF71FF840F2D23000F0AC
:104FD00003FFDAE79406002058090020A806002005
:104FE000B0B58D4C044D01E001CC8047AC42FBD301
:104FF000BDE8B040FFF728BEB471000810B5DFF877
:10500000D8CCD0F804E0DCF80C1001EB0E028242A0
:1050100014D0538893B9DCF810309A420ED0DCF8E3
:1050200014309342A0EB010308BFCCF81400D2F86F
:1050300004E0C0F804E052680A44936082688B1868
:10504000834208BF10BD5C8804B110BDDCF8144079
:10505000844208BFCCF81430C3F804E04068084428
:10506000826010BD2DE9FF4FDDF83CA04FA754A68C
:105070001AF0400F08BF3E461AF0100F18BF2AF072
:10508000010A1AF0020F02D14FF000090EE0B2F14E
:10509000FF3F08DD5FEA4A775ABF202707EA8A09FF
:1050A0004FF02B0902E052424FF02D09DDE90D8C43
:1050B000D2B14FF0000E4FF00A0B6D4611E00A2BF3
:1050C00006D1B2FBFBF707EB8704A2EB440402E036
:1050D000170902F00F04345D3A4605F80E400EF150
:1050E000010E002AEBD104E030224FF0010E8DF8C2
:1050F0000020E6456346C8BF73461AF0110FA8EBBF
:10510000030212D10024002A4D46C8BF0124B9F180
:10511000000F18BF01252C402025121B03E08842F8
:1051200038BF05700130013AF9DAB9F1000F06D045
:105130008842A2F1010238BF80F8009001305FEA96
:10514000CA6409D420256AF3041503E0884238BFF5
:1051500005700130013AF9DA302405E08842A3F104
:10516000010338BF047001309E45F7DB6B460AE04F
:105170008842AEF101043EBF03EB0E0717F8017C35
:1051800007700130A646BCF1000F02D0BEF1000F3F
:10519000EEDC012ABCBF04B0BDE8F08F8842A2F16A
:1051A00001023CBF202303700130F2E7303132337B
:1051B0003435363738396162636465660000000053
:1051C000303132333435363738394142434445463D
:1051D00000000000E0B514200A2100224FF4807383
:1051E000CDE90010054903A000F0D5FDBDE88C40D5
:1051F00000F0F8BE6D61696E00000000E14F00082C
:10520000B0B5044C044DAC4228BFB0BD01CC8047C2
:10521000F9E700BFAC710008B071000880B5FAF77B
:10522000A3FF12490A8801320A80BDE88040FAF7DC
:105230009FBF00BF80B5FAF797FF0C490A88013A73
:105240000A8012B2002A03DDBDE88040FAF790BF61
:1052500000220A80FAF78CFF05484068002814BF36
:10526000BDE8804080BD00F08BBB00BF8C050020F6
:1052700050050020F8B50446E8B31F4F796809B11E
:1052800020468847F868A04235D83869A04232D90C
:1052900007F120054FF0FF31284600F033FC34F8C9
:1052A0000A0CA4F10C0618B13088B0F5F55F0AD0ED
:1052B00012A000F0D9F934F80C3C34F80A2C16A0EE
:1052C000314600F0D1F94FF4F55044F80C0C7869F0
:1052D000B04288BF7E6154F8080CF968BA69301A88
:1052E000401A1044B8613046FFF788FE2846BDE8F2
:1052F000F84000F0DBBBF8BD00050020746F2066AD
:10530000726565206120626164206461746120625D
:105310006C6F636B3A0A00006D656D3A203078253A
:105320003038782C207573656420666C61673A208C
:1053300025642C206D6167696320636F64653A2082
:105340003078253034780A0002487047014800F56B
:1053500000407047EC0B002010B5FEF7FDFE9548AD
:105360004FF47A710068B0FBF1F0411E0020B0EB01
:10537000116F07D10A4AFF2351600A490B700721B8
:1053800011609060FFF73CFFFFF7DEFF0446FFF778
:10539000DDFF01462046BDE8104000F06BBC00BFB9
:1053A00010E000E023ED00E02DE9FC41114D044642
:1053B0004FF00D080DF107060DF1060713E0284622
:1053C000314601224FF0FF338DF80780FDF70EFFC5
:1053D00020788DF806002846394601224FF0FF3329
:1053E000FDF704FF013420780A28E8D00028F0D126
:1053F000BDE8FC81080B0020B0B5044622480168D6
:1054000011B120468847F0B3216C2048204DA847B1
:10541000616A2048A847A16A1F48A847E16A1F4857
:10542000A847216B1E48A84761681E48A847A16885
:105430001DA0A847E16820A0A847216922A0A8478D
:10544000616925A0A847A16927A0A847E1692AA00A
:10545000A847216A2CA0A847616B2FA0A847A16B81
:1054600031A0A847E16B34A0A8472078400703D4B7
:10547000364800F0F9F805E000F08EFD01463248AC
:1054800000F0F2F8FEE7B0BDE80B002098710008CC
:1054900069560008577100086471000871710008AE
:1054A0007E7100088B7100087230353A2030782503
:1054B0003038780A000000007230363A2030782503
:1054C0003038780A000000007230373A20307825F2
:1054D0003038780A000000007230383A20307825E1
:1054E0003038780A000000007230393A20307825D0
:1054F0003038780A000000007231303A20307825C8
:105500003038780A000000007231313A20307825B6
:105510003038780A000000007231323A20307825A5
:105520003038780A00000000206C723A203078256C
:105530003038780A000000002070633A2030782567
:105540003038780A000000003A7100082071000825
:1055500010B504320C4C22F0070E6FF03F02AEF192
:10556000400C02E04EF802400432002AFAD1002238
:105570004FF080744EE908124EE906224EE90423EA
:105580004EE90204604610BDEFBEADDEB0B5084C7A
:105590000849094D626823680968B1FBF5F1484381
:1055A0006168511A98BF19448142F9D3B0BD00BF58
:1055B00014E000E06800002040420F0010B5FAF748
:1055C000D3FD044610480178013101700448006899
:1055D00000B180472046BDE81040FAF7C9BD00BFC2
:1055E000EC8B002010B5FAF7BFFD044606480178A1
:1055F000013901700548006800B180472046BDE8C8
:105600001040FAF7B5BD00BFF88B0020F48B0020E6
:1056100000681C3800F096BC70B505460846164672
:105620000C4600F0F5FC012E01D0A6B170BD284655
:105630000068A8420FD090F8211094F83D208A42CB
:10564000F6D21C3804F11C02016A0A60216202626F
:105650001C30E06170BD686804F11C0101602062CB
:105660006960E56170BD000083B018B5844603A889
:10567000074C0EC003AB7F2162462046009300F02A
:105680006FFE2046FFF790FEBDE8184003B070475C
:10569000008C00202DE9F047E8B3DFF83C9603309A
:1056A00020F0030AD9F80800824534D809F120080F
:1056B0004FF0FF31404600F025FABAF10C0F98BFC9
:1056C0004FF00C0AD9E902C0D9F81410ACEB0A0269
:1056D0000D1A2B4695421BD2C7187E887D68002E76
:1056E000F7D103F10C06AC1B5445F2D30AF11802B2
:1056F000944214D201227A80C21BD9E906362A4488
:105700001A449642C9F8182026D2C9F81C2023E072
:10571000404600F0CBF900252846BDE8F08706EBAF
:105720000A024FF4F5540CF10C060AF10C0E8450E9
:105730008418C4E9015301237B807A606368B34213
:105740001CBF03449A60D9E9062372449342C9F806
:10575000182038BFC9F81C204FF4F552B9423A80DE
:105760000BD1D9F8102005E0914206D049680144D8
:10577000C9F814104B88002BF6D1404600F096F97A
:10578000D9F8002007F10C05002AC5D0284651465B
:105790009047C1E7042A01D3830701D003463AE0CA
:1057A00070B5D643CBB20446154616F1100F43EA46
:1057B000032398BF6FF00F0643EA034316441036E5
:1057C00026F00F0E00EB0E0C05E0C4E90033C4E92F
:1057D00002331034103D102DF7D2A2EB0E026546B5
:1057E000D64316F1040F98BF6FF003061644341D1C
:1057F000164624F0030EA40801E008C5043E042E5A
:10580000FBD20CEB8403A2EB0E02BDE8704002E079
:1058100003F8011B013A002AFAD170472DE9F04143
:10582000064653488846A0F110014FF0FF30013082
:10583000032806D801F11007097CB1423946F6D198
:1058400000E00027F868FFF725FF05460024E8B1CF
:10585000FA6828460021FFF79DFF2846414610229E
:105860002E746C7400F0ECF94248016809B12846C6
:10587000884705F11404FAF777FC57F8041F4C60C9
:1058800069613C60AF61FAF773FC00E000252846CF
:10589000BDE8F08110B504461848016809B12046FA
:1058A000884700202074FAF75FFC2246A16952F86D
:1058B000143F5960A1690B60A2611260FAF758FCAD
:1058C0002046BDE81040FFF7D5BC00BF10B5044628
:1058D0000A48016809B12046884700202074FAF779
:1058E00043FC54F8141F62684A6062681160C4E99E
:1058F0000044BDE81040FAF73BBC00BF848C002098
:10590000F8B504461A480E461546A0F110014FF0AE
:10591000FF300130032806D801F11007097CB1429D
:105920003946F6D100E00027FFF778FC0437384607
:105930000068B842FCD1FFF77DFC46F080002946A4
:1059400010222074204600F07BF90A48016809B152
:105950002046884704F11405FAF706FC39684D60C3
:1059600061613D60A761BDE8F840FAF701BC00BF86
:1059700010040020808C0020007CC00970470000CB
:105980002DE9F041FAF7F0FBF24E0446308820B1E1
:105990002046BDE8F041FAF7EBBBDFF8E083D8F82A
:1059A0000800FEF769FEF6490138D8F8045051F8AE
:1059B0003070A7F11C018D42EAD07268C8F804105B
:1059C00088F800000AB128469047064A07F1080106
:1059D00005F12400127812B1FAF7CDFBD8E7FAF7F7
:1059E000CAFBD5E7F88B002010B50446FAF7BCFBDC
:1059F00094F83C1094F83D2004F11C0301F0F001F0
:105A000041F0010184F83C10DD4901EBC2014A6814
:105A100013602262D94A4B60E161216C936819439B
:105A20009160BDE81040FAF7A3BB00BF10B5044673
:105A3000FAF79AFB214651F81C2F4B6853604B68CC
:105A40001A60C1E90011CE4A91F8211002EBC1039E
:105A500052F83110994205D1C84A216C936823EA63
:105A600001019160BDE81040FAF782BBB0B50D4668
:105A7000014602201446FFF7D1FE28B100F11C01B7
:105A800085844474C0E90711B0BD70B515460A4657
:105A900002211C460646FFF733FF06F11C00C6E94B
:105AA00007000020B584747470BD0000B0B50446D2
:105AB0001348016809B120468847FAF755FB0546A7
:105AC000204650F81C1F814207D0FFF7A1FD284651
:105AD000FAF74EFBFFF754FF09E0A08C4FF6FF7179
