:020000040800F2
:10000000E094002045010008C13700080D020008F7
:10001000CD310008BD0C0008E53C000800000000E0
:10002000000000000000000000000000F937000898
:10003000D10D00080000000097010008FB37000800
:100040005F0100085F0100085F0100085F01000810
:100050005F0100085F0100085F0100085F01000800
:100060005F0100085F010008E11000085F0100085F
:100070005F010008C10C00085F0100085F01000873
:100080005F0100085F0100085F0100085F010008D0
:100090005F0100085F0100085F0100085F010008C0
:1000A0005F0100085F0100085F0100085F010008B0
:1000B0005F0100085F0100085F0100085F010008A0
:1000C0005F0100085F0100085F0100085F01000890
:1000D0005F0100085F0100085F010008853C00081F
:1000E0005F0100085F0100085F0100085F01000870
:1000F0005F0100085F0100085F0100085F01000860
:100100005F0100085F0100085F0100085F0100084F
:100110005F0100085F0100085F0100085F0100083F
:100120005F0100085F0100085F0100085F0100082F
:10013000DFF80CD000F014FC00480047DF0900088D
:10014000E09400200648804706480047FEE7FEE7A7
:10015000FEE7FEE7FEE7FEE7FEE7FEE7FEE7FEE777
:10016000CD38000831010008EFF3108072B67047F7
:1001700080F310887047324A1368012B04D04FF087
:10018000010313602F4A10602F4A11602F484FF06F
:10019000805101607047EFF3108272B62848016801
:1001A00091B14FF0000101602648016829B1EFF3D9
:1001B000098121E9F00F0068016023490968096895
:1001C000B1E8F00F81F3098882F310884EF0040E35
:1001D00070471D4908601B494FF00000086018492E
:1001E0004FF0010008601A481A49D0F8002041EA8F
:1001F0000201016015484FF0805101601648006807
:10020000006880F3088861B662B670471EF0040F7C
:100210000CBFEFF30880EFF3098020E9F00F40F8FE
:1002200004ED1EF0040F0CBF80F3088880F30988EA
:1002300000B504F073FD5DF804EB4EF0040E70475A
:10024000D08D0020208B00202C8B002004ED00E0BE
:1002500020ED00E00000FFFF08ED00E040EA0103B0
:100260009B0703D009E008C9121F08C0042AFAD26C
:1002700003E011F8013B00F8013B521EF9D2704730
:10028000D2B201E000F8012B491EFBD270470022D8
:10029000F6E710B513460A4604461946FFF7F0FF85
:1002A000204610BDF0B480EA0102D40F4200B2EB48
:1002B000410F02D20246084611464A0042D0C30D01
:1002C000DDB2C1F3C752AD1A202D35DAC1F31601E4
:1002D00041F4000204B15242C5F1200602FA06F1CF
:1002E0002A411044B3EBD05F23D0C4B1012DA0EB61
:1002F000C35009DCF0BC4FF0004202EAC352DBB24B
:1003000000F5000000F0A1BA400000F1807000EBA1
:10031000C350A0F1807040EAD170490009E049085B
:1003200041EAC071A0EBC35000F50000400800EBAB
:10033000C350F0BC00F080BA6142012202EB4101DF
:10034000001BF6E7F0BC704781F00041AAE780F09F
:100350000040A7E780EA010210B502F00043400028
:1003600022D04A001FD0010E01EB1261C0F35600EB
:10037000C2F3560240F4000042F40002A0FB022047
:1003800000047F39140400D0401C50EA124001D40C
:100390004000491EC2B20C0604EBD010401C4008BD
:1003A000802A02D003E0002010BD20F001000029C7
:1003B00000DA0020184310BD30B480EA010202F0D8
:1003C000004530F0004221F0004013D090B1C30D41
:1003D000D40DC2F31601C0F31600E41A41F4000173
:1003E00040F400027D34914201D3641C00E04900D6
:1003F000002C02DA30BC002070474FF400000023CC
:10040000914201D3891A034340084FEA4101F7D1D1
:1004100051B1914202D14FF0004105E002D24FF0BC
:10042000010101E06FF0010103EBC450284430BC2E
:1004300000F002BA2DE9FE4F804681EA0300C00FAA
:100440000C46009021F0004123F00045B8EB02007B
:10045000A94105D24046214690461C460B4602461D
:1004600023F00040104347D0270DC7F30A00C3F321
:100470000A510290401A019040286BDAC3F313002E
:1004800040F4801B0098924620B10023D2EB030A6F
:1004900063EB0B0B01985946C0F14002504600F047
:1004A000AAF906460D4650465946019A00F0B2F99F
:1004B00010EB08006141002487EA115284EAE773D7
:1004C0001A4340D0009A62B3019A012A4FEA0752B8
:1004D00015DC001B61EB02014FF0004202EA0752FB
:1004E000CDE90042001C41F5801132462B4600F058
:1004F000E9F903B0BDE8F08F40462146F9E7001B5B
:1005000061EB0201001C41F5801300185B412018CB
:10051000A2F5001747EB030140EAD570B6196D410B
:1005200011E06D084FEA360645EAC0754FEA0752FA
:10053000001B61EB0201001C41F5801149084FEAE4
:1005400030000019514132462B4603B0BDE8F04F50
:1005500000F0A9B90098012240000023D0EB02026C
:1005600063EBE073009821464FEAE074B8EB0000BB
:1005700061EB0401E9E783F000435BE781F00041B0
:1005800058E72DE9FE4F81EA030404F0004421F00E
:10059000004100944FF0000B23F0004350EA0104A7
:1005A0005ED052EA03045BD0C3F30A54C1F30A5588
:1005B0002C44A4F2F3340194A0FB0254C1F31301C0
:1005C00041F48011C3F3130343F4801301FB02448D
:1005D00000FB034E840A970A44EA815447EA835792
:1005E000A4FB076802958D0A05FB07854FEA932C4B
:1005F00004FB0C542705029D4FEA065847EA1637BC
:10060000B5EB08056EEB070C870E920E47EA8117D3
:1006100042EA8312A7FB0201B6EB0B0164EB000474
:100620002B0D43EA0C335E1844EB1C50DA4651465E
:10063000E7FB0201C5F313044FEA0B3343EA1453FB
:100640004FEA0432019C43EA0603A4F10C0402942D
:10065000009CCDE900B400F035F903B0BDE8F08F9F
:1006600000200146F9E72DE9F04D81EA030404F08A
:10067000004B21F0004514464FF0000A23F00041E2
:1006800050EA050220D054EA01021DD0C5F30A57F2
:100690000246C5F31303C1F31300C1F30A5640F435
:1006A000801543F48013A7EB0608101BD64608F20A
:1006B000FD3873EB050002D308F1010801E0921840
:1006C0005B41B8F1000F03DA00200146BDE8F08D70
:1006D00000204FF48011064684460EE0171B73EB92
:1006E000050705D3121B63EB050306434CEA010C17
:1006F00049084FEA300092185B4150EA0107EDD1FA
:1007000052EA030012D082EA040083EA050108439A
:1007100005D0101BAB4106D20122002306E00022C7
:100720004FF0004302E06FF0010253101AEB060095
:100730004CEB085110EB0A0041EB0B01BDE8F04D0A
:1007400000F0B1B8002801DBC0F10040002901DB56
:10075000C1F10041814201D3012070470020704760
:10076000002801DBC0F10040002901DBC1F100419C
:10077000814201D90120704700207047C10F80EAF3
:10078000E0700844CA079623002100F05EB8962363
:100790000022114600F059B800F0004230F000404D
:1007A0000AD0C10D01F56071C0F3160042EA015193
:1007B000C20840071143704700200146704701F00E
:1007C000004330B421F0004150EA010206D00A0D86
:1007D000A2F56072C1F31301002A02DC30BC0020D4
:1007E0007047440F44EAC104C100E01830BC00EB7C
:1007F000C25000F021B8202A04DB203A00FA02F1AE
:10080000002070479140C2F1200320FA03F31943FE
:1008100090407047202A06DBCB17203A41FA02F0BD
:1008200043EAE07306E041FA02F3D040C2F120024D
:1008300091400843194670470029A8BF7047401CE3
:10084000490008BF20F00100704710B4B0FA80FCE6
:1008500000FA0CF050EA010404BF10BC704749B123
:10086000CCF1200421FA04F411FA0CF118BF012193
:1008700021430843A3EB0C01CB1D4FEA00614FEA73
:10088000102042BF002010BC704700EBC350104442
:100890000029A4BF10BC7047401C490008BF20F0CD
:1008A000010010BC704710B5141E73F1000408DA83
:1008B000401C41F1000192185B411A4301D120F024
:1008C000010010BD2DE9F04D92469B4611B1B1FAE1
:1008D00081F202E0B0FA80F220329046FFF78BFFFF
:1008E00004460F4640EA0A0041EA0B0153465A46C5
:1008F000084313D0114653EA010019D0C8F1400251
:10090000504600F03FF805460E46504659464246CE
:10091000FFF771FF084305D0012004E02046394667
:10092000BDE8F08D0020054346EAE0762C433743CE
:100930000A986305E40AA0EB08000022FD0A44EAD5
:1009400047540A3002D500200146E9E70105101995
:100950006941DDE9084500196941BDE8F04DA2E7AC
:10096000064C074D06E0E06840F0010394E80700FC
:1009700098471034AC42F6D3FFF7DEFBCC61000899
:10098000EC610008202A04DB203A21FA02F0002161
:10099000704721FA02F3D040C2F12002914008438F
:1009A0001946704730B58C1810F8012B12F00F0360
:1009B00001D110F8013B120906D110F8012B03E018
:1009C00010F8015B01F8015B5B1EF9D101E001F851
:1009D000013B521EFBD1A142E6D3002030BD80B5C1
:1009E00005F0ACFA002080BDB0B54FF0000E4FF01E
:1009F000070C0A0604BF5FFA8EF0B0BD80220FE03C
:100A000005788CEA4E042A400EF0800518BF0122BA
:100A1000B2EBD51F4FEA530208BF4FEA4E04A64679
:100A2000D3B2002BECD101390130E2E780B5A8B197
:100A3000D0F804C0BCF1000F10D090F808E00023FB
:100A400009E002EB420201335CF82200884204BF55
:100A50000CEB820080BDDAB27245F2D9002080BD75
:100A6000F0B585B006460020002ECDE90200CDE9A4
:100A700000002DD03046FFF7D9FF044640B3207860
:100A8000012702AD67F39F108DF80800717AA26804
:100A90003078002918BF0132511CCAB2294602F031
:100AA000ADF9767A012E16D12078694667F39F104A
:100AB0008DF80000A068023002E0AB5C01378B5477
:100AC000FAB29042F9DCC1B26846FFF78DFF03E04D
:100AD0004FF0FF302FE00020022E18D121780120A6
:100AE0006A4660F39F118DF80010A168023102E0A0
:100AF000EF5C0130D754C3B29942F9DC00206A465A
:100B000003E012F8013B013958400B06F9D1000609
:100B100002D06FF001000EE0002001226060A168A9
:100B200006E0070201326760EB5C43EA0020606088
:100B3000D3B29942F5DA05B0F0BDE0B501464FF009
:100B4000FF300029CDE9000004D00878694608226A
:100B500002F09AF902B080BD2DE9FC410446002064
:100B6000002CCDE900002FD0C9B22046FFF75EFF70
:100B7000054648B3287800216E4600F03F008DF806
:100B80000000686803E0BA1A0131B0540012AF687F
:100B9000CAB29742F7DC94F80980B8F1000F07D089
:100BA000781CC1B23046FFF71FFFF1194870AF68DB
:100BB0000220B8F1000F694608BF01203844C2B2D4
:100BC000207802F061F901E04FF0FF3002B0BDE89B
:100BD000F08100000138072888BF7047DFE800F087
:100BE00004070A0D10131619012000F07DBA022027
:100BF00000F07ABA032000F077BA042000F074BA4B
:100C0000052000F071BA062000F06EBA072000F04F
:100C10006BBA082000F068BAF8B5044602F04EF846
:100C2000244EA020B047244FB847250A2846B04795
:100C3000B847E0B2B047B8476FF05E0000EB45043C
:100C400002F03CF8E0B2B047B847002001F0CCFF1A
:100C5000044602F04BF8204601B0F0BDB0B50C469A
:100C60000546FFF7D9FFA04208BFB0BD2846214680
:100C7000BDE8B040AFF30080F8B50C46054602F081
:100C80001DF80C4EA020B0470B4FB847280AB047BC
:100C9000B847E8B2B047B8472046B047B84702F077
:100CA00025F80A2004F02AFD28462146BDE8F84030
:100CB000FFF7D4BF712C0008212D0008FEE70000CB
:100CC000014800F0C3BE00BFE809002010B5D0E91C
:100CD0000FCE012404FA0EF4CCF8044004686360DB
:100CE00040681028084608BF1046A06008BF0A46A2
:100CF000E26010BD10B5502004F000FD2A4CA07831
:100D00002F281ED8DFE800F040404040181818187F
:100D100018181818434343431818181818181818A7
:100D200046464646181818181818181849494949C7
:100D3000181818181818184C00F0FAFCA078013090
:100D4000A0701A484FF400710161607801380728DB
:100D500088BF10BDDFE800F00406080A0C0E101270
:100D60001A480CE018480AE0164808E0144806E063
:100D7000124804E0104802E00E4800E00C4801214F
:100D8000BDE81040FFF7E8BE00F0EEF9D6E700F04E
:100D9000A3FAD3E700F054FBD0E700F00DFCCDE759
:100DA00000F0C6FC0020CBE7100400201C0000204F
:100DB000B4030020A80300209C030020900300201F
:100DC00084030020780300206C03002060030020CF
:100DD000704700000138072888BF7047DFE800F03F
:100DE000040B10161C22282EDC4810210122A0F52D
:100DF000805001F0A2B8D9488021012201F09DB8AD
:100E0000D6484FF48071012201F097B8D3484FF4CF
:100E10000071012201F091B8D0484FF480610122A5
:100E200001F08BB8CD484FF40061012201F085B884
:100E3000CA484FF48051012201F07FB8C7484FF4EF
:100E40000051012201F079B82DE9F041DFF88882E4
:100E5000002608F10B04254605E0B0B2FFF7DCFEE2
:100E600005F801090136042EF7D1D8F808009B4E89
:100E700000272546B06306E0381D80B2FFF7CCFEA0
:100E800005F801090137042FF6D1D8F8080000272A
:100E90002546F06307E007F1080080B2FFF7BCFECB
:100EA00005F801090137042FF5D1D8F8080000270B
:100EB0002546306407E007F10C0080B2FFF7ACFE76
:100EC00005F801090137042FF5D1D8F808000027EB
:100ED0002546C6F8E80007E007F1100080B2FFF7EA
:100EE0009BFE05F801090137042FF5D1D8F8080059
:100EF00000272546C6F8EC0007E007F1140080B291
:100F0000FFF78AFE05F801090137042FF5D1D8F85B
:100F1000080000272546B06407E007F1180080B2FA
:100F2000FFF77AFE05F801090137042FF5D1D8F84B
:100F3000080000272546F06407E007F11C0080B296
:100F4000FFF76AFE05F801090137042FF5D1D8F83B
:100F5000080000272546306507E007F1200080B231
:100F6000FFF75AFE05F801090137042FF5D1D8F82B
:100F7000080000272546706507E007F1240080B2CD
:100F8000FFF74AFE05F801090137042FF5D1D8F81B
:100F9000080000272546B06507E007F1280080B269
:100FA000FFF73AFE05F801090137042FF5D1D8F80B
:100FB000080000272546F06507E007F12C0080B205
:100FC000FFF72AFE05F801090137042FF5D1D8F8FB
:100FD000080000272546306607E007F1300080B2A0
:100FE000FFF71AFE05F801090137042FF5D1D8F8EB
:100FF000080000272546706607E007F1340080B23C
:10100000FFF70AFE05F801090137042FF5D1D8F8DA
:10101000080000272546B06607E007F1380080B2D7
:10102000FFF7FAFD05F801090137042FF5D1D8F8CB
:10103000080000272546F06607E007F13C0080B273
:10104000FFF7EAFD05F801090137042FF5D1D8F8BB
:10105000080000272546306707E007F1400080B20E
:10106000FFF7DAFD05F801090137042FF5D1D8F8AB
:10107000080000272546706707E007F1440080B2AA
:10108000FFF7CAFD05F801090137042FF5D1D8F89B
:10109000080000272546B06707E007F1480080B246
:1010A000FFF7BAFD05F801090137042FF5D1D8F88B
:1010B00008000027F06707E007F14C0080B2FFF757
:1010C000ABFD04F801090137042FF5D1D8F8080069
:1010D000C6F88000BDE8F08100000020F80800207C
:1010E000102000F03BBE00000138072888BF704781
:1010F000DFE800F0040B10161C22282E17481021E0
:101100000022A0F5805000F018BF14488021002272
:1011100000F013BF11484FF48071002200F00DBFA2
:101120000E484FF40071002200F007BF0B484FF447
:101130008061002200F001BF08484FF400610022E6
:1011400000F0FBBE05484FF48051002200F0F5BED0
:1011500002484FF40051002200F0EFBE0018014099
:10116000EFF3108072B6FEE72DE9F843DFF86481F3
:1011700098F80000032888BFBDE8F883DFE800F096
:101180000284172AAB4C04212046FFF769FCAA4DC4
:10119000E86002F017FBA865A84848F26201816583
:1011A00020461021FFF7D8FC012068708AE0A14C8E
:1011B00004212046FFF754FC9F4DE86002F002FB3B
:1011C000E8659E4848F26201816520461021FFF7DC
:1011D000C3FC77E0F14C04212046FFF741FCF04DC1
:1011E000E86002F0EFFA2866EE4848F26001816597
:1011F00020461021FFF7B0FC05F15804D5F85090B7
:1012000013CCFFF7A1F8FFF7C7FAE74B0022002540
:10121000FFF7B7F906460F4648462146FFF794F810
:10122000FFF7BAFA02460B4630463946FFF71BFA7B
:10123000FFF7C5FADD49DE4CDE4E0022086020468D
:101240004021B04720464FF400610122B0472046BC
:1012500001210122B04720464FF400710022B0471F
:10126000204602210122B04720464FF4807100221F
:10127000B047204604210022B047A4F500604FF497
:1012800000410122B04720E0C44C04212046FFF772
:10129000E7FBC34DE86002F095FA2865C14848F2C3
:1012A0006101816520461021FFF756FCC04C2021CA
:1012B0000022204600F041FE20464FF480510122DA
:1012C00000F03BFE98F80000451C88F80050BDE88F
:1012D000F88300BF570600202DE9F843DFF850815E
:1012E00098F80000032888BFBDE8F883DFE800F025
:1012F000027A0D20A94C04212046FFF7B1FBA84D2E
:10130000E86002F05FFAE86509E0A44C0421204699
:10131000FFF7A6FBA24DE86002F054FAA865A148C9
:1013200048F26201816520461021FFF715FC77E045
:10133000F84C04212046FFF793FBF74DE86002F0DC
:1013400041FA2865F54848F2600181652046102180
:10135000FFF702FC05F15804D5F8509013CCFEF7C6
:10136000F3FFFFF719FAEE4B00220025FFF709F90A
:1013700006460F4648462146FEF7E6FFFFF70CFA01
:1013800002460B4630463946FFF76DF9FFF717FA6C
:10139000E449E54CE54E0122486020468021B047F3
:1013A00020464FF480610022B047204601210022F0
:1013B000B04720464FF400710122B0472046022179
:1013C0000022B04720464FF480710122B0472046EA
:1013D00008210122B047A4F500604FF480410022AB
:1013E000B04720E0CB4C04212046FFF739FBCA4D23
:1013F000E86002F0E7F92866C84848F261018165B3
:1014000020461021FFF7A8FBC74C202101222046CF
:1014100000F093FD20464FF48051002200F08DFD36
:1014200098F80000451C88F80050BDE8F88300BF1C
:101430005806002060030020100400201C0000203B
:101440002DE9F843DFF8508198F80000032888BFA1
:10145000BDE8F883DFE800F0027A0D20AD4C0421EE
:101460002046FFF7FDFAAC4DE86002F0ABF9A86545
:1014700009E0A84C04212046FFF7F2FAA64DE860E7
:1014800002F0A0F9E865A54848F2620181652046AE
:101490001021FFF761FB77E09E4C04212046FFF707
:1014A000DFFA9D4DE86002F08DF928669B4848F20E
:1014B0006001816520461021FFF74EFB05F15804BD
:1014C000D5F8509013CCFEF73FFFFFF765F9944B2A
:1014D00000220025FFF755F806460F4648462146EC
:1014E000FEF732FFFFF758F902460B463046394601
:1014F000FFF7B9F8FFF763F98A498B4C8B4E00224E
:10150000886020468021B04720464FF48061012248
:10151000B047204601210022B04720464FF4007119
:101520000122B047204602210022B04720464FF456
:1015300080710122B047204608210022B047A4F55F
:1015400000604FF480410122B04720E0F44C0421B8
:101550002046FFF785FAEF4DE86002F033F9286581
:10156000EE4848F26101816520461021FFF7F4FA48
:101570006D4C20210022204600F0DFFC20464FF475
:101580008051012200F0D9FC98F80000451C88F831
:101590000050BDE8F88300BF59060020600300201A
:1015A000100400201C0000200088A340F808002040
:1015B000001401403B1F00082DE9F843DFF850817B
:1015C00098F80000032888BFBDE8F883DFE800F042
:1015D000027A0D20D24C04212046FFF741FACD4D6E
:1015E000E86002F0EFF8E86509E0CD4C0421204600
:1015F000FFF736FAC74DE86002F0E4F8A865C7487F
:1016000048F26201816520461021FFF7A5FA77E0D4
:10161000C34C04212046FFF723FABE4DE86002F0D8
:10162000D1F82865BD4848F2600181652046102147
:10163000FFF792FA05F15804D5F8509013CCFEF755
:1016400083FEFFF7A9F8364B00220025FEF799FF2D
:1016500006460F4648462146FEF776FEFFF79CF801
:1016600002460B4630463946FEF7FDFFFFF7A7F866
:10167000A9492D4C2D4E0122C86020464021B0477B
:1016800020464FF400610022B0472046012101228C
:10169000B04720464FF400710022B0472046022197
:1016A0000122B04720464FF480710022B047204607
:1016B00004210122B047A4F500604FF4004100224C
:1016C000B04720E0964C04212046FFF7C9F9914D20
:1016D000E86002F077F82866904848F26101816579
:1016E00020461021FFF738FA0F4C20210122204616
:1016F00000F023FC20464FF48051002200F01DFC36
:1017000098F80000451C88F80050BDE8F88300BF39
:101710005A06002060030020100400201C00002056
:101720000088A340F8080020001401403B1F000877
:101730002DE9F041DFF8D48198F80000072888BF30
:10174000BDE8F081DFE800F0041A30475D7389A638
:1017500073480421FFF784F96E4CE06002F032F820
:1017600060660120FFF736FB6C4848F26001816536
:1017700071481021FFF7F0F9022083E06E48042140
:10178000FFF76EF9634CE06002F01CF8A0660220DF
:10179000FFF720FB614848F2600181656548102130
:1017A000FFF7DAF903206DE0624804210424FFF713
:1017B00057F9584DE86002F005F8E8660320FFF796
:1017C00009FB564848F26001816559481021FFF72E
:1017D000C3F96C7057E056480421FFF741F94D4CAE
:1017E000E06001F0EFFF20670420FFF7F3FA4B48B9
:1017F00048F2600181654D481021FFF7ADF90520E1
:1018000040E04A480421FFF72BF9424CE06001F028
:10181000D9FF60670520FFF7DDFA404848F2600114
:10182000816541481021FFF797F906202AE03E48DC
:101830000421FFF715F9374CE06001F0C3FFA06702
:101840000620FFF7C7FA354848F260018165354840
:101850001021FFF781F9072014E032480421FFF737
:10186000FFF82C4CE06001F0ADFFE0670720FFF7C8
:10187000B1FA2A4848F26001816525481021FFF736
:101880006BF90820607098F80000013088F80000BB
:10189000BDE8F0811E480421FFF7E2F81D4FF86013
:1018A00001F090FF786507F16406044663CEFEF709
:1018B000F9FC2946FEF7F6FC3146FEF7F3FC796F9A
:1018C000FEF7F0FCB96FFEF7EDFCF96FFEF7EAFCEE
:1018D00001462046FEF7E6FC4FF07851FEF73AFD50
:1018E0000D4908610820FFF775FA0C4848F26101BC
:1018F00081650B481021FFF72FF902F08FFE03F0EE
:1019000067FD012078700020C0E700BF5B06002063
:10191000B403002010040020F80800201C00002060
:1019200060030020A80300209C03002090030020F7
:1019300084030020780300206C03002090F821101D
:10194000022912D1016801230A6822F00E020A60FE
:101950000A6822F001020A60D0E90F1203FA02F2CB
:101960004A60002180F8213002E0042181630121D6
:10197000002280F8202008467047000090F82110CF
:10198000022919D10268116821F00E011160116855
:1019900021F001011160A04901F17C039A420FD9A5
:1019A000A54B9A4224D0A54B9A4223D0A44B9A42ED
:1019B00022D14FF4807327E004218163012143E0A9
:1019C000964B9A4226D0964B9A4225D0954B9A42F6
:1019D00024D0954B9A4224D0944B9A4217D0944BE2
:1019E0009A4221D0934B9A4211D14FF080721DE060
:1019F000012309E0102307E001F5886C4FF48033E0
:101A0000624508BF4FF48053C1F800340FE04FF433
:101A100080320BE0012209E0102207E04FF48072CF
:101A200004E04FF4805201E04FF480120A6000217C
:101A3000012280F8201080F82120426B22B180B56D
:101A400090470021BDE880400846704710B5D0E9B6
:101A50000FC3DCF80020D0F800E0DEF8001011F031
:101A6000040F1EBF04249C4014EA020424D18C07F6
:101A70003ED502249C4014403AD0DEF8001011F00C
:101A8000200F08D1DEF8001021F00A01CEF8001076
:101A9000012180F82110604A02F17C018E4542D973
:101AA00065498E456FD065498E456ED064498E4537
:101AB0006DD14FF4007172E0DEF80010564A11F05B
:101AC000200F02BFDEF8001021F00401CEF8001054
:101AD00002F17C018E453ED957498E4562D0574967
:101AE0008E4561D056498E4560D14FF4806165E0E6
:101AF000090740F1908008219940114008BF10BDAE
:101B0000DEF8001021F00E01CEF80010012101FADC
:101B100003F2CCF804200022816380F8202080F8B2
:101B20002110016B73E03D498E4550D03C498E45F4
:101B30004FD03C498E454ED03B498E454ED03B4917
:101B40008E453ED03A498E454BD03A498E4538D1E4
:101B50004FF0007147E031498E454AD030498E45FB
:101B600049D030498E4548D02F498E4548D02F491D
:101B70008E4529D02E498E4545D02E498E4523D1FC
:101B80004FF0806141E0022109E0202107E002F5E9
:101B900088634FF400319E4508BF4FF40051C2F8EE
:101BA000001421E0042109E0402107E002F58863E8
:101BB0004FF480219E4508BF4FF48041C2F80014C5
:101BC00024E04FF400310EE04FF480211DE00221AB
:101BD00009E0202107E04FF4007104E04FF40051C8
:101BE00001E04FF400111160002180F82010816A9B
:101BF0000DE0042109E0402107E04FF4806104E09A
:101C00004FF4804101E04FF480011160C16A11B1CD
:101C1000BDE81040084710BD040002400800024023
:101C20001C000240300002404400024058000240C4
:101C30006C00024080000240080402401C04024084
:101C40003004024001460120002908BF7047B0B5AA
:101C500002221C4C81F82120194A0B6802F1080C61
:101C6000634538BFA2F5806238BF04F5806403EB9A
:101C7000040C1424BCFBF4F4A400C1E90F2443F6C3
:101C8000F0741A6822EA040CD1E90142D1E903E5B3
:101C900044EA0C04224342EA0E022A434D692A43D5
:101CA0008D692A43CD692A431A6000228A6381F82C
:101CB000202081F821000020BDE8B040704700BF1F
:101CC00000040240F8FBFDBF10B5044690F8200068
:101CD000012820D0012084F8200094F82100012858
:101CE00016D1022084F821000020A063D4F800C09F
:101CF000DCF8000020F00100CCF800002046FEF7E0
:101D0000E5FF2068E26A01683AB141F00E010AE09D
:101D1000002084F8200002200BE021F00401016083
:101D2000016841F00A010160016841F001010160B0
:101D30000020C0B210BD000080B5C00658BF80BDF5
:101D40000548402100F0ECF800B180BD02F06EFCC7
:101D5000BDE8804003F03CBB0008014003490A682D
:101D6000024214BF08607047FFF7E6BF1404014049
:101D70002DE9FC4F81465F4806234FF0000C4FF0E1
:101D800001084FF00F0E4FF0000A81455A4808BF76
:101D9000052348444FEAB022052A4FF0000238BF1D
:101DA0004FEAB02300930C6834FA02F508BFBDE88F
:101DB000FC8F08FA02F73C4200F098804D68032D32
:101DC00016D9112D26D0122D28D04E48854213D079
:101DD0004D48854210D04D4885420DD04C48854233
:101DE0000AD04C48854207D04B48854204D022E0B7
:101DF000DFE805F002181B1F8C6844B1012C4FF07E
:101E0000080A14BFC9F81470C9F8107013E04FF035
:101E1000040A10E0CC6804F1040A0CE0CC6804F178
:101E20000C0A08E0D1F80CA005E0CC6804F1080A1F
:101E300001E04FF0000A082A6446484628BF203CCB
:101E400028BF043006680EFA04F50AFA04F426EAFC
:101E500005052C430460C879C00647D57948274E4C
:101E600022F0030503460068B346354440F0010004
:101E700018601868294B00F0010001900CF00C006C
:101E8000019E0EFA00F49E46EE58009B03FA00F005
:101E900026EA04041A4B204345F80E004FF00F0EBB
:101EA0004D68DBF8080015F4801F0CBF20EA07041A
:101EB00040EA0704A802CBF80840186854BF20EA9B
:101EC000070440EA0704A8031C60DBF8040054BFC1
:101ED00020EA070440EA0704E803CBF80440DBF8F3
:101EE000000054BFB8433843CBF800000CF1040C99
:101EF000013258E7001C014000F8FEBF0004014019
:101F00000C0401400000111000001210000021100C
:101F100000002210000031100000321008FCFFFF0A
:101F20008068084018BF01207047C26802EA0103B8
:101F3000914341EA034101617047002A08BF090447
:101F40000161704730488068704700BFB0B50446F3
:101F500018B320684CF6CC41016045F25551016040
:101F600061684160A1688160FFF7ECFF0546206869
:101F7000C16811F0030F0BD0FFF7E4FF401B2828C6
:101F8000F5D32068C06810F0030FF0D0032005E0FF
:101F90004AF6AA210160002000E00120C0B2B0BDD5
:101FA00000684AF6AA2101600020704780B5074802
:101FB000016841F010010160032000F089F80F2052
:101FC00000F006F800F022F8002080BD002002405A
:101FD00070B50D4E04464FF47A713078B1FBF0F0D5
:101FE0009A490968B1FBF0F000F01AFB01250F2CAB
:101FF00008D838B94FF0FF3021460022002500F004
:1020000045F87460284670BD0C00002082B00D4871
:102010000222016841F001010160016801F0010143
:1020200001910199416841F080514160406800F0A0
:102030008050009000980448016862F31A610160C2
:1020400002B07047181002400400014000280CDB69
:1020500000F01F010122400902FA01F1034A42F88F
:102060002010BFF34F8FBFF36F8F704780E100E008
:10207000002808DB00F01F010122400902FA01F1EB
:10208000014A42F82010704700E100E010B5164BFD
:102090001B68C3F3022E0EF1040CAEF103048EF0A4
:1020A0000703BCF1070F4FF0010C38BF0024042BCD
:1020B00028BF04230CFA03F3013B19400CFA04F384
:1020C000013BA1401A401143BDE8104001F00CBE95
:1020D00005494FF6FF030A681A4060F30A220348D5
:1020E00010430860704700BF0CED00E00000FA05E7
:1020F0002DE9F04188460446002800F08880464FCC
:102100004FF48050395801F0070141450AD239583F
:1021100021F0070141EA08013950385800F0070062
:10212000404574D1206810F0020F11D0410742BF22
:10213000796841F4E0617960010742BF796841F450
:10214000605179607968A26821F0F00111437960EB
:10215000C00727D06068012804D1396811F4003F16
:1021600008D154E03968022802D1890102D44EE036
:1021700089074CD5796821F0030108437860FFF79F
:10218000E1FE064641F288357868616800F00C008F
:10219000B0EB810F06D0FFF7D5FE801BA842F3D924
:1021A000032035E04FF48050395801F007014145D4
:1021B0000AD9395821F0070141EA08013950385845
:1021C00000F00700404522D1206810F0040F05D030
:1021D0007968E26821F4E06111437960000706D56F
:1021E0007868216920F4605040EAC100786000F00E
:1021F00031F87968094AC1F30311515CC8401349A9
:10220000086007480068FFF7E3FE002000E00120B7
:10221000C0B2BDE8F08100BF001002401E6000089F
:10222000100000200948FA49094A00680968C1F30A
:102230000221515CC8407047F748F549044A0068DC
:102240000968C1F3C221515CC840704718000020E2
:102250002E60000810B50D4C0D48226802F00C03EA
:10226000082B18BF10BDC2F383430AA112F4803FAC
:10227000CB5C02D10C48584310BD216809A25843D9
:10228000C1F34041515CB0FBF1F010BD04100240BD
:1022900000127A0002030405060708090A0B0C0D58
:1022A0000E0F10100102000000093D002DE9FE4351
:1022B0000446002800F05C812078D44ED44FC0073B
:1022C000B14650D0386800F00C00042818D03868A7
:1022D00000F00C00082803D1386810F4803F0FD1BB
:1022E0006068A0B1B0F5803F06D03168B0F5A02F8E
:1022F00025D141F480203060306840F4803024E003
:10230000306810F4003F2ED0606860BB30E1306868
:1023100020F480303060306820F480203060FFF797
:1023200011FE0546D9F800004E4610F4003F1AD0C1
:10233000FFF708FE411B03206429F3D919E121F4BA
:1023400080303060306820F480203060FFF7FAFD84
:102350000546306810F4003F05D1FFF7F3FD401B40
:102360006428F6D9E6E0207880072FD5386810F089
:102370000C0F08D0386800F00C0008280BD1386822
:1023800010F4803F07D1306810F0020F17D0206999
:10239000012814D0ECE021699E48002900F08A80D1
:1023A00001210160FFF7CEFD0546306810F0020FF5
:1023B00005D1FFF7C7FD401B0228F6D9BAE0306807
:1023C000616920F0F80040EAC10030602078000721
:1023D00030D5A06980B18F480121C0F88014FFF783
:1023E000B1FD0546386A10F0020F16D1FFF7AAFDBD
:1023F000401B0228F6D99DE086480021C0F88014D1
:10240000FFF7A0FD0546386A10F0020F12D0FFF763
:1024100099FD401B0228F6D98CE07F484FF4FA5111
:102420000068B0FBF1F0029000BF0298411E002846
:102430000291F9D12078400740F18580B86910F009
:10244000805F0BD1B8694FF0010840F08050B8614F
:10245000B86900F080500190019801E04FF0000849
:102460006E4E484659F8060010F4807F14D159F892
:10247000060040F4807049F80600FFF763FD05464A
:10248000484659F8060010F4807F05D1FFF75AFD41
:10249000401B6428F4D94DE0E068F0B1012805D074
:1024A000F969052831D141F00400F861F86940F07C
:1024B000010030E000210160FFF744FD0546484679
:1024C000D9F8000010F0020F3FF480AFFFF73AFD9B
:1024D000411B03200229F2D94BE0F86920F00100EA
:1024E000F861F86920F00400F861FFF72BFD05465C
:1024F00041F28836F86910F0020F1DD0FFF722FD77
:10250000411B0320B142F5D933E021F00100F8610D
:10251000F86920F00400F861FFF714FD054641F268
:102520008836F86910F0020F06D1FFF70BFD401B4B
:10253000B042F6D903201CE0B8F1000F1EBFB86905
:1025400020F08050B861E669002E5DD0386800F058
:102550000C00082811D1012E0AD03868216A00F435
:1025600080328A4204D1616A00F4701088424BD0F4
:102570000120C0B203B0BDE8F083264900208846A0
:102580000866FFF7DFFC0546022E0DD14646484699
:10259000D9F8000010F0007F13D0FFF7D3FC411BE7
:1025A00003200229F3D9E4E74846D9F8000010F0E7
:1025B000007F29D0FFF7C6FC411B03200229F3D975
:1025C000D7E7206AB0F5803F05D13968A26821F4C9
:1025D0000031114339603968626A104321F4741183
:1025E0000843386001203066FFF7ACFC04464846DB
:1025F000D9F8000010F0007F06D1FFF7A3FC011B03
:1026000003200229F3D9B4E70020B2E7001002400A
:102610000410024000004242180000200060FEFF4B
:10262000411E0020B0EB116F1CBF01207047044A0F
:10263000F023516003490B700721906011607047CF
:1026400010E000E023ED00E0704710B5044600689C
:10265000416994F84120212A15D111F0800101D15E
:1026600011E0206850E8050F216820F0800041E863
:102670000502002AF5D1A06B08B1FFF75FF92046EB
:1026800001F0C7F92068416994F84220222A14D148
:1026900011F0400101D110E0206850E8050F2168D9
:1026A00020F0400041E80502002AF5D1E06B08B1B6
:1026B000FFF744F9204601F085F9002010BD70476E
:1026C000BCB50446006802680146D0F80CE051F839
:1026D000143F12F00F0F65D00EF4907503F0010C4B
:1026E0005CEA050368D0D0071FBF1EF48070606CE1
:1026F00040F001006064500706D5BCF1000F1EBF1A
:10270000606C40F002006064900706D5BCF1000FD9
:102710001EBF606C40F004006064100708D50EF026
:10272000200050EA0C001EBF606C40F0080060649E
:10273000606C002800F009810EEA0200800605D5D1
:10274000204601F074F9206800F114010868616CFA
:1027500000F0400001F00801084300F0E28020464C
:1027600001F030F92068416911F0400F01D1D3E048
:10277000206850E8050F216820F0400041E805027C
:10278000002AF5D1E06B002800F0C680744941634F
:10279000FFF7F4F8002800F0D880E06B416BBDE84B
:1027A000BC4008470EEA020111F0200F06D0204677
:1027B000BDE8BC4001F03BB90EEA0201226BCB063A
:1027C0003DD5012A3BD10021019101680191416869
:1027D00001910199416911F0400F41D1E18DA28D24
:1027E000E38D002B00F0B180511A0A0401D1ACE056
:1027F000206850E8030F226820F4907042E8030339
:10280000002BF5D1206850E8050F226820F0010068
:1028100042E80503002BF5D1202084F84200002077
:102820002063206850E8030F226820F0100042E87F
:102830000303002BF5D1022089B2606357E00A063A
:102840005AD4490640F18180C16821F04001C1603D
:10285000202084F841002046BDE8BC4000F071B95A
:10286000E26B11684B6899B200296ED0B4F82CC0A5
:1028700061456AD2E3859169202901D131E0206860
:1028800050E8030F216820F4807041E80302002A19
:10289000F5D1206850E8050F216820F0010041E8DB
:1028A0000502002AF5D1206850E8050F216820F0C4
:1028B000400041E80502002AF5D1202084F84200BA
:1028C00000202063206850E8030F216820F01000EA
:1028D00041E80302002AF5D1E06BFFF72FF8B4F8C6
:1028E0002CC002206063E08DACEB000081B220467A
:1028F000BDE8BC40FFF7A8BE94F84110212924D1BF
:10290000A168B1F5805F01D1216981B1216A4A1CBA
:1029100022620978416011E02046BDE8BC40FFF723
:10292000CEBE2046FFF7CBFE00206064BCBD216A0E
:1029300031F8022B6FF35F2242602162E18C4FF687
:10294000FF7201391142E18400D0BCBDC16821F0A1
:102950008001C160C16841F04001C160BCBD00BFE1
:10296000CF38000810B5044648B394F8410028B9A0
:10297000002084F84000204600F024F8242084F849
:1029800041002068C16821F40051C160204601F077
:10299000B3F82068016921F490410161416921F097
:1029A0002A014161C16841F40051C1600020202129
:1029B000606484F8411084F84210606310BD012007
:1029C00010BD0000F0B585B000270446E74DCDE905
:1029D0000377CDE901772168A5F54440814242D1D2
:1029E000744801AE416841F480214160416801F4BE
:1029F000802100910099016841F008010160314691
:102A0000006800F0080000900098022002904FF447
:102A100080600190032004902846FFF7A9F94FF445
:102A2000006002973146019028460397FFF7A0F90E
:102A30000E4D0F488021C5E900072846C5E90271FF
:102A4000C5E90477C5E90677FFF7FCF808B1FEF79A
:102A500087FB272000210022E5636C62FFF716FB4D
:102A60002720FFF705FB05B0F0BD00BFE8090020F7
:102A70003000024010B590F84230202B07D10124DD
:102A800031B12AB10024046301F078F800E0022497
:102A9000E0B210BD704770472DE9F843044690F846
:102AA00041001D461746884620281CD1B8F1000F6A
:102AB0004FF0010018BF002F3FD04FF00009212038
:102AC000C4F8449084F84100FFF73CFAA784E784F7
:102AD0000646A068B0F5805F07D12769002F0CBFBC
:102AE000C146474619E0022027E0474615E0204648
:102AF000802132462B4601F08DF8C0B91FB117F87E
:102B0000011B206805E039F8021B206800276FF3DD
:102B10005F214160E08C0138E084E08C0028E6D140
:102B20002046402132462B4601F074F808B10320BC
:102B300003E0202084F841000020C0B201B0BDE8CD
:102B4000F0837047B0B5894C744D40210022204677
:102B5000A84700F07FF8204680210022A8472046A1
:102B600040210122A8472046402100222B46BDE8F3
:102B7000B040184770B586B000207C4C0122C025BB
:102B8000012604900B48016841F008010160C02152
:102B9000006800F00800019001982046FFF7CDF989
:102BA0000320CDE9025602A905902046FFF7E0F880
:102BB00006B070BD18100240B0B56C4C574D4021A6
:102BC00000222046A84700F045F820468021012237
:102BD000A847204640210122A84720464021002244
:102BE0002B46BDE8B0401847F8B5044600F026F87B
:102BF0005E4D0027002614E0284640210022FFF702
:102C00009CF9284640210122FFF797F928468021A8
:102C1000FFF786F9002807F1010718BF012040EAF5
:102C20004606F8B20728E7D914B1FFF78BFF01E099
:102C3000FFF7C2FFF0B201B0F0BD00BFF8B5002051
:102C40008021CDE90200CDE9001048486946FFF730
:102C50008FF88FBDF8B58020694600900020029063
:102C600001200190032003904048FFF781F88FBDB9
:102C700070B50446FFF7EEFF3C4D402100220026D0
:102C80002846FFF75AF9F0B2072888BF70BD60B236
:102C90008021B0F1FF3F2846CCBF00220122FFF780
:102CA0004CF9284640210122FFF747F928464021E8
:102CB0000022FFF742F901366400E4E7B0B5FFF700
:102CC000C9FF2A4C154D802101222046A8472046E5
:102CD00040210122A847204680210022A847204603
:102CE000402100222B46BDE8B0401847B0B5FFF7A1
:102CF000B1FF1E4C094D402100222046A847204626
:102D000080210022A847204640210122A8472046D2
:102D1000802101222B46BDE8B04018473B1F000828
:102D2000B0B5FFF78BFF114C802101222046FFF741
:102D300004F9204640210122FFF7FFF80025204634
:102D40008021FFF7EDF840B1E9B2681CFA29054689
:102D5000F5D3FFF7CBFF012505E0204640210022F7
:102D60000025FFF7EAF82846B0BD00BF000C01407F
:102D700070B5F84C00250026204620210122FFF7DF
:102D8000DCF8012002F094F8F0B2072884BFE8B222
:102D900070BD204620210022FFF7CFF8012002F06D
:102DA00087F820464021FFF7BBF840EA4505013689
:102DB000E2E700BF70B5E74D044620210122284616
:102DC000FFF7BBF80026F0B2072888BF70BD2006C9
:102DD0004FF08001284654BF00220122FFF7ADF8D2
:102DE000284620210022FFF7A8F8284620210122AA
:102DF000FFF7A3F801366400E5E700BF2DE9FF41C6
:102E000090460D46002102AA0026ADF80C10029152
:102E1000ADF80410009103E0AB5D9355A955013660
:102E2000B045F9D10138072816D8DFE800F00406CC
:102E3000080A0C0E101201200CE002200AE0032008
:102E400008E0042006E0052004E0062002E0072058
:102E500000E00820FEF748F99DF80800FFF7AAFFF8
:102E600001246F4603E0FFF783FF38550134B44275
:102E7000F9D3002002E0395C295401308642FAD1AE
:102E8000404604B0BDE8F0812DE9FC410025144620
:102E9000E846CDE9005503E04A5D08F80520013514
:102EA000AC42F9D10027461E1DE0072E16D8DFE8F8
:102EB00006F00406080A0C0E101201200CE0022095
:102EC0000AE0032008E0042006E0052004E00620D4
:102ED00002E0072000E00820FEF706F918F80700D6
:102EE000FFF768FF0137BD42DFD1204602B0BDE8E1
:102EF000F081000080B50548FFF752F820B104A02A
:102F0000BDE8804002F042B880BD00BF2C0A00201E
:102F10005761746368646F67207265667265736871
:102F2000206661696C6564210A000000F8B50446FA
:102F30000078FDF74FFE1B2020812046FDF7FDFDA8
:102F4000844D202101222846FEF7F7FF28468021E4
:102F50000122FEF7F2FF4FF4167001F0A9FF1A4E9E
:102F60000025002707E07560666020463178FDF790
:102F700077FD0C360137207A8742F4D3124D48F2A0
:102F80006100124E10216560A8652046B0470220FE
:102F90000221E8612046B047002001212861204637
:102FA000B0474FF4F8502021C5F888002046B047BC
:102FB00009202821C5F8B8002046B0472078BDE890
:102FC000F840FDF707BF00BF1C000020590B0008A8
:102FD000E0B50A480022016841F0010101600021CA
:102FE000006800F00100019001980D20FFF74EF8F5
:102FF0000D20BDE88C40FFF73BB800BF1410024025
:103000002DE9F04F85B05248524C534D01224FF0FC
:103010001009016841F004010160016801F0040138
:1030200001910199016841F010010160016801F00E
:10303000100101910199016841F0400101600168AE
:1030400001F0400101910199016841F0080101601E
:10305000016801F0080101910199016841F0200126
:1030600001601021006800F02000019001982046C6
:10307000A8472046A02100220026A84704F5805733
:103080004FF47E5101223846A84704F5806A4FF478
:10309000704100225046A84704F5406843F6FF718E
:1030A00000224046A8474FF0010B01AD0220CDE9B8
:1030B000019BDFF8A8900396049020462946C84754
:1030C000A020CDF808B029464FF0010B0190032055
:1030D000039604902046C847402002962946019056
:1030E00020460396C8471E482946029010200190AA
:1030F00004F500600396C8474FF47E50CDF808B041
:10310000022429460190384603960494C8474FF498
:103110007040CDF808B0294601905046CDE90364CF
:103120000224C84743F6FF70CDF808B02946019045
:103130004046CDE90364C8470A2000210022FEF77B
:10314000A5FF0A20FEF794FF05B0BDE8F08F00BF91
:1031500018100240000801403B1F0008711D0008C4
:103160000000111080B50848084A042140F6FF739A
:10317000C0E900218360FEF7E9FE002814BFBDE826
:10318000804080BDFDF7ECBF2C0A002000300040DD
:1031900080B50C480C4A4FF4E13100234FF00C0C81
:1031A000C0E90021C0E90233C0E9043CC0E90633AC
:1031B000FFF7D8FB002814BFBDE8804080BDFDF7B5
:1031C000CFBF00BF380A002000480040FEE70000E3
:1031D0002DE9F04FA3B0DFF81C7EDFF8C0653D4657
:1031E00035F8021B8C1EC1F58171FF2C06EB040023
:1031F00088BF0021FDF74BF8304629462246FDF7EF
:103200002DF83046214600F0E9FD229042BA388878
:10321000DFF8B8BDDFF88815019028440A800BF16B
:10322000980E0BF1A40A30F8020C00BA000C2190A1
:103230004880DBE93A10CDE91F10DBF82C001E9026
:10324000DBF8C8001590DBF8CC001690DBF8D00056
:103250001790DBF8D4001890DBF8D8001A90DBF850
:10326000DC001B90DBF8E0001C90DBF8E4001D9014
:10327000DBF8C4001390DBF8C0001290DBF8BC0050
:103280001190DBF8B8001090DBF840000F90DFF8E9
:10329000140581790E9141790C91417819918178C9
:1032A0000D91C17800790A910B90DBF82400099008
:1032B000DBF828000890DBF83C000590DBF81400F0
:1032C0000690DBF818000490DBF81C001490DBF883
:1032D00020000790DBF838000390DBF8B400029080
:1032E000DBE92251DBE924729EE808509AE84007A6
:1032F00028BADFF8B45436BA99FA89F4E86108BA02
:1033000011BA1ABA9CFA8CF398FA88FCA86138BAF8
:103310009EFA8EF7C5E90810C5E90A32C5E90C67BF
:10332000C5E90E4C9AFA8AF0DFF880746864029856
:10333000209900BA09BA2864039800BA6860049812
:1033400000BA2860059800BAA860069800BAE8603C
:10335000089800BA2861079800BA6861099800BA0D
:10336000A8640A9840BAA5F84C000B9840BAA5F892
:103370004E000C9840BAA5F850000E9840BAA5F837
:1033800052000D9840BAA5F854000F9800BAC5F83D
:103390005600109800BAC5F86600119800BAC5F832
:1033A0006200129800BAC5F86E00139800BAC5F80A
:1033B0006A00159800BAC5F87600169800BAC5F8E4
:1033C0007200179800BAC5F87E00189800BAC5F8C0
:1033D0007A001A9800BAC5F886001B9800BAC5F89A
:1033E00082001C9800BAC5F88E001D9800BAC5F876
:1033F0008A001E9800BAC5F85E00149800BAC5F895
:103400005A00199840BAA5F892001F9800BAC5E969
:10341000250107F19C006421FCF739FF3846294655
:103420009C22FCF71BFF2298219900BAB1EB304F88
:1034300040F0AE81D8480146C0780B4610285ED0D7
:10344000062878D003289A4640F0A2819AF8060010
:103450009AF80740DFF848B3DFF860834FF48071D3
:1034600044EA0025BAF80400A1EB45017F2DCBF812
:10347000085000BA4FEA104608EB4500ABF804606C
:1034800088BF0021FCF703FF07EB46006E00A0F5A4
:10349000007140463246FCF7E1FEDFF8149340F23B
:1034A000013041463246A9F80000600009F10307E7
:1034B00089F802003846FCF7D1FE032000EB4501F5
:1034C000484600F08BFCDBF808100AF2011627F8DA
:1034D0001100052000EB4105FA20A0EB4101FE2D73
:1034E00006EB050088BF0021FCF7D1FE30464946B7
:1034F0002A46FCF7B3FEAF48AAB2314644E19888A9
:10350000A74900BA4FEA104AA1F804A04FF481710C
:10351000B1EB104F35D0BAF5A67F35D040F22B1065
:10352000824534D0BAF5A57F34D0BAF5827F35D143
:103530009C48083030E09888994A01BA080C90807D
:103540009D4A02EB114104290ED8DFE811F0050075
:103550000201EA00F200FA00D879924901280CBF72
:1035600001200020C87004E140F24911884240F077
:103570000081D879012840F0F4808A494FF48070A6
:10358000DDE08848073007E086480B3004E08548D6
:10359000093001E083480A3001210170D98807EB26
:1035A0004A001A7AA0F50070229103F10901FCF794
:1035B00055FE284639469C22FCF750FE05F1280CA2
:1035C000D5E9019ED5F80C80D5E90637D5E9084044
:1035D0009CE846101BBA3FBA24BA00BA09BA12BA1C
:1035E00036BA9CFA8CFCCBE92273CBE92404704CEC
:1035F000CBE92621CBE928C6A86BD5F86220D5F8FF
:103600006630D5F8561000BA12BACBF8AC00E86BA9
:1036100000BACBF8A800286C00BACBF8B400686CEC
:1036200000BACBF8B00099FA89F0CBF838009EFACE
:103630008EF0CBF83C0098FA88F0CBF82800D5F84B
:10364000720000BACBF8CC00D5F8760000BACBF8FF
:10365000C800D5F86A0000BACBF8C400D5F86E00EF
:1036600000BACBF8C000A86CCBF8BC201ABACBF8D3
:10367000B82000BACBF8340008BAD5F87E10CBF8E1
:103680004000D5F87A0009BA00BACBF8D010D5F8C6
:103690008610CBF8D400D5F8820000BACBF8DC0055
:1036A00008BAD5F88E10CBF8D800D5F88A0000BA41
:1036B000CBF8E40008BACBF8E000D5E9250100BA60
:1036C00009BACBE93A0141F2010020803448229A3C
:1036D000014682609AFA9AF0A28088806080204633
:1036E000062100F07BFB2C4DE080F72105F209104C
:1036F000FCF7CDFDD4E9000108224FF6FF73C5F8B1
:1037000001012C48C5F8051105F20111FFF7C4F9B4
:103710000020288000F086FF23B0BDE8F04F01F0C4
:1037200057BED8791F4901280CBF012000204871DD
:103730001FE0D879012818D11A4901208871088022
:1037400017E0D879174901280CBF012000208870A4
:103750000FE0D879134901280CBF0120002008711F
:1037600007E010490020487003E00E49002008706F
:103770008871019C03F20115991C28462246FCF72A
:103780006DFD0C48294622464FF6FF73FFF784F97A
:1037900023B0BDE8F08F00BFD88E00203C0500208C
:1037A000900400203C0600205C060020F806002063
:1037B000D88D0020380A0020DAFEFFFFF80700202D
:1037C000FEE7000080B5FCF7E2FFFCF7E5FF002212
:1037D0004FF07853FCF7D5FE054B0022FCF72AFE8C
:1037E000044B0022FCF7CDFEFCF7E9FF80BD00BFD3
:1037F0000000F0BF00000440704780B501F070FB8E
:1038000002F00CF9BDE8804001F07EBBB0B590B08D
:10381000002401A814210B94CDE90944FCF737FDDD
:103820004FF4803009210225079006910121089468
:103830000A910C91CDE90D504FF4E0100F9006A8BD
:10384000FEF734FD18B1EFF3108072B6FEE70F20DB
:10385000022101904FF480600394CDE9040401A893
:103860000295FEF745FC18B1EFF3108072B6FEE743
:1038700010B0B0BD1048016801F00C020F49082AD1
:103880000FD10268C2F383420368023213F4803F0F
:1038900001D10B4904E0036813F4003F18BF084945
:1038A0005143084A084B11600068C0F30310185CCC
:1038B00021FA00F0106070470410024000127A00F4
:1038C00000093D00180000201E6000087047406A93
:1038D0000021C185C184FEF7F2BE10B5446A20689C
:1038E00050F8141F94F84120212A09D111F08001C9
:1038F00006D00020E084204600F08BF820681430C9
:10390000006894F84210222907D110F0400004D03A
:103910000020E085204600F055F8606C40F0100073
:1039200060642046BDE81040FEF7C9BE0168406AE9
:10393000096811F0200F2FD10021C185016851E8DD
:10394000031F026821F4807142E80313002BF5D1B4
:10395000016851E8051F026821F0010142E80513E2
:10396000002BF5D1016851E8051F026821F04001E4
:1039700042E80513002BF5D1202180F84210016B9D
:10398000012909D1016851E8031F026821F01001E3
:1039900042E80313002BF5D100214163016B01299B
:1039A00018BFFFF777B8818DFEF74EBE406A012140
:1039B0004163016B012918BFFFF76DB8818D49087C
:1039C000FEF742BE016851E8031F026821F49071BE
:1039D00042E80313002BF5D1016851E8051F026886
:1039E00021F0010142E80513002BF5D1016B0129FB
:1039F00009D1016851E8031F026821F0100142E873
:103A00000313002BF5D1202180F84210002101631F
:103A10007047016851E8031F026821F0C00142E8C5
:103A20000313002BF5D1202180F84110704790F846
:103A30004210222918BF70478368B3F5805F05D113
:103A40000169B1B100F128010A680BE00146002BC1
:103A500051F8282F01D1036923B103685B6803F093
:103A60007F0301E003685B6813700A6801320A6033
:103A700007E00168826A49686FF35F2122F8021B40
:103A80008262C18D4FF6FF7201391142C18500D0AB
:103A900070470168CA6822F02002CA60CA6822F42E
:103AA0008072CA604A6922F001024A61202280F8CD
:103AB000422000224263036B012B18BFFEF7EABFCE
:103AC000026351E8031F026821F0100142E803136A
:103AD0000168002BF5D10A6812F0100F08D081B0F0
:103AE000002200920A68009249680091009901B092
:103AF000818DFEF7A9BD000010B50446006801697C
:103B0000E26821F44051114341F20C620161D4F8A2
:103B100008C0D4E904E3C16891434EEA0C021A4399
:103B20001143C1604169A26921F4407111434161AF
:103B30001149884202D0FEF775FB01E0FEF77CFBDD
:103B400019214843D4E900126FF063049200B0FBDE
:103B5000F2F06422B0FBF2F303FB0400322404EB26
:103B60000010B0FBF2F000F0F00200F00F0002EBEA
:103B700003121043886010BD00380140BCB51346E5
:103B8000002504460A46DFF880C0DFF884E045647B
:103B90008385816222201D4984F84200E06B00F198
:103BA000280787E80250456321680431FEF78CF846
:103BB000019520680168019141680191019921698D
:103BC00009B909E0206850E8030F216840F48070CB
:103BD00041E80302002AF5D1206850E8050F21686A
:103BE00040F0010041E80502002AF5D1206850E8C4
:103BF000050F216840F0400041E80502002AF5D198
:103C0000002002B0B0BD00BFAD3900082D3900085A
:103C1000DB3800082DE9F0411D4690460F4604466A
:103C20005E1C206800683840B84226D0002EF8D0CC
:103C30002DB1FEF787F9A0EB0800A842F1D9206862
:103C400050E8030F216820F4D07041E80302002AF5
:103C5000F5D1206850E8050F216820F0010041E807
:103C60000502002AF5D12020002184F8410084F8C3
:103C7000401084F84200032000E00020C0B2BDE8FC
:103C8000F081000010B5154C2046FEF719FD2068A4
:103C9000016811F0100F14D06FF010010160204680
:103CA000FEF7D3FC0E48D34901220068406881F832
:103CB0000022C0F58070088000F0BCFC01F088FB99
:103CC0002068C1684FF4807241F02001C160C9488A
:103CD000811C0248BDE81040FEF7CCBE380A002027
:103CE000E8090020FEE7000010B5074C00F00F03C4
:103CF000044AB0F1FF3F2344C8BF8318080118707D
:103D000010BD00BF00E400E014ED00E018B1C1B246
:103D100019B101200EE00020704710F47F4102D05D
:103D2000090A092006E010F47F0107BF010E1920DF
:103D3000090C1120014A515C0844704736600008A4
:103D40001CB500F1280C0446ACE80E002321049AAF
:103D500042631C30C4E90700184601F0ADF904F1D4
:103D600028030FCB1A44124B043A01F083F8606227
:103D7000104A2346059884F83E0084F83D00002050
:103D800020640699C4E91111A06384F83C00C4E9D9
:103D90002000CDE9000004F14C00214601F0EDFEC9
:103DA0000548016819B12046BDE81C4008471CBD04
:103DB0000957000889590008C48B0020B0B5054692
:103DC000FCF7D2F9D5F88010044609B12846884797
:103DD0002046BDE8B040FCF7CBB9000080B5DFF865
:103DE0002CC04FF6FF7E0BE010F8012B5FFA8EF32C
:103DF00001395A400EF47F433CF8122082EA132E18
:103E00000029F1D11FFA8EF080BD00BF60010020B3
:103E1000F8B5224D6868C0B900F092FE01F0FAFDD5
:103E2000044600260AE0686801306860009602E0F7
:103E300000980130009000986328F9D901F0EAFD5C
:103E4000001B0928EFD900F087FE002701F0E2FDF2
:103E50000446002608E0009702E000980130009038
:103E600000986328F9D9013601F0D4FD001B092818
:103E7000F1D96868B0420BD9811B64225143B1FB70
:103E8000F0F303FB10112B705143B1FBF0F002E093
:103E9000002028706E606870F8BD00BF000400202C
:103EA000014801F0B1BC00BF113E000880B500F030
:103EB000BDFB4FF0FF3101F0B7FA0028F7D1FCF756
:103EC00019FFF4E72DE9F04FF9B03F4C61A8142138
:103ED000A04749A81421A0470DF1C40A1421504657
:103EE000A0470DF1640B14215846A0470DF10409B9
:103EF00014214846A047354F354CDFF8D88000F0F4
:103F00008DFB4FF0FF3101F08FFA0028F7D13E68AA
:103F100021463046FCF724FC0028254601D03D60B0
:103F200007E0304600210025FCF70CFC002808BF04
:103F30003D607E6821463046FCF712FC002825468D
:103F400001D07D6007E0304600210025FCF7FAFB38
:103F5000002808BF7D60BE6821463046FCF700FCA3
:103F60000028254601D0BD6007E03046002100252D
:103F7000FCF7E8FB002808BFBD60FE68214630461C
:103F8000FCF7EEFB0028254601D0FD6007E0304637
:103F900000210025FCF7D6FB002808BFFD60396929
:103FA00061A8C047786249A83968C047786150461F
:103FB0007968C047B8615846B968C047F861484653
:103FC000F968C04738629AE73D460008F8080020C3
:103FD00000803B458B5F000810B5064C00F02AFBC3
:103FE0004FF0FF3101F020FA20880028F6D0FFF7CB
:103FF000EFF8F3E7D88E00202DE9F047FCF724FF17
:10400000DFF814A6DFF80846DFF808964FF000083E
:104010000AF10B0600F006FB4FF0FF3101F004FA45
:104020000028F7D1E079F8B1D9F8380000253746F3
:10403000CAF8080005E017F80119A8B2FCF71CFE41
:104040000135042DF7D10025374605E0A8B2FCF76D
:10405000E3FD07F801090135042DF7D1DAF808006E
:1040600084F80780C9F83800207A08B3D9F83C00F2
:1040700000253746CAF8080006E0281D17F8011980
:1040800080B2FCF7F9FD0135042DF6D10025374645
:1040900006E0281D80B2FCF7BFFD07F801090135D5
:1040A000042DF6D1DAF8080084F80880C9F83C003D
:1040B000607A18B3D9F8400000253746CAF80800DE
:1040C00007E005F1080017F8011980B2FCF7D4FDEC
:1040D0000135042DF5D10025374607E005F108002C
:1040E00080B2FCF799FD07F801090135042DF5D1DF
:1040F000DAF8080084F80980C9F84000A07A18B3FB
:10410000D9F8E80000253746CAF8080007E005F1AD
:104110000C0017F8011980B2FCF7AEFD0135042D33
:10412000F5D10025374607E005F10C0080B2FCF719
:1041300073FD07F801090135042DF5D1DAF80800FF
:1041400084F80A80C9F8E800E07A18B3D9F8EC00DE
:1041500000253746CAF8080007E005F1100017F8F7
:10416000011980B2FCF788FD0135042DF5D1002539
:10417000374607E005F1100080B2FCF74DFD07F867
:1041800001090135042DF5D1DAF8080084F80B8017
:10419000C9F8EC00207B18B3D9F848000025374651
:1041A000CAF8080007E005F1140017F8011980B2F9
:1041B000FCF762FD0135042DF5D10025374607E0F7
:1041C00005F1140080B2FCF727FD07F8010901355D
:1041D000042DF5D1DAF8080084F80C80C9F84800FD
:1041E000607B18B3D9F84C0000253746CAF80800A0
:1041F00007E005F1180017F8011980B2FCF73CFD43
:104200000135042DF5D10025374607E005F11800EA
:1042100080B2FCF701FD07F801090135042DF5D145
:10422000DAF8080084F80D80C9F84C00A07B18B3B8
:10423000D9F8500000253746CAF8080007E005F114
:104240001C0017F8011980B2FCF716FD0135042D8A
:10425000F5D10025374607E005F11C0080B2FCF7D8
:10426000DBFC07F801090135042DF5D1DAF8080067
:1042700084F80E80C9F85000E07B18B3D9F85400D8
:1042800000253746CAF8080007E005F1200017F8B6
:10429000011980B2FCF7F0FC0135042DF5D10025A1
:1042A000374607E005F1200080B2FCF7B5FC07F8BF
:1042B00001090135042DF5D1DAF8080084F80F80E2
:1042C000C9F85400207C18B3D9F8580000253746A7
:1042D000CAF8080007E005F1240017F8011980B2B8
:1042E000FCF7CAFC0135042DF5D10025374607E05F
:1042F00005F1240080B2FCF78FFC07F801090135B5
:10430000042DF5D1DAF8080084F81080C9F85800B7
:10431000607C18B3D9F85C0000253746CAF808005D
:1043200007E005F1280017F8011980B2FCF7A4FC9A
:104330000135042DF5D10025374607E005F12800A9
:1043400080B2FCF769FC07F801090135042DF5D1AD
:10435000DAF8080084F81180C9F85C00A07C18B372
:10436000D9F8600000253746CAF8080007E005F1D3
:104370002C0017F8011980B2FCF77EFC0135042DE2
:10438000F5D10025374607E005F12C0080B2FCF797
:1043900043FC07F801090135042DF5D1DAF80800CE
:1043A00084F81280C9F86000E07C18B3D9F8640082
:1043B00000253746CAF8080007E005F1300017F875
:1043C000011980B2FCF758FC0135042DF5D1002508
:1043D000374607E005F1300080B2FCF71DFC07F816
:1043E00001090135042DF5D1DAF8080084F81380AD
:1043F000C9F86400207D18B3D9F868000025374655
:10440000CAF8080007E005F1340017F8011980B276
:10441000FCF732FC0135042DF5D10025374607E0C5
:1044200005F1340080B2FCF7F7FB07F8010901350C
:10443000042DF5D1DAF8080084F81480C9F8680072
:10444000607D18B3D9F86C0000253746CAF808001B
:1044500007E005F1380017F8011980B2FCF70CFCF1
:104460000135042DF5D10025374607E005F1380068
:1044700080B2FCF7D1FB07F801090135042DF5D115
:10448000DAF8080084F81580C9F86C00A07D18B32C
:10449000D9F8700000253746CAF8080007E005F192
:1044A0003C0017F8011980B2FCF7E6FB0135042D3A
:1044B000F5D10025374607E005F13C0080B2FCF756
:1044C000ABFB07F801090135042DF5D1DAF8080036
:1044D00084F81680C9F87000E07D18B3D9F874002C
:1044E00000253746CAF8080007E005F1400017F834
:1044F000011980B2FCF7C0FB0135042DF5D1002570
:10450000374607E005F1400080B2FCF785FB07F86D
:1045100001090135042DF5D1DAF8080084F8178077
:10452000C9F87400207E18B3D9F878000025374602
:10453000CAF8080007E005F1440017F8011980B235
:10454000FCF79AFB0135042DF5D10025374607E02D
:1045500005F1440080B2FCF75FFB07F80109013563
:10456000042DF5D1DAF8080084F81880C9F878002D
:10457000607E18B3D9F87C0000253746CAF80800D9
:1045800007E005F1480017F8011980B2FCF774FB49
:104590000135042DF5D10025374607E005F1480027
:1045A00080B2FCF739FB07F801090135042DF5D17C
:1045B000DAF8080084F81980C9F87C00A07E002889
:1045C0003FF428ADD9F8800000253746CAF8080026
:1045D00007E005F14C0017F8011980B2FCF74CFB1D
:1045E0000135042DF5D10025374607E005F14C00D3
:1045F00080B2FCF711FB07F801090135042DF5D154
:10460000DAF8080084F81A80C9F8800002E500BFD3
:104610003C060020F8080020000000209548406873
:10462000704700BF9348C068704700BF914800685A
:10463000704700BF8F488068704700BF002200238A
:10464000C0E91412C0E916228B42A8BF704704C00B
:104650000133F9E710B5094C20464FF48051FDF7BE
:1046600064FC282001F04AF820464FF48051FDF701
:104670005CFC4FF4707001F041F8EDE7000C014074
:10468000BCB5FDF793FCFFF7C1F8FEF7B9FCFEF7E8
:104690009FFCFEF767FDFEF77BFDFFF701FCFEF7D1
:1046A00069FA0A20FDF7D2FC6148624C0021A0475C
:1046B00061480021A04761480021A04760480021CF
:1046C000A04760480021A0475F480021A0475F48FD
:1046D0000021A0475E480021A0470A20FDF7C8FC42
:1046E0005C4C2046FDF7B1FF20685B4C5B4D01221E
:1046F000C16841F02001C160C16841F01001C16092
:1047000020462021A84720464FF480510022A84788
:10471000204640210122A84720464FF40061002294
:10472000A847204601210122A84720464FF40071E6
:104730000022A847204602210122A84720464FF424
:1047400080710022A847204604210122A847A4F531
:1047500000604FF400410022A847454C40A00121D1
:104760000022A047434D01210022286042A0A0471B
:10477000686046A001210022A047A86046A0012150
:104780000022A047E86014240520484900224FF485
:104790008063CDE9000443A000F08FFF002843D0E0
:1047A00001F0B2F8062045490022FF23CDE90004BC
:1047B0003FA000F082FFB8B301F0A6F81424032054
:1047C00043490022FF23CDE900043DA000F075FF1E
:1047D00050B301F099F80420424900224FF42F739E
:1047E000CDE900043BA000F068FFE8B101F08CF8CF
:1047F000142407203F490022FF23CDE900043AA0FA
:1048000000F05BFF80B101F07FF808203C490022F6
:104810004FF40073CDE9000437A000F04EFF18B14B
:1048200001F072F8002001E04FF0FF3002B0B0BD9F
:10483000600300202D2F00086C0300207803002067
:1048400084030020900300209C030020A803002084
:10485000B4030020380A0020001401403B1F000868
:104860006D795F73656D6170686F7265000000003F
:10487000915300089C040020646174615F70726F42
:10488000636573735F73656D00000000756172741A
:10489000335F73656D000000656570726F6D5F73E7
:1048A000656D00006C65643100000000554600082D
:1048B0007761746368646F6700000000F15F00084F
:1048C000646174615F636F6E76657273696F6E00A9
:1048D000AD3E0008646174615F70726F63657373ED
:1048E00000000000C53E0008646174615F73656E7E
:1048F00064000000D93F0008656570726F6D0000AC
:10490000F93F0008B0B58D4C044D01E001CC804763
:10491000AC42FBD3BDE8B040FFF7B2BEC8610008AF
:1049200010B5DFF8D8CCD0F804E0DCF80C1001EBBF
:104930000E02824214D0538893B9DCF810309A42A8
:104940000ED0DCF814309342A0EB010308BFCCF882
:104950001400D2F804E0C0F804E052680A449360FE
:1049600082688B18834208BF10BD5C8804B110BDFB
:10497000DCF81440844208BFCCF81430C3F804E0DB
:1049800040680844826010BD2DE9FF4FDDF83CA06F
:104990004FA754A61AF0400F08BF3E461AF0100F5A
:1049A00018BF2AF0010A1AF0020F02D14FF00009D5
:1049B0000EE0B2F1FF3F08DD5FEA4A775ABF2027D9
:1049C00007EA8A094FF02B0902E052424FF02D0905
:1049D000DDE90D8CD2B14FF0000E4FF00A0B6D46A1
:1049E00011E00A2B06D1B2FBFBF707EB8704A2EB21
:1049F000440402E0170902F00F04345D3A4605F85A
:104A00000E400EF1010E002AEBD104E030224FF0EF
:104A1000010E8DF80020E6456346C8BF73461AF0C4
:104A2000110FA8EB030212D10024002A4D46C8BF83
:104A30000124B9F1000F18BF01252C402025121BBD
:104A400003E0884238BF05700130013AF9DAB9F164
:104A5000000F06D08842A2F1010238BF80F8009012
:104A600001305FEACA6409D420256AF3041503E023
:104A7000884238BF05700130013AF9DA302405E088
:104A80008842A3F1010338BF047001309E45F7DB73
:104A90006B460AE08842AEF101043EBF03EB0E070D
:104AA00017F8017C07700130A646BCF1000F02D058
:104AB000BEF1000FEEDC012ABCBF04B0BDE8F08FF0
:104AC0008842A2F101023CBF202303700130F2E7CB
:104AD0003031323334353637383961626364656674
:104AE0000000000030313233343536373839414236
:104AF0004344454600000000E0B514200A2100228E
:104B00004FF48073CDE90010054903A000F0D5FDF6
:104B1000BDE88C4000F0F8BE6D61696E00000000D9
:104B200005490008B0B5044C044DAC4228BFB0BDE7
:104B300001CC8047F9E700BFC0610008C4610008EC
:104B400080B5FBF711FB12490A8801320A80BDE8E3
:104B50008040FBF70DBB00BF80B5FBF705FB0C49A0
:104B60000A88013A0A8012B2002A03DDBDE88040BB
:104B7000FBF7FEBA00220A80FBF7FAFA0548406804
:104B8000002814BFBDE8804080BD00F08BBB00BF93
:104B90003405002000050020F8B50446E8B31F4F97
:104BA000796809B120468847F868A04235D8386945
:104BB000A04232D907F120054FF0FF31284600F01E
:104BC00033FC34F80A0CA4F10C0618B13088B0F5A7
:104BD000F55F0AD012A000F0D9F934F80C3C34F893
:104BE0000A2C16A0314600F0D1F94FF4F55044F8E4
:104BF0000C0C7869B04288BF7E6154F8080CF968E3
:104C0000BA69301A401A1044B8613046FFF788FE7E
:104C10002846BDE8F84000F0DBBBF8BDB00400203A
:104C2000746F206672656520612062616420646132
:104C3000746120626C6F636B3A0A00006D656D3AB7
:104C4000203078253038782C207573656420666CA8
:104C500061673A2025642C206D6167696320636F6A
:104C600064653A203078253034780A00024870476D
:104C7000014800F5004070471C0B002010B5FEF7FE
:104C8000F9FD95484FF47A710068B0FBF1F0411ED0
:104C90000020B0EB116F07D10A4AFF2351600A4987
:104CA0000B70072111609060FFF73CFFFFF7DEFFFC
:104CB0000446FFF7DDFF01462046BDE8104000F046
:104CC0006BBC00BF10E000E023ED00E02DE9FC41EB
:104CD000114D04464FF00D080DF107060DF10607C2
:104CE00013E02846314601224FF0FF338DF807804C
:104CF000FDF7D2FE20788DF80600284639460122BD
:104D00004FF0FF33FDF7C8FE013420780A28E8D0C1
:104D10000028F0D1BDE8FC81380A0020B0B5044677
:104D20002248016811B120468847F0B3216C204821
:104D3000204DA847616A2048A847A16A1F48A84794
:104D4000E16A1F48A847216B1E48A84761681E48B2
:104D5000A847A1681DA0A847E16820A0A84721692D
:104D600022A0A847616925A0A847A16927A0A84754
:104D7000E1692AA0A847216A2CA0A847616B2FA04F
:104D8000A847A16B31A0A847E16B34A0A8472078C1
:104D9000400703D4364800F0F9F805E000F08EFD36
:104DA0000146324800F0F2F8FEE7B0BD180B0020D3
:104DB000AE6100088D4F00086D6100087A6100083F
:104DC0008761000894610008A16100087230353ADB
:104DD000203078253038780A000000007230363AEA
:104DE000203078253038780A000000007230373AD9
:104DF000203078253038780A000000007230383AC8
:104E0000203078253038780A000000007230393AB6
:104E1000203078253038780A000000007231303AAE
:104E2000203078253038780A000000007231313A9D
:104E3000203078253038780A000000007231323A8C
:104E4000203078253038780A00000000206C723A53
:104E5000203078253038780A000000002070633A4E
:104E6000203078253038780A0000000050610008B2
:104E70003661000810B504320C4C22F0070E6FF0BA
:104E80003F02AEF1400C02E04EF802400432002A2C
:104E9000FAD100224FF080744EE908124EE9062242
:104EA0004EE904234EE90204604610BDEFBEADDEBC
:104EB000B0B5084C0849094D626823680968B1FB20
:104EC000F5F148436168511A98BF19448142F9D3FA
:104ED000B0BD00BF14E000E01800002040420F0009
:104EE00010B5FBF741F90446104801780131017013
:104EF0000448006800B180472046BDE81040FBF739
:104F000037B900BF1C8B002010B5FBF72DF9044604
:104F100006480178013901700548006800B18047F2
:104F20002046BDE81040FBF723B900BF288B0020C6
:104F3000248B002000681C3800F096BC70B5054634
:104F4000084616460C4600F0F5FC012E01D0A6B12D
:104F500070BD28460068A8420FD090F8211094F840
:104F60003D208A42F6D21C3804F11C02016A0A6014
:104F7000216202621C30E06170BD686804F11C01AE
:104F8000016020626960E56170BD000083B018B502
:104F9000844603A8074C0EC003AB7F21624620461F
:104FA000009300F06FFE2046FFF790FEBDE818402A
:104FB00003B07047308B00202DE9F047E8B3DFF8ED
:104FC0003C96033020F0030AD9F80800824534D813
:104FD00009F120084FF0FF31404600F025FABAF100
:104FE0000C0F98BF4FF00C0AD9E902C0D9F8141081
:104FF000ACEB0A020D1A2B4695421BD2C7187E88CD
:105000007D68002EF7D103F10C06AC1B5445F2D39A
:105010000AF11802944214D201227A80C21BD9E903
:1050200006362A441A449642C9F8182026D2C9F8EE
:105030001C2023E0404600F0CBF900252846BDE8BF
:10504000F08706EB0A024FF4F5540CF10C060AF156
:105050000C0E84508418C4E9015301237B807A60CC
:105060006368B3421CBF03449A60D9E906237244C3
:105070009342C9F8182038BFC9F81C204FF4F552E4
:10508000B9423A800BD1D9F8102005E0914206D000
:1050900049680144C9F814104B88002BF6D14046EA
:1050A00000F096F9D9F8002007F10C05002AC5D0C8
:1050B000284651469047C1E7042A01D3830701D00F
:1050C00003463AE070B5D643CBB20446154616F116
:1050D000100F43EA032398BF6FF00F0643EA034320
:1050E0001644103626F00F0E00EB0E0C05E0C4E956
:1050F0000033C4E902331034103D102DF7D2A2EB77
:105100000E026546D64316F1040F98BF6FF00306F2
:105110001644341D164624F0030EA40801E008C509
:10512000043E042EFBD20CEB8403A2EB0E02BDE87E
:10513000704002E003F8011B013A002AFAD17047DF
:105140002DE9F041064653488846A0F110014FF082
:10515000FF300130032806D801F11007097CB14265
:105160003946F6D100E00027F868FFF725FF05462D
:105170000024E8B1FA6828460021FFF79DFF284681
:10518000414610222E746C7400F0ECF9424801681C
:1051900009B12846884705F11404FAF7E5FF57F8E6
:1051A000041F4C6069613C60AF61FAF7E1FF00E009
:1051B00000252846BDE8F08110B50446184801686E
:1051C00009B12046884700202074FAF7CDFF224617
:1051D000A16952F8143F5960A1690B60A261126085
:1051E000FAF7C6FF2046BDE81040FFF7D5BC00BF68
:1051F00010B504460A48016809B1204688470020D6
:105200002074FAF7B1FF54F8141F62684A606268AC
:105210001160C4E90044BDE81040FAF7A9BF00BF1F
:10522000B48B0020F8B504461A480E461546A0F186
:1052300010014FF0FF300130032806D801F11007AC
:10524000097CB1423946F6D100E00027FFF778FC2F
:10525000043738460068B842FCD1FFF77DFC46F0C1
:105260008000294610222074204600F07BF90A486D
:10527000016809B12046884704F11405FAF774FF64
:1052800039684D6061613D60A761BDE8F840FAF79B
:105290006FBF00BFC0030020B08B0020007CC0099E
:1052A000704700002DE9F041FAF75EFFF24E044628
:1052B000308820B12046BDE8F041FAF759BFDFF849
:1052C000E083D8F80800FEF721FDF6490138D8F848
:1052D000045051F83070A7F11C018D42EAD0726879
:1052E000C8F8041088F800000AB128469047064A1A
:1052F00007F1080105F12400127812B1FAF73BFF1B
:10530000D8E7FAF738FFD5E7288B002010B5044618
:10531000FAF72AFF94F83C1094F83D2004F11C039E
:1053200001F0F00141F0010184F83C10DD4901EB8E
:10533000C2014A6813602262D94A4B60E161216C64
:10534000936819439160BDE81040FAF711BF00BFA0
:1053500010B50446FAF708FF214651F81C2F4B6898
:1053600053604B681A60C1E90011CE4A91F82110D0
:1053700002EBC10352F83110994205D1C84A216CA1
:10538000936823EA01019160BDE81040FAF7F0BE8E
:10539000B0B50D46014602201446FFF7D1FE28B1F4
:1053A00000F11C0185844474C0E90711B0BD70B5DB
:1053B00015460A4602211C460646FFF733FF06F152
:1053C0001C00C6E907000020B584747470BD00009D
:1053D000B0B504461348016809B120468847FAF77A
:1053E000C3FE0546204650F81C1F814207D0FFF738
:1053F000A1FD2846FAF7BCFEFFF754FF09E0A08C98
:105400004FF6FF71884206D00130A0842846FAF793
:10541000AFFE0020B0BD2846FAF7AAFE6FF00200EA
:10542000B0BD00BFB88B0020F8B504461F480E463B
:105430000091016809B120468847FAF795FE0546B4
:10544000A08C60B10138A0842846FAF791FE184874
:10545000016809B120468847002001B0F0BDFEB1C7
:1054600000F02CFA07460020B86304F11C0039460E
:10547000627CFFF763FD012E09DB07F14C066A46EB
:105480000021304600F03CFB304600F08DFB284602
:10549000FAF76EFEFFF706FFB86B0028DDD1D6E7FE
:1054A0002846FAF765FE6FF00100D6E7C08B0020B2
:1054B000BC8B00201CB50B4C07A0A0470AA0A0473E
:1054C00012A0032101220523009013A0A0471AA0D7
:1054D0002146BDE81C4008470A205C207C202F0A9A
:1054E000000000008D4F00082D205254202D202058
:1054F000202020546872656164204F706572617469
:10550000696E672053797374656D0A004175672071
:105510003238203230323400202F207C205C202092
:1055200020202025642E25642E2564206275696C58
:10553000642025730A0000002032303036202D20F0
:105540003230323020436F7079726967687420623C
:10555000792072742D746872656164207465616D60
:105560000A00000080B5B2B18446034691F800E01D
:1055700003F801EBBEF1000F05D0013A01F1010182
:105580009C46F3D107E00121002302E00CF8013032
:1055900001318A42FAD180BD0A46014622F0030059
:1055A000192828D3CB1CA0F1180C23F003039C4529
:1055B00021D310B5114CC11A4FF0000CA1F1180203
:1055C0000C39E360A2604FF4F552C3E90021A0F169
:1055D0000C02C3F808C000232261094A40E90321F4
:1055E00040F8041C04F1200006A10122FFF7DFFEB1
:1055F000E068606110BD05A0FFF7C8BCB0040020E2
:10560000A01E010068656170000000006D656D20DE
:10561000696E69742C206572726F722062656769A9
:105620006E206164647265737320307825782C2055
:10563000616E6420656E64206164647265737320BA
:10564000307825780A0000000B4900200880F049D6
:1056500003E00A180A5052600830B0F5807FF8D194
:105660000F481F220021027000F10C02C0E9011155
:10567000C0E90322704700BF3405002010B5084C74
:10568000A068FEF743FBE24901EBC00050F8080CAC
:10569000A0F11C0108306160BDE81040FAF799BD27
:1056A00000050020C88B0020024800F10C01C0E971
:1056B00003117047200500207047FEB50E460146D5
:1056C00001201F461546FFF73BFD044690B13846C2
:1056D000FFF772FC034650B1DDE908102A46CDE918
:1056E0000071029020463146FEF72AFB03E0204677
:1056F000FFF762FD0024204603B0F0BD80B500F046
:10570000E1F8002080BD0000B0B5C0480568FAF798
:105710002BFD04462846FEF751FB2846FFF718FEEE
:10572000042085F83C0005F14C0000F00EFA2846F4
:10573000FFF7B4FD012803D12846FFF759FD07E024
:105740001F4805F11C0201684A600260C5E90710A4
:10575000FFF7A8FD2046BDE8B040FAF709BD00BF3D
:10576000B0B5344C0025042D03D100F009F8002514
:10577000F9E754F8250000B180470135F3E700BF91
:1057800070B50F4D10E0D6E9000141607168086006
:10579000C6E900667069FFF7FFF9A6F11C00FFF784
:1057A0000BFD2046FAF7E4FCFAF7DEFC2E6804460F
:1057B000AE42E8D12046BDE87040FAF7D9BC00BF40
:1057C0000C0500201FB520200B4C0E4A0BA1002316
:1057D00003901F2002904FF48070019005480090C4
:1057E000204600F029F8204604B0BDE8104000F043
:1057F0008BB800BFCC8C0020800A00207469646CD8
:10580000650000006157000870B50A4D0446002687
:10581000FAF7AAFC032E07D802CD01360029F9D1E8
:1058200045F8044C002401E06FF00204FAF7A0FCF4
:10583000204670BD080B00207FB515460A460121A1
:105840001C460646FFF7EEFC0B98089B29462246AD
:1058500002900A980190099800903046FEF770FA7D
:10586000002004B070BD0000B0B5044690F83C00C4
:1058700000F00F0002281CBF4FF0FF30B0BDFAF758
:1058800073FC21460546206A51F81C2F5060206A9F
:10589000026004F14C002162096000F0CFF9284653
:1058A000FAF766FC2046FFF731FD0348016809B1AD
:1058B000204688470020B0BDC88C002053480068AF
:1058C000704700BFF8B50090FAF74EFC05464F4808
:1058D0000468204600F02EF804F14C066A460021C8
:1058E0000027304600F00CF9304600F05DF92846FC
:1058F000FAF73EFCFFF7D6FCA06B023008BFA763A7
:10590000002001B0F0BD00BF80B50221012280F867
:105910003C1090F83E1080F83D1002FA01F101644D
:10592000FFF7A2FF3948006808B1FFF7BBFC002071
:1059300080BD00BFB0B5044690F83C0000F00F00F9
:1059400001281CBF4FF0FF30B0BDFAF70DFC054633
:105950002046FFF7FDFC94F83C0000F0F00040F01A
:10596000020084F83C0004F14C0000F067F928467E
:10597000FAF7FEFB0348016809B12046884700207A
:10598000B0BD00BFCC8D002080B56FF00101024694
:105990008163016A52F81C3F5960016A0B60026220
:1059A0001260FFF7B3FCBDE88040FFF77BBC00004E
:1059B00080B5FAF7D9FB1549096891F83C2002F047
:1059C0000F02012A1ED10A4652F81CEFD2F804C079
:1059D000E64517D0CEF804C00B6AC3F800E00A62AF
:1059E0000B4B91F83DC003EBCC03D3F804C0CCF8CB
:1059F0000020C1F820C05A60CB61FAF7B9FBFFF76D
:105A000051FC01E0FAF7B4FB002080BD0405002042
:105A1000C88B00200B480068704700BF80B509485C
:105A2000016801310160FFF749FF816C0139816430
:105A300003D1416C8164FFF7BBFFBDE8804000F0FB
:105A400003B800BFD48D00202DE9FC47E946CDE91D
:105A50000099FFF7DFFF0646FAF786FB8046764897
:105A6000744C824641E078695146301A504541D81D
:105A70002168A7F11C0509B128468847D7E900012C
:105A8000416079680860C7E9007717F80B0C10F0DF
:105A9000020F04BF00F0FE0007F80B0C00984760EF
:105AA00038600097C7F80490D7E902108847FFF7DD
:105AB000B1FF6168064609B1284688470098484505
:105AC00013D0D7E90001416079680860C7E9007721
:105AD00017F80B0C00F00301032906D100F0FE00BB
