:020000040800F2
:10000000A897002045010008D13C00080D02000817
:10001000D9360008391000082D44000800000000FF
:100020000000000000000000000000002D3E00085D
:100030000514000800000000970100082F3E00088A
:100040005F0100085F0100085F0100085F01000810
:100050005F0100085F0100085F0100085F01000800
:100060005F0100085F010008791500085F010008C2
:100070005F0100083D1000085F0100085F010008F3
:100080005F0100085F0100085F0100085F010008D0
:100090005F0100085F0100085F0100085F010008C0
:1000A0005F0100085F0100085F0100085F010008B0
:1000B0005F0100085F0100085F0100085F010008A0
:1000C0005F0100085F0100085F0100085F01000890
:1000D0005F010008B94200085F010008C142000842
:1000E0005F0100085F0100085F0100085F01000870
:1000F0005F0100085F0100085F0100085F01000860
:100100005F0100085F0100085F0100085F0100084F
:100110005F0100085F0100085F0100085F0100083F
:100120005F0100085F0100085F0100085F0100082F
:10013000DFF80CD000F0D2FC004800475B0B000851
:10014000A89700200648804706480047FEE7FEE7DC
:10015000FEE7FEE7FEE7FEE7FEE7FEE7FEE7FEE777
:10016000013F000831010008EFF3108072B67047BC
:1001700080F310887047324A1368012B04D04FF087
:10018000010313602F4A10602F4A11602F484FF06F
:10019000805101607047EFF3108272B62848016801
:1001A00091B14FF0000101602648016829B1EFF3D9
:1001B000098121E9F00F0068016023490968096895
:1001C000B1E8F00F81F3098882F310884EF0040E35
:1001D00070471D4908601B494FF00000086018492E
:1001E0004FF0010008601A481A49D0F8002041EA8F
:1001F0000201016015484FF0805101601648006807
:10020000006880F3088861B662B670471EF0040F7C
:100210000CBFEFF30880EFF3098020E9F00F40F8FE
:1002200004ED1EF0040F0CBF80F3088880F30988EA
:1002300000B504F065FF5DF804EB4EF0040E704766
:10024000988E0020E88B0020F48B002004ED00E065
:1002500020ED00E00000FFFF08ED00E040EA0103B0
:100260009B0703D009E008C9121F08C0042AFAD26C
:1002700003E011F8013B00F8013B521EF9D2704730
:10028000D2B201E000F8012B491EFBD270470022D8
:10029000F6E710B513460A4604461946FFF7F0FF85
:1002A000204610BDF0B480EA0102D40F4200B2EB48
:1002B000410F02D20246084611464A0042D0C30D01
:1002C000DDB2C1F3C752AD1A202D35DAC1F31601E4
:1002D00041F4000204B15242C5F1200602FA06F1CF
:1002E0002A411044B3EBD05F23D0C4B1012DA0EB61
:1002F000C35009DCF0BC4FF0004202EAC352DBB24B
:1003000000F5000000F02FBB400000F1807000EB12
:10031000C350A0F1807040EAD170490009E049085B
:1003200041EAC071A0EBC35000F50000400800EBAB
:10033000C350F0BC00F00EBB6142012202EB410150
:10034000001BF6E7F0BC704781F00041AAE780F09F
:100350000040A7E780EA010210B502F00043400028
:1003600022D04A001FD0010E01EB1261C0F35600EB
:10037000C2F3560240F4000042F40002A0FB022047
:1003800000047F39140400D0401C50EA124001D40C
:100390004000491EC2B20C0604EBD010401C4008BD
:1003A000802A02D003E0002010BD20F001000029C7
:1003B00000DA0020184310BD30B480EA010202F0D8
:1003C000004530F0004221F0004013D090B1C30D41
:1003D000D40DC2F31601C0F31600E41A41F4000173
:1003E00040F400027D34914201D3641C00E04900D6
:1003F000002C02DA30BC002070474FF400000023CC
:10040000914201D3891A034340084FEA4101F7D1D1
:1004100051B1914202D14FF0004105E002D24FF0BC
:10042000010101E06FF0010103EBC450284430BC2E
:1004300000F090BA2DE9FE4F804681EA0300C00F1C
:100440000C46009021F0004123F00045B8EB02007B
:10045000A94105D24046214690461C460B4602461D
:1004600023F00040104347D0270DC7F30A00C3F321
:100470000A510290401A019040286BDAC3F313002E
:1004800040F4801B0098924620B10023D2EB030A6F
:1004900063EB0B0B01985946C0F14002504600F047
:1004A00038FA06460D4650465946019A00F040FA81
:1004B00010EB08006141002487EA115284EAE773D7
:1004C0001A4340D0009A62B3019A012A4FEA0752B8
:1004D00015DC001B61EB02014FF0004202EA0752FB
:1004E000CDE90042001C41F5801132462B4600F058
:1004F00077FA03B0BDE8F08F40462146F9E7001BCC
:1005000061EB0201001C41F5801300185B412018CB
:10051000A2F5001747EB030140EAD570B6196D410B
:1005200011E06D084FEA360645EAC0754FEA0752FA
:10053000001B61EB0201001C41F5801149084FEAE4
:1005400030000019514132462B4603B0BDE8F04F50
:1005500000F037BA0098012240000023D0EB0202DD
:1005600063EBE073009821464FEAE074B8EB0000BB
:1005700061EB0401E9E783F000435BE781F00041B0
:1005800058E72DE9FE4F81EA030404F0004421F00E
:10059000004100944FF0000B23F0004350EA0104A7
:1005A0005ED052EA03045BD0C3F30A54C1F30A5588
:1005B0002C44A4F2F3340194A0FB0254C1F31301C0
:1005C00041F48011C3F3130343F4801301FB02448D
:1005D00000FB034E840A970A44EA815447EA835792
:1005E000A4FB076802958D0A05FB07854FEA932C4B
:1005F00004FB0C542705029D4FEA065847EA1637BC
:10060000B5EB08056EEB070C870E920E47EA8117D3
:1006100042EA8312A7FB0201B6EB0B0164EB000474
:100620002B0D43EA0C335E1844EB1C50DA4651465E
:10063000E7FB0201C5F313044FEA0B3343EA1453FB
:100640004FEA0432019C43EA0603A4F10C0402942D
:10065000009CCDE900B400F0C3F903B0BDE8F08F11
:1006600000200146F9E72DE9F04D81EA030404F08A
:10067000004B21F0004514464FF0000A23F00041E2
:1006800050EA050220D054EA01021DD0C5F30A57F2
:100690000246C5F31303C1F31300C1F30A5640F435
:1006A000801543F48013A7EB0608101BD64608F20A
:1006B000FD3873EB050002D308F1010801E0921840
:1006C0005B41B8F1000F03DA00200146BDE8F08D70
:1006D00000204FF48011064684460EE0171B73EB92
:1006E000050705D3121B63EB050306434CEA010C17
:1006F00049084FEA300092185B4150EA0107EDD1FA
:1007000052EA030012D082EA040083EA050108439A
:1007100005D0101BAB4106D20122002306E00022C7
:100720004FF0004302E06FF0010253101AEB060095
:100730004CEB085110EB0A0041EB0B01BDE8F04D0A
:1007400000F03FB9002801DBC0F10040002901DBC7
:10075000C1F10041814201D801207047002070475B
:10076000002801DBC0F10040002901DBC1F100419C
:10077000814201D20120704700207047002801DB30
:10078000C0F10040002901DBC1F10041814201D3E9
:100790000120704700207047002801DBC0F10040B5
:1007A000002901DBC1F10041814201D901207047DC
:1007B0000020704730B5041E71F1000404DB4FF0D7
:1007C0000044404264EB0101141E73F1000405DB98
:1007D0001C464FF00043524263EB0403101A8B4156
:1007E00001D3012030BD002030BD0EB5C10F80EA1D
:1007F000E0700844CA07002140F233438DE80E0040
:100800000A460B4600F0ECF803B000BD0EB540F20E
:10081000334102910021CDE900110A460B4600F058
:10082000DFF803B000BD00F0004230F000400AD015
:10083000C10D01F56071C0F3160042EA0151C20812
:1008400040071143704700200146704701F0004304
:1008500030B421F0004150EA010206D00A0DA2F5A1
:100860006072C1F31301002A02DC30BC0020704723
:10087000440F44EAC104C100E01830BC00EBC25090
:1008800000F068B830B50B46014600202022012454
:1008900009E021FA02F59D4205D303FA02F5491B4E
:1008A00004FA02F52844151EA2F10102F1DC30BD64
:1008B0002DE9F05F0546002092469B468846064695
:1008C000814640241BE0284641464746224600F028
:1008D00017F953465A46C01A914110D3114618468B
:1008E000224600F016F82D1A67EB01084F46224603
:1008F0000120002100F00DF817EB00094E41201EE9
:10090000A4F10104DFDC484631462A464346BDE8EF
:10091000F09F202A04DB203A00FA02F10020704701
:100920009140C2F1200320FA03F31943904070472D
:10093000202A06DBCB17203A41FA02F043EAE073A3
:1009400006E041FA02F3D040C2F120029140084390
:10095000194670470029A8BF7047401C490008BFCE
:1009600020F00100704710B4B0FA80FC00FA0CF0DF
:1009700050EA010404BF10BC704749B1CCF1200417
:1009800021FA04F411FA0CF118BF012121430843A4
:10099000A3EB0C01CB1D4FEA00614FEA102042BFD0
:1009A000002010BC704700EBC35010440029A4BFC6
:1009B00010BC7047401C490008BF20F0010010BC6B
:1009C000704710B5141E73F1000408DA401C41F1A1
:1009D000000192185B411A4301D120F0010010BDC3
:1009E0002DE9F04D92469B4611B1B1FA81F202E039
:1009F000B0FA80F220329046FFF78BFF04460F4694
:100A000040EA0A0041EA0B0153465A46084313D014
:100A1000114653EA010019D0C8F14002504600F0D7
:100A20006FF805460E46504659464246FFF771FF9D
:100A3000084305D0012004E020463946BDE8F08D8A
:100A40000020054346EAE0762C4337430A986305C5
:100A5000E40AA0EB08000022FD0A44EA47540A30E9
:100A600002D500200146E9E7010510196941DDE9D9
:100A7000084500196941BDE8F04DA2E7C1F30A52EB
:100A8000C1F3130140F2FF3341F480119A4202DABC
:100A900000200146704740F233439A42A2F23342AB
:100AA00002DC524200F02CB8FFF733BF30B5041E11
:100AB00071F1000404DB4FF00044404264EB01019B
:100AC000141E73F1000405DB1C464FF00043524234
:100AD00063EB0403994208BF904230BD064C074DBA
:100AE00006E0E06840F0010394E8070098471034FE
:100AF000AC42F6D3FFF720FBD06E0008F06E000882
:100B0000202A04DB203A21FA02F00021704721FA62
:100B100002F3D040C2F120029140084319467047C9
:100B200030B58C1810F8012B12F00F0301D110F81A
:100B3000013B120906D110F8012B03E010F8015B0C
:100B400001F8015B5B1EF9D101E001F8013B521E87
:100B5000FBD1A142E6D3002030BD80B505F0E0FB1B
:100B6000002080BDB0B54FF0000E4FF0070C0A0614
:100B700004BF5FFA8EF0B0BD80220FE005788CEAEA
:100B80004E042A400EF0800518BF0122B2EBD51F9B
:100B90004FEA530208BF4FEA4E04A646D3B2002BD9
:100BA000ECD101390130E2E780B5A8B1D0F804C03A
:100BB000BCF1000F10D090F808E0002309E002EB30
:100BC000420201335CF82200884204BF0CEB820031
:100BD00080BDDAB27245F2D9002080BDF0B585B093
:100BE00006460020002ECDE90200CDE900002DD000
:100BF0003046FFF7D9FF044640B32078012702AD05
:100C000067F39F108DF80800717AA2683078002988
:100C100018BF0132511CCAB2294602F041FB767A54
:100C2000012E16D12078694667F39F108DF80000D9
:100C3000A068023002E0AB5C01378B54FAB29042FC
:100C4000F9DCC1B26846FFF78DFF03E04FF0FF30DB
:100C50002FE00020022E18D1217801206A4660F38F
:100C60009F118DF80010A168023102E0EF5C0130A5
:100C7000D754C3B29942F9DC00206A4603E012F867
:100C8000013B013958400B06F9D1000602D06FF044
:100C900001000EE0002001226060A16806E007026A
:100CA00001326760EB5C43EA00206060D3B2994296
:100CB000F5DA05B0F0BDE0B501464FF0FF30002990
:100CC000CDE9000004D008786946082202F02EFB26
:100CD00002B080BD2DE9FC4104460020002CCDE986
:100CE00000002FD0C9B22046FFF75EFF054648B38B
:100CF000287800216E4600F03F008DF800006868FB
:100D000003E0BA1A0131B0540012AF68CAB2974278
:100D1000F7DC94F80980B8F1000F07D0781CC1B255
:100D20003046FFF71FFFF1194870AF680220B8F195
:100D3000000F694608BF01203844C2B2207802F093
:100D4000F5FA01E04FF0FF3002B0BDE8F08100009D
:100D50000138072888BF7047DFE800F004070A0D54
:100D600010131619012000F00BBC022000F008BC83
:100D7000032000F005BC042000F002BC052000F0B8
:100D8000FFBB062000F0FCBB072000F0F9BB0820E9
:100D900000F0F6BBF8B5044602F0E0F9244EA020BE
:100DA000B047244FB847250A2846B047B847E0B2B5
:100DB000B047B8476FF05E0000EB450402F0CEF993
:100DC000E0B2B047B847002002F05EF9044602F0F6
:100DD000DDF9204601B0F0BDB0B50C460546FFF781
:100DE000D9FFA04208BFB0BD28462146BDE8B040AB
:100DF000AFF30080F8B50C46054602F0AFF90C4E93
:100E0000A020B0470B4FB847280AB047B847E8B210
:100E1000B047B8472046B047B84702F0B7F90A20B4
:100E200004F05EFE28462146BDE8F840FFF7D4BF37
:100E300011310008C13100082DE9F0475E4F054629
:100E400016460C463878052800F2A780DFE800F047
:100E500003940E2333A70020C7E90E0038644FF037
:100E60007E503060304603F05BFA0FE0B86B013023
:100E7000B8634FF07E503060304603F051FAFD63A6
:100E80002946386CFFF75EFC00B93D6428462146D0
:100E9000FFF758FC7AE0B86B0130B863002030608F
:100EA000304603F03DFAF86B2946FFF767FC00284F
:100EB00068D1FD6366E000203060304603F030FA10
:100EC0004FF07E5040F2011138635A4801810121F0
:100ED0008172D7E90E40396CFFF736FAFFF7A3FCB1
:100EE000364D00222B46FFF74CFB354A354BFFF7BA
:100EF00048FB0B46344902460020FFF7B4FBFFF7DE
:100F0000A5FC7864FFF78FFC304B4FF03332FFF7CE
:100F100038FBFFF79BFCDFF824AE7865CAF8900039
:100F2000FFF781FC804620468946FFF76FFC0022D0
:100F30002B4604460E46FFF724FB02460B4640466E
:100F40004946FFF790FBFFF781FC0546B865204650
:100F5000314600224FF07F53FFF713FB42464B46CA
:100F6000FFF70FFBFFF772FC7863CAE9255003F027
:100F7000A9FC04F01FFC0DE000203060304603F0B7
:100F8000CFF93D6428462146FFF7F8FB002818BF3B
:100F9000BDE8F087387801303870BDE8F087224A24
:100FA00002F1780413CCFFF751FC21463246BDE82C
:100FB000F04702F08FBE00BF000000200000E03FBD
:100FC000894160E5D0220940000079403333E33F96
:100FD000F8B5144E3068FFF726FC134F02460B4657
:100FE000D7E91E5428462146FFF7C5FA0F4A104B91
:100FF00021F00041FFF7DEFB58B97068411CB0F5E5
:10100000957F716007DD0B480021C7E92A54817084
:1010100001E00020706028462146FFF717FC306091
:10102000F8BD00BF8C05002050090020F168E3885E
:10103000B5F8E43E94060020FEE70000014800F009
:101040001BBF00BF680A002010B5D0E90FCE0124F5
:1010500004FA0EF4CCF80440046863604068102879
:10106000084608BF1046A06008BF0A46E26010BDEF
:10107000F8B5D14E707817281BD8DFE810F03B0088
:10108000180018005A0018001800790018001800FD
:10109000980018001800B70018001800D6001800B3
:1010A0001800F5001800180014011800180000F0CE
:1010B000A7FAC3484FF4007101613078013807285E
:1010C00088BFF8BDDFE810F0720108000A000C00CC
:1010D0000E00100012001400C94868E1C74866E11C
:1010E000C54864E1C34862E1C14860E1BF485EE1D0
:1010F000BD485CE1C82004F0F3FCB04C042120465C
:10110000FFF76CFD706002F07BFEAD4A48F26003B1
:101110009365AC4AAC4BFFF7A6FAAC4AAC4BFFF771
:1011200089F9AC4AAC4BFFF785F9AC4AC2E90A0130
:10113000D7E0C82004F0D4FCA04C04212046FFF7DF
:101140004DFD706002F05CFE9D4A48F260039365BD
:101150009C4A9D4BFFF787FA9C4A9D4BFFF76AF923
:101160009C4A9D4BFFF766F99C4AC2E90C01B8E026
:10117000C82004F0B5FC914C04212046FFF72EFD59
:10118000706002F03DFE8E4A48F2600393658D4A1E
:101190008D4BFFF768FA8D4A8D4BFFF74BF98D4A5F
:1011A0008D4BFFF747F9F34AC2E90E0199E0C820D9
:1011B00004F096FC814C04212046FFF70FFD70607F
:1011C00002F01EFE7E4A48F2600393657D4A7E4B24
:1011D000FFF749FA7D4A7E4BFFF72CF97D4A7E4B9B
:1011E000FFF728F9E34AC2E910017AE0C82004F0C9
:1011F00077FC724C04212046FFF7F0FC706002F08F
:10120000FFFD6F4A48F2600393656E4A6E4BFFF72D
:101210002AFA6E4A6E4BFFF70DF96E4A6E4BFFF7D6
:1012200009F9D44AC2E912015BE0C82004F058FC75
:10123000624C04212046FFF7D1FC706002F0E0FD13
:101240005F4A48F2600393655E4A5F4BFFF70BFA13
:101250005E4A5F4BFFF7EEF85E4A5F4BFFF7EAF836
:10126000C44AC2E914013CE0C82004F039FC534CE4
:1012700004212046FFF7B2FC706002F0C1FD504A25
:1012800048F2600393654F4A4F4BFFF7ECF94F4A22
:101290004F4BFFF7CFF84F4A4F4BFFF7CBF8B54A0C
:1012A000C2E916011DE0C82004F01AFC434C0421D9
:1012B0002046FFF793FC706002F0A2FD404A48F21E
:1012C000600393653F4A404BFFF7CDF93F4A404BDF
:1012D000FFF7B0F83F4A404BFFF7ACF8A54AC2E928
:1012E000180120461021FFF7F5FC3D4D3D4F4FF40E
:1012F0008071012205F500642046B84728464FF466
:1013000000410022B84705F580654FF48071002246
:101310002846B847284680210122B8472846402160
:101320000022B84720464FF400410122B84720462A
:101330004FF480410022B84720464FF4005101226B
:10134000B84720464FF480510022B84720464FF45A
:1013500000610122B847204601210022B8472046FB
:1013600002210122B84720464FF480610022B8478D
:1013700020464FF400710122B84720461021002278
:10138000B847204620210122B847204604210022E8
:10139000B847204608210122B84701204FF40071C8
:1013A0003070074801617078013070700348012186
:1013B000BDE8F840FFF78EBC70040020B0030020A9
:1013C0006C0000203D0AD7A370FD3340A959565048
:1013D0000768E13EBB911E2B9DB4F5BE500900206D
:1013E000000C01406723000804040020F8030020DB
:1013F000EC030020E0030020D4030020C8030020F9
:10140000BC030020704700000138072888BF7047E0
:10141000DFE800F0040B10161C22282E754810215E
:101420000122A0F5805000F09EBF72488021012269
:1014300000F099BF6F484FF48071012200F093BF14
:101440006C484FF40071012200F08DBF69484FF4E1
:101450008061012200F087BF66484FF400610122DD
:1014600000F081BF63484FF48051012200F07BBF40
:1014700060484FF40051012200F075BFF8B53C4CB4
:101480000026E51C05E0B0B2FFF784FC05F8010971
:101490000136042EF7D12646364D002756F8030BA9
:1014A000C5F8900006E0381D80B2FFF773FC06F81F
:1014B00001090137042FF6D12646002756F8030B01
:1014C000C5F8940007E007F1080080B2FFF762FC5E
:1014D00006F801090137042FF5D12646002756F8F2
:1014E000030BC5F8980007E007F10C0080B2FFF786
:1014F00051FC06F801090137042FF5D126460027D3
:1015000056F8030BC5F8100107E007F1100080B290
:10151000FFF740FC06F801090137042FF5D12646F4
:10152000002756F8030BC5F8140107E007F1140073
:1015300080B2FFF72FFC06F801090137042FF5D11F
:101540002646002756F8030BC5F8A00007E007F170
:10155000180080B2FFF71EFC06F801090137042FBE
:10156000F5D12068FFF75FF9C5E92A01F8BD00BF92
:101570005804002050090020102000F005BE000093
:101580000138072888BF7047DFE800F0040B101609
:101590001C22282E174810210022A0F5805000F0B0
:1015A000E2BE14488021002200F0DDBE11484FF455
:1015B0008071002200F0D7BE0E484FF40071002267
:1015C00000F0D1BE0B484FF48061002200F0CBBE8A
:1015D00008484FF40061002200F0C5BE05484FF4F2
:1015E0008051002200F0BFBE02484FF4005100229B
:1015F00000F0B9BE00180140EFF3108072B6FEE7AC
:101600002DE9F843322004F06BFADFF824673078D4
:10161000072888BFBDE8F883DFE800F0041F3A56CA
:10162000718CA7C7DFF81C070421FFF7D7FADFF892
:101630000847606002F0E4FBC4E90C010120FFF7F9
:10164000E3FEDFF8FC0648F260018165DFF814076D
:101650001021FFF73FFB0220A1E0DFF8080704217B
:10166000FFF7BCFADFF8D046606002F0C9FBC4E9BE
:101670000E010220FFF7C8FEDFF8C40648F2600141
:101680008165DFF8DC061021FFF724FB032086E0EC
:10169000DFF8CC0604210424FFF7A0FADFF89856FF
:1016A000686002F0ADFBC5E910010320FFF7ACFE56
:1016B000DFF88C0648F260018165DFF8A006102192
:1016C000FFF708FB2C706BE0DFF890060421FFF7B2
:1016D00085FADFF86446606002F092FBC4E912010B
:1016E0000420FFF791FEDFF8580648F2600181659B
:1016F000DFF864061021FFF7EDFA05204FE0DFF870
:1017000058060421FFF76AFADFF82C46606002F001
:1017100077FBC4E914010520FFF776FEDFF8200609
:1017200048F260018165DFF82C061021FFF7D2FA3C
:10173000062034E0DFF81C060421FFF74FFADFF83B
:10174000F845606002F05CFBC4E916010620FFF773
:101750005BFEDFF8EC0548F260018165DFF8F0051B
:101760001021FFF7B7FA072019E0DFF8E40504219C
:10177000FFF734FADFF8C045606002F041FBC4E9CE
:1017800018010720FFF740FEDFF8B40548F26001BA
:101790008165DFF8A0051021FFF79CFA0820207072
:1017A000307801303070BDE8F883DFF88805042117
:1017B000FFF714FADFF88085C8F8040002F020FB78
:1017C000DFF87875C8E9040107F148030FCBFEF78D
:1017D00031FED7E91623FEF72DFED7E91823FEF7D1
:1017E00029FE07F1280304460D460FCBFEF722FE23
:1017F000D7E90E23FEF71EFED7E91023FEF71AFEE7
:1018000022462B46FEF7B7FEC7E908010820FFF77E
:10181000FBFDDFF82C0548F260018165DFF8240547
:101820001021FFF757FA03F049F803F0C3FF98F8C7
:1018300001000138162800F26A810227DFE810F063
:101840006501170067014400460067017D007F00C5
:101850006701BE00C000670108010A0167016C0151
:101860006E016701BE01C20167011A021C02D44D5C
:10187000DFF8D8744FF48071002205F5006420462B
:10188000B84728464FF400410122B84705F5806566
:101890004FF4807100222846B84728468021012253
:1018A000B847284640210122B84720464FF400415E
:1018B0000022B84720464FF480410022B847204616
:1018C0004FF4005101222DE005271EE1BC4DDFF849
:1018D0007C744FF48071002205F500642046B847FF
:1018E00028464FF400410122B84705F580654FF4C2
:1018F000807100222846B847284680210122B84737
:10190000284640210022B84720464FF400410122DA
:10191000B84720464FF480410122B84720464FF493
:1019200000510022B84720464FF480510022B847AA
:1019300020464FF40061012237E00827E5E0A04D82
:10194000DFF808744FF48071002205F5006420462A
:10195000B84728464FF400410122B84705F5806595
:101960004FF4807100222846B84728468021012282
:10197000B847284640210022B84720464FF400418E
:101980000122B84720464FF480410022B847204644
:101990004FF400510122B84720464FF480510122F4
:1019A000B84720464FF400610022B8472046012185
:1019B0000022B8472046022101223EE00B27A4E086
:1019C000E14DE24F4FF48071002205F5006420469E
:1019D000B84728464FF400410122B84705F5806515
:1019E0004FF4807100222846B84728468021012202
:1019F000B847284640210022B84720464FF400410E
:101A00000122B84720464FF480410022B8472046C3
:101A10004FF400510122B84720464FF48051002274
:101A2000B84720464FF400610122B8472046012103
:101A30000122B847204602210022B84720464FF431
:101A400080610022B84720464FF40071012248E02F
:101A50000E275AE0BC4DBD4F4FF48071002205F5B2
:101A600000642046B84728464FF400410122B84799
:101A700005F580654FF4807100222846B847284656
:101A800080210122B847284640210022B84720463D
:101A90004FF400410122B84720464FF48041002214
:101AA000B84720464FF400510122B84720464FF472
:101AB00080510022B84720464FF400610122B84708
:101AC000204601210022B847204602210122B847C2
:101AD00020464FF480610122B84720464FF4007140
:101AE0000022B847204610210022B8472046202176
:101AF0000122B847204604210022B8472046082189
:101B00000122B84798F80100471C88F801700120AD
:101B100088F80000002045E61127F6E78A4D8B4F34
:101B20004FF48071002205F500642046B84728462E
:101B30004FF400410122B84705F580654FF48071EC
:101B400000222846B847284680210122B847284667
:101B500040210022B84720464FF400410122B847F7
:101B600020464FF480410022B84720464FF40051F0
:101B70000122B84720464FF480510022B847204642
:101B80004FF400610122B847204601210022B847E6
:101B9000204602210122B84720464FF480610022EE
:101BA000B84720464FF400710122B8472046102163
:101BB0000122B8472046202100229AE71427A4E7F3
:101BC000000C0140604D614F4FF48071002205F51B
:101BD00000642046B84728464FF400410122B84728
:101BE00005F580654FF4807100222846B8472846E5
:101BF00080210122B847284640210022B8472046CC
:101C00004FF400410122B84720464FF480410022A2
:101C1000B84720464FF400510122B84720464FF400
:101C200080510022B84720464FF400610122B84796
:101C3000204601210022B847204602210122B84750
:101C400020464FF480610022B84720464FF40071CF
:101C50000122B847204610210022B8472046202103
:101C60000122B847204604210122B8472046082116
:101C7000002246E7172748E7334DDFF8D0904FF4AE
:101C800080710022002705F500642046C8472846D9
:101C90004FF400410122C84705F580654FF480717B
:101CA00001222846C847284680210022C8472846E6
:101CB00040210022C84720464FF400410122C84776
:101CC00020464FF480410022C84720464FF400517F
:101CD0000122C84720464FF480510022C8472046C1
:101CE0004FF400610122C847204601210022C84765
:101CF000204602210122C84720464FF4806100227D
:101D0000C84720464FF400710122C84720461021E1
:101D10000022C847204620210122C847204604212E
:101D20000022C847204608210122C847EDE600BF2F
:101D3000A3060020040400207004002050090020A5
:101D40006C000020B0030020000C01406723000855
:101D5000F8030020EC030020E0030020D40300205F
:101D6000C8030020BC03002090F82110022912D1E2
:101D7000016801230A6822F00E020A600A6822F054
:101D800001020A60D0E90F1203FA02F24A60002150
:101D900080F8213002E0042181630121002280F8D3
:101DA000202008467047000090F82110022919D120
:101DB0000268116821F00E011160116821F0010123
:101DC0001160A04901F17C039A420FD9A54B9A42B8
:101DD00024D0A54B9A4223D0A44B9A4222D14FF44F
:101DE000807327E004218163012143E0964B9A42EE
:101DF00026D0964B9A4225D0954B9A4224D0954BAB
:101E00009A4224D0944B9A4217D0944B9A4221D0B4
:101E1000934B9A4211D14FF080721DE0012309E0EB
:101E2000102307E001F5886C4FF48033624508BF4A
:101E30004FF48053C1F800340FE04FF480320BE0D0
:101E4000012209E0102207E04FF4807204E04FF411
:101E5000805201E04FF480120A600021012280F8D4
:101E6000201080F82120426B22B180B590470021DC
:101E7000BDE880400846704710B5D0E90FC3DCF8D4
:101E80000020D0F800E0DEF8001011F0040F1EBFB3
:101E900004249C4014EA020424D18C073ED5022479
:101EA0009C4014403AD0DEF8001011F0200F08D109
:101EB000DEF8001021F00A01CEF80010012180F8B0
:101EC0002110604A02F17C018E4542D965498E4558
:101ED0006FD065498E456ED064498E456DD14FF403
:101EE000007172E0DEF80010564A11F0200F02BFB8
:101EF000DEF8001021F00401CEF8001002F17C01A0
:101F00008E453ED957498E4562D057498E4561D09E
:101F100056498E4560D14FF4806165E0090740F174
:101F2000908008219940114008BF10BDDEF80010D4
:101F300021F00E01CEF80010012101FA03F2CCF8D5
:101F400004200022816380F8202080F82110016B9A
:101F500073E03D498E4550D03C498E454FD03C49B9
:101F60008E454ED03B498E454ED03B498E453ED0A6
:101F70003A498E454BD03A498E4538D14FF00071E1
:101F800047E031498E454AD030498E4549D03049E5
:101F90008E4548D02F498E4548D02F498E4529D0AF
:101FA0002E498E4545D02E498E4523D14FF0806174
:101FB00041E0022109E0202107E002F588634FF4A7
:101FC00000319E4508BF4FF40051C2F8001421E0D3
:101FD000042109E0402107E002F588634FF48021E5
:101FE0009E4508BF4FF48041C2F8001424E04FF42E
:101FF00000310EE04FF480211DE0022109E0202194
:1020000007E04FF4007104E04FF4005101E04FF499
:1020100000111160002180F82010816A0DE0042178
:1020200009E0402107E04FF4806104E04FF4804173
:1020300001E04FF480011160C16A11B1BDE81040A8
:10204000084710BD04000240080002401C00024086
:102050003000024044000240580002406C00024040
:1020600080000240080402401C0402403004024088
:1020700001460120002908BF7047B0B502221C4C60
:1020800081F82120194A0B6802F1080C634538BF1A
:10209000A2F5806238BF04F5806403EB040C1424BD
:1020A000BCFBF4F4A400C1E90F2443F6F0741A68F1
:1020B00022EA040CD1E90142D1E903E544EA0C0427
:1020C000224342EA0E022A434D692A438D692A437C
:1020D000CD692A431A6000228A6381F8202081F8A2
:1020E00021000020BDE8B040704700BF000402405E
:1020F000F8FBFDBF10B5044690F82000012820D061
:10210000012084F8200094F82100012816D1022033
:1021100084F821000020A063D4F800C0DCF800009F
:1021200020F00100CCF800002046FEF78DFF20686B
:10213000E26A01683AB141F00E010AE0002084F839
:10214000200002200BE021F004010160016841F051
:102150000A010160016841F0010101600020C0B284
:1021600010BD000080B5C00658BF80BD05484021A5
:1021700000F0ECF800B180BD02F0A8FBBDE88040A3
:1021800003F018BB0008014003490A68024214BF6B
:1021900008607047FFF7E6BF140401402DE9FC4FCB
:1021A00081465F4806234FF0000C4FF001084FF0C6
:1021B0000F0E4FF0000A81455A4808BF05234844D6
:1021C0004FEAB022052A4FF0000238BF4FEAB02391
:1021D00000930C6834FA02F508BFBDE8FC8F08FADA
:1021E00002F73C4200F098804D68032D16D9112D5E
:1021F00026D0122D28D04E48854213D04D48854216
:1022000010D04D4885420DD04C4885420AD04C48EC
:10221000854207D04B48854204D022E0DFE805F034
:1022200002181B1F8C6844B1012C4FF0080A14BF20
:10223000C9F81470C9F8107013E04FF0040A10E0E8
:10224000CC6804F1040A0CE0CC6804F10C0A08E044
:10225000D1F80CA005E0CC6804F1080A01E04FF0C9
:10226000000A082A6446484628BF203C28BF04309C
:1022700006680EFA04F50AFA04F426EA05052C436A
:102280000460C879C00647D57948274E22F0030577
:1022900003460068B346354440F0010018601868F2
:1022A000294B00F0010001900CF00C00019E0EFA89
:1022B00000F49E46EE58009B03FA00F026EA040460
:1022C0001A4B204345F80E004FF00F0E4D68DBF817
:1022D000080015F4801F0CBF20EA070440EA070439
:1022E000A802CBF80840186854BF20EA070440EA67
:1022F0000704A8031C60DBF8040054BF20EA0704AD
:1023000040EA0704E803CBF80440DBF8000054BFC0
:10231000B8433843CBF800000CF1040C013258E705
:10232000001C014000F8FEBF000401400C04014005
:1023300000001110000012100000211000002210F7
:10234000000031100000321008FCFFFF80680840D8
:1023500018BF01207047C26802EA0103914341EAB5
:10236000034101617047002A08BF090401617047F9
:1023700030488068704700BFB0B5044618B3206885
:102380004CF6CC41016045F25551016061684160F5
:10239000A1688160FFF7ECFF05462068C16811F075
:1023A000030F0BD0FFF7E4FF401B2828F5D320686C
:1023B000C06810F0030FF0D0032005E04AF6AA2110
:1023C0000160002000E00120C0B2B0BD00684AF604
:1023D000AA2101600020704780B50748016841F0DC
:1023E00010010160032000F089F80F2000F006F8CA
:1023F00000F022F8002080BD0020024070B50D4E94
:1024000004464FF47A713078B1FBF0F09A490968CC
:10241000B1FBF0F000F01AFB01250F2C08D838B9F9
:102420004FF0FF3021460022002500F045F874608F
:10243000284670BD5C00002082B00D480222016871
:1024400041F001010160016801F001010191019970
:10245000416841F080514160406800F08050009038
:1024600000980448016862F31A61016002B0704785
:10247000181002400400014000280CDB00F01F018E
:102480000122400902FA01F1034A42F82010BFF389
:102490004F8FBFF36F8F704780E100E0002808DBAB
:1024A00000F01F010122400902FA01F1014A42F83D
:1024B0002010704700E100E010B5164B1B68C3F315
:1024C000022E0EF1040CAEF103048EF00703BCF1F2
:1024D000070F4FF0010C38BF0024042B28BF042342
:1024E0000CFA03F3013B19400CFA04F3013BA14041
:1024F0001A401143BDE8104001F09ABF05494FF65C
:10250000FF030A681A4060F30A2203481043086078
:10251000704700BF0CED00E00000FA052DE9F04126
:1025200088460446002800F08880464F4FF48050CB
:10253000395801F0070141450AD2395821F0070105
:1025400041EA08013950385800F00700404574D17D
:10255000206810F0020F11D0410742BF796841F4A2
:10256000E0617960010742BF796841F460517960A8
:102570007968A26821F0F00111437960C00727D083
:102580006068012804D1396811F4003F08D154E093
:102590003968022802D1890102D44EE089074CD55E
:1025A000796821F0030108437860FFF7E1FE0646F1
:1025B00041F288357868616800F00C00B0EB810F5B
:1025C00006D0FFF7D5FE801BA842F3D9032035E0E3
:1025D0004FF48050395801F0070141450AD9395864
:1025E00021F0070141EA08013950385800F007008E
:1025F000404522D1206810F0040F05D07968E268C8
:1026000021F4E06111437960000706D578682169FB
:1026100020F4605040EAC100786000F031F8796839
:10262000094AC1F30311515CC840134908600748C7
:102630000068FFF7E3FE002000E00120C0B2BDE823
:10264000F08100BF00100240106D00086000002003
:102650000948FA49094A00680968C1F30221515C36
:10266000C8407047F748F549044A00680968C1F353
:10267000C221515CC840704768000020206D0008EE
:1026800010B50D4C0D48226802F00C03082B18BF42
:1026900010BDC2F383430AA112F4803FCB5C02D188
:1026A0000C48584310BD216809A25843C1F340416A
:1026B000515CB0FBF1F010BD0410024000127A0032
:1026C00002030405060708090A0B0C0D0E0F101073
:1026D0000102000000093D002DE9FE4304460028E8
:1026E00000F05C812078D44ED44FC007B14650D062
:1026F000386800F00C00042818D0386800F00C008E
:10270000082803D1386810F4803F0FD16068A0B169
:10271000B0F5803F06D03168B0F5A02F25D141F447
:1027200080203060306840F4803024E0306810F45D
:10273000003F2ED0606860BB30E1306820F480300C
:102740003060306820F480203060FFF711FE0546CD
:10275000D9F800004E4610F4003F1AD0FFF708FEEB
:10276000411B03206429F3D919E121F48030306042
:10277000306820F480203060FFF7FAFD05463068AD
:1027800010F4003F05D1FFF7F3FD401B6428F6D994
:10279000E6E0207880072FD5386810F00C0F08D0BD
:1027A000386800F00C0008280BD1386810F4803F1E
:1027B00007D1306810F0020F17D02069012814D01B
:1027C000ECE021699E48002900F08A800121016027
:1027D000FFF7CEFD0546306810F0020F05D1FFF778
:1027E000C7FD401B0228F6D9BAE03068616920F0C5
:1027F000F80040EAC10030602078000730D5A069B9
:1028000080B18F480121C0F88014FFF7B1FD054663
:10281000386A10F0020F16D1FFF7AAFD401B0228FC
:10282000F6D99DE086480021C0F88014FFF7A0FD8E
:102830000546386A10F0020F12D0FFF799FD401BD1
:102840000228F6D98CE07F484FF4FA510068B0FBBB
:10285000F1F0029000BF0298411E00280291F9D1C8
:102860002078400740F18580B86910F0805F0BD177
:10287000B8694FF0010840F08050B861B86900F0C5
:1028800080500190019801E04FF000086E4E4846DC
:1028900059F8060010F4807F14D159F8060040F46E
:1028A000807049F80600FFF763FD0546484659F871
:1028B000060010F4807F05D1FFF75AFD401B642805
:1028C000F4D94DE0E068F0B1012805D0F969052898
:1028D00031D141F00400F861F86940F0010030E0C6
:1028E00000210160FFF744FD05464846D9F8000085
:1028F00010F0020F3FF480AFFFF73AFD411B0320B9
:102900000229F2D94BE0F86920F00100F861F8697A
:1029100020F00400F861FFF72BFD054641F28836F0
:10292000F86910F0020F1DD0FFF722FD411B0320B4
:10293000B142F5D933E021F00100F861F86920F0E7
:102940000400F861FFF714FD054641F28836F86986
:1029500010F0020F06D1FFF70BFD401BB042F6D975
:1029600003201CE0B8F1000F1EBFB86920F08050B2
:10297000B861E669002E5DD0386800F00C000828C8
:1029800011D1012E0AD03868216A00F480328A42BF
:1029900004D1616A00F4701088424BD00120C0B2AB
:1029A00003B0BDE8F0832649002088460866FFF79B
:1029B000DFFC0546022E0DD146464846D9F80000F8
:1029C00010F0007F13D0FFF7D3FC411B0320022936
:1029D000F3D9E4E74846D9F8000010F0007F29D089
:1029E000FFF7C6FC411B03200229F3D9D7E7206A71
:1029F000B0F5803F05D13968A26821F40031114358
:102A000039603968626A104321F4741108433860F0
:102A100001203066FFF7ACFC04464846D9F80000B8
:102A200010F0007F06D1FFF7A3FC011B0320022951
:102A3000F3D9B4E70020B2E70010024004100240CE
:102A400000004242680000200060FEFF411E00209E
:102A5000B0EB116F1CBF01207047044AF023516096
:102A600003490B70072190601160704710E000E08F
:102A700023ED00E0704710B504460068416994F802
:102A80004120212A15D111F0800101D111E02068E7
:102A900050E8050F216820F0800041E80502002A77
:102AA000F5D1A06B08B1FFF75FF9204601F0CBFA32
:102AB0002068416994F84220222A14D111F0400183
:102AC00001D110E0206850E8050F216820F0400097
:102AD00041E80502002AF5D1E06B08B1FFF744F99F
:102AE000204601F089FA002010BD7047BCB50446AD
:102AF000006802680146D0F80CE051F8143F12F06B
:102B00000F0F65D00EF4907503F0010C5CEA05031D
:102B100068D0D0071FBF1EF48070606C40F00100C9
:102B20006064500706D5BCF1000F1EBF606C40F01A
:102B300002006064900706D5BCF1000F1EBF606CF8
:102B400040F004006064100708D50EF0200050EA41
:102B50000C001EBF606C40F008006064606C0028D0
:102B600000F009810EEA0200800605D5204601F03A
:102B700078FA206800F114010868616C00F04000E8
:102B800001F00801084300F0E280204601F034FA29
:102B90002068416911F0400F01D1D3E0206850E86E
:102BA000050F216820F0400041E80502002AF5D118
:102BB000E06B002800F0C68074494163FFF7F4F829
:102BC000002800F0D880E06B416BBDE8BC400847AE
:102BD0000EEA020111F0200F06D02046BDE8BC40ED
:102BE00001F03FBA0EEA0201226BCB063DD5012A65
:102BF0003BD1002101910168019141680191019946
:102C0000416911F0400F41D1E18DA28DE38D002B80
:102C100000F0B180511A0A0401D1ACE0206850E8FC
:102C2000030F226820F4907042E80303002BF5D1D3
:102C3000206850E8050F226820F0010042E80503F3
:102C4000002BF5D1202084F842000020206320686A
:102C500050E8030F226820F0100042E80303002B25
:102C6000F5D1022089B2606357E00A065AD44906BA
:102C700040F18180C16821F04001C160202084F8CA
:102C800041002046BDE8BC4000F0ABB9E26B1168E2
:102C90004B6899B200296ED0B4F82CC061456AD255
:102CA000E3859169202901D131E0206850E8030FC4
:102CB000216820F4807041E80302002AF5D12068E1
:102CC00050E8050F216820F0010041E80502002AC4
:102CD000F5D1206850E8050F216820F0400041E858
:102CE0000502002AF5D1202084F84200002020634C
:102CF000206850E8030F216820F0100041E803022B
:102D0000002AF5D1E06BFFF72FF8B4F82CC00220B1
:102D10006063E08DACEB000081B22046BDE8BC40B2
:102D2000FFF7A8BE94F84110212924D1A168B1F57C
:102D3000805F01D1216981B1216A4A1C2262097830
:102D4000416011E02046BDE8BC40FFF7CEBE204602
:102D5000FFF7CBFE00206064BCBD216A31F8022B76
:102D60006FF35F2242602162E18C4FF6FF720139FE
:102D70001142E18400D0BCBDC16821F08001C16076
:102D8000C16841F04001C160BCBD00BF033F000805
:102D900010B5044648B394F8410028B9002084F8DF
:102DA0004000204600F024F8242084F841002068E8
:102DB000C16821F40051C160204601F0B7F92068D4
:102DC000016921F490410161416921F02A014161C9
:102DD000C16841F40051C16000202021606484F882
:102DE000411084F84210606310BD012010BD000046
:102DF000F0B585B0002704464149CDE90377CDE918
:102E000001770068884233D03E49884276D19148A4
:102E10003D4C01AD016841F480410160016801F45D
:102E2000804100910099016841F004010160294648
:102E3000006800F0040000900098022002904FF417
:102E400000700190032004902046FFF7A7F90020AE
:102E50004FF4806102900191039020462946FFF7CC
:102E60009DF9252000210022FFF726FB252043E0C5
:102E7000784801AE416841F480214160416801F425
:102E8000802100910099016841F0080101603146FC
:102E9000006800F0080000900098022002904FF4B3
:102EA0008060019003200490EA4800F58065284680
:102EB000FFF774F94FF400600297314601902846FD
:102EC0000397FFF76BF9114D11488021C5E9000701
:102ED0002846C5E90271C5E90477C5E90677FFF719
:102EE000C7F808B1FEF788FB272000210022E56320
:102EF0006C62FFF7E1FA2720FFF7D0FA05B0F0BDCA
:102F0000004800400038014000080140680A0020E5
:102F10003000024010B590F84230202B07D1012438
:102F200031B12AB10024046301F042F900E0022427
:102F3000E0B210BD704770472DE9F843044690F8A1
:102F400041001D461746884620281CD1B8F1000FC5
:102F50004FF0010018BF002F3FD04FF00009212093
:102F6000C4F8449084F84100FFF702FAA784E7848C
:102F70000646A068B0F5805F07D12769002F0CBF17
:102F8000C146474619E0022027E0474615E02046A3
:102F9000802132462B4601F057F9C0B91FB117F80E
:102FA000011B206805E039F8021B206800276FF339
:102FB0005F214160E08C0138E084E08C0028E6D19C
:102FC0002046402132462B4601F03EF908B103204D
:102FD00003E0202084F841000020C0B201B0BDE829
:102FE000F0837047B0B5894C744D402100222046D3
:102FF000A84700F07FF8204680210022A8472046FD
:1030000040210122A8472046402100222B46BDE84E
:10301000B040184770B586B000207C4C0122C02516
:10302000012604900B48016841F008010160C021AD
:10303000006800F00800019001982046FFF793F91E
:103040000320CDE9025602A905902046FFF7A6F815
:1030500006B070BD18100240B0B56C4C574D402101
:1030600000222046A84700F045F820468021012292
:10307000A847204640210122A8472046402100229F
:103080002B46BDE8B0401847F8B5044600F026F8D6
:103090005E4D0027002614E0284640210022FFF75D
:1030A00062F9284640210122FFF75DF92846802178
:1030B000FFF74CF9002807F1010718BF012040EA8B
:1030C0004606F8B20728E7D914B1FFF78BFF01E0F5
:1030D000FFF7C2FFF0B201B0F0BD00BFF8B50020AD
:1030E0008021CDE90200CDE9001048486946FFF78C
:1030F00055F88FBDF8B580206946009000200290F9
:1031000001200190032003904048FFF747F88FBD4E
:1031100070B50446FFF7EEFF3C4D4021002200262B
:103120002846FFF720F9F0B2072888BF70BD60B2CB
:103130008021B0F1FF3F2846CCBF00220122FFF7DB
:1031400012F9284640210122FFF70DF928464021B7
:103150000022FFF708F901366400E4E7B0B5FFF795
:10316000C9FF2A4C154D802101222046A847204640
:1031700040210122A847204680210022A84720465E
:10318000402100222B46BDE8B0401847B0B5FFF7FC
:10319000B1FF1E4C094D402100222046A847204681
:1031A00080210022A847204640210122A84720462E
:1031B000802101222B46BDE8B04018476723000854
:1031C000B0B5FFF78BFF114C802101222046FFF79D
:1031D000CAF8204640210122FFF7C5F80025204605
:1031E0008021FFF7B3F840B1E9B2681CFA2905461F
:1031F000F5D3FFF7CBFF012505E020464021002253
:103200000025FFF7B0F82846B0BD00BF000C014014
:1032100070B5964C00250026204620210122FFF79C
:10322000A2F8012002F036F8F0B2072884BFE8B215
:1032300070BD204620210022FFF795F8012002F002
:1032400029F820464021FFF781F840EA450501367C
:10325000E2E700BF0008014070B5F24D04462021AE
:1032600001222846FFF77FF80026F0B2072888BF22
:1032700070BD20064FF08001284654BF0022012275
:10328000FFF771F8284620210022FFF76CF8284646
:1032900020210122FFF767F801366400E5E700BF4F
:1032A0002DE9FF4190460D46002102AA0026ADF807
:1032B0000C100291ADF80410009103E0AB5D935542
:1032C000A9550136B045F9D10138072816D8DFE8ED
:1032D00000F00406080A0C0E101201200CE0022077
:1032E0000AE0032008E0042006E0052004E00620B0
:1032F00002E0072000E00820FEF742F99DF80800F0
:10330000FFF7AAFF01246F4603E0FFF781FF38555E
:103310000134B442F9D3002002E0395C2954013071
:103320008642FAD1404604B0BDE8F0812DE9FC4167
:1033300000251446E846CDE9005503E04A5D08F84B
:1033400005200135AC42F9D10027461E1DE0072EAD
:1033500016D8DFE806F00406080A0C0E1012012049
:103360000CE002200AE0032008E0042006E005202B
:1033700004E0062002E0072000E00820FEF700F944
:1033800018F80700FFF768FF0137BD42DFD120467C
:1033900002B0BDE8F081000080B50548FFF716F8DF
:1033A00020B104A0BDE8804001F0E2BF80BD00BFB5
:1033B000AC0A00205761746368646F6720726566A9
:1033C00072657368206661696C6564210A0000009B
:1033D000F8B504460078FDF7BBFC1B202081204691
:1033E000FDF769FC8F4D202101222846FEF7BBFF27
:1033F000284680210122FEF7B6FF4FF4167001F037
:1034000049FF1B4E0025002707E0756066602046D7
:103410003178FDF7E3FB0C360137207A8742F4D38D
:10342000134D48F26000134E10216560A8652046D8
:10343000B04702200221E8612046B0470020012168
:1034400028612046B0474FF4F8502021C5F8880085
:103450002046B04709202821C5F8B8002046B047CB
:103460002078BDE8F840FDF7CFBF00BF000801405D
:103470006C000020D50C0008E0B50A480022016865
:1034800041F0010101600021006800F0010001909D
:1034900001980D20FFF710F80D20BDE88C40FEF7D5
:1034A000FDBF00BF141002402DE9F04F87B05C480B
:1034B0005C4F5D4E01224FF01008016841F004019D
:1034C0000160016801F0040103910399016841F072
:1034D00010010160016801F0100103910399016876
:1034E00041F040010160016801F04001039103993E
:1034F000016841F008010160016801F008010391D1
:103500000399016841F0200101601021006800F07A
:103510002000039003983846B0473846A021002287
:103520004FF0000BB04707F580504FF47E51012259
:103530000090B04707F580604FF470410022019081
:10354000B04707F540604FF6FF7100220290B04788
:1035500007F500644FF4EE5100222046B0470125E4
:1035600003AE4FF0020A3846CDE90385DFF8BC8090
:103570003146CDF814B0CDF818A0C047A02004956E
:1035800031464FF0010903900320CDF814B00690A6
:103590003846C0474020CDF810B031460390384639
:1035A000CDF814B0C0472248314604901020039053
:1035B0002046CDF814B0C0474FF47E50CDF810909F
:1035C00031460390CDE905BA0098C0474FF47040EA
:1035D000CDF8109031460390CDE905BA0198C04767
:1035E0004FF6FF70CDF8109031460390CDE905BA43
:1035F0000298C0474FF4EE50CDF81090314603903A
:103600002046CDE905BAC0470A2000210022FEF776
:1036100053FF0A20FEF742FF07B0BDE8F08F00BF5E
:103620001810024000080140672300089D2100088F
:103630000000111080B50848084A042140F6FF73C5
:10364000C0E900218360FEF797FE002814BFBDE8A3
:10365000804080BDFDF7D0BFAC0A002000300040A4
:1036600080B50C480C4A4FF4E13100234FF00C0CAC
:10367000C0E90021C0E90233C0E9043CC0E90633D7
:10368000FFF786FB002814BFBDE8804080BDFDF732
:10369000B3BF00BFB80A00200038014080B50C4815
:1036A0000C4A4FF4E13100234FF00C0CC0E900212B
:1036B000C0E90233C0E9043CC0E90633FFF768FB08
:1036C000002814BFBDE8804080BDFDF795BF00BF56
:1036D000000B002000480040FEE700002DE9F04FFD
:1036E000A3B0DFF8980FDFF8C4650546074635F844
:1036F000021B8C1EC1F58171FF2C06EB040088BFF4
:103700000021FCF7C4FD304629462246FCF7A6FD01
:103710003046214600F006FF229042BA3888DFF892
:103720009015DFF8388F019028440A8030F8020C99
:1037300000BA000C21904880D8E94410CDE91F1050
:10374000D8F87000D8F86C601E90D8F884001D90EE
:10375000D8F848001590D8F84C001690D8F85000CA
:103760001790D8F854001890D8F858001990D8F845
:103770005C001A90D8F860001B90D8F864001C9088
:10378000D8F828000390D8F82C000290D8F8300020
:103790000790D8F834000890D8F838001090D8F87E
:1037A0003C001190D8F840001290D8F844001390D3
:1037B000D8F898000F90DFF8FC04C1790E91817958
:1037C0000C9141781491C1780D91017940790B9059
:1037D000D8F8A0000A910990D8F874000690D8F89B
:1037E00080000590D8F868000490D8E924E9D8E969
:1037F00030C1D8E93223D8E92A40D8E91E5B95FACE
:1038000085FADFF8B4549BFA8BF724BA00BA09BAE8
:103810001BBAC5F81CA092FA82FA039AAF619CFA0F
:103820008CF792FA82FC029AC5E90804C5E90A17E6
:10383000C5E90C3ADFF88474DFF8404E12BAC5E9E6
:103840000E2C0798209900BA09BA6864089800BA43
:1038500028649EFA8EF0686030BA286099FA89F080
:10386000A860049800BAE860059800BA2861069834
:1038700000BA6861099800BAA8640A9840BAA5F825
:103880004C000B9840BAA5F84E000C9840BAA5F829
:1038900050000E9840BAA5F852000D9840BAA5F80D
:1038A00054000F9800BAC5F85600109800BAC5F831
:1038B0006600119800BAC5F86200129800BAC5F8FF
:1038C0006E00139800BAC5F86A00159800BAC5F8DA
:1038D0007600169800BAC5F87200179800BAC5F8B5
:1038E0007E00189800BAC5F87A00199800BAC5F891
:1038F00086001A9800BAC5F882001B9800BAC5F86D
:103900008E001C9800BAC5F88A001D9800BAC5F848
:103910005E001E9800BAC5F85A00149840BAA5F87F
:1039200092001F9800BAC5E9250107F19C006421A7
:10393000FCF7ADFC384629469C22FCF78FFC229808
:10394000219900BAB1EB304F40F0A681E078102801
:103950005CD0062876D0032840F09E81A07994F8A8
:1039600007A0DFF84CB3DFF864834FF480714AEAB4
:103970000025A088A1EB45017F2DCBF8085000BAA7
:103980004FEA104608EB4500ABF8046088BF002101
:10399000FCF77DFC07EB46006E00A0F50071404689
:1039A0003246FCF75BFCDFF8189340F201304146E9
:1039B0003246A9F800004FEA4A0009F1030789F8E6
:1039C00002003846FCF74AFC032000EB450148465C
:1039D00000F0A8FDDBF8081004F2011627F811002A
:1039E000052000EB4105FA20A0EB4101FE2D06EB7E
:1039F000050088BF0021FCF74AFC304649462A46AC
:103A0000FCF72CFCAF48AAB2314641E1A088A84996
:103A100000BA4FEA104BA1F804B04FF48171B1EB3A
:103A2000104F36D0BBF5A67F36D040F22B10834521
:103A300035D0BBF5A57F35D0BBF5827F36D19D480B
:103A4000093031E0A0889A4A01BA080C90809E4A59
:103A500002EB114104290ED8DFE811F00500E9005E
:103A6000F200FB000401E079924901280CBF01201B
:103A70000020087101E140F24911884240F0FD80C8
:103A8000E079012840F0F6808A494FF48070088080
:103A9000F3E08848083007E086480C3004E08548A9
:103AA0000A3001E083480B3001210170E18807EB07
:103AB0004B00227AA0F50070229104F10901FCF775
:103AC000CDFB284639469C22FCF7C8FB05F1280CA3
:103AD000D5E901AED5F80C90D5E90637D5E908400F
:103AE0009CE846101BBA3FBA24BA00BA09BA12BA07
:103AF00036BA9CFA8CFCC8E92C73C8E92E046A4CCF
:103B0000C8E93021C8E932C6A86BD5F86220D5F8DB
:103B10006630D5F8561000BA12BAC8F8D400E86B6F
:103B200000BAC8F8D000286C00BAC8F8DC00686C8D
:103B300000BAC8F8D8009AFA8AF0C8F890009EFA3D
:103B40008EF0C8F8940099FA89F0C8F88000D5F88A
:103B5000720000BAC8F8F400D5F8760000BAC8F8C8
:103B6000F000D5F86A0000BAC8F8EC00D5F86E008D
:103B700000BAC8F8E800A86CC8F8E4201ABAC8F877
:103B8000E02000BAC8F8A00008BAD5F87E10C8F83E
:103B90009800D5F87A0009BA00BAC8F8F810D5F834
:103BA0008610C8F8FC00D5F8820000BAC8F80401F5
:103BB00008BAD5F88E10C8F80001D5F88A0000BA06
:103BC000C8F80C0108BAC8F80801D5E925013C4D30
:103BD000229A00BA09BAC8E9440141F201002880DA
:103BE0003348AA80014682609BFA9BF088806880F7
:103BF0002846062100F096FCE88004F20910F7211F
:103C0000FCF745FBD5E9000108224FF6FF73C4F825
:103C100001012C48C4F8051104F20111FFF78CF9D9
:103C20000020208000F04EFE01F0C4FD34E0E07979
:103C3000204901280CBF01200020887048711CE039
:103C4000E0791C4901280CBF0120002048708871D0
:103C500013E0E079174901280CBF0120002008700B
:103C6000C8710AE0E079134901280CBF0120002047
:103C7000C87002E00F4900204870019E04F201154F
:103C8000A11C28463246FCF7E9FA0E48294632467E
:103C90004FF6FF73FFF750F9A01CFF21FCF7F7FA6E
:103CA00023B0BDE8F08F00BFA29100209405002052
:103CB000D804002094060020B406002050070020FD
:103CC000A08E0020000B0020DAFEFFFF500800202D
:103CD000FEE700002DE9F04F85B004920246464809
:103CE000DFF810B1D0E924A9D0F89800CBE913A9E6
:103CF0000290CBE90102CBF80C1008461146FCF704
:103D000023FBCBF810000546DBF82C10DBF8146021
:103D1000FCF726FD044628463146FCF7C3FA074661
:103D2000002C08BF374604D138460021FCF726FD99
:103D300048B938460021FCF713FD002818BF0027BA
:103D40003E46CBF81470DBF82400DBF81810DBF8E3
:103D500028800190DBF84800CBF8185003902846E3
:103D6000FCF7F2FA0446CBF81C0028465146FCF753
:103D7000F1FA054630464946FCF7ECFA014628467A
:103D8000FCF790FA029905462046FCF7E3FA014653
:103D90002846FCF787FA01464046FCF7DBFAFCF7B9
:103DA00042FD044640460D46FCF73DFD0B461349D7
:103DB00002460020FCF7DFFB064601980F46FCF7A1
:103DC00032FD02460B4630463946FCF7DAFB224606
:103DD0002B46FCF72FFBFCF739FDCBE908000399D4
:103DE000FCF7EAFA04990860084605B0BDE8F04F10
:103DF00000F096BA00000020500900200000F03FBB
:103E000080B5FCF703FD00224FF07853FCF7B9FBB7
:103E1000044B0022FCF70EFB034B0022FCF7B1FB26
:103E200080BD00BF0000F0BF00000440704780B5B7
:103E300001F048FA01F0E4FFBDE8804001F056BA15
:103E4000B0B590B0002401A814210B94CDE9094429
:103E5000FCF71DFA4FF480300921022507900691E6
:103E6000012108940A910C91CDE90D504FF4E01016
:103E70000F9006A8FEF730FC18B1EFF3108072B671
:103E8000FEE70F20022101904FF480600394CDE9FA
:103E9000040401A80295FEF741FB18B1EFF310806E
:103EA00072B6FEE710B0B0BD1048016801F00C0218
:103EB0000F49082A0FD10268C2F383420368023215
:103EC00013F4803F01D10B4904E0036813F4003F71
:103ED00018BF08495143084A084B11600068C0F3F5
:103EE0000310185C21FA00F01060704704100240C3
:103EF00000127A0000093D0068000020106D0008E3
:103F00007047406A0021C185C184FEF7EEBD10B53F
:103F1000446A206850F8141F94F84120212A09D1DE
:103F200011F0800106D00020E084204600F08BF8DC
:103F300020681430006894F84210222907D110F04C
:103F4000400004D00020E085204600F055F8606C69
:103F500040F0100060642046BDE81040FEF7C5BD8B
:103F60000168406A096811F0200F2FD10021C18536
:103F7000016851E8031F026821F4807142E80313CD
:103F8000002BF5D1016851E8051F026821F00101FD
:103F900042E80513002BF5D1016851E8051F0268BE
:103FA00021F0400142E80513002BF5D1202180F8D3
:103FB0004210016B012909D1016851E8031F026811
:103FC00021F0100142E80313002BF5D100214163D9
:103FD000016B012918BFFEF7ADBF818DFEF74ABD09
:103FE000406A01214163016B012918BFFEF7A3BF9D
:103FF000818D4908FEF73EBD016851E8031F026844
:1040000021F4907142E80313002BF5D1016851E8C7
:10401000051F026821F0010142E80513002BF5D1CC
:10402000016B012909D1016851E8031F026821F0E1
:10403000100142E80313002BF5D1202180F8421033
:10404000002101637047016851E8031F026821F0F5
:10405000C00142E80313002BF5D1202180F8411064
:10406000704790F84210222918BF70478368B3F553
:10407000805F05D10169B1B100F128010A680BE048
:104080000146002B51F8282F01D1036923B10368A1
:104090005B6803F07F0301E003685B6813700A68E4
:1040A00001320A6007E00168826A49686FF35F21A4
:1040B00022F8021B8262C18D4FF6FF720139114254
:1040C000C18500D070470168CA6822F02002CA602A
:1040D000CA6822F48072CA604A6922F001024A6109
:1040E000202280F8422000224263036B012B18BF7C
:1040F000FEF720BF026351E8031F026821F01001A0
:1041000042E803130168002BF5D10A6812F0100F82
:1041100008D081B0002200920A680092496800919C
:10412000009901B0818DFEF7A5BC000010B50446D2
:1041300000680169E26821F44051114341F20C62C8
:104140000161D4F808C0D4E904E3C16891434EEAA0
:104150000C021A431143C1604169A26921F4407104
:10416000114341611149884202D0FEF771FA01E022
:10417000FEF778FA19214843D4E900126FF063047E
:104180009200B0FBF2F06422B0FBF2F303FB0400F8
:10419000322404EB0010B0FBF2F000F0F00200F06B
:1041A0000F0002EB03121043886010BD003801407D
:1041B000BCB51346002504460A46DFF880C0DFF888
:1041C00084E045648385816222201D4984F8420091
:1041D000E06B00F1280787E802504563216804314D
:1041E000FDF788FF01952068016801914168019100
:1041F0000199216909B909E0206850E8030F216895
:1042000040F4807041E80302002AF5D1206850E8AC
:10421000050F216840F0010041E80502002AF5D1B0
:10422000206850E8050F216840F0400041E8050291
:10423000002AF5D1002002B0B0BD00BFE13F000868
:10424000613F00080F3F00082DE9F0411D469046F0
:104250000F4604465E1C206800683840B84226D0ED
:10426000002EF8D02DB1FEF783F8A0EB0800A8428D
:10427000F1D9206850E8030F216820F4D07041E89C
:104280000302002AF5D1206850E8050F216820F0CC
:10429000010041E80502002AF5D12020002184F820
:1042A000410084F8401084F84200032000E0002020
:1042B000C0B2BDE8F08100005048FEF717BC00BF57
:1042C00010B5154C2046FEF711FC2068016811F06E
:1042D000100F14D06FF0100101602046FEF7CBFBE9
:1042E0000E48E64901220068406881F80022C0F5C6
:1042F0008070088000F0EEFA01F05CFA2068C16876
:104300004FF4807241F02001C160DC48811C0248FA
:10431000BDE81040FEF7FEBD000B0020680A00203B
:1043200070B5066804464FF07E514FF07E5530461A
:10433000FCF732FA28B9304600210025FCF71EFAB6
:1043400008B92E462560284C2648F12104F58875C9
:10435000C0F884602846FBF79AFF04F2011423A1F9
:104360000F222046FBF77AFF24482146FF224FF612
:10437000FF73FEF7E1FD20464FF48071FBF787FFE6
:104380001F493046FBF7E6FF00210646FCF7DAF945
:10439000D8B93046FCF747FA02460B461AA1204628
:1043A00002F034F8154E2146FF224FF6FF733046D7
:1043B000FEF7C2FD2846F121FBF769FF17A1204651
:1043C0000F22FBF74BFF304605E00E492046102236
:1043D000FBF744FF09482146FF224FF6FF73FEF723
:1043E000ABFD70BD50090020A08F0020564F4C54EB
:1043F0002031302C284031290D0A0000B80A002055
:104400000000A040B06E00084355525220252E33C4
:10441000662C284031290D0A000000004F555450E9
:10442000204F4E2C284031290D0A0000FEE70000E5
:1044300010B5074C00F00F03044AB0F1FF3F2344CE
:10444000C8BF83180801187010BD00BF00E400E069
:1044500014ED00E018B1C1B219B101200EE0002046
:10446000704710F47F4102D0090A092006E010F4D9
:104470007F0107BF010E1920090C1120014A515C70
:1044800008447047286D00081CB500F1280C04464C
:10449000ACE80E002321049A42631C30C4E90700F3
:1044A000184600F0FBFF04F128030FCB1A44124B0F
:1044B000043A00F0D1FE6062104A2346059884F861
:1044C0003E0084F83D00002020640699C4E91111E3
:1044D000A06384F83C00C4E92000CDE9000004F1A9
:1044E0004C00214601F03BFD0548016819B120460A
:1044F000BDE81C4008471CBDED5A00086D5D000872
:104500008C8C0020B0B50546FBF72EFED5F8801048
:10451000044609B1284688472046BDE8B040FBF76D
:1045200027BE000080B5DFF82CC04FF6FF7E0BE001
:1045300010F8012B5FFA8EF301395A400EF47F43D5
:104540003CF8122082EA132E0029F1D11FFA8EF0D6
:1045500080BD00BFB0010020F8B5224D6868C0B929
:1045600000F0E0FC01F048FC044600260AE0686820
:1045700001306860009602E00098013000900098D9
:104580006328F9D901F038FC001B0928EFD900F0A5
:10459000D5FC002701F030FC0446002608E0009717
:1045A00002E000980130009000986328F9D90136A4
:1045B00001F022FC001B0928F1D96868B0420BD930
:1045C000811B64225143B1FBF0F303FB10112B70EC
:1045D0005143B1FBF0F002E0002028706E6068707B
:1045E000F8BD00BF50040020014801F0FFBA00BF31
:1045F0005945000880B500F069F94FF0FF3101F02E
:1046000005F90028F7D1FCF733FDF4E7B0B5ADF5B7
:10461000667DB8AC104D14212046A8478AA8142105
:10462000A8475CA81421A8472EA81421A8476846CB
:104630001421A8479F4D00F041F94FF0FF3101F0E0
:10464000E5F80028F7D1D5E90823204601F08FFED0
:10465000C5E91E01EFE700BFDD4800085009002052
:1046600010B5064C00F036F94FF0FF3101F0CEF8EE
:1046700020880028F6D0FFF731F8F3E7A291002058
:104680002DE9F84FFCF7FAFE8B4F894CDFF844B662
:104690004FF0000907F10F0807F1030A00F012F9C3
:1046A0004FF0FF3101F0B2F80028F7D1207AF0B1D5
:1046B000DBF890003E46002546F8030B05E016F8AF
:1046C0000119A8B2FCF796FB0135042DF7D100269D
:1046D000554605E0B0B2FCF75DFB05F8010901366F
:1046E000042EF7D1386884F80890CBF89000607AEF
:1046F00000B3DBF894003E46002546F8030B06E0C5
:10470000281D16F8011980B2FCF774FB0135042D41
:10471000F6D10026554606E0301D80B2FCF73AFB84
:1047200005F801090136042EF6D1386884F809909D
:10473000CBF89400A07A10B3DBF898003E46002531
:1047400046F8030B07E005F1080016F8011980B2DE
:10475000FCF750FB0135042DF5D10026554607E046
:1047600006F1080080B2FCF715FB05F801090136D7
:10477000042EF5D1386884F80A90CBF89800E07AD6
:1047800010B3DBF810013E46002546F8030B07E0A6
:1047900005F10C0016F8011980B2FCF72BFB01356E
:1047A000042DF5D10026554607E006F10C0080B235
:1047B000FCF7F0FA05F801090136042EF5D1386846
:1047C00084F80B90CBF81001207B10B3DBF81401B8
:1047D0003E46002546F8030B07E005F1100016F8E9
:1047E000011980B2FCF706FB0135042DF5D1002636
:1047F000554607E006F1100080B2FCF7CBFA05F849
:1048000001090136042EF5D1386884F80C90CBF8F4
:104810001401607B10B3DBF8A0003E46002546F88B
:10482000030B07E005F1140016F8011980B2FCF73C
:10483000E1FA0135042DF5D10026554607E006F1D1
:10484000140080B2FCF7A6FA05F801090136042E1F
:10485000F5D1386884F80D90CBF8A000A07B002833
:104860003FF41CAFDBE92A0100254646C7E90201F7
:1048700007E005F1180016F8011980B2FCF7BAFA42
:104880000135082DF5D10026454607E006F1180050
:1048900080B2FCF77FFA05F801090136082EF5D140
:1048A000D7E9020184F80E90CBE92A01F6E600BFB1
:1048B000940600205009002058040020BA4840689F
:1048C000704700BFB848C068704700BFB64800686E
:1048D000704700BFB4488068704700BF00220023C3
:1048E000C0E92C22C0E92812C0F8A8208B42A8BF3A
:1048F0007047E0E802220133F8E7000010B5A34C4E
:1049000020464FF48051FDF726FD282001F0E8F8FD
:1049100020464FF48051FDF71EFD4FF4707001F0FA
:10492000DFF8EDE77CB5FDF757FDFFF789FAFEF7F5
:10493000BBFDFEF7A1FDFEF77DFEFEF7AFFEFEF725
:104940008FFEFFF751FEFEF765FB0A20FDF794FD91
:104950008348844C0021A04783480021A047834816
:104960000021A04782480021A04782480021A0479B
:1049700081480021A04781480021A04780480021AC
:10498000A0470A20FDF78AFD7E4C2046FEF773F80B
:1049900020687D4CC16841F02001C160C16841F0D0
:1049A0001001C1602046FEF766F82068774D784E0A
:1049B0000022C16805F5006441F02001C160C168B2
:1049C00041F01001C16020464FF48071B047284685
:1049D0004FF400410122B04705F580654FF4807126
:1049E00001222846B047284680210022B0472846A9
:1049F00040210022B04720464FF400410122B04739
:104A000020464FF480410022B04720464FF4005129
:104A10000122B04720464FF480510022B047204683
:104A20004FF400610122B047204601210022B04727
:104A3000204602210122B04720464FF48061002227
:104A4000B04720464FF400710122B04720461021A4
:104A50000022B047204620210122B04720460421F1
:104A60000022B047204608210122B0474D4C49A002
:104A700001210022A0474C4D0121002228604BA0BB
:104A8000A04768604EA001210022A047A8604FA067
:104A900001210022A047E86014240520504900228B
:104AA0004FF48063CDE900044BA000F0F8FF00282C
:104AB00052D001F01BF906204D490022FF23CDE919
:104AC000000448A000F0EBFF002845D001F00EF9EB
:104AD000142403204B490022FF23CDE9000445A004
:104AE00000F0DDFFC0B301F001F904204A490022C3
:104AF0004FF48063CDE9000443A000F0D0FF58B329
:104B000001F0F4F81424072047490022FF23CDE9DF
:104B1000000442A000F0C3FFF0B101F0E7F8082064
:104B2000444900224FF40073CDE900043FA000F097
:104B3000B6FF88B101F0DAF81420092100224FF401
:104B40000073CDE900103F493BA000F0A8FF18B169
:104B500001F0CCF8002001E04FF0FF3002B070BD52
:104B6000B0030020D1330008BC030020C80300209C
:104B7000D4030020E0030020EC030020F803002011
:104B800004040020000B0020B80A0020000C0140A3
:104B9000672300086D795F73656D6170686F72657A
:104BA0000000000075570008E4040020646174618F
:104BB0005F70726F636573735F73656D00000000F3
:104BC00075617274335F73656D00000065657072A6
:104BD0006F6D5F73656D00006C65643100000000EF
:104BE000FD4800087761746368646F670000000027
:104BF000FD630008646174615F636F6E7665727354
:104C0000696F6E00F5450008646174615F70726FD2
:104C100063657373000000000D46000864617461F1
:104C20005F73656E64000000614600086565707220
:104C30006F6D0000814600086D61696E7461736B71
:104C400000000000494C00082DE9F84F2348204D92
:104C5000214CDFF88C80DFF88C90DFF878B000F220
:104C6000111A00F20116287848B10BF1780783CFAA
:104C7000FBF7ECFD39462246FFF72CF823E0687875
:104C800050B1DBE91E01DBF88870FBF7DFFD394628
:104C90002246FCF7D1F816E0A87810B1FCF798F995
:104CA00011E00020F02120605046FBF7F0FA30467A
:104CB00041461022FBF7D2FA48463146FF224FF612
:104CC000FF73FEF739F940F2D23000F009FFCAE76E
:104CD0009406002050090020A4060020A08F002088
:104CE000B06E0008B80A0020B0B58D4C044D01E04C
:104CF00001CC8047AC42FBD3BDE8B040FFF712BE09
:104D0000CC6E000810B5DFF8D8CCD0F804E0DCF8A1
:104D10000C1001EB0E02824214D0538893B9DCF8D8
:104D200010309A420ED0DCF814309342A0EB01030D
:104D300008BFCCF81400D2F804E0C0F804E05268D0
:104D40000A44936082688B18834208BF10BD5C8858
:104D500004B110BDDCF81440844208BFCCF8143014
:104D6000C3F804E040680844826010BD2DE9FF4F9D
:104D7000DDF83CA04FA754A61AF0400F08BF3E46EE
:104D80001AF0100F18BF2AF0010A1AF0020F02D110
:104D90004FF000090EE0B2F1FF3F08DD5FEA4A770D
:104DA0005ABF202707EA8A094FF02B0902E0524236
:104DB0004FF02D09DDE90D8CD2B14FF0000E4FF010
:104DC0000A0B6D4611E00A2B06D1B2FBFBF707EB8D
:104DD0008704A2EB440402E0170902F00F04345DDB
:104DE0003A4605F80E400EF1010E002AEBD104E020
:104DF00030224FF0010E8DF80020E6456346C8BF13
:104E000073461AF0110FA8EB030212D10024002AF6
:104E10004D46C8BF0124B9F1000F18BF01252C4031
:104E20002025121B03E0884238BF05700130013A8B
:104E3000F9DAB9F1000F06D08842A2F1010238BFB9
:104E400080F8009001305FEACA6409D420256AF333
:104E5000041503E0884238BF05700130013AF9DAE1
:104E6000302405E08842A3F1010338BF047001300B
:104E70009E45F7DB6B460AE08842AEF101043EBF77
:104E800003EB0E0717F8017C07700130A646BCF152
:104E9000000F02D0BEF1000FEEDC012ABCBF04B04F
:104EA000BDE8F08F8842A2F101023CBF20230370CD
:104EB0000130F2E730313233343536373839616218
:104EC00063646566000000003031323334353637B4
:104ED000383941424344454600000000E0B5142003
:104EE0000A2100224FF48073CDE90010054903A088
:104EF00000F0D5FDBDE88C4000F0F8BE6D61696E34
:104F000000000000E94C0008B0B5044C044DAC4270
:104F100028BFB0BD01CC8047F9E700BFC46E0008D0
:104F2000C86E000880B5FBF71FF912490A880132E4
:104F30000A80BDE88040FBF71BB900BF80B5FBF7D6
:104F400013F90C490A88013A0A8012B2002A03DDDB
:104F5000BDE88040FBF70CB900220A80FBF708F996
:104F600005484068002814BFBDE8804080BD00F0BF
:104F70008BBB00BF8405002050050020F8B5044617
:104F8000E8B31F4F796809B120468847F868A04206
:104F900035D83869A04232D907F120054FF0FF31EA
:104FA000284600F033FC34F80A0CA4F10C0618B1C2
:104FB0003088B0F5F55F0AD012A000F0D9F934F8C6
:104FC0000C3C34F80A2C16A0314600F0D1F94FF40D
:104FD000F55044F80C0C7869B04288BF7E6154F8F3
:104FE000080CF968BA69301A401A1044B8613046A2
:104FF000FFF788FE2846BDE8F84000F0DBBBF8BDAF
:1050000000050020746F2066726565206120626172
:1050100064206461746120626C6F636B3A0A000003
:105020006D656D3A203078253038782C20757365A1
:105030006420666C61673A2025642C206D61676985
:105040006320636F64653A203078253034780A0035
:1050500002487047014800F500407047E40B00200B
:1050600010B5FEF721FF95484FF47A710068B0FB48
:10507000F1F0411E0020B0EB116F07D10A4AFF2367
:1050800051600A490B70072111609060FFF73CFFE7
:10509000FFF7DEFF0446FFF7DDFF01462046BDE8CF
:1050A000104000F06BBC00BF10E000E023ED00E01A
:1050B0002DE9FC41114D04464FF00D080DF1070696
:1050C0000DF1060713E02846314601224FF0FF3369
:1050D0008DF80780FDF730FF20788DF80600284610
:1050E000394601224FF0FF33FDF726FF01342078C7
:1050F0000A28E8D00028F0D1BDE8FC81000B002090
:10510000B0B504462248016811B120468847F0B383
:10511000216C2048204DA847616A2048A847A16A11
:105120001F48A847E16A1F48A847216B1E48A847A7
:1051300061681E48A847A1681DA0A847E16820A093
:10514000A847216922A0A847616925A0A847A169AD
:1051500027A0A847E1692AA0A847216A2CA0A84750
:10516000616B2FA0A847A16B31A0A847E16B34A0C9
:10517000A8472078400703D4364800F0F9F805E046
:1051800000F08EFD0146324800F0F2F8FEE7B0BDB7
:10519000E00B0020A06E0008715300085F6E00084D
:1051A0006C6E0008796E0008866E0008936E000829
:1051B0007230353A203078253038780A0000000007
:1051C0007230363A203078253038780A00000000F6
:1051D0007230373A203078253038780A00000000E5
:1051E0007230383A203078253038780A00000000D4
:1051F0007230393A203078253038780A00000000C3
:105200007231303A203078253038780A00000000BA
:105210007231313A203078253038780A00000000A9
:105220007231323A203078253038780A0000000098
:10523000206C723A203078253038780A000000005F
:105240002070633A203078253038780A000000005A
:10525000426E0008286E000810B504320C4C22F093
:10526000070E6FF03F02AEF1400C02E04EF8024034
:105270000432002AFAD100224FF080744EE908125D
:105280004EE906224EE904234EE90204604610BDB1
:10529000EFBEADDEB0B5084C0849094D6268236821
:1052A0000968B1FBF5F148436168511A98BF194488
:1052B0008142F9D3B0BD00BF14E000E068000020D7
:1052C00040420F0010B5FAF74FFF0446104801782E
:1052D000013101700448006800B180472046BDE8F4
:1052E0001040FAF745BF00BFE48B002010B5FAF775
:1052F0003BFF044606480178013901700548006803
:1053000000B180472046BDE81040FAF731BF00BF2A
:10531000F08B0020EC8B002000681C3800F096BC5D
:1053200070B50546084616460C4600F0F5FC012E01
:1053300001D0A6B170BD28460068A8420FD090F8F1
:10534000211094F83D208A42F6D21C3804F11C0248
:10535000016A0A60216202621C30E06170BD686807
:1053600004F11C01016020626960E56170BD00000C
:1053700083B018B5844603A8074C0EC003AB7F2149
:1053800062462046009300F06FFE2046FFF790FE35
:10539000BDE8184003B07047F88B00202DE9F047B6
:1053A000E8B3DFF83C96033020F0030AD9F8080090
:1053B000824534D809F120084FF0FF31404600F013
:1053C00025FABAF10C0F98BF4FF00C0AD9E902C0C8
:1053D000D9F81410ACEB0A020D1A2B4695421BD2D9
:1053E000C7187E887D68002EF7D103F10C06AC1B30
:1053F0005445F2D30AF11802944214D201227A8061
:10540000C21BD9E906362A441A449642C9F8182024
:1054100026D2C9F81C2023E0404600F0CBF9002535
:105420002846BDE8F08706EB0A024FF4F5540CF16C
:105430000C060AF10C0E84508418C4E901530123B0
:105440007B807A606368B3421CBF03449A60D9E9E9
:10545000062372449342C9F8182038BFC9F81C20AB
:105460004FF4F552B9423A800BD1D9F8102005E03B
:10547000914206D049680144C9F814104B88002BAA
:10548000F6D1404600F096F9D9F8002007F10C0556
:10549000002AC5D0284651469047C1E7042A01D3C7
:1054A000830701D003463AE070B5D643CBB2044639
:1054B000154616F1100F43EA032398BF6FF00F064D
:1054C00043EA03431644103626F00F0E00EB0E0C91
:1054D00005E0C4E90033C4E902331034103D102D57
:1054E000F7D2A2EB0E026546D64316F1040F98BF21
:1054F0006FF003061644341D164624F0030EA4086C
:1055000001E008C5043E042EFBD20CEB8403A2EBA1
:105510000E02BDE8704002E003F8011B013A002AC8
:10552000FAD170472DE9F041064653488846A0F16C
:1055300010014FF0FF300130032806D801F11007A9
:10554000097CB1423946F6D100E00027F868FFF740
:1055500025FF05460024E8B1FA6828460021FFF738
:105560009DFF2846414610222E746C7400F0ECF921
:105570004248016809B12846884705F11404FAF742
:10558000F3FD57F8041F4C6069613C60AF61FAF7A6
:10559000EFFD00E000252846BDE8F08110B5044687
:1055A0001848016809B12046884700202074FAF79E
:1055B000DBFD2246A16952F8143F5960A1690B60D6
:1055C000A2611260FAF7D4FD2046BDE81040FFF753
:1055D000D5BC00BF10B504460A48016809B1204691
:1055E000884700202074FAF7BFFD54F8141F626842
:1055F0004A6062681160C4E90044BDE81040FAF7EF
:10560000B7BD00BF7C8C0020F8B504461A480E4692
:105610001546A0F110014FF0FF300130032806D8E5
:1056200001F11007097CB1423946F6D100E00027AC
:10563000FFF778FC043738460068B842FCD1FFF722
:105640007DFC46F08000294610222074204600F0A0
:105650007BF90A48016809B12046884704F114051E
:10566000FAF782FD39684D6061613D60A761BDE870
:10567000F840FAF77DBD00BF10040020788C0020B0
:10568000007CC009704700002DE9F041FAF76CFD7D
:10569000F24E0446308820B12046BDE8F041FAF7CA
:1056A00067BDDFF8E083D8F80800FEF7D3FEF649BF
:1056B0000138D8F8045051F83070A7F11C018D4220
:1056C000EAD07268C8F8041088F800000AB12846C9
:1056D0009047064A07F1080105F12400127812B13B
:1056E000FAF749FDD8E7FAF746FDD5E7F08B002039
:1056F00010B50446FAF738FD94F83C1094F83D20B4
:1057000004F11C0301F0F00141F0010184F83C10A8
:10571000DD4901EBC2014A6813602262D94A4B603D
:10572000E161216C936819439160BDE81040FAF77C
:105730001FBD00BF10B50446FAF716FD214651F80B
:105740001C2F4B6853604B681A60C1E90011CE4AA8
:1057500091F8211002EBC10352F83110994205D1A2
:10576000C84A216C936823EA01019160BDE81040AA
:10577000FAF7FEBCB0B50D46014602201446FFF70D
:10578000D1FE28B100F11C0185844474C0E90711E1
:10579000B0BD70B515460A4602211C460646FFF705
:1057A00033FF06F11C00C6E907000020B5847474BD
:1057B00070BD0000B0B504461348016809B1204629
:1057C0008847FAF7D1FC0546204650F81C1F814255
:1057D00007D0FFF7A1FD2846FAF7CAFCFFF754FFF0
:1057E00009E0A08C4FF6FF71884206D00130A084FA
:1057F0002846FAF7BDFC0020B0BD2846FAF7B8FCF1
:105800006FF00200B0BD00BF808C0020F8B50446E8
:105810001F480E460091016809B120468847FAF7F3
:10582000A3FC0546A08C60B10138A0842846FAF795
:105830009FFC1848016809B120468847002001B044
:10584000F0BDFEB100F02CFA07460020B86304F169
:105850001C003946627CFFF763FD012E09DB07F16E
:105860004C066A460021304600F03CFB304600F012
:105870008DFB2846FAF77CFCFFF706FFB86B002883
:10588000DDD1D6E72846FAF773FC6FF00100D6E7C2
:10589000888C0020848C00201CB50B4C07A0A047EE
:1058A0000AA0A04712A0032101220523009013A003
:1058B000A0471AA02146BDE81C4008470A205C20EA
:1058C0007C202F0A00000000715300082D20525444
:1058D000202D2020202020546872656164204F70A4
:1058E00065726174696E672053797374656D0A001F
:1058F0004F6374203132203230323400202F207C2C
:10590000205C202020202025642E25642E25642064
:105910006275696C642025730A0000002032303003
:1059200036202D203230323020436F707972696713
:1059300068742062792072742D74687265616420C5
:105940007465616D0A00000080B5B2B184460346FB
:1059500091F800E003F801EBBEF1000F05D0013A29
:1059600001F101019C46F3D107E00121002302E08F
:105970000CF8013001318A42FAD180BD0A46014655
:1059800022F00300192828D3CB1CA0F1180C23F017
:1059900003039C4521D310B5114CC11A4FF0000CE4
:1059A000A1F118020C39E360A2604FF4F552C3E98B
:1059B0000021A0F10C02C3F808C000232261094AAB
:1059C00040E9032140F8041C04F1200006A1012253
:1059D000FFF7DFFEE068606110BD05A0FFF7C8BCFF
:1059E00000050020A01E0100686561700000000035
:1059F0006D656D20696E69742C206572726F7220FE
:105A0000626567696E2061646472657373203078C3
:105A100025782C20616E6420656E64206164647258
:105A200065737320307825780A0000000B49002048
:105A30000880F04903E00A180A5052600830B0F5B7
:105A4000807FF8D10F481F220021027000F10C0264
:105A5000C0E90111C0E90322704700BF840500209E
:105A600010B5084CA068FEF7F5FCE24901EBC00058
:105A700050F8080CA0F11C0108306160BDE810402E
:105A8000FAF7A7BB50050020908C0020024800F1D7
:105A90000C01C0E903117047700500207047FEB586
:105AA0000E46014601201F461546FFF73BFD044602
:105AB00090B13846FFF772FC034650B1DDE908109B
:105AC0002A46CDE90071029020463146FEF7DCFC03
:105AD00003E02046FFF762FD0024204603B0F0BD3E
