:020000040800F2
:100000007019002045010008971D00080D02000826
:10001000951D0008190A0008C5200008000000000E
:10002000000000000000000000000000CD1D0008DE
:100030001B0A00080000000097010008CF1D0008FF
:100040005F0100085F0100085F0100085F01000810
:100050005F0100085F0100085F0100085F01000800
:100060005F0100085F010008910A00085F010008B5
:100070005F0100085F0100085F0100085F010008E0
:100080005F0100085F0100085F0100085F010008D0
:100090005F0100085F0100085F0100085F010008C0
:1000A0005F0100085F0100085F0100085F010008B0
:1000B0005F0100085F0100085F0100085F010008A0
:1000C0005F0100085F0100085F0100085F01000890
:1000D0005F0100085F0100085F010008B920000807
:1000E0005F0100085F0100085F0100085F01000870
:1000F0005F0100085F0100085F0100085F01000860
:100100005F0100085F0100085F0100085F0100084F
:100110005F0100085F0100085F0100085F0100083F
:100120005F0100085F0100085F0100085F0100082F
:10013000DFF80CD000F0F2FA00480047B7070008DB
:10014000701900200648804706480047FEE7FEE792
:10015000FEE7FEE7FEE7FEE7FEE7FEE7FEE7FEE777
:10016000A11E000831010008EFF3108072B670473D
:1001700080F310887047324A1368012B04D04FF087
:10018000010313602F4A10602F4A11602F484FF06F
:10019000805101607047EFF3108272B62848016801
:1001A00091B14FF0000101602648016829B1EFF3D9
:1001B000098121E9F00F0068016023490968096895
:1001C000B1E8F00F81F3098882F310884EF0040E35
:1001D00070471D4908601B494FF00000086018492E
:1001E0004FF0010008601A481A49D0F8002041EA8F
:1001F0000201016015484FF0805101601648006807
:10020000006880F3088861B662B670471EF0040F7C
:100210000CBFEFF30880EFF3098020E9F00F40F8FE
:1002200004ED1EF0040F0CBF80F3088880F30988EA
:1002300000B502F067FB5DF804EB4EF0040E70476A
:1002400060150020B0130020BC13002004ED00E076
:1002500020ED00E00000FFFF08ED00E0D2B201E079
:1002600000F8012B491EFBD270470022F6E710B5BB
:1002700013460A4604461946FFF7F0FF204610BD14
:1002800080EA010210B502F00043400022D04A008B
:100290001FD0010E01EB1261C0F35600C2F35602EB
:1002A00040F4000042F40002A0FB022000047F3969
:1002B000140400D0401C50EA124001D44000491EF2
:1002C000C2B20C0604EBD010401C4008802A02D0B9
:1002D00003E0002010BD20F00100002900DA00201A
:1002E000184310BD2DE9FE4F804681EA0300C00F80
:1002F0000C46009021F0004123F00045B8EB0200CD
:10030000A94105D24046214690461C460B4602466E
:1003100023F00040104347D0270DC7F30A00C3F372
:100320000A510290401A019040286BDAC3F313007F
:1003300040F4801B0098924620B10023D2EB030AC0
:1003400063EB0B0B01985946C0F14002504600F098
:100350002FF906460D4650465946019A00F037F9E6
:1003600010EB08006141002487EA115284EAE77328
:100370001A4340D0009A62B3019A012A4FEA075209
:1003800015DC001B61EB02014FF0004202EA07524C
:10039000CDE90042001C41F5801132462B4600F0A9
:1003A0006EF903B0BDE8F08F40462146F9E7001B27
:1003B00061EB0201001C41F5801300185B4120181D
:1003C000A2F5001747EB030140EAD570B6196D415D
:1003D00011E06D084FEA360645EAC0754FEA07524C
:1003E000001B61EB0201001C41F5801149084FEA36
:1003F00030000019514132462B4603B0BDE8F04FA2
:1004000000F02EB90098012240000023D0EB020238
:1004100063EBE073009821464FEAE074B8EB00000C
:1004200061EB0401E9E783F000435BE781F0004101
:1004300058E72DE9FE4F81EA030404F0004421F05F
:10044000004100944FF0000B23F0004350EA0104F8
:100450005ED052EA03045BD0C3F30A54C1F30A55D9
:100460002C44A4F2F3340194A0FB0254C1F3130111
:1004700041F48011C3F3130343F4801301FB0244DE
:1004800000FB034E840A970A44EA815447EA8357E3
:10049000A4FB076802958D0A05FB07854FEA932C9C
:1004A00004FB0C542705029D4FEA065847EA16370D
:1004B000B5EB08056EEB070C870E920E47EA811725
:1004C00042EA8312A7FB0201B6EB0B0164EB0004C6
:1004D0002B0D43EA0C335E1844EB1C50DA465146B0
:1004E000E7FB0201C5F313044FEA0B3343EA14534D
:1004F0004FEA0432019C43EA0603A4F10C0402947F
:10050000009CCDE900B400F0BAF803B0BDE8F08F6C
:1005100000200146F9E796230022114600F072B848
:1005200000F0004220F00040C10DC0F3160040F47E
:1005300000007F2901DA00207047962903DCC1F111
:100540009601C84001E096398840002AF4D0404224
:10055000704700F0004230F000400AD0C10D01F5B4
:100560006071C0F3160042EA0151C208400711430E
:10057000704700200146704701F0004330B421F07D
:10058000004150EA010206D00A0DA2F56072C1F3E3
:100590001301002A02DC30BC00207047440F44EAFB
:1005A000C104C100E01830BC00EBC25000F021B81B
:1005B000202A04DB203A00FA02F100207047914023
:1005C000C2F1200320FA03F3194390407047202A18
:1005D00006DBCB17203A41FA02F043EAE07306E06B
:1005E00041FA02F3D040C2F120029140084319467B
:1005F00070470029A8BF7047401C490008BF20F081
:100600000100704710B4B0FA80FC00FA0CF050EA18
:10061000010404BF10BC704749B1CCF1200421FA99
:1006200004F411FA0CF118BF012121430843A3EB94
:100630000C01CB1D4FEA00614FEA102042BF0020A1
:1006400010BC704700EBC35010440029A4BF10BC7D
:100650007047401C490008BF20F0010010BC7047E3
:1006600010B5141E73F1000408DA401C41F10001BA
:1006700092185B411A4301D120F0010010BD2DE911
:10068000F04D92469B4611B1B1FA81F202E0B0FA08
:1006900080F220329046FFF78BFF04460F4640EA77
:1006A0000A0041EA0B0153465A46084313D011464B
:1006B00053EA010019D0C8F14002504600F040F85A
:1006C00005460E46504659464246FFF771FF08431D
:1006D00005D0012004E020463946BDE8F08D002019
:1006E000054346EAE0762C4337430A986305E40A5B
:1006F000A0EB08000022FD0A44EA47540A3002D564
:1007000000200146E9E7010510196941DDE90845C6
:1007100000196941BDE8F04DA2E70000064C074D05
:1007200006E0E06840F0010394E8070098471034C1
:10073000AC42F6D3FFF700FD483D0008683D0008D5
:10074000202A04DB203A21FA02F00021704721FA26
:1007500002F3D040C2F1200291400843194670478D
:1007600070B58C1810F8015B15F0070301D110F873
:10077000013B2A1106D110F8012B03E010F8016BA0
:1007800001F8016B5B1EF9D12B0705D40023521E23
:100790000DD401F8013BFAE710F8013BCB1A921C8B
:1007A00003E013F8015B01F8015B521EF9D5A14289
:1007B000D8D3002070BD80B503F0B0F9002080BD13
:1007C000B0B54FF0000E4FF0070C0A0604BF5FFAF9
:1007D0008EF0B0BD80220FE005788CEA4E042A40EE
:1007E0000EF0800518BF0122B2EBD51F4FEA53026D
:1007F00008BF4FEA4E04A646D3B2002BECD1013914
:100800000130E2E780B5A8B1D0F804C0BCF1000F18
:1008100010D090F808E0002309E002EB4202013317
:100820005CF82200884204BF0CEB820080BDDAB283
:100830007245F2D9002080BDF0B585B00646002093
:10084000002ECDE90200CDE900002DD03046FFF7A3
:10085000D9FF044640B32078012702AD67F39F100B
:100860008DF80800717AA2683078002918BF01322B
:10087000511CCAB2294601F0DBF8767A012E16D156
:100880002078694667F39F108DF80000A068023059
:1008900002E0AB5C01378B54FAB29042F9DCC1B292
:1008A0006846FFF78DFF03E04FF0FF302FE0002098
:1008B000022E18D1217801206A4660F39F118DF82D
:1008C0000010A168023102E0EF5C0130D754C3B2DE
:1008D0009942F9DC00206A4603E012F8013B013935
:1008E00058400B06F9D1000602D06FF001000EE06F
:1008F000002001226060A16806E007020132676003
:10090000EB5C43EA00206060D3B29942F5DA05B0AF
:10091000F0BDE0B501464FF0FF300029CDE9000001
:1009200004D008786946082201F0C8F802B080BDFA
:1009300070B501280CD1CF4C064E01252046402130
:1009400000F07CFAB54288BF70BD01350028F5D1B2
:1009500070BD00BFFFDC6D002DE9FC4104460020A6
:10096000002CCDE900002FD0C9B22046FFF74AFF86
:10097000054648B3287800216E4600F03F008DF808
:100980000000686803E0BA1A0131B0540012AF6881
:10099000CAB29742F7DC94F80980B8F1000F07D08B
:1009A000781CC1B23046FFF70BFFF1194870AF68F1
:1009B0000220B8F1000F694608BF01203844C2B2D6
:1009C000207801F07BF801E04FF0FF3002B0BDE885
:1009D000F08100000138072888BF7047DFE800F089
:1009E00004070A0D10131619012000F055B8022053
:1009F00000F052B8032000F04FB8042000F04CB8CB
:100A0000052000F049B8062000F046B8072000F0A5
:100A100043B8082000F040B8FEE7704701380728C7
:100A200088BF7047DFE800F0040B10161C22282E48
:100A3000364810210122A0F5805000F00CBA33484E
:100A40008021012200F007BA30484FF48071012262
:100A500000F001BA2D484FF40071012200F0FBB9FB
:100A60002A484FF48061012200F0F5B927484FF47D
:100A70000061012200F0EFB924484FF480510122B7
:100A800000F0E9B921484FF40051012200F0E3B928
:100A9000102000F0F1B800000138072888BF704727
:100AA000DFE800F0040B10161C22282E1748102136
:100AB0000022A0F5805000F0CEB914488021002219
:100AC00000F0C9B911484FF48071002200F0C3B999
:100AD0000E484FF40071002200F0BDB90B484FF4EE
:100AE0008061002200F0B7B908484FF4006100228D
:100AF00000F0B1B905484FF48051002200F0ABB9C5
:100B000002484FF40051002200F0A5B9001801403E
:100B1000EFF3108072B6FEE790F82110022912D18F
:100B2000016801230A6822F00E020A600A6822F0B6
:100B300001020A60D0E90F1203FA02F24A600021B2
:100B400080F8213002E0042181630121002280F835
:100B5000202008467047000090F82110022919D182
:100B60000268116821F00E011160116821F0010185
:100B700011602D4901F17C039A420FD9324B9A4200
:100B800024D0324B9A4223D0314B9A4222D14FF497
:100B9000807327E004218163012143E0234B9A42C3
:100BA00026D0234B9A4225D0224B9A4224D0224B66
:100BB0009A4224D0214B9A4217D0214B9A4221D0FD
:100BC000204B9A4211D14FF080721DE0012309E0C1
:100BD000102307E001F5886C4FF48033624508BFAD
:100BE0004FF48053C1F800340FE04FF480320BE033
:100BF000012209E0102207E04FF4807204E04FF474
:100C0000805201E04FF480120A600021012280F836
:100C1000201080F82120426B22B180B5904700213E
:100C2000BDE88040084670470400024008000240CA
:100C30001C000240300002404400024058000240C4
:100C40006C00024080000240080402401C04024084
:100C50003004024080B5C00658BF80BD0548402121
:100C600000F0ECF800B180BD01F070FBBDE8804001
:100C700002F0A2B90008014003490A68024214BF09
:100C800008607047FFF7E6BF140401402DE9FC4FF0
:100C900081465F4806234FF0000C4FF001084FF0EB
:100CA0000F0E4FF0000A81455A4808BF05234844FB
:100CB0004FEAB022052A4FF0000238BF4FEAB023B6
:100CC00000930C6834FA02F508BFBDE8FC8F08FAFF
:100CD00002F73C4200F098804D68032D16D9112D83
:100CE00026D0122D28D04E48854213D04D4885423B
:100CF00010D04D4885420DD04C4885420AD04C4812
:100D0000854207D04B48854204D022E0DFE805F059
:100D100002181B1F8C6844B1012C4FF0080A14BF45
:100D2000C9F81470C9F8107013E04FF0040A10E00D
:100D3000CC6804F1040A0CE0CC6804F10C0A08E069
:100D4000D1F80CA005E0CC6804F1080A01E04FF0EE
:100D5000000A082A6446484628BF203C28BF0430C1
:100D600006680EFA04F50AFA04F426EA05052C438F
:100D70000460C879C00647D57948274E22F003059C
:100D800003460068B346354440F001001860186817
:100D9000294B00F0010001900CF00C00019E0EFAAE
:100DA00000F49E46EE58009B03FA00F026EA040485
:100DB0001A4B204345F80E004FF00F0E4D68DBF83C
:100DC000080015F4801F0CBF20EA070440EA07045E
:100DD000A802CBF80840186854BF20EA070440EA8C
:100DE0000704A8031C60DBF8040054BF20EA0704D2
:100DF00040EA0704E803CBF80440DBF8000054BFE6
:100E0000B8433843CBF800000CF1040C013258E72A
:100E1000001C014000F8FEBF000401400C0401402A
:100E2000000011100000121000002110000022101C
:100E3000000031100000321008FCFFFF80680840FD
:100E400018BF01207047C26802EA0103914341EADA
:100E5000034101617047002A08BF0904016170471E
:100E600030488068704700BFB0B5044618B32068AA
:100E70004CF6CC41016045F255510160616841601A
:100E8000A1688160FFF7ECFF05462068C16811F09A
:100E9000030F0BD0FFF7E4FF401B2828F5D3206891
:100EA000C06810F0030FF0D0032005E04AF6AA2135
:100EB0000160002000E00120C0B2B0BD00684AF629
:100EC000AA2101600020704780B50748016841F001
:100ED00010010160032000F089F80F2000F006F8EF
:100EE00000F022F8002080BD0020024070B50D4EB9
:100EF00004464FF47A713078B1FBF0F09A490968F2
:100F0000B1FBF0F000F01AFB01250F2C08D838B91E
:100F10004FF0FF3021460022002500F045F87460B4
:100F2000284670BD0000002082B00D4802220168F2
:100F300041F001010160016801F001010191019995
:100F4000416841F080514160406800F0805000905D
:100F500000980448016862F31A61016002B07047AA
:100F6000181002400400014000280CDB00F01F01B3
:100F70000122400902FA01F1034A42F82010BFF3AE
:100F80004F8FBFF36F8F704780E100E0002808DBD0
:100F900000F01F010122400902FA01F1014A42F862
:100FA0002010704700E100E010B5164B1B68C3F33A
:100FB000022E0EF1040CAEF103048EF00703BCF117
:100FC000070F4FF0010C38BF0024042B28BF042367
:100FD0000CFA03F3013B19400CFA04F3013BA14066
:100FE0001A401143BDE8104001F06EB805494FF6B4
:100FF000FF030A681A4060F30A220348104308609E
:10100000704700BF0CED00E00000FA052DE9F0414B
:1010100088460446002800F08880464F4FF48050F0
:10102000395801F0070141450AD2395821F007012A
:1010300041EA08013950385800F00700404574D1A2
:10104000206810F0020F11D0410742BF796841F4C7
:10105000E0617960010742BF796841F460517960CD
:101060007968A26821F0F00111437960C00727D0A8
:101070006068012804D1396811F4003F08D154E0B8
:101080003968022802D1890102D44EE089074CD583
:10109000796821F0030108437860FFF7E1FE064616
:1010A00041F288357868616800F00C00B0EB810F80
:1010B00006D0FFF7D5FE801BA842F3D9032035E008
:1010C0004FF48050395801F0070141450AD9395889
:1010D00021F0070141EA08013950385800F00700B3
:1010E000404522D1206810F0040F05D07968E268ED
:1010F00021F4E06111437960000706D57868216921
:1011000020F4605040EAC100786000F031F879685E
:10111000094AC1F30311515CC840134908600748EC
:101120000068FFF7E3FE002000E00120C0B2BDE848
:10113000F08100BF00100240983B0008040000202E
:101140000948FA49094A00680968C1F30221515C5B
:10115000C8407047F748F549044A00680968C1F378
:10116000C221515CC84070470C000020A83B000819
:1011700010B50D4C0D48226802F00C03082B18BF67
:1011800010BDC2F383430AA112F4803FCB5C02D1AD
:101190000C48584310BD216809A25843C1F340418F
:1011A000515CB0FBF1F010BD0410024000127A0057
:1011B00002030405060708090A0B0C0D0E0F101098
:1011C0000102000000093D002DE9FE43044600280D
:1011D00000F05C812078D44ED44FC007B14650D087
:1011E000386800F00C00042818D0386800F00C00B3
:1011F000082803D1386810F4803F0FD16068A0B18F
:10120000B0F5803F06D03168B0F5A02F25D141F46C
:1012100080203060306840F4803024E0306810F482
:10122000003F2ED0606860BB30E1306820F4803031
:101230003060306820F480203060FFF711FE0546F2
:10124000D9F800004E4610F4003F1AD0FFF708FE10
:10125000411B03206429F3D919E121F48030306067
:10126000306820F480203060FFF7FAFD05463068D2
:1012700010F4003F05D1FFF7F3FD401B6428F6D9B9
:10128000E6E0207880072FD5386810F00C0F08D0E2
:10129000386800F00C0008280BD1386810F4803F43
:1012A00007D1306810F0020F17D02069012814D040
:1012B000ECE021699E48002900F08A80012101604C
:1012C000FFF7CEFD0546306810F0020F05D1FFF79D
:1012D000C7FD401B0228F6D9BAE03068616920F0EA
:1012E000F80040EAC10030602078000730D5A069DE
:1012F00080B18F480121C0F88014FFF7B1FD054689
:10130000386A10F0020F16D1FFF7AAFD401B022821
:10131000F6D99DE086480021C0F88014FFF7A0FDB3
:101320000546386A10F0020F12D0FFF799FD401BF6
:101330000228F6D98CE07F484FF4FA510068B0FBE0
:10134000F1F0029000BF0298411E00280291F9D1ED
:101350002078400740F18580B86910F0805F0BD19C
:10136000B8694FF0010840F08050B861B86900F0EA
:1013700080500190019801E04FF000086E4E484601
:1013800059F8060010F4807F14D159F8060040F493
:10139000807049F80600FFF763FD0546484659F896
:1013A000060010F4807F05D1FFF75AFD401B64282A
:1013B000F4D94DE0E068F0B1012805D0F9690528BD
:1013C00031D141F00400F861F86940F0010030E0EB
:1013D00000210160FFF744FD05464846D9F80000AA
:1013E00010F0020F3FF480AFFFF73AFD411B0320DE
:1013F0000229F2D94BE0F86920F00100F861F869A0
:1014000020F00400F861FFF72BFD054641F2883615
:10141000F86910F0020F1DD0FFF722FD411B0320D9
:10142000B142F5D933E021F00100F861F86920F00C
:101430000400F861FFF714FD054641F28836F869AB
:1014400010F0020F06D1FFF70BFD401BB042F6D99A
:1014500003201CE0B8F1000F1EBFB86920F08050D7
:10146000B861E669002E5DD0386800F00C000828ED
:1014700011D1012E0AD03868216A00F480328A42E4
:1014800004D1616A00F4701088424BD00120C0B2D0
:1014900003B0BDE8F0832649002088460866FFF7C0
:1014A000DFFC0546022E0DD146464846D9F800001D
:1014B00010F0007F13D0FFF7D3FC411B032002295B
:1014C000F3D9E4E74846D9F8000010F0007F29D0AE
:1014D000FFF7C6FC411B03200229F3D9D7E7206A96
:1014E000B0F5803F05D13968A26821F4003111437D
:1014F00039603968626A104321F474110843386016
:1015000001203066FFF7ACFC04464846D9F80000DD
:1015100010F0007F06D1FFF7A3FC011B0320022976
:10152000F3D9B4E70020B2E70010024004100240F3
:10153000000042420C0000200060FEFF411E00201F
:10154000B0EB116F1CBF01207047044AF0235160BB
:1015500003490B70072190601160704710E000E0B4
:1015600023ED00E070477047BCB504460068026890
:101570000146D0F80CE051F8143F12F00F0F65D07F
:101580000EF4907503F0010C5CEA050368D0D007F7
:101590001FBF1EF48070606C40F001006064500753
:1015A00006D5BCF1000F1EBF606C40F00200606405
:1015B000900706D5BCF1000F1EBF606C40F0040020
:1015C0006064100708D50EF0200050EA0C001EBF22
:1015D000606C40F008006064606C002800F00981D5
:1015E0000EEA0200800605D5204600F087FC206840
:1015F00000F114010868616C00F0400001F008017E
:10160000084300F0E280204600F051FC2068416968
:1016100011F0400F01D1D3E0206850E8050F216898
:1016200020F0400041E80502002AF5D1E06B0028D7
:1016300000F0C68074494163FFF78EFA002800F07D
:10164000D880E06B416BBDE8BC4008470EEA020160
:1016500011F0200F06D02046BDE8BC4000F04EBC83
:101660000EEA0201226BCB063DD5012A3BD10021B7
:10167000019101680191416801910199416911F05D
:10168000400F41D1E18DA28DE38D002B00F0B180A0
:10169000511A0A0401D1ACE0206850E8030F226817
:1016A00020F4907042E80303002BF5D1206850E845
:1016B000050F226820F0010042E80503002BF5D158
:1016C000202084F8420000202063206850E8030FA7
:1016D000226820F0100042E80303002BF5D102201D
:1016E00089B2606357E00A065AD4490640F1818006
:1016F000C16821F04001C160202084F841002046EB
:10170000BDE8BC4000F04CB9E26B11684B6899B27F
:1017100000296ED0B4F82CC061456AD2E385916986
:10172000202901D131E0206850E8030F216820F41E
:10173000807041E80302002AF5D1206850E8050FC7
:10174000216820F0010041E80502002AF5D1206857
:1017500050E8050F216820F0400041E80502002A0A
:10176000F5D1202084F8420000202063206850E852
:10177000030F216820F0100041E80302002AF5D190
:10178000E06BFFF7C9F9B4F82CC002206063E08D6C
:10179000ACEB000081B22046BDE8BC40FFF7E2BEE2
:1017A00094F84110212924D1A168B1F5805F01D1BD
:1017B000216981B1216A4A1C22620978416011E0E5
:1017C0002046BDE8BC40FFF7CEBE2046FFF7CBFE6B
:1017D00000206064BCBD216A31F8022B6FF35F22E8
:1017E00042602162E18C4FF6FF7201391142E184BF
:1017F00000D0BCBDC16821F08001C160C16841F06A
:101800004001C160BCBD00BFA31E000810B5044666
:1018100048B394F8410028B9002084F840002046DD
:1018200000F024F8242084F841002068C16821F4E5
:101830000051C160204600F0C5FB2068016921F419
:1018400090410161416921F02A014161C16841F47F
:101850000051C16000202021606484F8411084F8A8
:101860004210606310BD012010BD000070B586B04D
:1018700000261E4CCDE90466CDE902660068A4F599
:10188000444188422FD11A4802AD416841F4802179
:101890004160416801F4802101910199016841F0A2
:1018A000080101602946006800F0080001900198D5
:1018B000022003904FF480600290032005902046A0
:1018C000FFF7E4F94FF400600396294602902046A2
:1018D0000496FFF7DBF9272000210022FFF764FBC5
:1018E0002720FFF753FB06B070BD00BF000C01407E
:1018F0001810024070472DE9F843044690F8410063
:101900001D461746884620281CD1B8F1000F4FF01D
:10191000010018BF002F3FD04FF000092120C4F86C
:10192000449084F84100FFF79BFAA784E7840646B9
:10193000A068B0F5805F07D12769002F0CBFC146B2
:10194000474619E0022027E0474615E0204680215F
:1019500032462B4600F078FBC0B91FB117F8011BC7
:10196000206805E039F8021B206800276FF35F212B
:101970004160E08C0138E084E08C0028E6D120460C
:10198000402132462B4600F05FFB08B1032003E004
:10199000202084F841000020C0B201B0BDE8F083EF
:1019A0007047000070B5DE4C00250026204620213F
:1019B0000122FFF750FA012001F06EF8F0B207287B
:1019C00084BFE8B270BD204620210022FFF743FA11
:1019D000012001F061F820464021FFF72FFA40EA8C
:1019E00045050136E2E700BF70B5CD4D0446202124
:1019F00001222846FFF72FFA0026F0B2072888BFF9
:101A000070BD20064FF08001284654BF00220122FD
:101A1000FFF721FA284620210022FFF71CFA28466A
:101A200020210122FFF717FA01366400E5E700BF25
:101A30002DE9FF4190460D46002102AA0026ADF88F
:101A40000C100291ADF80410009103E0AB5D9355CA
:101A5000A9550136B045F9D10138072816D8DFE875
:101A600000F00406080A0C0E101201200CE00220FF
:101A70000AE0032008E0042006E0052004E0062038
:101A800002E0072000E00820FFF706F89DF80800B4
:101A9000FFF7AAFF01246F4603E0FFF783FF3855E5
:101AA0000134B442F9D3002002E0395C29540130FA
:101AB0008642FAD1404604B0BDE8F0812DE9FC41F0
:101AC00000251446E846CDE9005503E04A5D08F8D4
:101AD00005200135AC42F9D10027461E1DE0072E36
:101AE00016D8DFE806F00406080A0C0E10120120D2
:101AF0000CE002200AE0032008E0042006E00520B4
:101B000004E0062002E0072000E00820FEF7C4FF02
:101B100018F80700FFF768FF0137BD42DFD1204604
:101B200002B0BDE8F081000080B50548FFF7C6F9B6
:101B300020B104A0BDE8804001F01CB880BD00BF0A
:101B4000CC0200205761746368646F672072656619
:101B500072657368206661696C6564210A00000023
:101B6000F8B504460078FEF735FF1B20208120469B
:101B7000FEF7CFFE6A4D202101222846FFF76BF9C0
:101B8000284680210122FFF766F94FF4167000F015
:101B900083FF1A4E0025002707E075606660204627
:101BA0003178FEF749FE0C360137207A8742F4D3AC
:101BB000124D48F26000124E10216560A865204663
:101BC000B04702200221E8612046B04700200121F1
:101BD00028612046B0474FF4F8502021C5F888000E
:101BE0002046B04714202821C5F8B8002046B04749
:101BF0002078BDE8F840FEF711BF00BF10000020BC
:101C0000590900082DE9F04F85B04448444C454F30
:101C100001224FF0100A4FF00108016841F0040161
:101C20000160016801F0040101910199016841F02E
:101C300010010160016801F0100101910199016832
:101C400041F040010160016801F0400101910199FA
:101C5000016841F0080101601021006800F00800EF
:101C6000019001982046B8472046A0210022002577
:101C7000B84704F580564FF47E5101223046B847EC
:101C800004F580694FF4405100224846B847CDE939
:101C900001A801AFDFF890A04FF0020B204603959A
:101CA0003946CDF810B0D047A020CDF8088039468D
:101CB00001900320039504902046D04740200295D0
:101CC0003946019020460395D0471848394602907E
:101CD0001020019004F500600395D0474FF47E502A
:101CE000CDF80880394601903046CDE9035BD047F6
:101CF0004FF44050CDF80880394601904846CDE970
:101D0000035BD0470A2000210022FFF74DF90A208B
:101D1000FFF73CF905B0BDE8F08F00BF1810024096
:101D200000080140570E00088D0C0008000011103B
:101D300080B50848084A042140F6FF73C0E9002135
:101D40008360FFF791F8002814BFBDE8804080BD94
:101D5000FEF7DEBECC0200200030004080B5D8483F
:101D60000B4A4FF4E13100234FF00C0CC0E9002185
:101D7000C0E90233C0E9043CC0E90633FFF746FD81
:101D8000002814BFBDE8804080BDFEF7C1BE00BF83
:101D900000480040FEE7FEE780B5FEF7BCFBFEF71B
:101DA000D8FB00224FF07853FEF743FB054B00228F
:101DB000FEF798FA044B0022FEF73BFBFEF7DCFB34
:101DC00080BD00BF0000F0BF00000440704780B538
:101DD00000F07AFE01F012FCBDE8804000F088BE01
:101DE000B0B590B0002401A814210B94CDE90944AA
:101DF000FEF73BFA4FF48030092102250790069147
:101E0000012108940A910C91CDE90D504FF4E01096
:101E10000F9006A8FFF7D8F918B1EFF3108072B64B
:101E2000FEE70F20022101904FF480600394CDE97A
:101E3000040401A80295FFF7E9F818B1EFF3108048
:101E400072B6FEE710B0B0BD1048016801F00C0298
:101E50000F49082A0FD10268C2F383420368023295
:101E600013F4803F01D10B4904E0036813F4003FF1
:101E700018BF08495143084A084B11600068C0F375
:101E80000310185C21FA00F0106070470410024043
:101E900000127A0000093D000C000020983B000869
:101EA0007047406A0021C185C184FFF75CBB0168AF
:101EB00051E8031F026821F4907142E80313002BDC
:101EC000F5D1016851E8051F026821F0010142E8DF
:101ED0000513002BF5D1016B012909D1016851E8E7
:101EE000031F026821F0100142E80313002BF5D113
:101EF000202180F8421000210163704790F84210C1
:101F0000222918BF70478368B3F5805F05D1016946
:101F1000B1B100F128010A680BE00146002B51F82D
:101F2000282F01D1036923B103685B6803F07F03A5
:101F300001E003685B6813700A6801320A6007E019
:101F40000168826A49686FF35F2122F8021B82628E
:101F5000C18D4FF6FF7201391142C18500D0704723
:101F60000168CA6822F02002CA60CA6822F480723E
:101F7000CA604A6922F001024A61202280F84220A8
:101F800000224263036B012B18BFFFF7B3BC02634F
:101F900051E8031F026821F0100142E803130168B1
:101FA000002BF5D10A6812F0100F08D081B0002282
:101FB00000920A68009249680091009901B0818DF1
:101FC000FFF7D0BA10B5044600680169E26821F451
:101FD0004051114341F20C620161D4F808C0D4E9C8
:101FE00004E3C16891434EEA0C021A431143C160F5
:101FF0004169A26921F4407111434161114988424C
:1020000002D0FFF79DF801E0FFF7A4F8192148433B
:10201000D4E900126FF063049200B0FBF2F0642286
:10202000B0FBF2F303FB0400322404EB0010B0FB1E
:10203000F2F000F0F00200F00F0002EB0312104388
:10204000886010BD003801402DE9F0411D469046E2
:102050000F4604465E1C206800683840B84226D00F
:10206000002EF8D02DB1FEF7FBFEA0EB0800A84231
:10207000F1D9206850E8030F216820F4D07041E8BE
:102080000302002AF5D1206850E8050F216820F0EE
:10209000010041E80502002AF5D12020002184F842
:1020A000410084F8401084F84200032000E0002042
:1020B000C0B2BDE8F08100000148FFF755BA00BF8B
:1020C000D8020020FEE7000010B5074C00F00F0317
:1020D000044AB0F1FF3F2344C8BF831808011870B9
:1020E00010BD00BF00E400E014ED00E018B1C1B283
:1020F00019B101200EE00020704710F47F4102D09A
:10210000090A092006E010F47F0107BF010E19201B
:10211000090C1120014A515C08447047B03B00088B
:102120001CB500F1200C0446ACE80E002321049AF3
:10213000C2621430C4E90500184600F0B1FD04F194
:1021400020030FCB1A44124B043A00F087FCE061E5
:10215000104A2346059884F8360084F8350000209C
:10216000A0630699C4E90F11206384F83400C4E920
:102170001C00CDE9000004F14400214601F0EDFA15
:102180000548016819B12046BDE81C4008471CBD40
:10219000E93200086935000854140020B0B505463E
:1021A000FDF7E2FF296F044609B12846884720461B
:1021B000BDE8B040FDF7DCBF254A137803705078C6
:1021C00008707047F8B5224D6868C0B900F0ACFAE5
:1021D00001F010FA044600260AE0686801306860E1
:1021E000009602E000980130009000986328F9D929
:1021F00001F000FA001B0928EFD900F0A1FA00272E
:1022000001F0F8F90446002608E0009702E0009883
:102210000130009000986328F9D9013601F0EAF9FD
:10222000001B0928F1D96868B0420BD9811B6422D0
:102230005143B1FBF0F303FB10112B705143B1FB81
:10224000F0F002E0002028706E606870F8BD00BFFA
:1022500000020020014801F0C7B800BFC5210008F6
:102260007CB50DF107040DF1060508A620462946A8
:10227000FFF7A2FF9DF806209DF80710304600F0FA
:1022800079FC42F2107001F029F8EFE74350552035
:1022900075736167653A2025642E256420250D0A33
:1022A000000000002DE9F84F1D4C1E4F254D264E15
:1022B0000FF2780848F262094FF0200A4FF4007BD1
:1022C00000F044F84FF0FF3100F0A2FE0028F7D1F3
:1022D0000120FEF72DFB20460421FEF7ADFA386001
:1022E000FFF75AFD10497860FDF7CAFFFEF718F9AD
:1022F0000146404600F03EFC20461021C5F85890AB
:10230000B04720460121C5F810A0B0474FF47A70BD
:1023100000F0E4FF20460121C5F810B0B047CFE738
:10232000540100200802002000007A44565F414416
:10233000315F43683033203A202564206D560D0A02
:1023400000000000100000205909000854480068EF
:10235000704700BFB0B50B4C0BA520464FF4805121
:10236000FEF771FD282000F0B9FF20464FF48051A0
:10237000FEF769FD4FF4707000F0B0FF284600F0E2
:10238000F9FBEAE7000C01405469636B0D0A000099
:102390001CB5FEF799FDFFF723FDFFF733FCFFF7B0
:1023A000C7FCFFF7DBFC00F079FEFFF753FF0A20C4
:1023B000FEF7DAFD2D482E4C0021A0472D480021C4
:1023C000A0472D480021A0472C480021A0472C48B9
:1023D0000021A0472B480021A0472B480021A047FF
:1023E0002A480021A0470A20FEF7D0FD28A001219D
:1023F000002200F0C1FD2A49142400224FF400738A
:10240000086005202949CDE9000426A000F045FF19
:1024100040B301F069F804202A490022FF23CDE9E6
:10242000000423A000F039FFE0B101F05DF81424AE
:10243000062028490022FF23CDE9000422A000F055
:102440002CFF78B101F050F8032027490022FF2328
:10245000CDE9000420A000F020FF18B101F044F8FD
:10246000002001E04FF0FF3002B010BD5401002009
:10247000611B0008600100206C0100207801002031
:1024800084010020900100209C010020A801002070
:102490006D795F73656D6170686F72650000000033
:1024A000681500206C6564310000000055230008A9
:1024B0006370755F75736167655F74687265616489
:1024C00000000000612200087761746368646F6730
:1024D000000000006B3B0008646174615F636F6E15
:1024E00076657273696F6E00A5220008B0B58D4CD9
:1024F000044D01E001CC8047AC42FBD3BDE8B040C5
:10250000FFF746BF443D000810B5DFF8D8CCD0F83F
:1025100004E0DCF80C1001EB0E02824214D0538868
:1025200093B9DCF810309A420ED0DCF814309342A4
:10253000A0EB010308BFCCF81400D2F804E0C0F807
:1025400004E052680A44936082688B18834208BF93
:1025500010BD5C8804B110BDDCF81440844208BF93
:10256000CCF81430C3F804E040680844826010BD21
:102570002DE9FF4FDDF83CA04FA754A61AF0400FFD
:1025800008BF3E461AF0100F18BF2AF0010A1AF0D1
:10259000020F02D14FF000090EE0B2F1FF3F08DD5B
:1025A0005FEA4A775ABF202707EA8A094FF02B09CA
:1025B00002E052424FF02D09DDE90D8CD2B14FF00F
:1025C000000E4FF00A0B6D4611E00A2B06D1B2FB4C
:1025D000FBF707EB8704A2EB440402E0170902F0C3
:1025E0000F04345D3A4605F80E400EF1010E002A44
:1025F000EBD104E030224FF0010E8DF80020E645CB
:102600006346C8BF73461AF0110FA8EB030212D13C
:102610000024002A4D46C8BF0124B9F1000F18BF9D
:1026200001252C402025121B03E0884238BF05708D
:102630000130013AF9DAB9F1000F06D08842A2F16F
:10264000010238BF80F8009001305FEACA6409D403
:1026500020256AF3041503E0884238BF0570013075
:10266000013AF9DA302405E08842A3F1010338BFCA
:10267000047001309E45F7DB6B460AE08842AEF1FC
:1026800001043EBF03EB0E0717F8017C0770013011
:10269000A646BCF1000F02D0BEF1000FEEDC012A0D
:1026A000BCBF04B0BDE8F08F8842A2F101023CBF7C
:1026B000202303700130F2E73031323334353637BE
:1026C000383961626364656600000000303132337E
:1026D000343536373839414243444546000000001E
:1026E000E0B51420022100224FF48073CDE90010E0
:1026F000054903A000F0D1FDBDE88C4000F0F4BE18
:102700006D61696E00000000ED240008B0B5044C56
:10271000044DAC4228BFB0BD01CC8047F9E700BFF3
:102720003C3D0008403D000880B5FDF71DFD124905
:102730000A8801320A80BDE88040FDF719BD00BF5C
:1027400080B5FDF711FD0C490A88013A0A8012B2E2
:10275000002A03DDBDE88040FDF70ABD00220A80A3
:10276000FDF706FD05484068002814BFBDE880401D
:1027700080BD00F08BBB00BFC402002050020020CF
:10278000F8B50446E8B31F4F796809B12046884779
:10279000F868A04235D83869A04232D907F120053F
:1027A0004FF0FF31284600F033FC34F80A0CA4F156
:1027B0000C0618B13088B0F5F55F0AD012A000F011
:1027C000D9F934F80C3C34F80A2C16A0314600F044
:1027D000D1F94FF4F55044F80C0C7869B04288BF39
:1027E0007E6154F8080CF968BA69301A401A10442E
:1027F000B8613046FFF788FE2846BDE8F84000F093
:10280000DBBBF8BD10020020746F20667265652086
:102810006120626164206461746120626C6F636B2B
:102820003A0A00006D656D3A203078253038782CF2
:10283000207573656420666C61673A2025642C20DE
:102840006D6167696320636F64653A203078253075
:1028500034780A0002487047014800F580507047FC
:10286000AC03002010B5FFF7EFFA95484FF47A71EA
:102870000068B0FBF1F0411E0020B0EB116F07D1F2
:102880000A4AFF2351600A490B70072111609060CA
:10289000FFF73CFFFFF7DEFF0446FFF7DDFF0146D1
:1028A0002046BDE8104000F06BBC00BF10E000E027
:1028B00023ED00E02DE9FC41114D04464FF00D08D9
:1028C0000DF107060DF1060713E0284631460122F7
:1028D0004FF0FF338DF80780FFF70DF820788DF863
:1028E00006002846394601224FF0FF33FFF703F870
:1028F000013420780A28E8D00028F0D1BDE8FC8116
:10290000D8020020B0B504462248016811B1204623
:102910008847F0B3216C2048204DA847616A2048C1
:10292000A847A16A1F48A847E16A1F48A847216B2A
:102930001E48A84761681E48A847A1681DA0A8476F
:10294000E16820A0A847216922A0A847616925A0C5
:10295000A847A16927A0A847E1692AA0A847216A3A
:102960002CA0A847616B2FA0A847A16B31A0A84756
:10297000E16B34A0A8472078400703D4364800F024
:10298000F9F805E000F08AFD0146324800F0F2F85F
:10299000FEE7B0BDA8030020283D0008752B000805
:1029A000E73C0008F43C0008013D00080E3D00082B
:1029B0001B3D00087230353A203078253038780ACF
:1029C000000000007230363A203078253038780A1E
:1029D000000000007230373A203078253038780A0D
:1029E000000000007230383A203078253038780AFC
:1029F000000000007230393A203078253038780AEB
:102A0000000000007231303A203078253038780AE2
:102A1000000000007231313A203078253038780AD1
:102A2000000000007231323A203078253038780AC0
:102A300000000000206C723A203078253038780A87
:102A4000000000002070633A203078253038780A82
:102A500000000000CA3C0008B03C000810B5043279
:102A60000C4C22F0070E6FF03F02AEF1400C02E07A
:102A70004EF802400432002AFAD100224FF080744E
:102A80004EE908124EE906224EE904234EE90204FB
:102A9000604610BDEFBEADDEB0B5084C0849094D2B
:102AA000626823680968B1FBF5F148436168511A0F
:102AB00098BF19448142F9D3B0BD00BF14E000E0D3
:102AC0000C00002040420F0010B5FDF74DFB0446FE
:102AD00010480178013101700448006800B1804756
:102AE0002046BDE81040FDF743BB00BFAC130020FB
:102AF00010B5FDF739FB044606480178013901702D
:102B00000548006800B180472046BDE81040FDF749
:102B10002FBB00BFB8130020B41300200068143886
:102B200000F092BC70B50546084616460C4600F00B
:102B3000F1FC012E01D0A6B170BD28460068A84264
:102B40000FD090F8211094F835208A42F6D214382C
:102B500004F1140281690A60A1618261143060612C
:102B600070BD686804F114010160A061696065616D
:102B700070BD000083B018B5844603A8074C0EC092
:102B800003AB7F2162462046009300F06BFE204697
:102B9000FFF790FEBDE8184003B07047C013002057
:102BA0002DE9F047E8B3DFF83C96033020F0030A44
:102BB000D9F80800824534D809F120084FF0FF31D8
:102BC000404600F025FABAF10C0F98BF4FF00C0AFE
:102BD000D9E902C0D9F81410ACEB0A020D1A2B4641
:102BE00095421BD2C7187E887D68002EF7D103F16D
:102BF0000C06AC1B5445F2D30AF11802944214D2CD
:102C000001227A80C21BD9E906362A441A44964228
:102C1000C9F8182026D2C9F81C2023E0404600F04D
:102C2000CBF900252846BDE8F08706EB0A024FF4F1
:102C3000F5540CF10C060AF10C0E84508418C4E90A
:102C4000015301237B807A606368B3421CBF034455
:102C50009A60D9E9062372449342C9F8182038BF14
:102C6000C9F81C204FF4F552B9423A800BD1D9F87B
:102C7000102005E0914206D049680144C9F81410BB
:102C80004B88002BF6D1404600F096F9D9F8002089
:102C900007F10C05002AC5D0284651469047C1E7E8
:102CA000042A01D3830701D003463AE070B5D64326
:102CB000CBB20446154616F1100F43EA032398BF22
:102CC0006FF00F0643EA03431644103626F00F0E4A
:102CD00000EB0E0C05E0C4E90033C4E90233103404
:102CE000103D102DF7D2A2EB0E026546D64316F129
:102CF000040F98BF6FF003061644341D164624F0E7
:102D0000030EA40801E008C5043E042EFBD20CEB20
:102D10008403A2EB0E02BDE8704002E003F8011B41
:102D2000013A002AFAD170472DE9F041064653488E
:102D30008846A0F110014FF0FF300130032806D87B
:102D400001F11007097CB1423946F6D100E00027B5
:102D5000F868FFF725FF05460024E8B1FA68284621
:102D60000021FFF79DFF2846414608222E726C7213
:102D700000F0ECF94248016809B12846884705F19E
:102D80000C04FDF7F1F957F8041F4C60E9603C6052
:102D90002F61FDF7EDF900E000252846BDE8F08140
:102DA00010B504461848016809B12046884700203C
:102DB0002072FDF7D9F92246216952F80C3F59607B
:102DC00021690B6022611260FDF7D2F92046BDE84F
:102DD0001040FFF7D5BC00BF10B504460A48016893
:102DE00009B12046884700202072FDF7BDF954F84C
:102DF0000C1F62684A6062681160C4E90044BDE863
:102E00001040FDF7B5B900BF44140020F8B50446E2
:102E10001A480E461546A0F110014FF0FF30013060
:102E2000032806D801F11007097CB1423946F6D1D2
:102E300000E00027FFF778FC043738460068B84206
:102E4000FCD1FFF77DFC46F0800029460822207265
:102E5000204600F07BF90A48016809B120468847FE
:102E600004F10C05FDF780F939684D60E1603D60C3
:102E70002761BDE8F840FDF77BB900BFB401002031
:102E800040140020007AC009704700002DE9F0418D
:102E9000FDF76AF9F24E0446308820B12046BDE8BD
:102EA000F041FDF765B9F74FB868FFF71FF9013832
:102EB0007D6807EBC001D1F81480A8F114018D42A0
:102EC000ECD07268796038700AB128469047064A9B
:102ED00008F1080105F11C00127812B1FDF74BF959
:102EE000DCE7FDF748F9D9E7B813002010B5044630
:102EF000FDF73AF994F8341094F83520DFF884C3DC
:102F000001F0F0010CEBC20241F0010184F8341031
:102F100004F1140193691960A361916102F1140134
:102F20006161A16BDCF808201143CCF80810BDE802
:102F30001040FDF71DB900BF10B50446FDF714F9A8
:102F4000214651F8142F4B6853604B681A60C1E951
:102F5000001191F82120CB4901EBC20252F8143F35
:102F6000934204D1A26B8B6823EA02028A60BDE817
:102F70001040FDF7FDB800BFB0B50D460146022078
:102F80001446FFF7D1FE28B100F114018583447285
:102F9000C0E90511B0BD70B515460A4602211C46B0
:102FA0000646FFF733FF06F11400C6E905000020CE
:102FB000B583747270BD0000B0B504461348016853
:102FC00009B120468847FDF7CFF80546204650F85E
:102FD000141F814207D0FFF7A1FD2846FDF7C8F86E
:102FE000FFF754FF09E0A08B4FF6FF71884206D02F
:102FF0000130A0832846FDF7BBF80020B0BD28466D
:10300000FDF7B6F86FF00200B0BD00BF4814002015
:10301000F8B504461F480E460091016809B12046E4
:103020008847FDF7A1F80546A08B60B10138A08361
:103030002846FDF79DF81848016809B120468847E1
:10304000002001B0F0BDFEB100F028FA07460020D4
:10305000386304F114003946627AFFF763FD012EEC
:1030600009DB07F144066A460021304600F038FBD0
:10307000304600F089FB2846FDF77AF8FFF706FF97
:10308000386B0028DDD1D6E72846FDF771F86FF0E0
:103090000100D6E7501400204C1400201CB50B4C46
:1030A00007A0A0470AA0A04712A0032101220523E0
:1030B000009013A0A0471AA02146BDE81C40084775
:1030C0000A205C207C202F0A00000000752B0008DD
:1030D0002D205254202D202020202054687265611C
:1030E00064204F7065726174696E672053797374E0
:1030F000656D0A004175672032302032303234006D
:10310000202F207C205C202020202025642E256478
:103110002E2564206275696C642025730A00000006
:103120002032303036202D203230323020436F7044
:103130007972696768742062792072742D7468727C
:10314000656164207465616D0A00000080B5B2B1EC
:103150008446034691F800E003F801EBBEF1000F4E
:1031600005D0013A01F101019C46F3D107E00121AC
:10317000002302E00CF8013001318A42FAD180BD0F
:103180000A46014622F00300192828D3CB1CA0F1DF
:10319000180C23F003039C4521D310B5114CC11A20
:1031A0004FF0000CA1F118020C39E360A2604FF45B
:1031B000F552C3E90021A0F10C02C3F808C00023B6
:1031C0002261094A40E9032140F8041C04F120006F
:1031D00006A10122FFF7DFFEE068606110BD05A0D7
:1031E000FFF7C8BC10020020A01E010068656170D6
:1031F000000000006D656D20696E69742C20657299
:10320000726F7220626567696E20616464726573B3
:103210007320307825782C20616E6420656E6420E0
:103220006164647265737320307825780A00000049
:103230000B4800210180134805E04218083102F1D3
:103240001403C2E905334029F7D107220021027097
:1032500000F10C02C0E90111C0E90322704700BF70
:10326000C402002010B5074CA068FEF73FFF04EB36
:10327000C000C068A0F1140108306160BDE81040D2
:10328000FCF7A7BF50020020024800F10C01C0E982
:1032900003117047B00200207047FEB50E4601468C
:1032A00001201F461546FFF73FFD044690B1384602
:1032B000FFF776FC034650B1DDE908102A46CDE958
:1032C0000071029020463146FEF72AFF03E02046B7
:1032D000FFF766FD0024204603B0F0BD80B500F086
:1032E000E1F8002080BD0000B0B5C0480568FCF7DB
:1032F0003BFF04462846FEF751FF2846FFF71CFE19
:10330000042085F8340005F1440000F00EFA284648
:10331000FFF7B8FD012803D12846FFF75DFD07E060
:103320001F4805F1140201684A600260C5E90510F2
:10333000FFF7ACFD2046BDE8B040FCF719BF00BF69
:10334000B0B5344C0025042D03D100F009F8002558
:10335000F9E754F8250000B180470135F3E700BFD5
:1033600070B50F4D10E0D6E900014160716808604A
:10337000C6E900667069FFF703FAA6F11400FFF7CB
:103380000FFD2046FCF7F4FEFCF7EEFE2E68044627
:10339000AE42E8D12046BDE87040FCF7E9BE00BF70
:1033A0005C0200201FB520200B4C0E4A0BA100230D
:1033B0000390072002904FF4807001900548009020
:1033C000204600F029F8204604B0BDE8104000F087
:1033D0008BB800BF5C140020200300207469646C6B
:1033E000650000004133000870B50A4D0446002610
:1033F000FCF7BAFE032E07D802CD01360029F9D119
:1034000045F8044C002401E06FF00204FCF7B0FE24
:10341000204670BD980300207FB515460A4601215D
:103420001C460646FFF7F2FC0B98089B29462246ED
:1034300002900A980190099800903046FEF770FEBD
:10344000002004B070BD0000B0B5044690F8340010
:1034500000F00F0002281CBF4FF0FF30B0BDFCF79A
:1034600083FE21460546A06951F8142F5060A069DB
:10347000026004F14400A161096000F0CFF9284620
:10348000FCF776FE2046FFF731FD0348016809B1DD
:10349000204688470020B0BD5814002053480068DB
:1034A000704700BFF8B50090FCF75EFE05464F4838
:1034B0000468204600F02EF804F144066A46002114
:1034C0000027304600F00CF9304600F05DF9284640
:1034D000FCF74EFEFFF7DAFC206B023008BF2763D3
:1034E000002001B0F0BD00BF80B50221012280F8AC
:1034F000341090F8361080F8351002FA01F181632B
:10350000FFF7A2FF3948006808B1FFF7BFFC0020B1
:1035100080BD00BFB0B5044690F8340000F00F0045
:1035200001281CBF4FF0FF30B0BDFCF71DFE054663
:103530002046FFF701FD94F8340000F0F00040F061
:10354000020084F8340004F1440000F067F92846D2
:10355000FCF70EFE0348016809B1204688470020A9
:10356000B0BD00BF5C15002080B56FF001010246C0
:103570000163816952F8143F596081690B6082616F
:103580001260FFF7B3FCBDE88040FFF77FBC00008E
:1035900080B5FCF7E9FD1549096891F8342002F07F
:1035A0000F02012A1ED10A4652F814EFD2F804C0C5
:1035B000E64517D0CEF804C08B69C3F800E08A61F5
:1035C0000B4B91F835C003EBCC03D3F804C0CCF817
:1035D0000020C1F818C05A604B61FCF7C9FDFFF725
:1035E00055FC01E0FCF7C4FD002080BD5402002022
:1035F000640200200B480068704700BF80B509488E
:10360000016801310160FFF749FF016C0139016474
:1036100003D1C16B0164FFF7BBFFBDE8804000F040
:1036200003B800BF641500202DE9FC47E946CDE949
:103630000099FFF7DFFF0646FCF796FD80467648C7
:10364000744C824641E078695146301A504541D861
:103650002168A7F1140509B128468847D7E9000178
:10366000416079680860C7E9007717F80B0C10F023
:10367000020F04BF00F0FE0007F80B0C0098476033
:1036800038600097C7F80490D7E902108847FFF721
:10369000B1FF6168064609B1284688470098484549
:1036A00013D0D7E90001416079680860C7E9007765
:1036B00017F80B0C00F00301032906D100F0FE00FF
:1036C00007F80B0C284600F05FF8204650F80C7FF6
:1036D0008742B8D14046FCF74BFDBDE8FC8700BFF0
:1036E00070B514460E460546FCF73EFD042E18D86C
:1036F000DFE806F00306080C11002168696210E09B
:10370000696A0DE0697A01F0FD0102E0697A41F031
:103710000201697205E0697AC9070CBF0021012125
:103720002160FCF725FD002070BD10B50446FCF7B4
:103730001BFD2246A16952F8143F5960A1690B6034
:10374000A261617A01F0FE0161721260FCF710FD66
:103750002046FFF741FB002010BD70B515460A4614
:103760000A211C460646FFF751FB0598F56100F05B
:10377000FE00707200203462B0620498706206F13C
:103780001400C6E9050070BD2DE9F0410446FCF7C0
:10379000EBFC2646804656F8140F7168416071684C
:1037A000086016F80B0C00F0FE0006F80B0C184829
:1037B000C6E90066016809B120468847FFF71AFF8D
:1037C000616A154F012508441249A062C2430B6982
:1037D00001F10C0008E00068984204D005686D69AA
:1037E0001544BD42F7D20025ED07F5D18A680132B4
:1037F0008A6001684E6061610660A061607A40F095
:10380000010060724046FCF7B3FC0020BDE8F08187
:103810004C140020B0020020FEFFFF7F10B50446CC
:10382000407AC00704BF4FF0FF3010BD0C4801685C
:1038300009B120468847FCF797FC54F8141F6268CA
:103840004A606268116014F80B1C01F0FE0104F874
:103850000B1CC4E90044FCF78BFC002010BD00BF2A
:10386000481400202DE9F04F87B000EB010A002931
:1038700099460746069204914FF0200BB8BF4FF0CF
:10388000FF3A05901078252807D0002800F02781FE
:10389000574538BF38700137DAE0501C4FF0000848
:1038A00009E0042204E0082202E0202200E00122D4
:1038B00048EA0208013001782029F4D02329F4D005
:1038C00010223029F3D02D29F2D02B29E9D0A1F1F3
:1038D00030020690092A05D806A800F034F90646F9
:1038E00006980EE02A290AD10130069059F8046B97
:1038F000B6F1FF3FDCBF48F01008764201E04FF020
:10390000FF3601782E290AD1411C06914178A1F198
:103910003002092A06D806A800F015F908E04FF091
:10392000FF300BE02A2908D10230069059F8040B29
:10393000B0F1FF3FD8BF002000E00020069D2B78AB
:1039400043F004026C2A05D1691C9C4606916A78F2
:103950000D4602E04FF0000C1A46A2F16F04092C4C
:103960000CD9252A00F07880582A54D0692A18BF2B
:10397000642A0DD148F002080A234FE00A23DFE849
:1039800004F0052A71713B714D71714C082345E0BB
:10399000632A67D15FEAC86007D5304608E057451B
:1039A000064638BF87F800B00137701E022EF6DADF
:1039B000574509F104013CBFD9F800203A7005E0F1
:1039C0005745A0F1010038BF87F800B00137022841
:1039D000F6DA89463CE0711C59F8042B4FF01003CD
:1039E000B1FA81F108BF08264909CDE900603846DF
:1039F00041EA0801C9B226E059F8041B41A200239C
:103A0000002908BF114600E001339E4238D0CA5C4D
:103A1000002AF9D135E048F040081023BCF16C0FC2
:103A200002D159F8042B09E059F8042BBCF1680FB6
:103A300004D15FEA88714CBF12B292B25FFA88F18A
:103A4000CDE90060384602915146FEF791FD0746E8
:103A50000698421C069215E75745BFF41CAF252077
:103A6000387018E7574503D225203870069D2A780C
:103A7000781C8AB3504507F1020738BF0270E7E7A8
:103A8000334683421A46C8BF02460028D8BF1A46AA
:103A90005FEAC86007D5304608E05745064638BF9C
:103AA00087F800B00137701EB242F6DB002604E052
:103AB00053453CBF8D5D1D700136BB199642F7DB47
:103AC00006E05345A0F1010038BF83F800B0013390
:103AD0008242F6DB1F46BBE7691E0691B7E70498F2
:103AE000059A0028B8BFD04338B1574538464FF043
:103AF000000128BFAAF101000170B81A07B0BDE8A3
:103B0000F08F00BF284E554C4C2900000020704714
:103B100000207047002070470020704780B5FCF7F8
:103B200023FBFEF79FFEFFF7B9FAFFF7ADFBFFF7A8
:103B30007FFBFEF7D5FDFFF7AFFBFFF733FCFFF789
:103B400091FB002080BD026800211378303B092BD7
:103B500084BF08467047531C01EB81010360127853
:103B600002EB41011A463039EFE780B5FDF7DCFF83
:103B70004FF47A70FFF7B2FBF8E702E008C8121FB3
:103B800008C1002AFAD170477047002001E001C146
:103B9000121F002AFBD17047000000000000000047
:103BA00001020304060708090000000001020304E3
:103BB00000000100020001000300010002000100FA
:103BC00004000100020001000300010002000100E6
:103BD00005000100020001000300010002000100D5
:103BE00004000100020001000300010002000100C6
:103BF00006000100020001000300010002000100B4
:103C000004000100020001000300010002000100A5
:103C10000500010002000100030001000200010094
:103C20000400010002000100030001000200010085
:103C30000700010002000100030001000200010072
:103C40000400010002000100030001000200010065
:103C50000500010002000100030001000200010054
:103C60000400010002000100030001000200010045
:103C70000600010002000100030001000200010033
:103C80000400010002000100030001000200010025
:103C90000500010002000100030001000200010014
:103CA0000400010002000100030001000200010005
:103CB00068617264206661756C74206F6E20686143
:103CC0006E646C65720D0A0D0A006861726420668C
:103CD00061756C74206F6E207468726561643A203F
:103CE00025730D0A0D0A007230303A2030782530E5
:103CF00038780A007230313A203078253038780A26
:103D0000007230323A203078253038780A0072302C
:103D1000333A203078253038780A007230343A202F
:103D20003078253038780A007073723A2030782560
:103D30003038780A00000000193B0008113B0008E9
:103D40000D3B0008153B0008703D000800000020F6
:103D50000002000060070008103E0008000200207A
:103D6000701700008A3B00080000000000000000FF
:103D7000320182109324F429182904415A02041AAA
:103D80000811290872032908720429089A06309A32
:103D9000070C29604B02800C9A11189A120C9A1386
:103DA0000C9A200C9A210C9A220C9A230C32281A75
:103DB0000A09290C5A2915290C9A2A0C9A2B0C9AB3
:103DC00030C09A310C9A320C9A330C9A380C9A39CA
:103DD0000C9A3A0C9A3B0CB201297081291C81B2D1
:103DE00004B205B206B207B208296013B8012A204E
:103DF000045A78641AC80C29045A20501AD80C297D
:103E00000429EC320A1AE80C2904F22C0000000004
:0400000508000131BD
:00000001FF
