:020000040800F2
:10000000B8190020CD0100080B0C0008B10200084F
:10001000090C0008D1030008EB0C000800000000E8
:100020000000000000000000000000000D0C0008AF
:10003000D3030008000000003B0200080F0C00087A
:10004000E7010008E7010008E7010008E7010008F0
:10005000E7010008E7010008E7010008E7010008E0
:10006000E7010008E7010008E7010008E7010008D0
:10007000E7010008E7010008E7010008E7010008C0
:10008000E7010008E7010008E7010008E7010008B0
:10009000E7010008E7010008E7010008E7010008A0
:1000A000E7010008E7010008E7010008E701000890
:1000B000E7010008E7010008E7010008E701000880
:1000C000E7010008E7010008E7010008E701000870
:1000D000E7010008E7010008E7010008E701000860
:1000E000E7010008E7010008E7010008E701000850
:1000F000E7010008E7010008E7010008E701000840
:10010000E7010008E7010008E7010008E70100082F
:10011000E7010008E7010008E7010008E70100081F
:10012000E7010008E7010008E7010008E70100080F
:1001300000F002F800F03AF80AA090E8000C8244BF
:100140008344AAF10107DA4501D100F02FF8AFF29C
:10015000090EBAE80F0013F0010F18BFFB1A43F0A5
:100160000103184780250000A0250000103A24BF95
:1001700078C878C1FAD8520724BF30C830C144BF0C
:1001800004680C607047000000230024002500264E
:10019000103A28BF78C1FBD8520728BF30C148BFEA
:1001A0000B6070471FB51FBD10B510BD00F0D2F831
:1001B0001146FFF7F7FF00F006F900F0F0F803B47E
:1001C000FFF7F2FF03BC00F0F7F800000948804792
:1001D00009480047FEE7FEE7FEE7FEE7FEE7FEE729
:1001E000FEE7FEE7FEE7FEE704480549054A064B41
:1001F00070470000E90C000831010008B813002026
:10020000B8190020B8150020B8150020EFF31080B1
:1002100072B6704780F310887047324A1368012B1A
:1002200004D04FF0010313602F4A10602F4A116071
:100230002F484FF0805101607047EFF3108272B683
:100240002848016891B14FF000010160264801681B
:1002500029B1EFF3098121E9F00F0068016023491A
:1002600009680968B1E8F00F81F3098882F3108802
:100270004EF0040E70471D4908601B494FF0000006
:10028000086018494FF0010008601A481A49D0F870
:10029000002041EA0201016015484FF080510160E1
:1002A00016480068006880F3088861B662B6704737
:1002B0001EF0040F0CBFEFF30880EFF3098020E974
:1002C000F00F40F804ED1EF0040F0CBF80F3088817
:1002D00080F3098800B501F031F85DF804EB4EF0C9
:1002E000040E7047E8000020E0000020E400002039
:1002F00004ED00E020ED00E00000FFFF08ED00E06D
:100300004FF0000200B5134694469646203922BFAE
:10031000A0E80C50A0E80C50B1F12001BFF4F7AFF9
:10032000090728BFA0E80C5048BF0CC05DF804EBDB
:10033000890028BF40F8042B08BF704748BF20F849
:10034000022B11F0804F18BF00F8012B7047704747
:1003500070477047754600F02BF8AE4605006946B9
:10036000534620F00700854618B020B5FFF73CFF44
:10037000BDE820404FF000064FF000074FF00008A6
:100380004FF0000B21F00701AC46ACE8C009ACE827
:10039000C009ACE8C009ACE8C0098D46704710B58B
:1003A0000446AFF300802046BDE81040FFF707BFCA
:1003B000004870475413002001491820ABBEFEE7E7
:1003C00026000200704710B502F0B8F8002010BDFA
:1003D000FEE770472DE9F84FDFF8C8910024A9F136
:1003E000040B23460F2709F1040AABF1040ED1E0F8
:1003F0000125A54006EA0502AA4276D1DFF8A8C188
:100400004E68A6EB0C0866452BD00DDC032E34D0CD
:1004100005DC36B3012E19D0022E2FD11BE0112E90
:1004200016D0122E2AD119E0B8F5881F19D006DC93
:10043000B8F5803F15D0B8F5801F1FD111E0B8F591
:10044000001F0ED0B8F5041F18D10AE0CB6815E0E4
:10045000CB681B1D12E0CB6808330FE0CB680C3370
:100460000CE08B682BB1012B4FF0080303D04561E2
:1004700004E0042302E0056100E00023FF2A01D824
:10048000064601E000F104064FEA840501D9A5F112
:100490002005D6F8008007FA05FC28EA0C0803FAC4
:1004A00005F548EA0508C6F800804D68ED0070D5EE
:1004B0003E4DAE6946F00106AE61AD6924F003061B
:1004C00005F0010500953A4D06EB050CDCF80850E7
:1004D000A607360F07FA06F825EA0805DFF8D480E4
:1004E000404503D14FF0000825E052E0DFF8C88016
:1004F000404502D14FF001081DE0DFF8C0804045C3
:1005000002D14FF0020816E0DFF8B480404502D176
:100510004FF003080FE0DFF8AC80404502D14FF008
:10052000040808E0DFF8A080404502D14FF005083C
:1005300001E04FF0060808FA06F848EA0508CCF88A
:1005400008804D68D9F80060ED024D4601D516438C
:1005500000E096432E604D68DAF80060AD02554623
:1005600001D5164300E096432E604D68DBF800602D
:10057000AD035D4601D5164300E096432E604D68FD
:10058000DEF80060ED03754601D5164300E09643A2
:100590002E60641C0A681646E2407FF429AFBDE86D
:1005A000F88F000008040140000011100010024004
:1005B0000000014000080140000C01400010014013
:1005C0000014014000180140001C0140C26821EAEB
:1005D00002030A4043EA0241016170470AB1016126
:1005E00070470904FBE7000001488068704700007D
:1005F00010000020074810B5016841F010010160AB
:10060000032000F067F80F2000F006F800F024F84F
:10061000002010BD0020024070B50D4D04464FF47F
:100620007A712878B1FBF0F00A490968B1FBF0F063
:1006300000F0AEFA48B9102C07D200222146501E15
:1006400000F028F800206C6070BD012070BD000033
:10065000100000201C0000200C4808B5816941F002
:1006600001018161816901F001010091C16941F0DD
:100670008051C161C06900F0805000900448416819
:1006800021F0E06141F08061416008BD001002404E
:1006900000000140F0B40E4B1B680C46C3F302236C
:1006A000C3F10705042D00D90425191D072901D21E
:1006B000002300E0DB1E012606FA05F1491E214059
:1006C00099409E40761E16403143F0BC00F00EBBB0
:1006D0000CED00E0064900F0070208684FF6FF0342
:1006E000184040EA0220034A1043086070470000A7
:1006F0000CED00E00000FA052DE9F0470F4605007B
:1007000061D0434E306800F00700B84209D230682B
:1007100020F0070038433060306800F00700B8422E
:1007200051D128683B4C810712D5400703D560683A
:1007300040F4E06060602878000703D5606840F40A
:10074000605060606068A96820F0F0000843606055
:100750002878C00728D06868012810D021680228AE
:1007600010D0890700292EDA616821F003010143C6
:100770006160FFF739FF804641F288390DE021685A
:100780008903EFE78901EDE7FFF72EFFA0EB0801F2
:10079000494502D90320BDE8F0876068696800F028
:1007A0000C00B0EB810FEFD1306800F00700B842C9
:1007B0000BD9306820F0070038433060306800F013
:1007C0000700B84201D00120E5E72878400705D5A9
:1007D0006068E96820F4E0600843606028780007FA
:1007E00006D56068296920F4605040EAC100606065
:1007F00000F018F86168084AC1F30311515CC84061
:100800000649086006480068FFF706FF0020C2E7B7
:100810000020024000100240A02500081C0000201B
:10082000140000200E4A51680E4801F00C03042BFE
:1008300011D0082B0FD10C48C1F38343C903C05C0E
:100840000AD55168084AC1F34041921E515C054ADD
:100850005043B0FBF1F07047044948437047000033
:100860000010024000127A009025000800093D00A7
:100870002DE9F84F040070D02078C04DC00749D052
:100880006868C0F38100012807D06868C0F3810060
:10089000022809D16868C00306D52868800339D5C5
:1008A00060680028E7D035E06068B0F5803F0BD085
:1008B00010B1B0F5A02F11D0286820F48030286046
:1008C000286820F4802002E0286840F48030286006
:1008D000606890B1FFF788FE06460AE0286840F499
:1008E00080202860F0E700BFFFF77EFE801B6428B1
:1008F00073D828688003F7D50CE0FFF775FE06462D
:1009000005E000BFFFF770FE801B6428F0D8286860
:100910008003F7D420789A4E80074FF001094FF0FA
:10092000000839D5686810F00C0F07D06868C0F36C
:100930008100022809D16868C00306D428688007AE
:1009400014D52069012808D110E02069B0B1C6F89B
:100950000090FFF749FE074605E00AE1FFF744FE75
:10096000C01B0228C4D828688007F7D528686169A9
:1009700020F0F80040EAC10028600DE0C6F80080D1
:10098000FFF732FE074604E0FFF72EFEC01B0228E9
:1009900023D828688007F7D4207800072CD5794819
:1009A000A169D9B1C0F80090FFF71EFE074604E028
:1009B000FFF71AFEC01B02280FD8686A8007F7D518
:1009C00071484FF4FA510068B0FBF1F0009000BF9D
:1009D0000098411E0091FAD20EE080E0C0F800803D
:1009E000FFF702FE074604E0FFF7FEFDC01B0228EA
:1009F00075D8686A8007F7D42078400760D5E86921
:100A00000027C00008D4E86940F08050E861E86938
:100A1000012700F0805000905C480168C90513D49C
:100A20000168834641F480710160FFF7DDFD824675
:100A300006E000BFFFF7D8FDA0EB0A0064284ED8FF
:100A4000DBF80000C005F5D5E06801280AD008B140
:100A5000052813D0286A20F001002862286A20F0B7
:100A6000040002E0286A40F001002862E06841F2D8
:100A7000883B98B1FFF7B8FD82460BE0286A40F04A
:100A800004002862EEE700BFFFF7AEFDA0EB0A010D
:100A900059455AD8286A8007F6D50CE0FFF7A4FD1F
:100AA000824605E0FFF7A0FDA0EB0A0159454CD8AE
:100AB000286A8007F6D41FB1E86920F08050E86109
:100AC000E06988B36968C1F38101022944D0022832
:100AD000C6F8608004D0FFF787FD044638E034E0B4
:100AE000FFF782FD074604E0FFF77EFDC01B0228EA
:100AF0002BD828688001F7D4206AB0F5803F05D153
:100B00006868A16820F4003008436860D4E90801EF
:100B10000843696821F4741108436860C6F860905E
:100B2000FFF762FD044606E025E000BFFFF75CFD2D
:100B3000001B022809D828688001F7D51BE000BFF8
:100B4000FFF752FD001B022802D90320BDE8F88FF1
:100B500028688001F4D40EE00128F7D06868226A82
:100B600000F48031914204D1616A00F4701088422F
:100B700001D00120EAE70020E8E700000010024071
:100B800000004242800442421C00002000700040ED
:100B900010B5401EB0F1807F01D3012010BD4FF091
:100BA000E02460610F21601700F0A0F80020A06130
:100BB00007202061002010BD70B586B000241048C9
:100BC0000094019402940394816941F008018161C9
:100BD00080690C4E00F008004FF440550490224606
:100BE00029463046FFF7FAFC01200095CDE90104C3
:100BF0000220039069463046FFF7ECFB06B070BD5B
:100C000000100240000C0140FEE7FEE7704710B5FF
:100C100000F0AAFC01F030FABDE8104000F0B6BCCC
:100C200030B58FB028216846FFF76AFB14210AA867
:100C3000FFF766FB01210804CDE9001000240294AF
:100C400002250491CDE907504FF4E0100990684661
:100C5000FFF70EFE08B172B6FEE70F20CDE90A05D8
:100C60004FF48060CDE90C4002210AA80E94FFF7F2
:100C700043FD002801D072B6FEE70FB030BD000082
:100C8000144910B54868144A10F00C03134803D0F7
:100C9000042B01D0082B09D002604968104AC1F327
:100CA0000311515C0268CA40026010BD4A684B687B
:100CB00002F470124FF0020413F4803F04EB9242EE
:100CC00002D04B689B0301D5064B00E0024B5A4310
:100CD000E2E700000010024000127A001C00002031
:100CE000A025000800093D007047FEE70907090E2E
:100CF000002804DB00F1E02080F80014704700F0C9
:100D00000F0000F1E02080F8141D7047002806D085
:100D10000E4910F0FF0F03D0C0B2085C401C7047B2
:100D200010F47F4F04D0C0F30720085C09307047EF
:100D300010F47F0F04D0C0F30740085C11307047F7
:100D400001EB10600078193070470000B0250008F2
:100D50002DE9FC411F460446DDE90831DDE90A655D
:100D6000143040600060C4E90827C4E90A310A462B
:100D7000232118461C3400F00BFDD4E9030142186E
:100D8000D4E90101124B121F00F0D2FB44F81A0BF8
:100D9000002004F801690F4A04F8036BE4E8020537
:100DA00044F8105901C404F83C0B01C444F8740918
:100DB000009023460190194604F1440001F0FAF92D
:100DC0000548816809B1204688470020BDE8FC81BC
:100DD000751D0008ED1F0008BC00002010B5029C26
:100DE00024F001044472C0E907120021C0E909316E
:100DF00014304060006010BD143000F041BC70B58C
:100E00000546FFF703FA296F044609B128468847CB
:100E10002046BDE87040FFF7FDB90000024A137894
:100E2000037050780870704708000020F8B5214C16
:100E300000256068A8B900F0C1F901F017F906466D
:100E400008E06068401C606000950098401C0090BD
:100E50006428FAD301F00AF9801B0A28F1D300F0C4
:100E6000BBF9002601F002F9074606E0761C009562
:100E70000098401C00906428FAD301F0F7F8C01BDA
:100E80000A28F3D3606886420FD2811B6422514343
:100E9000B1FBF0F22270B1FBF0F200FB1211642200
:100EA0005143B1FBF0F06070F8BD6660257065706D
:100EB000F8BD000008000020014800F0D9BF000084
:100EC0002D0E00081CB54FF4FA7401A96846FFF70F
:100ED000A5FF9DF804209DF8001003A000F092FBF0
:100EE000204600F044FFF0E743505520C0FBD3C339
:100EF000C2CAA3BA25642E256420250D0A0000006D
:100F00004FF480540D4D66004FF4FA772146284681
:100F1000FFF75CFB31462846FFF758FB384600F0E8
:100F200026FF21462846FFF751FB31462846FFF7AA
:100F30004DFB384600F01BFFE8E70000000C0140C5
:100F40007CB5FFF757FBFFF7B7FFFFF769FEFFF729
:100F500033FE14250320CDE900054FF40073002271
:100F60000D490EA000F0DFFE0E4C4FF0FF36206062
:100F700080B100F0FDFF0520CDE90005FF23002230
:100F800009490AA000F0CFFE606018B100F0F0FF40
:100F900000207CBD30467CBD010F00086C656431CB
:100FA0000000000000000020C50E00086370755F9F
:100FB00075736167655F7468726561640000000045
:100FC00010B500F0EDF8BDE81040FFF7B9BF000024
:100FD00030B5144943688A68134498420FD05C883E
:100FE0006CB9CC68A3420AD00C699C4200D108615C
:100FF0005C6844605D6802F10803841AEC50836801
:10100000134483420CD05C88002C09D10C698442C3
:1010100000D10B6141685960991A406808328150CB
:1010200030BD0000300000202DE9F04F85B099461A
:10103000DDE90EA5109CAB46630602D5DFF814C1AE
:1010400003E0DFF810C1ACF1110CE30601D524F088
:101050000104E30701D0302300E02023002604939D
:10106000A3070BD5002A02DA2D26524206E06307B9
:1010700001D52B2602E0230700D520260023EE46CB
:1010800022B930228DF8002001230CE0B9F10A0FBB
:1010900014D002F00F0812091CF808800EF8038023
:1010A0005B1C002AF2D1AB4200DD1D46AAEB050213
:1010B00014F0110F4FF0200708D015E00A27B2FBFB
:1010C000F7F807FB1828B2FBF7F2E5E73EB1002A74
:1010D00005DD521E03E0884200D20770401CB2F1C9
:1010E000000CA2F10102F6DC26B1884200D20670A3
:1010F000401C521EE40605D508E0884201D2049C3B
:101100000470401C141EA2F10102F6DC30242E46AD
:101110006D1E9E420ADD884200D20470401CF6E734
:10112000884201D2E55C0570401C00E074461D1E3B
:10113000A3F1010307DDBBF1000FF1D103E0884209
:1011400000D20770401C131EA2F10102F7DC05B0AB
:10115000BDE8F08FC12600081CB502201421CDE99E
:101160000001C3010022044904A000F0DCFDBDE839
:101170001C4000F0FDBE0000C10F00086D61696EEB
:101180000000000070B5044C044D02E02068804768
:10119000241DAC42FAD370BDD8260008DC26000816
:1011A00070B5044C044D02E020688047241DAC4219
:1011B000FAD370BDDC260008E026000810B5FFF762
:1011C00025F8044A5188491C5180BDE81040FFF7BA
:1011D00021B80000A400002010B5FFF717F80B4C51
:1011E0006188491E09B2618000290ADC0021618002
:1011F000FFF710F86068002807D0BDE8104000F045
:1012000097BBBDE81040FFF705B810BDA400002053
:1012100070B5040035D01B4D696801B18847A868D6
:1012200084422ED3E86884422BD24FF0FF31164817
:101230000C3C00F039FC60884FF4F55610B1208862
:10124000B04208D011A000F0DDF923886288214661
:1012500015A000F0D7F9002060802680286984421C
:1012600000D22C61A9686068611A401AA969081A3D
:10127000A8612046FFF7ACFEBDE87040024800F0D0
:10128000E7BB70BD30000020F4120020746F2066B0
:10129000726565206120626164206461746120620E
:1012A0006C6F636B3A0A00006D656D3A20307825EB
:1012B0003038782C207573656420666C61673A203D
:1012C00025642C206D6167696320636F64653A2033
:1012D0003078253034780A0000487047EC00002050
:1012E00000487047EC10002010B5FFF7C9FC10480B
:1012F0004FF47A710068B0FBF1F0401EB0F1807FCE
:1013000009D24FF0E0210B4A4861FF201070002005
:10131000886107200861FFF735FFFFF7E1FF04460A
:10132000FFF7DAFF2146BDE8104000F071BC000075
:101330001C00002023ED00E07047000070B505465A
:10134000041D2B48016819B12846884700284DD054
:1013500028A0E16B00F056F92AA0216A00F052F9AA
:101360002CA0616A00F04EF92EA0A16A00F04AF9A3
:1013700030A0E16A00F046F932A0216800F042F99D
:1013800034A0616800F03EF936A0A16800F03AF997
:1013900038A0E16800F036F93AA0216900F032F98E
:1013A0003CA0616900F02EF93EA0A16900F02AF985
:1013B00040A0E16900F026F942A0216B00F022F97B
:1013C00044A0616B00F01EF946A0A16B00F01AF971
:1013D0002878400706D500F0A5FD014645A000F09D
:1013E00011F902E04BA000F00DF9FEE770BD00001E
:1013F000DC0000207073723A203078253038780A8B
:10140000000000007230303A203078253038780AF9
:10141000000000007230313A203078253038780AE8
:10142000000000007230323A203078253038780AD7
:10143000000000007230333A203078253038780AC6
:10144000000000007230343A203078253038780AB5
:10145000000000007230353A203078253038780AA4
:10146000000000007230363A203078253038780A93
:10147000000000007230373A203078253038780A82
:10148000000000007230383A203078253038780A71
:10149000000000007230393A203078253038780A60
:1014A000000000007231303A203078253038780A58
:1014B000000000007231313A203078253038780A47
:1014C000000000007231323A203078253038780A36
:1014D00000000000206C723A203078253038780AFD
:1014E000000000002070633A203078253038780AF8
:1014F0000000000068617264206661756C74206F82
:101500006E207468726561643A2025730D0A0D0AB5
:101510000000000068617264206661756C74206F61
:101520006E2068616E646C65720D0A0D0A00000021
:1015300070B50446121D22F007000022094D403804
:1015400040F82250521C102AFAD301620021416255
:1015500081624FF0807200F13005C263C16285E89C
:101560001A0070BDEFBEADDE10B5FEF74FFE0649A6
:1015700004460878401C0870486800B1804720463F
:10158000BDE81040FEF746BE2400002010B5FEF76F
:101590003DFE064904460878401E0870886800B180
:1015A00080472046BDE81040FEF734BE24000020EE
:1015B0002DE9F041064614460D46084600F0EEFCC3
:1015C00005F11407B4B1012C18D134680EE000BF46
:1015D00095F8351094F82120A4F11400914204D21A
:1015E0003946143000F033F802E02468B442EFD1F9
:1015F000B44203D13946304600F029F80020BDE856
:10160000F08100000FB47F2110B503AB0448029AAB
:1016100000F04AFE0248FFF78FFE10BC5DF814FB95
:10162000741200200268516002680A60016048601C
:1016300070470268516002680A6001604860704744
:101640000268516002680A60016048607047426841
:10165000116042684A60416008607047D0E900123A
:101660004A60D0E900121160406000607047D0E924
:1016700000124A60D0E900121160406000607047BB
:10168000D0E900124A60D0E90012116040600060A9
:10169000704700002DE9F047002807D03A4CC01CE5
:1016A00020F003066069864202D90020BDE8F08779
:1016B0000C2E00D20C264FF0FF31344800F0F4F924
:1016C000D4F810C0A1686769ACEB0100BA1B55E003
:1016D0000D186B88E3BB6B681B1A0C3BB3424CD3F1
:1016E0006A6806F11803121A0C3A4FF001094FF418
:1016F000F55A9A422DD383190C33CA184FF00008BB
:10170000A2F800A0A2F80280D5F80480C2E9018006
:101710006B60A5F8029050680C37B84202D001F116
:1017200008028350A06930440C30A061E269824213
:1017300000D2E061A5F800A0654512D12069428879
:101740007AB1E26890420CD0406808442061F6E724
:1017500013E0A5F8029068686A1A801AA26910441A
:10176000E3E70A4800F074F922681AB1314605F13E
:101770000C00904705F10C0098E768688242A7D8F2
:10178000024800F065F990E730000020F4120020D4
:1017900010B50346CCB2042A1AD3810718D11946D2
:1017A00044EA042343EA034306E008C1103A08C1AF
:1017B00041F8083B41F8043C102AF6D201E008C188
:1017C000121F042AFBD20B4602E000BF03F8014BB4
:1017D000521EFBD210BD00002DE9F0410F46064617
:1017E00000F05CF80546C068FFF754FF04001ED007
:1017F0000021EA68FFF7CCFF267200206072082201
:101800003946204600F0F0F90A48016809B120463F
:101810008847FEF7FBFC064604F10C01281DFFF784
:1018200001FF3046FEF7F6FC2046BDE8F0810020BF
:10183000FBE700005000002070B504460A484168EC
:1018400009B12046884700202072FEF7DFFC0546DC
:1018500004F10C00FFF702FF2846FEF7DBFC2046F0
:10186000BDE87040FFF7D4BC5000002070B50446BE
:101870000948416809B12046884700202072FEF7D8
:10188000C5FC054604F10C00FFF7E8FE2846BDE85C
:101890007040FEF7BFBC000050000020074A002146
:1018A00002EB01131B78834202D102EB0110704757
:1018B000491C0429F4DB002070470000640000206C
:1018C0002DE9F041044616460D460846FFF7E6FFAF
:1018D0000746FFF773FC381D796800E0096881420C
:1018E000FCD1FFF779FC45F08000207208223146D8
:1018F000204600F079F90948016809B12046884777
:10190000FEF784FC054604F10C01381DFFF78AFE42
:101910002846BDE8F041FEF77DBC000050000020E5
:10192000007A000601D501207047002070470000B2
:101930002DE9F041FEF76AFC134C07466088D8B9E0
:10194000A068FFF7E3F91149401E666851F830506E
:10195000143DB54210D020706560E26812B129468E
:10196000304690470A48007805F11C01002806F12E
:101970001C0006D0FEF751FC3846BDE8F041FEF7EA
:1019800049BCFEF74AFCF7E7A4000020141300202E
:101990002400002010B50446FEF738FC024694F8F7
:1019A00034000E4920F00F00401C84F8340094F8F5
:1019B000350001EBC00104F114004B6818604B685E
:1019C000A361486006486161A16B83681943816027
:1019D000BDE810401046FEF71DBC000014130020A7
:1019E000A400002010B50446FEF710FC04F1140119
:1019F000D1E900235360D1E900231A60A16161613C
:101A000094F83520074951F8323001EBC2018B427E
:101A100004D10549A36B8A689A438A60BDE81040E7
:101A2000FEF7F8BB14130020A40000202DE9F041BC
:101A300016460A461F4605460221FFF741FF05F1FB
:101A40001404AC616C61AE836F720020BDE8F0815C
:101A500070B504461348016809B120468847FEF76F
:101A6000D5FB0546606904F11401884208D014389A
:101A700000F032FA2846FEF7CDFBFFF759FF09E0E8
:101A8000A08B4FF6FF71884206D2401CA0832846E7
:101A9000FEF7C0FB002070BD2846FEF7BBFB6FF0D1
:101AA000020070BD600000202DE9F341054620488A
:101AB000016809B128468847FEF7A8FB0646A88BAF
:101AC00028B1401EA8833046FEF7A4FB21E0019810
:101AD00038B300F027FA0446002020636A7A2146D2
:101AE00005F11400FFF764FD0198002809DD04F1F9
:101AF000440001AA0021074600F024FB384600F00C
:101B00006DFB3046FEF786FBFFF712FF206B0028C7
:101B100005D10848016809B1284688470020BDE87A
:101B2000FC813046FEF776FB6FF00100F7E700001E
:101B3000580000205C00002008B509A0FFF762FDF6
:101B40000AA0FFF75FFD12A00090052301220321E8
:101B500012A0FFF757FDBDE8084018A0FFF752BDDF
:101B60000A205C207C202F0A000000002D20525407
:101B7000202D2020202020546872656164204F7041
:101B800065726174696E672053797374656D0A00BC
:101B90004A756C203331203230323400202F207CC3
:101BA000205C202020202025642E25642E25642002
:101BB0006275696C642025730A00000020323030A1
:101BC00036202D203230323020436F7079726967B1
:101BD00068742062792072742D7468726561642063
:101BE0007465616D0A00000010B5002A07D0034635
:101BF00011F8014B03F8014B2CB1521EF8D110BD66
:101C000003F8011B00E00021521EF9D110BD0000B5
:101C10000A46C11C10B522F0030321F00301182B62
:101C200020D9A3F118048C421CD3114C581A18382F
:101C3000A16060614FF4F5520A8000230C30C1E9C5
:101C400001034B804B681944E1600A8001224A80FD
:101C500048608860002307A10848FFF7E7FEA068F6
:101C6000206110BD0146BDE8104005A0FFF7CABCC9
:101C7000300000206865617000000000F412002050
:101C80006D656D20696E69742C206572726F7220AB
:101C9000626567696E206164647265737320307871
:101CA00025782C20616E6420656E64206164647206
:101CB00065737320307825780A00000010B50A4952
:101CC00000230A4C4B80184604EBC002401C5260B3
:101CD00012600828F8DB0720087003484B601030BA
:101CE0008B604060006010BDA40000201413002031
:101CF00010B5074CA068FFF709F80649401E51F8D7
:101D0000300014386060BDE810401C30FEF7B3BAF4
:101D1000A4000020141300200148406000607047B8
:101D2000D400002070472DE9FF478946DDE90C7695
:101D3000824601461D4690460120FFF74DFD041ED8
:101D40000DD02846FFF7A6FC60B103968DE8A100F0
:101D500043464A4651462046FEF7FAFF204604B065
:101D6000BDE8F0872046FFF767FD0020F7E700F0A9
:101D7000DFB8000070B514480468FEF747FA05465E
:101D80002046FFF73CF82046FFF72CFE042084F89D
:101D9000340004F1440000F0F9F92046FFF7C0FDDB
:101DA00001280CD004F114010848FFF742FC00BFE1
:101DB000FFF7BEFD2846BDE87040FEF72BBA20466F
:101DC000FFF754FDF4E70000A8000020B400002055
:101DD000054D002455F8240000B18047641C042CF4
:101DE000F8D300F003F8F4E7641200202DE9704006
:101DF000FEF70CFA05460F480168814214D00168CD
:101E0000A1F11404D1E900024260D1E9000210609E
:101E1000496009604869FFF7FBF92046FFF70CFDB0
:101E20002846FEF7F7F9E3E72846BDE87040FEF7DD
:101E3000F1B90000B40000201FB520230848072294
:101E4000D9008DE80F000023064A07A1783800F07A
:101E50002BF804B00248BDE81040783800F088B88C
:101E600064110020D11D00087469646C65000000D5
:101E700070B505466FF00204FEF7C8F9024609483E
:101E8000002100BF50F821303BB1491C0429F9D38F
:101E90001046FEF7BFF9204670BD40F821500024DF
:101EA000F6E70000641200202DE9FF5F92460EAABB
:101EB0000C4692E8E0010A46994683460121FFF765
:101EC000FFFC8DE8E0014B46524621465846FEF79E
:101ED0003FFF04B0BDE8F09F70B5044690F83400B1
:101EE00000F00F00022802D04FF0FF3070BDFEF767
:101EF0008DF9054604F11400FFF7B9FB04F1440025
:101F000000F0B4F92846FEF785F92046FFF742FDB8
:101F10000348416809B120468847002070BD000091
:101F2000BC0000200148006870470000A8000020A5
:101F3000F1B5FEF76BF905460C480468204600F041
:101F40002DF804F144006A460021064600F0FAF834
:101F5000304600F043F92846FEF75CF9FFF7E8FC4D
:101F6000206B801C00D120630020F8BDA800002059
:101F700010B590F83610012280F835108A40022101
:101F8000826380F83410FFF7A7FF0348006808B1A8
:101F9000FFF7CEFC002010BDA800002070B504465D
:101FA00090F8340000F00F00012802D04FF0FF300D
:101FB00070BDFEF72BF905462046FFF713FD94F898
:101FC000340020F00F00801C84F8340004F1440039
:101FD00000F04CF92846FEF71DF90348016809B1E5
:101FE00020468847002070BDBC00002010B5044684
:101FF0006FF00100206304F11400FFF738FB204666
:10200000FFF7C8FCBDE81040FFF792BC70B5FEF7C3
:10201000FDF806461348046894F8340000F00F00F9
:10202000012819D1D4E90501884215D004F1140022
:102030000546FFF71CFB94F835000B4901EBC00087
:1020400041680D6041686960456028603046FEF770
:10205000E1F8FFF76DFC02E03046FEF7DBF8002008
:1020600070BD0000A8000020141300200148006883
:102070007047000020000020094810B50168491C85
:102080000160FFF74FFF016C491E016403D1C16B72
:102090000164FFF7BBFFBDE8104000F003B800008B
:1020A000200000202DE9FC47CDF804D0CDF800D069
:1020B000FFF7DCFF0746FEF7A9F8214E804606F140
:1020C0000C0535E060696FF00041381A143C884215
:1020D00031D2716809B1204688472046FEF78CFE50
:1020E000607A810702D420F00100607204F11401CB
:1020F00089466846FFF7A4FAD4E907108847FFF736
:10210000B5FFB168074609B120468847009968467F
:1021100081420DD04846FFF7B3FA607A810707D5B0
:10212000C10705D020F001006072204600F056F88B
:102130002C68AC42C6D14046FEF76CF8BDE8FC877F
:10214000C800002070B515460E460446FEF75EF83E
:10215000052E17D2DFE806F00503080C1100616AAE
:102160000FE0296861620DE0617A21F0020102E06E
:10217000617A41F00201617204E0617AC90700D01E
:1021800001212960FEF746F8002070BD70B50446B5
:10219000FEF73CF805462046FEF72EFE607A20F05A
:1021A000010060722846FEF735F82046FFF75EFB17
:1021B000002070BD2DE9F8439046DDE908450A4648
:1021C0001F4606460A21FFF77BFB23463A46414657
:1021D00030460095FEF702FEBDE8F8832DE9F8438E
:1021E0000446FEF713F880462046FEF705FE607AA7
:1021F00020F0010060721B48016809B12046884741
:10220000FFF734FF616A184A4318A3620020009266
:1022100002EBC002694656686FF000475DF8202067
:102220000AE01268A2EBC0056D699D4202D0ED1A6A
:10223000BD4203D341F82020B242F2D10A480C3803
:102240000168491C016004F114010098FFF7F8F9D6
:10225000607A40F0010060724046FDF7DBFF00202D
:10226000BDE8F8835C000020D400002070B504466F
:10227000407AC00713D00B48016809B1204688474F
:10228000FDF7C4FF05462046FEF7B6FD607A20F054
:10229000010060722846FDF7BDFF002070BD4FF0C1
:1022A000FF3070BD600000202DE9FF4F89460446D5
:1022B00000EB090783B080464FF0FF3A4FF0200B48
:1022C000A74202D25746C8F1FF390BE1252803D0B7
:1022D000BC4200D2207080E000260599491C05917F
:1022E00008782D2811D02B2812D0202813D023288D
:1022F00014D0302815D00A785546303A0A2A13D21D
:1023000005A800F030F905461AE046F01006E4E7AB
:1023100046F00406E1E746F00806DEE746F0200650
:10232000DBE746F00106D8E72A2809D10698491CC0
:10233000059120C80690002D02DA6D4246F0100685
:102340000598D44601782E2918D1401C05900178B3
:10235000A1F130020A2A04D205A800F004F984464B
:1023600007E02A2908D1401C0590069850F804CBB4
:102370000690BCF1000F01DA4FF0000C059A002026
:102380001178682901D06C2902D1521C08460592A7
:1023900011780A236F2974D00CDC63291FD004DC68
:1023A00025296FD058290DD184E0642901D06929ED
:1023B00008D183E0702966D073292CD075297FD08D
:1023C000782979D0BC4201D2252020700598641C60
:1023D0000178E9B3BC4200D22170641C7FE0F006B2
:1023E00008D458466D1E002D04DDBC4200D220707A
:1023F000641CF7E70698BC4210F8041B069000D254
:102400002170584602E0BC4200D22070641C6D1E50
:10241000002DF8DC63E0069802C8069001B941A1DE
:10242000002000E0401CA84202D00A5C002AF9D13A
:10243000BCF1000F02DD604500DD6046F2060BD402
:102440005A462B466D1E834206DDBC4202D200E096
:1024500054E02270641CF4E7002206E0BC4201D282
:102460000B782370491C521C641C8242F6DB5A46CE
:1024700029466D1E814232DDBC4200D22270641CAE
:10248000F6E715E010E0681C02D1082546F00106C9
:10249000CDE9005C06980296102304C806903946E0
:1024A000204619E00CE007E0BC4296D2252011E757
:1024B000082305E046F04006102301E046F002063E
:1024C0006C2801D068281CD0069804C80690CDE975
:1024D000005C394620460296FEF7A6FD04460598A4
:1024E000401C05900598007800287FF4EFAEB9F104
:1024F000000F11D0BC420DD220700DE0401E05909F
:10250000EDE7069830F8041B06908AB2B007DED5D6
:1025100012B2DCE707F8010C07B0A4EB0800BDE835
:10252000F08F0000284E554C4C29000000207047C9
:1025300000207047002070470020704710B5FDF75D
:1025400065FEFEF7D1FEFFF7F7FAFFF7E5FBFFF7B1
:10255000B5FBFEF701FEFFF7E5FBFFF76DFCFFF7AC
:10256000C7FB002010BD10B5014600206FF02F03FF
:1025700007E0541C0C60127800EB800003EB400075
:1025800010440A681478303C0A2CF2D310BD0102C2
:1025900002030405060708090A0B0C0D0E0F1010A4
:1025A0000000000000000000010203040607080903
:1025B0000000010002000100030001000200010010
:1025C00004000100020001000300010002000100FC
:1025D00005000100020001000300010002000100EB
:1025E00004000100020001000300010002000100DC
:1025F00006000100020001000300010002000100CA
:1026000004000100020001000300010002000100BB
:1026100005000100020001000300010002000100AA
:10262000040001000200010003000100020001009B
:102630000700010002000100030001000200010088
:10264000040001000200010003000100020001007B
:10265000050001000200010003000100020001006A
:10266000040001000200010003000100020001005B
:102670000600010002000100030001000200010049
:10268000040001000200010003000100020001003B
:10269000050001000200010003000100020001002A
:1026A000040001000200010003000100020001001B
:1026B00030313233343536373839616263646566B8
:1026C00000303132333435363738394142434445AE
:1026D0004600000039250008312500082D25000896
:1026E000352500080427000800000020EC00000049
:1026F0006C010008F0270008EC000020CC18000056
:102700008801000800000000000000000000000038
:1027100000000000010000001000000000000000A8
:102720000024F40000000000000000000000000091
:102730000000000000000000000000000000000099
:102740000000000000000000000000000000000089
:102750000000000000000000000000000000000079
:1027600000000000000000000100000068000020E0
:1027700068000020780000000200000078000020BF
:1027800078000020200000000500000088000020E4
:1027900088000020300000000A000000980000209F
:1027A000980000202C000000000000000000000045
:1027B0000000000000000000000000000000000019
:1027C0000000000000000000000000000000000009
:1027D00000000000000000000000000000000000F9
:1027E00000000000000000000000000000000000E9
:0400000508000131BD
:00000001FF
