:020000040800F2
:100000006817002045010008130B00080D020008C6
:10001000110B0008AF020008EB0B00080000000005
:10002000000000000000000000000000150B0008A8
:10003000B10200080000000097010008170B00083B
:100040005F0100085F0100085F0100085F01000810
:100050005F0100085F0100085F0100085F01000800
:100060005F0100085F0100085F0100085F010008F0
:100070005F0100085F0100085F0100085F010008E0
:100080005F0100085F0100085F0100085F010008D0
:100090005F0100085F0100085F0100085F010008C0
:1000A0005F0100085F0100085F0100085F010008B0
:1000B0005F0100085F0100085F0100085F010008A0
:1000C0005F0100085F0100085F0100085F01000890
:1000D0005F0100085F0100085F0100085F01000880
:1000E0005F0100085F0100085F0100085F01000870
:1000F0005F0100085F0100085F0100085F01000860
:100100005F0100085F0100085F0100085F0100084F
:100110005F0100085F0100085F0100085F0100083F
:100120005F0100085F0100085F0100085F0100082F
:10013000DFF80CD000F0A4F800480047A502000842
:10014000681700200648804706480047FEE7FEE79C
:10015000FEE7FEE7FEE7FEE7FEE7FEE7FEE7FEE777
:10016000E90B000831010008EFF3108072B6704708
:1001700080F310887047324A1368012B04D04FF087
:10018000010313602F4A10602F4A11602F484FF06F
:10019000805101607047EFF3108272B62848016801
:1001A00091B14FF0000101602648016829B1EFF3D9
:1001B000098121E9F00F0068016023490968096895
:1001C000B1E8F00F81F3098882F310884EF0040E35
:1001D00070471D4908601B494FF00000086018492E
:1001E0004FF0010008601A481A49D0F8002041EA8F
:1001F0000201016015484FF0805101601648006807
:10020000006880F3088861B662B670471EF0040F7C
:100210000CBFEFF30880EFF3098020E9F00F40F8FE
:1002200004ED1EF0040F0CBF80F3088880F30988EA
:1002300000B501F009F85DF804EB4EF0040E7047CC
:100240005C130020AC110020B811002004ED00E088
:1002500020ED00E00000FFFF08ED00E0D2B201E079
:1002600000F8012B491EFBD270470022F6E710B5BB
:1002700013460A4604461946FFF7F0FF204610BD14
:10028000064C074D06E0E06840F0010394E80700E3
:1002900098471034AC42F6D3FFF74EFF24260008EF
:1002A0004426000880B502F0B3F8002080BDFEE7C8
:1002B000704700002DE9FC4F81465F4806234FF050
:1002C000000C4FF001084FF00F0E4FF0000A81456F
:1002D0005A4808BF052348444FEAB022052A4FF088
:1002E000000238BF4FEAB02300930C6834FA02F5DD
:1002F00008BFBDE8FC8F08FA02F73C4200F0988086
:100300004D68032D16D9112D26D0122D28D04E4818
:10031000854213D04D48854210D04D4885420DD0BE
:100320004C4885420AD04C48854207D04B4885420C
:1003300004D022E0DFE805F002181B1F8C6844B1EE
:10034000012C4FF0080A14BFC9F81470C9F81070D6
:1003500013E04FF0040A10E0CC6804F1040A0CE04A
:10036000CC6804F10C0A08E0D1F80CA005E0CC68D8
:1003700004F1080A01E04FF0000A082A64464846E2
:1003800028BF203C28BF043006680EFA04F50AFA9C
:1003900004F426EA05052C430460C879C00647D555
:1003A0005F48274E22F0030503460068B3463544F4
:1003B00040F0010018601868294B00F0010001901E
:1003C0000CF00C00019E0EFA00F49E46EE58009BC5
:1003D00003FA00F026EA04041A4B204345F80E0005
:1003E0004FF00F0E4D68DBF8080015F4801F0CBFAE
:1003F00020EA070440EA0704A802CBF8084018687E
:1004000054BF20EA070440EA0704A8031C60DBF895
:10041000040054BF20EA070440EA0704E803CBF8CD
:100420000440DBF8000054BFB8433843CBF8000069
:100430000CF1040C013258E7001C014000F8FEBF2B
:10044000000401400C0401400000111000001210D3
:1004500000002110000022100000311000003210B6
:1004600008FCFFFFC26802EA0103914341EA03412D
:1004700001617047002A08BF09040161704700004C
:1004800018488068704700BF80B50748016841F090
:1004900010010160032000F069F80F2000F006F859
:1004A00000F022F8002080BD0020024070B50D4E03
:1004B00004464FF47A713078B1FBF0F07F49096857
:1004C000B1FBF0F000F0E4FA01250F2C08D838B9A0
:1004D0004FF0FF3021460022002500F025F874601F
:1004E000284670BD0000002082B00D48022201683D
:1004F00041F001010160016801F0010101910199E0
:10050000416841F080514160406800F080500090A7
:1005100000980448016862F31A61016002B07047F4
:10052000181002400400014010B5164B1B68C3F3BD
:10053000022E0EF1040CAEF103048EF00703BCF1A1
:10054000070F4FF0010C38BF0024042B28BF0423F1
:100550000CFA03F3013B19400CFA04F3013BA140F0
:100560001A401143BDE8104000F040BB05494FF66A
:10057000FF030A681A4060F30A2203481043086028
:10058000704700BF0CED00E00000FA052DE9F041D6
:1005900088460446002800F08880464F4FF480507B
:1005A000395801F0070141450AD2395821F00701B5
:1005B00041EA08013950385800F00700404574D12D
:1005C000206810F0020F11D0410742BF796841F452
:1005D000E0617960010742BF796841F46051796058
:1005E0007968A26821F0F00111437960C00727D033
:1005F0006068012804D1396811F4003F08D154E043
:100600003968022802D1890102D44EE089074CD50D
:10061000796821F0030108437860FFF731FF06464F
:1006200041F288357868616800F00C00B0EB810F0A
:1006300006D0FFF725FF801BA842F3D9032035E041
:100640004FF48050395801F0070141450AD9395813
:1006500021F0070141EA08013950385800F007003D
:10066000404522D1206810F0040F05D07968E26877
:1006700021F4E06111437960000706D578682169AB
:1006800020F4605040EAC100786000F01BF87968FF
:10069000094AC1F30311515CC840FB49086008488E
:1006A0000068FFF703FF002000E00120C0B2BDE8B2
:1006B000F08100BF001002407C2400080C000020E4
:1006C0000400002010B50D4C0D48226802F00C0308
:1006D000082B18BF10BDC2F383430AA112F4803F58
:1006E000CB5C02D10C48584310BD216809A2584385
:1006F000C1F34041515CB0FBF1F010BD0410024069
:1007000000127A0002030405060708090A0B0C0D03
:100710000E0F10100102000000093D002DE9FE43FC
:100720000446002800F05C812078D44ED44FC007E6
:10073000B14650D0386800F00C00042818D0386852
:1007400000F00C00082803D1386810F4803F0FD166
:100750006068A0B1B0F5803F06D03168B0F5A02F39
:1007600025D141F480203060306840F4803024E0AE
:10077000306810F4003F2ED0606860BB30E1306814
:1007800020F480303060306820F480203060FFF743
:1007900077FE0546D9F800004E4610F4003F1AD007
:1007A000FFF76EFE411B03206429F3D919E121F400
:1007B00080303060306820F480203060FFF760FEC9
:1007C0000546306810F4003F05D1FFF759FE401B85
:1007D0006428F6D9E6E0207880072FD5386810F035
:1007E0000C0F08D0386800F00C0008280BD13868CE
:1007F00010F4803F07D1306810F0020F17D0206945
:10080000012814D0ECE021699E48002900F08A807C
:1008100001210160FFF734FE0546306810F0020F39
:1008200005D1FFF72DFE401B0228F6D9BAE030684B
:10083000616920F0F80040EAC100306020780007CC
:1008400030D5A06980B18F480121C0F88014FFF72E
:1008500017FE0546386A10F0020F16D1FFF710FE9A
:10086000401B0228F6D99DE086480021C0F880147C
:10087000FFF706FE0546386A10F0020F12D0FFF7A8
:10088000FFFD401B0228F6D98CE0D5484FF4FA5101
:100890000068B0FBF1F0029000BF0298411E0028F2
:1008A0000291F9D12078400740F18580B86910F0B5
:1008B000805F0BD1B8694FF0010840F08050B861FB
:1008C000B86900F080500190019801E04FF00008F5
:1008D0006E4E484659F8060010F4807F14D159F83E
:1008E000060040F4807049F80600FFF7C9FD054690
:1008F000484659F8060010F4807F05D1FFF7C0FD87
:10090000401B6428F4D94DE0E068F0B1012805D01F
:10091000F969052831D141F00400F861F86940F027
:10092000010030E000210160FFF7AAFD05464846BE
:10093000D9F8000010F0020F3FF480AFFFF7A0FDE0
:10094000411B03200229F2D94BE0F86920F0010095
:10095000F861F86920F00400F861FFF791FD0546A1
:1009600041F28836F86910F0020F1DD0FFF788FDBC
:10097000411B0320B142F5D933E021F00100F861B9
:10098000F86920F00400F861FFF77AFD054641F2AE
:100990008836F86910F0020F06D1FFF771FD401B91
:1009A000B042F6D903201CE0B8F1000F1EBFB869B1
:1009B00020F08050B861E669002E5DD0386800F004
:1009C0000C00082811D1012E0AD03868216A00F4E1
:1009D00080328A4204D1616A00F4701088424BD0A0
:1009E0000120C0B203B0BDE8F0832649002088464C
:1009F0000866FFF745FD0546022E0DD146464846DE
:100A0000D9F8000010F0007F13D0FFF739FD411B2B
:100A100003200229F3D9E4E74846D9F8000010F092
:100A2000007F29D0FFF72CFD411B03200229F3D9B9
:100A3000D7E7206AB0F5803F05D13968A26821F474
:100A40000031114339603968626A104321F474112E
:100A50000843386001203066FFF712FD044648461F
:100A6000D9F8000010F0007F06D1FFF709FD011B47
:100A700003200229F3D9B4E70020B2E700100240B6
:100A800004100240000042420C0000200060FEFF03
:100A9000411E0020B0EB116F1CBF01207047044ABB
:100AA000F023516003490B7007219060116070477B
:100AB00010E000E023ED00E07FB51448CC4C0022AC
:100AC0004FF440550026016841F0080101600168BB
:100AD00001F0080100910099016841F004010160F2
:100AE0004FF44051006800F0040000900098204648
:100AF000FFF7C0FC01206946CDE9005002200296B4
:100B000003902046FFF7D6FB7FBD00BF18100240C0
:100B1000FEE7FEE7704780B500F060FC01F0E8F901
:100B2000BDE8804000F06EBCB0B590B0002401A8D4
:100B30001421CDE90B44CDE90944FFF796FB4FF4AE
:100B40008030012102250790069108940A91CDE991
:100B50000D504FF4E0100F9006A8FFF7DFFD18B11D
:100B6000EFF3108072B6FEE70F20022101904FF4E0
:100B700080600394CDE9040401A80295FFF706FD07
:100B800018B1EFF3108072B6FEE710B0B0BD0000F0
:100B90001048016801F00C020F49082A0FD10268C1
:100BA000C2F383420368023213F4803F01D10B4940
:100BB00004E0036813F4003F18BF08495143084A92
:100BC000084B11600068C0F30310185C21FA00F0B4
:100BD000106070470410024000127A0000093D00C6
:100BE0000C0000207C2400087047FEE710B5074C7D
:100BF00000F00F03044AB0F1FF3F2344C8BF83183D
:100C00000801187010BD00BF00E400E014ED00E022
:100C100018B1C1B219B101200EE00020704710F4E4
:100C20007F4102D0090A092006E010F47F0107BFC6
:100C3000010E1920090C1120014A515C084470472B
:100C40008C2400081CB500F1200C0446ACE80E0012
:100C50002321049AC2621430C4E90500184600F04A
:100C6000A9FC04F120030FCB1A44124B043A00F004
:100C700097FBE061104A2346059884F8360084F813
:100C800035000020A0630699C4E90F11206384F8A1
:100C90003400C4E91C00CDE9000004F14400214601
:100CA00001F0D5F90548016819B12046BDE81C409E
:100CB00008471CBDDD1B00085D1E00085012002007
:100CC000B0B50546FFF750FA296F044609B128462A
:100CD00088472046BDE8B040FFF74ABA254A137856
:100CE0000370507808707047F8B5224D6868C0B935
:100CF00000F0E0F901F0F8F8044600260AE0686820
:100D000001306860009602E0009801300090009881
:100D10006328F9D901F0E8F8001B0928EFD900F0A1
:100D2000D5F9002701F0E0F80446002608E0009716
:100D300002E000980130009000986328F9D901364C
:100D400001F0D2F8001B0928F1D96868B0420BD92C
:100D5000811B64225143B1FBF0F303FB10112B7094
:100D60005143B1FBF0F002E0002028706E60687023
:100D7000F8BD00BF50000020014800F0AFBF00BF29
:100D8000E90C00087CB50DF107040DF1060508A675
:100D900020462946FFF7A2FF9DF806209DF8071080
:100DA000304600F071FB4FF4FA7000F011FFEFE7EE
:100DB0004350552075736167653A2025642E25647C
:100DC00020250D0A0000000010B5094C20464FF404
:100DD0008051FFF747FB0A2000F0FAFE20464FF44F
:100DE0008051FFF73FFB4FF47A7000F0F1FEEDE722
:100DF000000C0140BCB5FFF747FBFFF7BDFFFFF755
:100E000093FEFFF759FE14240320134900224FF4E8
:100E10000073CDE900040EA000F0B9FE0F4D0028CC
:100E2000286011D000F0DAFF052012490022FF23CC
:100E3000CDE900040AA000F0AAFE0028686003D0F3
:100E400000F0CCFF002001E04FF0FF3002B0B0BD59
:100E50006C65643100000000C90D000858000020D6
:100E60006370755F75736167655F746872656164EF
:100E700000000000850D0008B0B58D4C044D01E068
:100E800001CC8047AC42FBD3BDE8B040FFF7B2BF16
:100E90002026000810B5DFF840CCD0F804E0DCF8DC
:100EA0000C1001EB0E02824214D0538893B9DCF887
:100EB00010309A420ED0DCF814309342A0EB0103BC
:100EC00008BFCCF81400D2F804E0C0F804E052687F
:100ED0000A44936082688B18834208BF10BD5C8807
:100EE00004B110BDDCF81440844208BFCCF81430C3
:100EF000C3F804E040680844826010BD2DE9FF4F4C
:100F0000DDF83CA04FA754A61AF0400F08BF3E469C
:100F10001AF0100F18BF2AF0010A1AF0020F02D1BE
:100F20004FF000090EE0B2F1FF3F08DD5FEA4A77BB
:100F30005ABF202707EA8A094FF02B0902E05242E4
:100F40004FF02D09DDE90D8CD2B14FF0000E4FF0BE
:100F50000A0B6D4611E00A2B06D1B2FBFBF707EB3B
:100F60008704A2EB440402E0170902F00F04345D89
:100F70003A4605F80E400EF1010E002AEBD104E0CE
:100F800030224FF0010E8DF80020E6456346C8BFC1
:100F900073461AF0110FA8EB030212D10024002AA5
:100FA0004D46C8BF0124B9F1000F18BF01252C40E0
:100FB0002025121B03E0884238BF05700130013A3A
:100FC000F9DAB9F1000F06D08842A2F1010238BF68
:100FD00080F8009001305FEACA6409D420256AF3E2
:100FE000041503E0884238BF05700130013AF9DA90
:100FF000302405E08842A3F1010338BF04700130BA
:101000009E45F7DB6B460AE08842AEF101043EBF25
:1010100003EB0E0717F8017C07700130A646BCF100
:10102000000F02D0BEF1000FEEDC012ABCBF04B0FD
:10103000BDE8F08F8842A2F101023CBF202303707B
:101040000130F2E7303132333435363738396162C6
:101050006364656600000000303132333435363762
:10106000383941424344454600000000E0B51420B1
:10107000022100224FF48073CDE90010054903A03E
:1010800000F085FDBDE88C4000F0A8BE6D61696E82
:1010900000000000790E0008B0B5044C044DAC42CD
:1010A00028BFB0BD01CC8047F9E700BF1826000873
:1010B0001C26000880B5FFF757F812490A8801324C
:1010C0000A80BDE88040FFF753B800BF80B5FFF746
:1010D0004BF80C490A88013A0A8012B2002A03DD53
:1010E000BDE88040FFF744B800220A80FFF740F8CF
:1010F00005484068002814BFBDE8804080BD00F06E
:101100004FBB00BF14010020A0000020F8B504462A
:10111000E8B31F4F796809B120468847F868A042B4
:1011200035D83869A04232D907F120054FF0FF3198
:10113000284600F0E7FB34F80A0CA4F10C0618B1BD
:101140003088B0F5F55F0AD012A000F09DF934F8B0
:101150000C3C34F80A2C16A0314600F095F94FF4F7
:10116000F55044F80C0C7869B04288BF7E6154F8A1
:10117000080CF968BA69301A401A1044B861304650
:10118000FFF788FE2846BDE8F84000F08FBBF8BDA9
:1011900060000020746F20667265652061206261C6
:1011A00064206461746120626C6F636B3A0A0000B2
:1011B0006D656D3A203078253038782C2075736550
:1011C0006420666C61673A2025642C206D61676934
:1011D0006320636F64653A203078253034780A00E4
:1011E00002487047014800F580507047A801002070
:1011F00010B5FFF7CDFC10484FF47A710068B0FBD2
:10120000F1F0411E0020B0EB116F07D10B4AFF2314
:1012100051600B490B70072111609060FFF73CFF94
:10122000FFF7DEFF0446FFF7DDFF01462046BDE87D
:10123000104000F01FBC00BF0C00002010E000E0D8
:1012400023ED00E070470000B0B504462248016875
:1012500011B120468847F0B3216C2048204DA847A3
:10126000616A2048A847A16A1F48A847E16A1F4849
:10127000A847216B1E48A84761681E48A847A16877
:101280001DA0A847E16820A0A847216922A0A8477F
:10129000616925A0A847A16927A0A847E1692AA0FC
:1012A000A847216A2CA0A847616B2FA0A847A16B73
:1012B00031A0A847E16B34A0A8472078400703D4A9
:1012C000364800F0E1F805E000F062FD01463248E2
:1012D00000F0DAF8FEE7B0BDA40100200426000803
:1012E00089140008C3250008D0250008DD25000862
:1012F000EA250008F72500087230353A20307825B5
:101300003038780A000000007230363A20307825F4
:101310003038780A000000007230373A20307825E3
:101320003038780A000000007230383A20307825D2
:101330003038780A000000007230393A20307825C1
:101340003038780A000000007231303A20307825B9
:101350003038780A000000007231313A20307825A8
:101360003038780A000000007231323A2030782597
:101370003038780A00000000206C723A203078255E
:101380003038780A000000002070633A2030782559
:101390003038780A00000000A62500088C250008D7
:1013A00010B504320C4C22F0070E6FF03F02AEF184
:1013B000400C02E04EF802400432002AFAD100222A
:1013C0004FF080744EE908124EE906224EE90423DC
:1013D0004EE90204604610BDEFBEADDE10B5FEF76B
:1013E000C3FE0446104801780131017004480068CA
:1013F00000B180472046BDE81040FEF7B9BE00BFEF
:10140000A811002010B5FEF7AFFE0446064801788B
:10141000013901700548006800B180472046BDE8E9
:101420001040FEF7A5BE00BFB4110020B01100208F
:101430000068143800F082BC70B5054608461646B0
:101440000C4600F0E1FC012E01D0A6B170BD28468B
:101450000068A8420FD090F8211094F835208A42F5
:10146000F6D2143804F1140281690A60A161826124
:101470001430606170BD686804F114010160A061FE
:101480006960656170BD000083B018B5844603A82B
:10149000074C0EC003AB7F2162462046009300F04C
:1014A0005BFE2046FFF7CEFEBDE8184003B0704754
:1014B000BC1100202DE9F047E8B3DFF81C9603309B
:1014C00020F0030AD9F80800824534D809F1200831
:1014D0004FF0FF31404600F015FABAF10C0F98BFFB
:1014E0004FF00C0AD9E902C0D9F81410ACEB0A028B
:1014F0000D1A2B4695421BD2C7187E887D68002E98
:10150000F7D103F10C06AC1B5445F2D30AF11802D3
:10151000944214D201227A80C21BD9E906362A44A9
:101520001A449642C9F8182026D2C9F81C2023E094
:10153000404600F0BBF900252846BDE8F08706EBE1
:101540000A024FF4F5540CF10C060AF10C0E84500B
:101550008418C4E9015301237B807A606368B34235
:101560001CBF03449A60D9E9062372449342C9F828
:10157000182038BFC9F81C204FF4F552B9423A8000
:101580000BD1D9F8102005E0914206D049680144FA
:10159000C9F814104B88002BF6D1404600F086F9AC
:1015A000D9F8002007F10C05002AC5D0284651467D
:1015B0009047C1E7042A01D3830701D003463AE0EC
:1015C00070B5D643CBB20446154616F1100F43EA68
:1015D000032398BF6FF00F0643EA03431644103607
:1015E00026F00F0E00EB0E0C05E0C4E90033C4E951
:1015F00002331034103D102DF7D2A2EB0E026546D7
:10160000D64316F1040F98BF6FF003061644341D3D
:10161000164624F0030EA40801E008C5043E042E7B
:10162000FBD20CEB8403A2EB0E02BDE8704002E09B
:1016300003F8011B013A002AFAD170472DE9F04165
:10164000064653488846A0F110014FF0FF300130A4
:10165000032806D801F11007097CB1423946F6D1BA
:1016600000E00027F868FFF725FF05460024E8B1F1
:10167000FA6828460021FFF79DFF284641460822C8
:101680002E726C7200F0DCF94248016809B12846FC
:10169000884705F10C04FEF767FD57F8041F4C60FE
:1016A000E9603C602F61FEF763FD00E000252846FD
:1016B000BDE8F08110B504461848016809B120461C
:1016C000884700202072FEF74FFD2246216952F81C
:1016D0000C3F596021690B6022611260FEF748FDE2
:1016E0002046BDE81040FFF711BD00BF10B504460D
:1016F0000A48016809B12046884700202072FEF799
:1017000033FD54F80C1F62684A6062681160C4E9D6
:101710000044BDE81040FEF72BBD00BF4012002082
:10172000F8B504461A480E461546A0F110014FF0D0
:10173000FF300130032806D801F11007097CB142BF
:101740003946F6D100E00027FFF7B4FC04373846ED
:101750000068B842FCD1FFF7B9FC46F0800029468A
:1017600008222072204600F06BF90A48016809B18E
:101770002046884704F10C05FEF7F6FC39684D60F9
:10178000E1603D602761BDE8F840FEF7F1BC00BFB5
:10179000100000203C120020007AC00970470000B1
:1017A0002DE9F041FEF7E0FCEA4E0446308820B116
:1017B0002046BDE8F041FEF7DBBCEF4FB868FFF70D
:1017C00027FA01387D6807EBC001D1F81480A8F131
:1017D00014018D42ECD07268796038700AB12846E5
:1017E0009047064A08F1080105F11C00127812B171
:1017F000FEF7C1FCDCE7FEF7BEFCD9E7B411002020
:1018000010B50446FEF7B0FC94F8341094F8352077
:10181000DFF864C301F0F0010CEBC20241F00101FA
:1018200084F8341004F1140193691960A361916183
:1018300002F114016161A16BDCF808201143CCF8BE
:101840000810BDE81040FEF793BC00BF10B5044679
:10185000FEF78AFC214651F8142F4B6853604B6801
:101860001A60C1E9001191F82120C34901EBC202BD
:1018700052F8143F934204D1A26B8B6823EA020210
:101880008A60BDE81040FEF773BC00BF70B5154616
:101890000A4602211C460646FFF742FF06F11400E5
:1018A000C6E905000020B583747270BDB0B504466A
:1018B0001348016809B120468847FEF755FC0546E4
:1018C000204650F8141F814207D0FFF7B1FD28468B
:1018D000FEF74EFCFFF764FF09E0A08B4FF6FF71A7
:1018E000884206D00130A0832846FEF741FC002044
:1018F000B0BD2846FEF73CFC6FF00200B0BD00BF53
:1019000044120020F8B504461F480E4600910168B5
:1019100009B120468847FEF727FC0546A08B60B139
:101920000138A0832846FEF723FC1848016809B156
:1019300020468847002001B0F0BDFEB100F028FA33
:1019400007460020386304F114003946627AFFF735
:1019500073FD012E09DB07F144066A46002130467B
:1019600000F038FB304600F089FB2846FEF700FC0B
:10197000FFF716FF386B0028DDD1D6E72846FEF7C3
:10198000F7FB6FF00100D6E74C1200204812002050
:101990001CB50B4C07A0A0470AA0A04712A003212A
:1019A00001220523009013A0A0471AA02146BDE8FC
:1019B0001C4008470A205C207C202F0A0000000001
:1019C000891400082D205254202D2020202020543E
:1019D0006872656164204F7065726174696E67201A
:1019E00053797374656D0A004A756C203331203267
:1019F00030323400202F207C205C20202020202525
:101A0000642E25642E2564206275696C642025731C
:101A10000A0000002032303036202D2032303230A3
:101A200020436F70797269676874206279207274DC
:101A30002D746872656164207465616D0A00000030
:101A400080B5B2B18446034691F800E003F801EB9B
:101A5000BEF1000F05D0013A01F101019C46F3D11E
:101A600007E00121002302E00CF8013001318A4235
:101A7000FAD180BD0A46014622F00300192828D376
:101A8000CB1CA0F1180C23F003039C4521D310B507
:101A9000114CC11A4FF0000CA1F118020C39E3608F
:101AA000A2604FF4F552C3E90021A0F10C02C3F883
:101AB00008C000232261094A40E9032140F8041CC0
:101AC00004F1200006A10122FFF7E0FEE06860615A
:101AD00010BD05A0FFF7D8BC60000020A01E0100CB
:101AE00068656170000000006D656D20696E697445
:101AF0002C206572726F7220626567696E20616466
:101B0000647265737320307825782C20616E6420B0
:101B1000656E642061646472657373203078257823
:101B20000A0000000B4800210180134805E042181C
:101B3000083102F11403C2E905334029F7D1072225
:101B40000021027000F10C02C0E90111C0E903227A
:101B5000704700BF1401002010B5074CA068FFF7C4
:101B600057F804EBC000C068A0F1140108306160B0
:101B7000BDE81040FEF72DBBA0000020024800F198
:101B80000C01C0E903117047000100207047FEB549
:101B90000E46014601201F461546FFF74FFD04463D
:101BA00090B13846FFF786FC034650B1DDE90810D6
:101BB0002A46CDE90071029020463146FFF742F8EF
:101BC00003E02046FFF776FD0024204603B0F0BD79
:101BD00080B500F0E1F8002080BD0000B0B5C0483D
:101BE0000568FEF7C1FA04462846FFF769F828465B
:101BF000FFF72CFE042085F8340005F1440000F0C6
:101C00000EFA2846FFF7C8FD012803D12846FFF742
:101C10006DFD07E01F4805F1140201684A6002608B
:101C2000C5E90510FFF7BCFD2046BDE8B040FEF752
:101C30009FBA00BFB0B5344C0025042D03D100F08D
:101C400009F80025F9E754F8250000B1804701356F
:101C5000F3E700BF70B50F4D10E0D6E90001416019
:101C600071680860C6E900667069FFF74FFAA6F16F
:101C70001400FFF71FFD2046FEF77AFAFEF774FA0C
:101C80002E680446AE42E8D12046BDE87040FEF71B
:101C90006FBA00BFAC0000201FB520200B4C0E4ACD
:101CA0000BA100230390072002904FF48070019055
:101CB00005480090204600F029F8204604B0BDE811
:101CC000104000F08BB800BF581200201C0100200B
:101CD0007469646C65000000351C000870B50A4D1D
:101CE00004460026FEF740FA032E07D802CD01363F
:101CF0000029F9D145F8044C002401E06FF00204FA
:101D0000FEF736FA204670BD940100207FB51546D7
:101D10000A4601211C460646FFF702FD0B98089B68
:101D20002946224602900A98019009980090304670
:101D3000FEF788FF002004B070BD0000B0B5044677
:101D400090F8340000F00F0002281CBF4FF0FF3065
:101D5000B0BDFEF709FA21460546A06951F8142FD7
:101D60005060A069026004F14400A161096000F0C4
:101D7000CFF92846FEF7FCF92046FFF741FD03485E
:101D8000016809B1204688470020B0BD54120020E8
:101D900053480068704700BFF8B50090FEF7E4F9BB
:101DA00005464F480468204600F02EF804F144062A
:101DB0006A4600210027304600F00CF9304600F05A
:101DC0005DF92846FEF7D4F9FFF7EAFC206B0230F4
:101DD00008BF2763002001B0F0BD00BF80B502211D
:101DE000012280F8341090F8361080F8351002FA8D
:101DF00001F18163FFF7A2FF3948006808B1FFF7DE
:101E0000CFFC002080BD00BFB0B5044690F8340080
:101E100000F00F0001281CBF4FF0FF30B0BDFEF7EF
:101E2000A3F905462046FFF711FD94F8340000F0B1
:101E3000F00040F0020084F8340004F1440000F0A7
:101E400067F92846FEF794F90348016809B120466E
:101E500088470020B0BD00BF5813002080B56FF048
:101E6000010102460163816952F8143F596081699A
:101E70000B6082611260FFF7C3FCBDE88040FFF792
:101E80008FBC000080B5FEF76FF91549096891F81D
:101E9000342002F00F02012A1ED10A4652F814EF34
:101EA000D2F804C0E64517D0CEF804C08B69C3F859
:101EB00000E08A610B4B91F835C003EBCC03D3F8FB
:101EC00004C0CCF80020C1F818C05A604B61FEF77E
:101ED0004FF9FFF765FC01E0FEF74AF9002080BDED
:101EE000A4000020B40000200B480068704700BF29
:101EF00080B50948016801310160FFF749FF016CB5
:101F00000139016403D1C16B0164FFF7BBFFBDE878
:101F1000804000F003B800BF601300202DE9FC47AB
:101F2000E946CDE90099FFF7DFFF0646FEF71CF909
:101F300080467648744C824641E078695146301AB2
:101F4000504541D82168A7F1140509B128468847B2
:101F5000D7E90001416079680860C7E9007717F8A0
:101F60000B0C10F0020F04BF00F0FE0007F80B0C82
:101F70000098476038600097C7F80490D7E90210CE
:101F80008847FFF7B1FF6168064609B128468847D0
:101F90000098484513D0D7E900014160796808608E
:101FA000C7E9007717F80B0C00F00301032906D1ED
:101FB00000F0FE0007F80B0C284600F05FF8204602
:101FC00050F80C7F8742B8D14046FEF7D1F8BDE803
:101FD000FC8700BF70B514460E460546FEF7C4F8F0
:101FE000042E18D8DFE806F00306080C110021685B
:101FF000696210E0696A0DE0697A01F0FD0102E0B2
:10200000697A41F00201697205E0697AC9070CBF7B
:10201000002101212160FEF7ABF8002070BD10B552
:102020000446FEF7A1F82246A16952F8143F596010
:10203000A1690B60A261617A01F0FE016172126018
:10204000FEF796F82046FFF751FB002010BD70B553
:1020500015460A460A211C460646FFF761FB05980D
:10206000F56100F0FE00707200203462B0620498E6
:10207000706206F11400C6E9050070BD2DE9F0415B
:102080000446FEF771F82646804656F8140F71682C
:1020900041607168086016F80B0C00F0FE0006F84D
:1020A0000B0C1848C6E90066016809B1204688474C
:1020B000FFF71AFF616A154F012508441249A06213
:1020C000C2430B6901F10C0008E00068984204D09B
:1020D00005686D691544BD42F7D20025ED07F5D1BD
:1020E0008A6801328A6001684E6061610660A061A1
:1020F000607A40F0010060724046FEF739F8002037
:10210000BDE8F0814812002000010020FEFFFF7FA3
:1021100010B50446407AC00704BF4FF0FF3010BD31
:102120000C48016809B120468847FEF71DF854F8AD
:10213000141F62684A606268116014F80B1C01F099
:10214000FE0104F80B1CC4E90044FEF711F800205E
:1021500010BD00BF441200202DE9F04F87B000EB06
:10216000010A002999460746069204914FF0200B78
:10217000B8BF4FF0FF3A05901078252807D0002807
:1021800000F02781574538BF38700137DAE0501C1E
:102190004FF0000809E0042204E0082202E02022B7
:1021A00000E0012248EA0208013001782029F4D039
:1021B0002329F4D010223029F3D02D29F2D02B2955
:1021C000E9D0A1F130020690092A05D806A800F04E
:1021D00034F9064606980EE02A290AD10130069005
:1021E00059F8046BB6F1FF3FDCBF48F010087642A7
:1021F00001E04FF0FF3601782E290AD1411C0691EB
:102200004178A1F13002092A06D806A800F015F994
:1022100008E04FF0FF300BE02A2908D10230069089
:1022200059F8040BB0F1FF3FD8BF002000E00020B8
:10223000069D2B7843F004026C2A05D1691C9C464C
:1022400006916A780D4602E04FF0000C1A46A2F1A2
:102250006F04092C0CD9252A00F07880582A54D014
:10226000692A18BF642A0DD148F002080A234FE0FA
:102270000A23DFE804F0052A71713B714D71714C3E
:10228000082345E0632A67D15FEAC86007D5304676
:1022900008E05745064638BF87F800B00137701E82
:1022A000022EF6DA574509F104013CBFD9F80020A7
:1022B0003A7005E05745A0F1010038BF87F800B03B
:1022C00001370228F6DA89463CE0711C59F8042BE4
:1022D0004FF01003B1FA81F108BF08264909CDE992
:1022E0000060384641EA0801C9B226E059F8041BEB
:1022F00041A20023002908BF114600E001339E429D
:1023000038D0CA5C002AF9D135E048F040081023E3
:10231000BCF16C0F02D159F8042B09E059F8042BD9
:10232000BCF1680F04D15FEA88714CBF12B292B25F
:102330005FFA88F1CDE90060384602915146FEF718
:10234000DDFD07460698421C069215E75745BFF487
:102350001CAF2520387018E7574503D22520387068
:10236000069D2A78781C8AB3504507F1020738BFCA
:102370000270E7E7334683421A46C8BF0246002888
:10238000D8BF1A465FEAC86007D5304608E057450F
:10239000064638BF87F800B00137701EB242F6DB40
:1023A000002604E053453CBF8D5D1D700136BB190E
:1023B0009642F7DB06E05345A0F1010038BF83F8F1
:1023C00000B001338242F6DB1F46BBE7691E06916F
:1023D000B7E70498059A0028B8BFD04338B15745ED
:1023E00038464FF0000128BFAAF101000170B81A69
:1023F00007B0BDE8F08F00BF284E554C4C290000B7
:102400000020704700207047002070470020704770
:1024100080B5FDF7A9FEFEF7EBFEFFF7B9FAFFF76F
:10242000ADFBFFF77FFBFEF721FEFFF7AFFBFFF7EA
:1024300033FCFFF791FB002080BD02680021137878
:10244000303B092B84BF08467047531C01EB8101C8
:102450000360127802EB41011A463039EFE702E0DF
:1024600008C8121F08C1002AFAD17047704700201F
:1024700001E001C1121F002AFBD1704700000000DB
:102480000000000001020304060708090000010023
:10249000020001000300010002000100040001002D
:1024A000020001000300010002000100050001001C
:1024B000020001000300010002000100040001000D
:1024C00002000100030001000200010006000100FB
:1024D00002000100030001000200010004000100ED
:1024E00002000100030001000200010005000100DC
:1024F00002000100030001000200010004000100CD
:1025000002000100030001000200010007000100B9
:1025100002000100030001000200010004000100AC
:10252000020001000300010002000100050001009B
:10253000020001000300010002000100040001008C
:10254000020001000300010002000100060001007A
:10255000020001000300010002000100040001006C
:10256000020001000300010002000100050001005B
:10257000020001000300010002000100040001004C
:1025800002000100030001000200010068617264A2
:10259000206661756C74206F6E2068616E646C6576
:1025A000720D0A0D0A0068617264206661756C74B0
:1025B000206F6E207468726561643A2025730D0A7D
:1025C0000D0A007230303A203078253038780A0011
:1025D0007230313A203078253038780A0072303243
:1025E0003A203078253038780A007230333A20307B
:1025F00078253038780A007230343A203078253027
:1026000038780A007073723A203078253038780AAA
:10261000000000000D240008052400080124000823
:102620000924000850260008000000205000000087
:102630005E240008A02600085000002018170000A3
:102640006E240008000000000000000000000000F0
:102650000100000010000000000000000024F40051
:102660000100000014000020140000207800000089
:1026700002000000240000202400002020000000B0
:10268000050000003400002034000020300000006D
:102690000A00000044000020440000202C0000003C
:0400000508000131BD
:00000001FF
